:020000022000DC
:1060000000000420C1170300011803000318030057
:10601000051803000718030009180300000000001A
:106020000000000000000000000000003D17030019
:106030000D180300000000005D1703001118030095
:10604000511A03001318030013180300857B020084
:106050001318030013180300131803001318030088
:106060001318030013180300131803001318030078
:106070001318030013180300131803001318030068
:1060800013180300C91403001318030013180300A6
:106090001318030013180300BDAE02001318030009
:1060A0001318030013180300131803001318030038
:1060B0001318030013180300000000000000000084
:1060C00013180300131803001318030049A3030057
:1060D00013180300131803001318030011F1020032
:1060E0001318030013180300131803000000000026
:1060F000000000001318030000000000C1A303000B
:10610000000000000000000000000000000000008F
:10611000000000000000000000000000000000007F
:10612000000000000000000000000000000000006F
:10613000000000000000000000000000000000005F
:10614000000000000000000000000000000000004F
:10615000000000000000000000000000000000003F
:10616000000000000000000000000000000000002F
:10617000000000000000000000000000000000001F
:10618000000000000000000000000000000000000F
:1061900000000000000000000000000000000000FF
:1061A00000000000000000000000000000000000EF
:1061B00000000000000000000000000000000000DF
:1061C00000000000000000000000000000000000CF
:1061D00000000000000000000000000000000000BF
:1061E00000000000000000000000000000000000AF
:1061F000000000000000000000000000000000009F
:10620000F1EE103A43F08073E1EE103A704700BFB0
:1062100010B5054C237833B9044B13B10448AFF3E0
:1062200000800123237010BDC86200200000000020
:10623000C0EE030008B5034B1BB103490348AFF39D
:10624000008008BD00000000CC620020C0EE03000A
:10625000154B002B08BF134B9D46A3F5803A002138
:106260008B460F461348144A121A15F034F90F4B97
:10627000002B00D098470E4B002B00D098470020F1
:10628000002104000D000D48002802D00C48AFF397
:10629000008015F0B9F8200029000BF0DFFA15F0A6
:1062A0008DF800BF0000080000000420000000007E
:1062B00000000000C862002084920020000000005E
:1062C000000000002DE9F047534E0023C6E90033DB
:1062D000C6E90233336100295CD001F1FF381FFAAF
:1062E00088F804460F461D46412B04D0472B02D0A8
:1062F0004D2B40F083800F2D10D152E023682046B3
:106300005B699847C0B2212814BF2B46002305F1D2
:106310000102F05414BF95B20125B8462368204607
:10632000DB6A98470028E9D1B8F1000F52D001206C
:1063300008F058FF08F1FF38132D1FFA88F830D8FD
:106340007378D1E735483649334EDFF8DC90DFF813
:10635000DC80044606F09EFA05F1010A0027494652
:10636000204606F085FA16F8013B0F2B41462046E1
:106370004FF0100233D806F07BFA16F8011C1022F9
:1063800001F00F01204606F0CBFABD422CD1234884
:1063900006F062FB0020BDE8F087432B38D1062DC4
:1063A000BCD10023735531782129F3D1681E345CA8
:1063B00010B300231A4600E0F15C0133DBB20A445B
:1063C0009842D2B2F8DCD343DBB29C42BAD1E8B2F5
:1063D000BDE8F08706F80580002DDBD0E3E719461D
:1063E00006F09EFABD42D2D00E490137204606F093
:1063F0003FFABA45B3D8CAE7FF23E6E7512B02D1EB
:10640000132D8BD1CDE7422BC7D1052D86D1C8E7FF
:106410004C2B3FF470AF81E7E46200202C69002030
:106420004CE10300B0E10300A0E2030058EA0300DE
:10643000F8B560304FF4FA71FFF744FF98B1C44CDF
:106440006378432B51D0422B71D04C2B00F08D80C0
:10645000412B00F0C7804D2B00F0F880472B00F057
:106460002981512B00D0F8BDD4F80270B949BA483F
:10647000D4F80660D4F80A50D4F80E4006F00AFAB0
:10648000384614F0E3FB41EC100B0221B24806F051
:10649000B5FA0921B04806F00FFA304614F0D6FBE1
:1064A00041EC100B0221AC4806F0A8FA0921AA48D9
:1064B00006F002FA284614F0C9FB41EC100B022149
:1064C000A54806F09BFA0921A34806F0F5F92046F5
:1064D00014F0BCFB41EC100B02219F4806F08EFA31
:1064E0009D48BDE8F84006F0B7BAA7789B499A489E
:1064F000E678257906F0CEF90F2F40F24C81394627
:106500001022954806F0DCF90F2E40F23F8131460B
:106510001022914806F0D4F90F2D40F2148129463B
:1065200010228D4806F0B8FA6378422B8DD1A578F9
:10653000E6788B498848303DEDB206F0ABF9294644
:106540000A22854806F0BCF9302E14BF85498649D9
:106550008148053D06F088FA032D00F2E380DFE86C
:1065600015F0E800E300ED00DE008049D4F8027089
:106570007948D4F80660D4F80A5006F08BF97C49C3
:10658000754806F087F9384614F060FB41EC100BB3
:106590000421714806F032FA09216F4806F08CF99F
:1065A00074496D4806F076F9304614F04FFB41EC23
:1065B000100B0421684806F021FA0921664806F00C
:1065C0007BF9284614F042FB41EC100B0421624891
:1065D00006F014FA6849604806F046FA6378412BE1
:1065E0007FF439AFD4F8027064495B48D4F8066090
:1065F000D4F80A5006F04EF9384614F027FB41EC67
:10660000100B0221544806F0F9F90921524806F00E
:1066100053F9304614F01AFB41EC100B02214E489E
:1066200006F0ECF909214C4806F046F9284614F02A
:106630000DFB41EC100B0221474806F0DFF94648FC
:1066400006F00AFA63784D2B7FF408AFD4F8027095
:106650004B494148D4F80660D4F80A5006F01AF9BC
:10666000384614F0F3FA41EC100B02213A4806F0D8
:10667000C5F90921384806F01FF9304614F0E6FA4A
:1066800041EC100B0221344806F0B8F909213248D8
:1066900006F012F9284614F0D9FA41EC100B022149
:1066A0002D4806F0ABF92C4806F0D6F96378472B55
:1066B0007FF4D7AED4F8027032492748D4F8066088
:1066C000D4F80A5006F0E6F8384614F0BFFA41EC68
:1066D000100B0221204806F091F909211E4806F00E
:1066E000EBF8304614F0B2FA41EC100B02211A48D4
:1066F00006F084F90921184806F0DEF8284614F05F
:10670000A5FA41EC100B0221134806F077F9124864
:1067100006F0A2F96378512B7FF4A5AEA4E6092018
:1067200000F07EFA637890E6062000F079FA63784C
:106730008BE6002000F074FA637886E6022000F011
:106740006FFA637881E61049034806F0A3F8E6E69D
:10675000E4620020D4E103002C6900206CE1030016
:1067600074E103007CE1030088E1030094E103008D
:10677000A4E10300ACE10300B4E10300BCE10300C9
:10678000C4E10300CCE1030058EA030004490548D2
:1067900006F080F8BBE60249024806F07BF8AEE658
:1067A00058EA03002C690020F8B5294C294F2A49E2
:1067B0000646204606F058F900223846012104F02A
:1067C00043F90421384604F0E5FA304604F0C0FCF1
:1067D00060362249204606F047F9304607F5007535
:1067E00005F0B4F820461E4906F03EF90621284679
:1067F00002F076FD284602F05BFD3146284602F0A5
:1068000019FD07F50F7002F025FD2846012102F061
:106810009BFDF4222846202102F092FD28461E21ED
:1068200002F08CFD2846002102F0EAFD20460D49C9
:1068300006F01AF920460C4906F0F6F820460B49F6
:1068400006F0F2F82046BDE8F84006F005B900BFB2
:106850002C690020C0650020DCE10300E8E10300B2
:10686000F8E1030008E2030018E203005CE2030021
:1068700070B500F1240604460B4D05F0ADFF30461F
:1068800002F018F94FF0FF33C4F88C302A46204646
:106890001C2105F0A9FF30462A4600236A2102F098
:1068A00063F8204670BD00BFEC640020F0B52DED0C
:1068B000048B9FED308A9DB00646F0EE488AB0EE1C
:1068C000489A0F4600F12405322413AB0AAA01A905
:1068D000284602F08FF8DDED0F6A9DED107ADDEDB0
:1068E000117A013C39EE269A78EE878A38EE278AAB
:1068F000EBD1DFED217A29EE279A68EEA78A28EE00
:10690000278A86ED209AC6ED218A86ED228A6FB30A
:106910001A491B4806F0A8F81A49194805F0BAFFA9
:10692000D6F8800014F092F941EC100B02211448C3
:1069300006F064F81449124805F0ACFFD6F884005C
:1069400014F084F941EC100B02210D4806F056F8C2
:106950000E490B4805F09EFFD6F8880014F076F932
:1069600041EC100B0221064806F048F81DB0BDECC2
:10697000048BF0BD000000000AD7A33CC8E103006F
:106980002C690020A4E20300B4E20300BCE203008F
:1069900070B52DED048B9FED4C8A8CB00546B0EEA2
:1069A000489AF0EE488A322403A9284605F09EFD55
:1069B000F8EEE88AB8EEC99AB8EEC88ADDED086A42
:1069C0009DED097ADDED0A7A78EEA68A39EE079A0E
:1069D00038EE278A013CFDEEE88ABDEEC99ABDEE8D
:1069E000C88AE1D139489FED3A5ADFED3A5A9FED16
:1069F0003A6A18EE903A80FB033618EE903ADA17AE
:106A000019EE103A80FB033418EE103A80FB033085
:106A100019EE103AD917C2EB261307EE103A18EE0A
:106A2000103ADB17C1EB2412C3EB201306EE902AB9
:106A300007EE903AB8EEC77AF8EEE66AF8EEE77A33
:106A400037EE457A76EEA56A77EEC67ABDEEC77A5E
:106A5000FDEEE77AFDEEE66A85ED1C7AC5ED1E7A5D
:106A600017EE900AC5ED1D6A17EE104A14F0DCF817
:106A7000CDE90001204614F0D7F89DED001B41EC54
:106A8000100B13F0E3FC0EA3D3E9002351EC100B21
:106A900014F034F914F0F4FB07EE900AF5EEC07A26
:106AA000F1EE10FA44BF9FED0D7A77EE877AFDEE96
:106AB000E77AC5ED1F7A0CB0BDEC048B70BD00BF4A
:106AC00099403F9EDDA54C40000000001F85EB5122
:106AD0000000FC41E17A664200006D420000B443D0
:106AE0002DE9F84F8246FFF753FF08F06FFBDAF805
:106AF00090309FED3F7AC01A07EE900AF8EE677A61
:106B0000F4EEC77AF1EE10FA56DADAF89430DAF8E1
:106B10007C40DAED217AE41AF0EEE77A002C17EEE9
:106B2000900AB8BF644214F091F829A3D3E9002376
:106B300014F06AFBE0B3092C38DD01238AF89830A1
:106B400008F044FB0FF29009D9E9008924A7D7E99E
:106B50000067DFF8A0B06FF004050024DAF87C00CD
:106B6000001B0028B8BF4042C0F11E0014F05CF8C2
:106B7000032D42464B4625D914F0C0F832463B4619
:106B800013F006FF14F054FB1E3420EAE0715BF8AA
:106B9000040B0BF08DFBB4F5B47F05F10105DDD1DD
:106BA00008F014FBDAF87C30CAE92403BDE8F88F5A
:106BB000132CC2DCBDE8F88F00F0B8FC00238AF883
:106BC0009830A2E708A3D3E90023D5E7AFF300800C
:106BD0009A9999999999C93F555555555555FD3FDC
:106BE0000000000000C05F40ABAAAAAAAAAA0A40FF
:106BF00000004843C4E2030070B5084C04F13006BD
:106C000054F8045B012128460BF0AAFC2846002119
:106C10000BF0E6FCB442F3D170BD00BFF4E2030018
:106C20002DE9F04F89B008AB18440023CDE90533B6
:106C30000122079300F80C2C9DF814B0BBF1000F53
:106C400040F021849DF815A0BAF1000F40F0258492
:106C50009DF81690B9F1000F40F029849DF8178037
:106C6000B8F1000F40F02D849DF81870002F40F00F
:106C700031849DF81960002E40F035849DF81A503B
:106C8000002D40F039849DF81B300093002B40F01C
:106C90003D849DF81C300193002B40F041849DF809
:106CA0001D300293002B40F0E9839DF81E300393C2
:106CB000002B40F0D5839DF81F40002C40F0D98375
:106CC000642008F08FFABBF1000F40F07A81BAF12E
:106CD000000F40F08782B9F1000F40F07A82B8F1DE
:106CE000000F40F06E82002F40F06382002E40F0D3
:106CF0002D82002D40F03182009B002B40F0358228
:106D0000019B002B40F03982029B002B40F03D821A
:106D1000039B002B40F04182002C40F045825A201A
:106D200008F060FABBF1000F40F04281BAF1000FA9
:106D300040F0D182B9F1000F40F0C482B8F1000FE9
:106D400040F0B882002F40F0AD82002E40F0F0827B
:106D5000002D40F0F482009B002B40F0F882019B54
:106D6000002B40F0FC82029B002B40F00083039B31
:106D7000002B40F0DF81002C40F0E381642008F01C
:106D800031FABBF1000F40F00A81BAF1000F40F078
:106D90005E83B9F1000F40F05183B8F1000F40F06D
:106DA0004583002F40F03A83002E40F01383002DDE
:106DB00040F01783009B002B40F01B83019B002BAE
:106DC00040F01F83029B002B40F02383039B002B8A
:106DD00040F0D282002C40F0D6825A2008F002FA0D
:106DE000BBF1000F40F0D280BAF1000F40F0E98211
:106DF000B9F1000F40F0DC82B8F1000F40F0D08212
:106E0000002F40F0C582002E40F02A81002D40F076
:106E10002E81009B002B40F03281019B002B40F023
:106E20003681029B002B40F03A81039B002B40F0FF
:106E30000B81002C40F00F81642008F0D3F9BBF1E6
:106E4000000F40F09A80BAF1000F40F06A81B9F16A
:106E5000000F40F05D81B8F1000F40F05181002F2C
:106E600040F04681002E40F01F81002D40F023812C
:106E7000009B002B40F02781019B002B40F02B81D1
:106E8000029B002B40F02F81039B002B40F0A2803F
:106E9000002C40F0A6805A2008F0A4F9BBF1000FA6
:106EA00063D1BAF1000F40F0BA80B9F1000F40F0A1
:106EB000AD80B8F1000F40F0A180002F40F0968027
:106EC000002E40F01182002D40F01582009B002B17
:106ED00040F01982019B002B40F01D82029B002B89
:106EE00040F02182039B002B40F0A280002C40F058
:106EF000A680642008F076F9BBF1000F2DD1BAF11D
:106F0000000F40F0C681B9F1000F40F0B981B8F12F
:106F1000000F40F0AD81002F40F0A281002E40F024
:106F20007B81002D40F07F81009B002B40F083810E
:106F3000019B002B40F08781029B002B40F08B814E
:106F4000039B002B40F05781002C40F05B815A20BE
:106F500009B0BDE8F04F08F045B900210C200BF056
:106F6000A7F9BAF1000FCED093E1FF210C200BF06E
:106F70009FF9BAF1000F98D051E000210C200BF0DE
:106F800097F9BAF1000F3FF462AFCAE0FF210C207D
:106F90000BF08EF9BAF1000F3FF42AAF11E2002195
:106FA0000C200BF085F9BAF1000F3FF4F2AE4EE27F
:106FB000FF210C200BF07CF9BAF1000F3FF4BAAEC0
:106FC00089E100210C200BF073F9BAF1000F3FF4B6
:106FD00082AE07E100210A200BF06AF9002C3FF491
:106FE0005AAF00210B200BF063F954E7FF21112069
:106FF0000BF05EF9002E3FF466AF75E1FF21102023
:107000000BF056F9002F3FF45BAFEFE7FF210F20A5
:107010000BF04EF9B8F1000F3FF44FAFEEE7FF2150
:107020000E200BF045F9B9F1000F3FF442AFEDE748
:10703000FF210A200BF03CF9002C3FF45AAFFF214E
:107040000B200BF035F954E7FF210A200BF030F943
:10705000002C3FF4F1AEFF210B200BF029F9EBE6F9
:10706000FF2112200BF024F9002D3FF4D2AEFF21B6
:1070700013200BF01DF9009B002B3FF4CEAEFF2137
:1070800005200BF015F9019B002B3FF4CAAEFF2140
:1070900006200BF00DF9029B002B3FF4C6AEFF213A
:1070A00009200BF005F9C0E6002112200BF000F9D1
:1070B000002D3FF4DDAE002113200BF0F9F8009B0A
:1070C000002B3FF4D9AE002105200BF0F1F8019B15
:1070D000002B3FF4D5AE002106200BF0E9F8029B0F
:1070E000002B3FF4D1AE002109200BF0E1F8CBE6F4
:1070F000002111200BF0DCF8002E3FF4B6AED3E7F0
:10710000002110200BF0D4F8002F3FF4ABAEEFE7D6
:1071100000210F200BF0CCF8B8F1000F3FF49FAE28
:10712000EEE700210E200BF0C3F8B9F1000F3FF499
:1071300092AEEDE7FF210A200BF0BAF8002C3FF4E5
:107140001DAEFF210B200BF0B3F817E60021122033
:107150000BF0AEF8002D3FF4CFAD002113200BF063
:10716000A7F8009B002B3FF4CBAD002105200BF0CE
:107170009FF8019B002B3FF4C7AD002106200BF0C8
:1071800097F8029B002B3FF4C3AD002109200BF0C0
:107190008FF8039B002B3FF4BFAD00210A200BF0BA
:1071A00087F8002C3FF4BBAD00210B200BF080F8DA
:1071B000B5E5002111200BF07BF8002E3FF499ADCE
:1071C000C4E7002110200BF073F8002F3FF48EADC0
:1071D000EFE700210F200BF06BF8B8F1000F3FF440
:1071E00082ADEEE700210E200BF062F8B9F1000F3E
:1071F0003FF475ADEDE700210A200BF059F8002CA3
:107200003FF4A5AE00210B200BF052F85A2009B034
:10721000BDE8F04F07F0E6BF002112200BF048F860
:10722000002D3FF481AE002113200BF041F8009BAC
:10723000002B3FF47DAE002105200BF039F8019BB7
:10724000002B3FF479AE002106200BF031F8029BB1
:10725000002B3FF475AE002109200BF029F86FE6F2
:10726000002111200BF024F8002E3FF45AAED3E792
:10727000002110200BF01CF8002F3FF44FAEEFE779
:1072800000210F200BF014F8B8F1000F3FF443AECB
:10729000EEE700210E200BF00BF8B9F1000F3FF4E0
:1072A00036AEEDE7FF2111200BF002F8002E3FF47F
:1072B0004FAD3DE0FF2110200AF0FAFF002F3FF410
:1072C00044ADEFE7FF210F200AF0F2FFB8F1000F05
:1072D0003FF438ADEEE7FF210E200AF0E9FFB9F1E7
:1072E000000F3FF42BADEDE7FF2112200AF0E0FF85
:1072F000002D3FF4EBADFF2113200AF0D9FF009BD6
:10730000002B3FF4E7ADFF2105200AF0D1FF019BE0
:10731000002B3FF4E3ADFF2106200AF0C9FF029BDA
:10732000002B3FF4DFADFF2109200AF0C1FFD9E5B2
:10733000FF2112200AF0BCFF002D3FF40CADFF210D
:1073400013200AF0B5FF009B002B3FF408ADFF218E
:1073500005200AF0ADFF019B002B3FF404ADFF2197
:1073600006200AF0A5FF029B002B3FF400ADFF2191
:1073700009200AF09DFFFAE400210A200AF098FF94
:10738000002C3FF42AAD00210B200AF091FF24E5E8
:10739000FF2111200AF08CFF002E3FF437AD5FE68D
:1073A000FF2110200AF084FF002F3FF42CADEFE7FF
:1073B000FF210F200AF07CFFB8F1000F3FF420AD51
:1073C000EEE7FF210E200AF073FFB9F1000F3FF442
:1073D00013ADEDE7002112200AF06AFF002D3FF403
:1073E000E9AC002113200AF063FF009B002B3FF45F
:1073F000E5AC002105200AF05BFF019B002B3FF468
:10740000E1AC002106200AF053FF029B002B3FF461
:10741000DDAC002109200AF04BFFD7E40021112048
:107420000AF046FF002E3FF4C2ACD3E70021102043
:107430000AF03EFF002F3FF4B7ACEFE700210F202A
:107440000AF036FFB8F1000F3FF4ABACEEE70021D5
:107450000E200AF02DFFB9F1000F3FF49EACEDE7CE
:10746000FF210A200AF024FF9DF81F40002C3FF462
:1074700027ACFF210B200AF01BFF21E4FF2109208C
:107480000AF016FF11E4FF210C200AF011FF9DF80D
:1074900015A0BAF1000F3FF4DBABFF210E200AF07C
:1074A00007FF9DF81690B9F1000F3FF4D7ABFF210D
:1074B0000F200AF0FDFE9DF81780B8F1000F3FF491
:1074C000D3ABFF2110200AF0F3FE9DF81870002FB7
:1074D0003FF4CFABFF2111200AF0EAFE9DF81960BE
:1074E000002E3FF4CBABFF2112200AF0E1FE9DF805
:1074F0001A50002D3FF4C7ABFF2113200AF0D8FE2D
:107500009DF81B300093002B3FF4C3ABFF210520F7
:107510000AF0CEFE9DF81C300193002B3FF4BFAB68
:10752000FF2106200AF0C4FEFFF7B9BB38B5054CB1
:1075300004F1300554F8040B00210AF0B9FEAC4206
:10754000F8D138BDF4E2030010B5044B044640F80E
:10755000243F00F097FB204610BD00BFECE3030082
:1075600030B5424D424CA9B028464FF4E13105F008
:1075700017FC4049284605F077FAFFF73DFB01A8C4
:10758000FFF776F93C4B069D5D61079D9D61089D67
:10759000DD61099D9DF808001D620B9D18719D62BB
:1075A000DDF80A000C9D0499059AC3F80600DD6217
:1075B000BDF80E000D9D5881D9600F9810991A6181
:1075C0001D63119ABDF838509D869863D9631A647B
:1075D000129A149D5A64DD64159A169D1A655D65AC
:1075E000BDF85C20189DA3F85820DD65199A1A9DF6
:1075F0001A665D661B9A1C9D13999A66DD661D9A34
:107600001E9D996428A821991A675D671F9A209D7D
:107610009A67C3F88010194ADD67229D239940F8C4
:10762000782DC3F88450249A259DC3F88810269994
:10763000C3F88C209DF89C2083F89820C3E924513E
:1076400000F020FB002114200AF08AFF204601F000
:1076500097FA0521204601F083FD204601F0A2FAA9
:107660000748FFF7A1F829B030BD00BF2C69002002
:10767000D464002024E3030038640020ECE303001A
:10768000FC62002000000000D0B5142082B00AF097
:107690009BFE13F0C9FA23A3D3E9002313F02EFBBA
:1076A00013F0EEFD13F0D2FA20A3D3E9002306462F
:1076B0000F4613F09FFD38BB0446394630461DA3E4
:1076C000D3E9002313F096FDB0B9009002460146BD
:1076D000B423114801F01EFD0F4801F063FA0F4872
:1076E000FFF7FEF900210D48FFF7E0F80C4802B063
:1076F000BDE8D040FEF79CBE0094214678231E22B0
:10770000054801F007FDE7E70023009319467822BA
:10771000014801F0FFFCDFE7D4640020386400205A
:10772000FC6200206D1AD0A6016D7A3F33333333EB
:1077300033330B406666666666660E4070B5154C60
:10774000154D164E522320460822012101F0DAF988
:107750002A461349204612F073FE304603F0D4FC4B
:10776000104C06F160004FF4807103F0F7FD2A46DB
:107770000D49304612F064FE204605F02DF804F164
:10778000240001F097F92A4620460849BDE87040D8
:1077900012F056BED464002000600020FC6200207D
:1077A000658B020038640020B17702004975020041
:1077B00010B50446603004F095F82046034B40F8BD
:1077C000103B01F0FDFE204610BD00BF24E5030084
:1077D00000207047704700BF203005F0C1B900BFDE
:1077E000203005F0AFB900BF203005F0BFB900BFB1
:1077F00038B5437F0BB9002038BD00F1680420463E
:107800000D4605F0BBF90028F5D12046294605F0C4
:1078100087F9012038BD00BF2DE9F0475AB306466D
:10782000DFF8588033681B684D1E434517464FF0FC
:10783000000400F1680915F801AF16D1737F13B980
:107840002046BDE8F087484605F098F90028F7D1B2
:107850005146484605F064F90134A742F0D0336838
:1078600015F801AF1B684345E8D0514630469847AC
:107870000028F1D1E4E71446E2E700BFF177020007
:1078800010B4837E1F2B4FF0010288BF03F01F034B
:10789000C27603F5E0738CBF284A4FF0A04240F255
:1078A0000C6142F82310437E1F2B86BF03F01F0399
:1078B000224A4FF0A04203F5E07340F20C6142F817
:1078C000231003694FF0CC72C3F824250369062204
:1078D000C3F800250369827EC3F808250369427E48
:1078E000C3F80C2590F91830002B14DA144A03F071
:1078F0000F031A446023137690F91830002B07DB2E
:10790000104903F01F0001225B09824041F8232047
:107910005DF8044B70475909603103F01F030124DF
:10792000084A04FA03F342F8213090F91830002B8A
:10793000DCDB1344602283F80023DDE70003005002
:10794000FCEC00E000E100E00AB9104670472DE9C8
:10795000F041054600F12008404614461E460F46F9
:1079600005F0ECF82B69C3F888752A6901231362C6
:107970002A69C2F834852A69C2F838452A69136031
:107980002A6902E0D2F824311BB9D2F84C1100293F
:10799000F8D00023C2F84C312A6902E0D2F8241151
:1079A00019B9D2F85C110029F8D00023C2F85C3173
:1079B0002B696EB9D3F8242152B90122DA612A6900
:1079C000D2F84831002BFBD00023C2F8483109E03F
:1079D00001225A612A69D2F80431002BFBD000231E
:1079E000C2F804312B69D3F824211AB10022C3F85C
:1079F00024212B69D3F83C052866C0B2BDE8F0818C
:107A000010B50446683084F8B01005F097F80123EB
:107A1000637710BDF8B504460020236994F8B020C0
:107A20006077C3F88825236901271F62236904F161
:107A30006806C3F8446530460D4605F091F82369A1
:107A4000C3F8480523699F60236902E0D3F8242125
:107A50001AB9D3F85021002AF8D00022C3F85021D7
:107A6000304605F07DF8236940BB0022C3F8602151
:107A7000236915B9D3F824212AB301225A61226956
:107A8000D2F80431002BFBD00023C2F80431236963
:107A9000D3F8240168B10022C3F824212369D3F864
:107AA000C404C3F8C404022803D0042814BF04206B
:107AB0000320F8BDD3F82421002AD6D1D3F86021C1
:107AC000002AF7D0D1E70122DA612269D2F84831E1
:107AD000002BFBD00023C2F84831D8E770B503690A
:107AE00090F8B02000214177C3F88825036901266A
:107AF0001E62036900F168050446C3F84455284630
:107B000005F02EF82369C3F8480523699E602369B0
:107B100002E0D3F824211AB9D3F85021002AF8D072
:107B20000022C3F85021284605F01AF8236918BB33
:107B30000022C3F86021236901225A612269D2F828
:107B40000431002BFBD00021C2F804112369D3F8C3
:107B5000240160B1C3F824112369D3F8C404C3F825
:107B6000C404022803D0042814BF0420032070BDDD
:107B7000D3F82421002ADBD1D3F86021002AF7D0E2
:107B8000D6E700BF70B5294C6369D3F86421002A99
:107B90003AD1D3F86821E2B9D3F8042162B1227F47
:107BA0000021C3F804113AB1D4F8B820D3F83C0549
:107BB00020660AB190476369D3F8242142B10022BC
:107BC000C3F82421D3F8D024C3F8D02401225A6169
:107BD00070BD0022C3F8682115482277012363771E
:107BE00004F0ACFFD4F8B43003B19847636910488F
:107BF000C3F844050023637704F0B2FF63690122F0
:107C0000C3F848055A63C7E7002204F12006C3F809
:107C1000642101253046257704F090FF63694022F6
:107C2000C3F83465C3F838251D63B2E7EC6400205F
:107C30005465002038B50E4C0E4A20464FF47A7336
:107C400040F8202B0025C4E9015304F05FFF04F144
:107C5000680004F05BFF084A084B6577D2E916120A
:107C6000032020766176A276C4E9043338BD00BFD4
:107C7000EC64002038E3030070E6030000300040AD
:107C8000704700BF10B50446006C044B236010B170
:107C900003685B689847204610BD00BF80E303007F
:107CA000704700BF704700BF704700BF10B5044663
:107CB000006C054B236010B103685B689847204651
:107CC00009F01EFE204610BD80E3030010B50446F7
:107CD00009F016FE204610BD10B5044609F010FE4E
:107CE000204610BD10B5044609F00AFE204610BD1E
:107CF00038B5282205460846002113F0ECFB0B227C
:107D000009490A4C14F0D3FA01210022C160C27261
:107D10000346AD68064807491D6104255A625D6146
:107D2000DC619861196238BD54E30300D7A30BC22C
:107D3000D7A30B426422A03870B528220646084615
:107D4000002113F0C8FB0B2209490A4D0A4C14F01C
:107D5000AEFA002201210346C272C160B068186108
:107D6000064859615A62DD619C61186270BD00BFAE
:107D70006CE303000AE81CC30AE81C4323DB793DDB
:107D800038B5282205460846002113F0A4FB0B2233
:107D90000A490B4C14F08BFA01210022C160C27217
:107DA0000346A968074819610D254FF07E515A62B4
:107DB0005D61DC619861196238BD00BF60E303005A
:107DC000000020C20000AA422DE9F0418CB010272B
:107DD000002501260446D0E90E122B4606A803967C
:107DE000CDE9016500970BF09BFE04231A4606A916
:107DF0000DEB07000BF070FF0DEB070004210BF0FB
:107E0000F5FFD4E90E122B46CDE90256CDE90076F6
:107E100006A80BF085FE02231A4606A90DEB070003
:107E20000BF05AFF02210DEB07000BF0DFFF4FF0C4
:107E30001108142007F0D6F9D4E90E122B46039648
:107E4000CDE9016506A8CDF800800BF069FE04239A
:107E50001A4606A90DEB07000BF03EFF0DEB0700DD
:107E600004210BF0C3FFD4E90E122B46CDF800809D
:107E7000CDE90256019606A80BF052FE2B460422CD
:107E800006A90DEB07000BF027FF0C210DEB0700F7
:107E90000BF0ACFF142007F0A5F90A2007F0A2F9B7
:107EA000384609F01DFD03461049C4604FF4DA62FC
:107EB000206419609A60384609F012FD03460C49A7
:107EC000606440F2D162DC6019609A60384609F063
:107ED00007FD0849C460034640F2D262A064284608
:107EE00019609A600CB0BDE8F08100BFB4E30300F4
:107EF000D0E3030098E303002DE9F0434FF0200C9A
:107F000097B0002501260E270446D0E90E122B4615
:107F1000CDE900C70AA8CDE902560BF001FE3A46AA
:107F200006A90AA80BF08AFE9DF819309DF81800E2
:107F300040EA032000B2608112F076FE0022754B09
:107F400012F0DCFE0022744B12F022FD13F098F9BF
:107F50009DF81BE09DF81AC09DF81C309DF81D90FF
:107F600060614CEA0E2CA4F80CC09DF823E09DF84B
:107F70001E209DF825C09DF81F109DF821809DF8BA
:107F800020709DF8220043EA09299DF82430A4F8C6
:107F90000E9040EA0E2042EA012143EA0C2347EA10
:107FA00008274FF0110CE26B2182A16B0396E08051
:107FB0002381A7802B46CDF800C010A8CDE901652C
:107FC0000BF0AEFD2B4610A9042204A80BF084FE92
:107FD00004A80BF089FEC0B2B04277D00C2870D153
:107FE0009FED4E6AB4F90C30DFED4D5A06EE903A33
:107FF000B4F90E3007EE103AB4F9103007EE903AAB
:10800000F8EEE66AB8EEC77AF8EEE77A66EEA56AA9
:1080100027EE257A67EEA57A66EE866A27EE067A5F
:1080200067EE867A012000231025D4E90E12C4EDF4
:10803000096A84ED0A7AC4ED0B7ACDE90103039055
:10804000009510A80BF06CFD022310A91A460DEB49
:1080500005000BF041FE0DEB05000BF045FEC0B234
:10806000012839D0032834D0022838D19FED2D6A59
:10807000B4F90430DFED2C5A06EE903AB4F906302C
:1080800007EE103AB4F9083007EE903AF8EEE66AD7
:10809000B8EEC77AF8EEE77A66EEA56A27EE257A9B
:1080A00067EEA57A66EE866A27EE067A67EE867A2E
:1080B000C4ED066A84ED077AC4ED087A17B0BDE80E
:1080C000F083082814D19FED196A8BE79FED186A99
:1080D00088E79FED186ACBE79FED176AC8E79FED29
:1080E000176A0028F7EE007A18BFB0EE676ABFE79C
:1080F000042802D19FED126A74E710B99FED116A4E
:1081000070E7DFED117A0228B7EE006A08BFB0EE23
:10811000676A67E70000703F0000394000008C424A
:10812000A968923723DBF93D13AC203C00000C42D8
:1081300000000C4323DB793E23DBF93E23DB793D52
:1081400000008C4100000C4100008C402DE9F04300
:10815000C468964A23689B68934297B006460D46CA
:1081600040F005814FF0200C00274FF001084FF040
:108170000E09D4E90E123B46CDE900C90AA8CDE9A3
:1081800002780BF0CDFC4A4606A90AA80BF056FD72
:108190009DF819309DF8180040EA032000B2608174
:1081A00012F042FD0022824B12F0A8FD0022814B0A
:1081B00012F0EEFB13F064F89DF81B209DF81A30C6
:1081C000606143EA0223A3819DF81D009DF81C30E5
:1081D00043EA0023E3819DF81F009DF81E3043EA27
:1081E000002323829DF821009DF8203043EA0023DC
:1081F000A3809DF823009DF8223043EA0023E3800A
:108200009DF825009DF824304FF0110C43EA00231F
:10821000D4E90E12238110A8CDF800C03B46CDE969
:108220000278CDF804800BF07BFC3B4610A90422B9
:1082300004A80BF051FD04A80BF056FDC0B2404558
:1082400000F08C800C2840F084809FED5B6AB4F9CC
:108250000C30DFED5A5A06EE903AB4F90E3007EEC4
:10826000103AB4F9103007EE903AF8EEE66AB8EE3C
:10827000C77AF8EEE77A66EEA56A27EE257A67EE0A
:10828000A57A66EE866A27EE067A67EE867A012080
:1082900000231027D4E90E12C4ED096A84ED0A7A8E
:1082A000C4ED0B7ACDE901030390009710A80BF001
:1082B00037FC022310A91A460DEB07000BF00CFD4A
:1082C0000DEB07000BF010FDC0B201284CD00328C5
:1082D00047D002284ED19FED3A6AB4F90430DFED61
:1082E000395A06EE903AB4F9063007EE103AB4F96E
:1082F000083007EE903AF8EEE66AB8EEC77AF8EE84
:10830000E77A66EEA56A27EE257A67EEA57A66EE2D
:10831000866A27EE067A67EE867AC4ED066A84EDF1
:10832000077AC4ED087AF46806F050FF202206466A
:108330000021281D13F0CFF824232B60A38E6B603F
:108340000D232E61AB6063696B61012017B0BDE83E
:10835000F083082817D19FED1C6A78E79FED1B6A10
:1083600075E79FED1B6AB8E79FED1A6AB5E72046EF
:108370009847D8E79FED186A0028F7EE007A18BFF3
:10838000B0EE676AA9E7042802D19FED146A5EE7A0
:1083900010B99FED136A5AE7DFED127A0228B7EEA3
:1083A000006A08BFB0EE676A51E700BFF97E0200BD
:1083B0000000703F0000394000008C42A9689237ED
:1083C00023DBF93D13AC203C00000C4200000C43C1
:1083D00023DB793E23DBF93E23DB793D00008C4132
:1083E00000000C4100008C402DE9F043C468974A1E
:1083F00023689B68934297B006460D4640F008817B
:108400004FF0200C00274FF001084FF00E09D4E97F
:108410000E123B46CDE900C90AA8CDE902780BF05F
:108420007FFB4A4606A90AA80BF008FC9DF8193004
:108430009DF8180040EA032000B2608112F0F4FBBE
:108440000022834B12F05AFC0022824B12F0A0FA59
:1084500012F016FF9DF81B209DF81A30606143EA68
:108460000223A3819DF81D009DF81C3043EA0023E0
:10847000E3819DF81F009DF81E3043EA002323820C
:108480009DF821009DF8203043EA0023A3809DF849
:1084900023009DF8223043EA0023E3809DF8250065
:1084A0009DF824304FF0110C43EA0023D4E90E125A
:1084B000238110A8CDF800C03B46CDE90278CDF865
:1084C00004800BF02DFB3B4610A9042204A80BF0FE
:1084D00003FC04A80BF008FCC0B2404500F08F80FC
:1084E0000C2840F087809FED5C6AB4F90C30DFED1A
:1084F0005B5A06EE903AB4F90E3007EE103AB4F932
:10850000103007EE903AF8EEE66AB8EEC77AF8EE69
:10851000E77A66EEA56A27EE257A67EEA57A66EE1B
:10852000866A27EE067A67EE867A012000231027F6
:10853000D4E90E12C4ED096A84ED0A7AC4ED0B7A0F
:10854000CDE901030390009710A80BF0E9FA02238C
:1085500010A91A460DEB07000BF0BEFB0DEB070050
:108560000BF0C2FBC0B201284FD003284AD002282A
:1085700051D19FED3B6AB4F90430DFED3A5A06EE73
:10858000903AB4F9063007EE103AB4F9083007EE25
:10859000903AF8EEE66AB8EEC77AF8EEE77A66EE59
:1085A000A56A27EE257A67EEA57A66EE866A27EE3B
:1085B000067A67EE867AC4ED066A84ED077AC4ED22
:1085C000087AF46806F002FE202206460021281DE3
:1085D00012F081FF01202860638E6B6004232E61FE
:1085E000AB60636A6B61A36AAB61E36AEB6117B06E
:1085F000BDE8F083082817D19FED1B6A75E79FED52
:108600001B6A72E79FED1A6AB5E79FED1A6AB2E737
:1086100020469847D5E79FED186A0028F7EE007AC4
:1086200018BFB0EE676AA6E7042802D19FED136A6F
:108630005BE710B99FED126A57E7DFED127A022867
:10864000B7EE006A08BFB0EE676A4EE7F97E020037
:108650000000703F0000394000008C42A96892374A
:1086600023DBF93D13AC203C00000C4200000C431E
:1086700023DB793E23DBF93E23DB793D00008C418F
:1086800000000C4100008C402DE9F043C468974A7B
:1086900023689B68934297B006460D4640F00781D9
:1086A0004FF0200C00274FF001084FF00E09D4E9DD
:1086B0000E123B46CDE900C90AA8CDE902780BF0BD
:1086C0002FFA4A4606A90AA80BF0B8FA9DF8193005
:1086D0009DF8180040EA032000B2608112F0A4FA6D
:1086E0000022834B12F00AFB0022824B12F050F959
:1086F00012F0C6FD9DF81B209DF81A30606143EA18
:108700000223A3819DF81D009DF81C3043EA00233D
:10871000E3819DF81F009DF81E3043EA0023238269
:108720009DF821009DF8203043EA0023A3809DF8A6
:1087300023009DF8223043EA0023E3809DF82500C2
:108740009DF824304FF0110C43EA0023D4E90E12B7
:10875000238110A8CDF800C03B46CDE90278CDF8C2
:1087600004800BF0DDF93B4610A9042204A80BF0AD
:10877000B3FA04A80BF0B8FAC0B2404500F08E80FE
:108780000C2840F086809FED5C6AB4F90C30DFED78
:108790005B5A06EE903AB4F90E3007EE103AB4F98F
:1087A000103007EE903AF8EEE66AB8EEC77AF8EEC7
:1087B000E77A66EEA56A27EE257A67EEA57A66EE79
:1087C000866A27EE067A67EE867A01200023102754
:1087D000D4E90E12C4ED096A84ED0A7AC4ED0B7A6D
:1087E000CDE901030390009710A80BF099F902233B
:1087F00010A91A460DEB07000BF06EFA0DEB0700FF
:108800000BF072FAC0B201284ED0032849D00228DA
:1088100050D19FED3B6AB4F90430DFED3A5A06EED1
:10882000903AB4F9063007EE103AB4F9083007EE82
:10883000903AF8EEE66AB8EEC77AF8EEE77A66EEB6
:10884000A56A27EE257A67EEA57A66EE866A27EE98
:10885000067A67EE867AC4ED066A84ED077AC4ED7F
:10886000087AF46806F0B2FC202206460021281D92
:1088700012F031FE01202860238E6B602E61A8600B
:10888000A3696B61E369AB61236AEB6117B0BDE873
:10889000F083082817D19FED1C6A76E79FED1B6ACD
:1088A00073E79FED1B6AB6E79FED1A6AB3E72046B0
:1088B0009847D6E79FED186A0028F7EE007A18BFB0
:1088C000B0EE676AA7E7042802D19FED146A5CE75F
:1088D00010B99FED136A58E7DFED127A0228B7EE60
:1088E000006A08BFB0EE676A4FE700BFF97E02007A
:1088F0000000703F0000394000008C42A9689237A8
:1089000023DBF93D13AC203C00000C4200000C437B
:1089100023DB793E23DBF93E23DB793D00008C41EC
:1089200000000C4100008C40044A02600022C0E9B3
:108930000E22C0E910228264704700BF80E303006A
:1089400030B58BB0002301240F25D0E90E12CDE9FC
:10895000014304A8039400950BF0E2F804A80BF07F
:10896000F3F8C0B20BB030BD2DE9F0410446806B86
:108970000E461746984608B108F0C2FF102008F0CE
:10898000AFFF314605463A460BF03EFBA56328464D
:1089900001210BF043FB08B9BDE8F0812368414693
:1089A0002046DB68BDE8F041184700BF70B58CB0C9
:1089B000012400251226D0E90E122B4606A80394A6
:1089C000CDE9014500960BF0ABF806A92B462246EF
:1089D00004A80BF081F9214604A80BF007FA02E085
:1089E000012006F0FFFB04A80BF07EF90028F7D168
:1089F0000CB070BD2DE9F047044615460E461F46E3
:108A000006F0E4FB236881464FF0200A20469B686D
:108A100098474FF001085246301D002112F05BFDCF
:108A2000C6F80080238EC6F81090C6E90138A36905
:108A30007361E369B361236AF3615246281D002123
:108A400012F049FDC5F80080638E6B600423C5F801
:108A50001090AB60636A6B61A36AAB61E36AEB6120
:108A60005246381D002112F036FD24233B60A38EB0
:108A70007B600D23C7F81090BB6063697B61404643
:108A8000BDE8F08710B5034B03600446FFF7FAF822
:108A9000204610BDECE3030010B5054B036004460F
:108AA000FFF7F0F8204608F02BFF204610BD00BF6E
:108AB000ECE3030010B50446FFF736FF014B2360DB
:108AC000204610BDECE3030038B50D460446FFF721
:108AD00037FF692801D0002038BDABB2591C9A1C61
:108AE00023866186A2862046FFF760FF2046FFF7B7
:108AF00027FF6928EFD129462046FFF765F90120B5
:108B000038BD00BF70B50446C3F38100C3F38116BE
:108B1000FF2B0D466074C3F3011103F00300A07432
:108B20008CBF002301238E4214BF0420032015FBB9
:108B300000F080B223700023E6742174A08063707B
:108B4000237263610121164612F01CFCE06020B91B
:108B5000C4F80200E680204670BD6580E6802046AD
:108B600070BD00BF10B50446C06812F079FCB4F9BE
:108B70000600002802DB002109F0F2FC204610BDAF
:108B800010B50446B0F90600002807DB012109F002
:108B9000E7FC0021B4F9060009F022FD012363700F
:108BA00010BD00BFC368002B00F02C812DE9F04FF1
:108BB00093B047690190A84DA84EA94C804620E08B
:108BC00063689B09BB4209D2EB68DA0127D52368A9
:108BD000DB0724D563689B09C8F81430EB68DF0114
:108BE00002D52368D80722D407F07EFDA0FB06013A
:108BF000830AD8F8147043EA8153DB1BB3F5967FE0
:108C00001DD2EB68D80102D52368D907D8D407F064
:108C10006BFDA0FB0601830A43EA8153D2E707F00C
:108C200063FDA0FB0601830A43EA8153D4E763682E
:108C3000D8F814709B09DB1BB3F5967FE1D3019A3A
:108C4000884B94880FCB12AD05E90F00DDF838A0F2
:108C5000DAF8003543B9DAF86035002B04DADAF8CF
:108C60006435002BC0F2CF80DDF83CA0DAF8003587
:108C700043B9DAF86035002B04DADAF86435002BF2
:108C8000C0F2C881DDF840A0DAF8003543B9DAF85F
:108C90006035002B04DADAF86435002BC0F2C581A8
:108CA000DDF844A0DAF8003543B9DAF86035002B76
:108CB00004DADAF86435002BC0F2C28108F0ECFB6C
:108CC000019A694BB2F9062053F822301F2B73D852
:108CD000012202FA03FB4FF0A0465F49019ACB68DC
:108CE0005F4C1078614A43F08073CB6023680028A2
:108CF00043F0010323600CBF4FF4C3634FF43073A0
:108D0000039342F001030BBF4FF01A084FF0120813
:108D1000462729270CBF9C2547250493019BB3F8C0
:108D200004A0D3F80CE063680293BAF1000F49D0B5
:108D30000AF1FF391FFA89F909F10109F14400220A
:108D40001EF801CB0820802163689B1AAB42FBD33D
:108D50006268D6F808351CEA010F43EA0B03C6F82F
:108D6000083520D063689B1ABB42FBD3D6F80C357C
:108D7000013843EA0B034FEA5101C6F80C35E3D141
:108D8000CE45DDD1039B03FB0AFA63689B1AAB4215
:108D9000FBD36368029A9B1A534515D34FF4964050
:108DA000049B9847BAE763689B1A4345DED2636821
:108DB0009B1A4345F7D3D9E7203B012202FA03FB74
:108DC0002B4E8AE75246E0E708F070FB224BDB6847
:108DD000D9010AD5224B1A68D20706D55B68019AD9
:108DE0009B09536113B0BDE8F08F07F07DFC1B4B6E
:108DF000019AA0FB0301830A43EA8153536113B034
:108E0000BDE8F08F7047DAF86835002BBFF62CAF5D
:108E1000DAF86C35002BBFF627AF2401231D02932F
:108E200007F0E0FF012800F06881029806F0F4F9ED
:108E30008346BBF1000F3FF441AF019A938811784C
:108E40000391002B00F06181D3680493082500236F
:108E5000CDF834A05DE000BFF0ED00E040420F002F
:108E6000001000E0FCE3030070E6030010E40300E0
:108E70000003005048F2130848F2080912F0800F6E
:108E800014BF47464F4612F0400F14BF46464E46A9
:108E900012F0200F14BFC446CC4612F0100F2BF86E
:108EA00011700C462BF810600899099E079F2BF84B
:108EB00011C014BFC646CE4612F0080F14BF444678
:108EC0004C4612F0040F2BF816E018BF40462BF862
:108ED000174008BF4846059E0A9C2BF8160012F062
:108EE000020F14BF414649462BF8141012F0010F2F
:108EF0000B990CBF4A4642462BF81120019A0133C8
:108F000091889BB205F10802994292B240F2A38087
:108F10001546A91FEE1E6A1EA5F1050C89B2B6B250
:108F200092B2AC1EA4B2089105961FFA8CF10B9276
:108F3000AE1EDA0092B22F1F09910A94B1B26C1ED4
:108F4000BFB20C911FFA84FA11460692039C049A50
:108F50000797E646E81FA5F10709A5F10608A5F160
:108F6000040CEF1E80B21FFA89F91FFA88F81FFA65
:108F70008EFE1FFA8CFCBFB2D25C002C3FF47AAF9D
:108F800048F2060148F20D0412F0800F0CBF0846AB
:108F9000204612F0400F0CBF0E46264612F0200F5E
:108FA00008BF0C46059412F0100F48F20D0418BFCC
:108FB00021460791069912F0080F2BF8110048F28C
:108FC00006010CBF0846204612F0040F2BF819606A
:108FD000894618BF2146BDF814402BF8184012F0FE
:108FE000020FC84648F20D090CBF44464C4612F029
:108FF000010F4A4608BF4246BDF81C802BF81E8070
:109000002BF81C002BF817100C992BF811402BF89B
:109010001A2073E7DAF86835002BBFF633AEDAF8BA
:109020006C35002BBFF62EAEF7E6DAF86835002B6C
:10903000BFF636AEDAF86C35002BBFF631AEECE693
:10904000DAF86835002BBFF639AEDAF86C35002B4C
:10905000BFF634AEE1E66A1C92B2DDF834A05200ED
:109060000BEB45034FF400401880039B2BF80200E4
:109070000021CAF80415CAF80C15D3BB2823CAF876
:109080000835029B0199224AB1F9061058080023BD
:10909000CAF81435CAF81035CAF820B5CAF824053C
:1090A000CAF82835CAF82C3552F82120CAF86025AC
:1090B0000122CAF80025CAF81031CAF80820DAF8E7
:1090C00010312BB908F018FEDAF81031002BF9D066
:1090D00000234FF0FF32CAF81031CAF80035CAF841
:1090E000602507F07FFE012858460BD006F0A6F851
:1090F0006CE61423CAF80835C3E7029812F0A8F901
:10910000834696E612F0ACF960E65B460222A9E7D8
:1091100070E60300F0B444889DF810608C4219D9C1
:10912000047A44B112FB04F214FB03F314FB06F4BB
:10913000120A1B0A260AC57C077CC468AF420BD002
:1091400004EB810100244C55057C4A55427C8B542C
:10915000837CCE54F0BC704701EB41012144F4E71D
:1091600070B4037A4E1CF6B2B3421AD0013B13F02E
:10917000FF03C56817D0FF2917D03102013991FBD1
:10918000F3F189B283885BB12A46137801FB03F3BC
:109190001B1202F8013B531B84889BB29C42F4D8FB
:1091A000067270BC70471946ECE74FF6FF7191FBF1
:1091B000F3F1E7E772DF704773DF704777DF7047DF
:1091C00070B5054608460C4601F0A0F9102808D0F5
:1091D000802812D1636883B1EA7F0D2A0FDD002059
:1091E00070BDEB7F22881B2BF9DCE9180320E854C3
:1091F00048704A80EB7F0433EB77012070BDA918DB
:109200001120A85407224A7098681E685C68DB68C1
:10921000C1F80E30C1F80A00C1F80260C1F806407A
:10922000EB7F1233EB770120DAE700BF0022C27731
:109230000270704700B50831024603C983B06B461F
:1092400083E8030019461046FFF7BAFF03B05DF844
:1092500004FB00BFF0B589B00546202269461348DB
:1092600001F084FDEB7FC2181D2A0ADDC3F11D0445
:10927000E4B2E2181D2A4FF0000615DD304609B0B1
:10928000F0BD044601260927EA18601CE854694627
:109290005770901C224612F0FAF8EB7F02331C4400
:1092A0003046EC7709B0F0BD0827EDE7C065002037
:1092B00010B50446094801F0BBFDE37F1C2B0ADC16
:1092C000E2180221E1540A2390705370E37F0333C4
:1092D000E377012010BD002010BD00BFC065002055
:1092E000C27F1C2A0DDC10B403469C18022098543F
:1092F0000120A1706070DA7F0332DA775DF8044BE9
:1093000070470020704700BF30B440F2FF12094C94
:10931000094902840125002280F82250C0E90A414F
:10932000C277027080F823204262C0E90C22826377
:1093300030BC70472000F40020001E00C18570473B
:10934000428501858185704780F82210704700BFF3
:10935000F0B502EB8203264E87B003EB83030F4682
:109360009B00154631680022CDE90272ADF80C3041
:1093700090F8213000928DF80030CB07044601921E
:10938000CDE9042209D41B4A1B4BD17FC07F9981B0
:1093900001211C609A60988031606A46164904F188
:1093A0002000FFF707FF10B1002007B0F0BD134801
:1093B00094F8206001F03CFD314602460120FFF7A1
:1093C000FDFE0028F0D1012194F82000FFF7F4FE03
:1093D0000028E9D1094801F081FD638EA7859D42EF
:1093E00094BF5B1BDB1A0120638684F82300DCE753
:1093F000A8650020FC670020AC650020C065002047
:10940000F0B52C4D4186044687B001862846FA21E6
:1094100001F012FDE68D2849278D0868029706EBBA
:10942000860303EB830300229B000392ADF80C300C
:1094300094F8213000928DF80030C3070192CDE9F5
:1094400004220BD41D4BE27F95F85B029A8005F550
:109450000F7501221C609D6098810A606A46174959
:1094600004F12000FFF7A6FE10B1002007B0F0BD08
:10947000104894F8205001F0DBFC294602460120F8
:10948000FFF79CFE0028F0D1012194F82000FFF79F
:1094900093FE0028E9D1074801F020FD638EA785DF
:1094A0009E4294BF9B1BDB1A0120638684F8230035
:1094B000DCE700BFC0650020A8650020AC65002087
:1094C00030B50B888D88112B85B004462CD0262B07
:1094D0000FD0102B01D005B030BDCB7B012BFAD1C2
:1094E000426A03FA05F515430023456280F82330EC
:1094F000F1E70B7A012BEED1002380F823304FF4F3
:10950000FA71274801F098FC238E002B30D0658E2D
:10951000002D36D0A36B0BB19847658E618D2A461E
:109520002046FFF715FFD6E7436AEB40DB07D2D5AD
:109530001C4800F06DFF0028CDD1636A94F8231019
:10954000012202FA05F523EA050363620029C2D16C
:1095500094F82230002BBED0238E6386FA21104867
:1095600001F06AFCE28D218D2046FFF7F1FEB2E7A3
:10957000A36B03B198470022618D2046FFF7E8FEF8
:10958000A9E7074801F0BEFC626B002AA3D004AB38
:109590000095294643F8045D284608F097FC9AE7B1
:1095A000C065002070680020AADF7047ABDF7047FD
:1095B000ACDF7047ADDF7047AEDF7047B0DF70479C
:1095C000704700BF10B5044608F09AF9204610BD58
:1095D00070B55E4B04461B680361061D96B03046AD
:1095E00000F0A2FF94F8263013F0320208BF84F88E
:1095F000272013F00C0208BF84F8282013F0300352
:1096000058D10FAD0F93C5E90133C5E9033394F881
:10961000262094F82700AB618DF83C2001224FF002
:10962000000162F34201A26914930023ADF80830EF
:109630008DF80A108DF808000AB1137873BBA37F68
:1096400013B104F11E03129394F82930E2890596B0
:1096500013F0010F4FF000030CBF10461846CDF871
:109660001E302946ADF81C00ADF822301846656959
:10967000ADF8202004F12A0304F1270605AA069676
:109680000995FFF791FF034628B9627F72BB257BDE
:10969000002D53D00023184616B070BD104610920E
:1096A00012F0FDFD02AB80B2ADF84400ADF846000B
:1096B0001393C4E700231A46012060F342022449B1
:1096C0008DF806200FAD097894F8270094F826202D
:1096D0000F938DF80410C5E90133C5E90333AB617D
:1096E0008DF805008DF83C2001AB97E71849ADF8DF
:1096F0000C000246012502234E6894F827100496B8
:1097000065F3420203AD8DF80E200B958DF80C1019
:109710000DEB030204AE04F11C050AA9CDF83200DA
:10972000ADF83030ADF83430ADF836000A960E950D
:10973000FFF73CFF03460028A9D0ACE721460548C7
:1097400000F026FE2B46184616B070BDBC65002002
:1097500018E40300C06500202DE9F0410B888E88D5
:10976000502B8AB00C46054609D0512B04D18B7979
:10977000012B42D0022B17D00AB0BDE8F081CB8874
:10978000428D9A4226D0EA8D9A42F5D1EB6C002B9D
:10979000F2D095F83C20648A920700F19D80224621
:1097A000294630469847E7E7A27B042A5DD0062A7F
:1097B00032D0012AE0D16B6C002BDDD095F83C2033
:1097C000170704F1080400F1CA80224629463046F2
:1097D0009847D1E7876C002FD5D090F83C30B1F88E
:1097E00010C001F11208D90700F195806346424686
:1097F00029463046B847E388C5E7036C002BBBD049
:1098000090F83C20520701F1080775D43A462946E2
:1098100030469847A379ADE76A6B002AACD00022A6
:1098200002A93046CDE90222CDE904228DF80830A4
:10983000FFF7C4FEAC6C64B195F83C306F6BB5F8C3
:109840003AC0D80700F19E8063463A463046294622
:10985000A0476C6B07F0C6FA012820467CD005F0C3
:10986000EDFC0023C5E90D3386E7686B002865D061
:10987000218A628A2F8F002301EB020CCDE9063387
:10988000CDE90833BC454FF002038DF8183008DDF0
:1098900040F20913ADF81C3006A93046FFF78EFEE2
:1098A0006AE79DF81E30ADF8201004F1140743F06C
:1098B000010308443946ADF822208DF81E3009977F
:1098C00011F0E5FD638A228A698F1A4493B28B42B4
:1098D00038BF0B466B87DFE7032000211A46009054
:1098E00006AB0846CDE90665089408F0EFFA0028B3
:1098F0007FF442AFEB6C52E703211A46009106ABAE
:1099000008213846CDE90665089708F0DFFA0028F7
:1099100080D12B6C7AE7042300933A46614606AB6C
:109920004046CDE90665CDE9088C08F0CFFA00285D
:109930007FF461AFAF6CB4F810C057E74FF48067A5
:109940002F8707F04FFA0128384618D005F064FC3D
:10995000002368636B878BE711F082FD81E70321A9
:109960001A46009106AB0E212046CDE90665089403
:1099700008F0ACFA00287FF4FFAE6B6C25E711F01D
:1099800067FDE5E70423009322463846614606ABAF
:10999000CDE906650897CDF824C008F097FA0028AD
:1099A0007FF457AFAC6C6F6BB5F83AC04CE700BFB3
:1099B00070B483B06D4685E806000446194944F842
:1099C000041B034695E80300174E84E80500317830
:1099D00083F82810012214204FF0010562F342059C
:1099E000D8810022184683F8295083F8271083F87D
:1099F0003C201A731A619A619A83C3F81E20C3F837
:109A0000222083F826205A615A859A851A86DA859B
:109A1000C3E90D22C3E91022C3E9122203B070BCCE
:109A2000704700BF28E4030018E403000069704792
:109A300001230373704700BF80F82610704700BFF2
:109A4000C181704739B990F82930012262F30003CF
:109A500080F82930704790F82930C181002262F3E4
:109A6000000380F82930704780F8271080F82820FC
:109A7000704700BF90F83C30816462F3000380F8C7
:109A80003C30704730B490F83C3090F82940416445
:109A90000D1C18BF012565F3041462F3C30380F89D
:109AA000294080F83C3030BC704700BF816170476E
:109AB00051F82A2F02604A684260704730B5C48965
:109AC00085B0022C28BF0224ADF806100023418D7A
:109AD000ADF808400DF1060502AA4FF6FF70ADF88B
:109AE0000A300395FFF764FD18B9BDF8080005B00A
:109AF00030BD184605B030BD90F8263013F0100385
:109B000001D11846704730B5044685B011480D465E
:109B100001F0B4F910B1E18D11B9084605B030BDBE
:109B20002846002302AA02250DF10604ADF80A30EA
:109B3000ADF808500394FFF73DFD43F20142904217
:109B400005D008B99DF8060000F00100E6E71846C8
:109B5000E4E700BFC06500202DE9F04F0F4690F804
:109B60002610C90689B06CD516464FF6FF7297428B
:109B7000054600F08380C2899A4228BF1A46934660
:109B80003946494801F07AF9044600285ED0E98D4B
:109B900000295BD000200DF1100842464FF0020C66
:109BA000ADF812000DF10E033846ADF810C0059364
:109BB000FFF700FD43F20142904270D008B9BDF8B2
:109BC0000E0000F00100002869D03946364801F047
:109BD0006DF98246A8B300F0D5F8033883B2BBF123
:109BE000000F2FD001944FF000095C469B4606E021
:109BF000BDF80E30E41AA4B21E44002C51D05046D9
:109C000000F0F8F8A3455B46414628BF2346C0B1A3
:109C1000ADF80E304FF001036A8DCDF81290384642
:109C20008DF812300DF10E03ADF81690CDE9063621
:109C3000ADF81020FFF7C0FC0028D9D0504600F046
:109C4000E3F80024204609B0BDE8F08FEA890DF161
:109C500010085A4513464FF0000428BF5B464246A1
:109C6000698DADF810304FF6FF700596ADF81240D3
:109C7000FFF79EFC204609B0BDE8F08F0A4801932B
:109C800001F008F9019BEA8995F82610934228BF54
:109C900013469B46CB0607463FF572AFD7E7EA89E6
:109CA000D7E7019CCEE700BFC065002076DF704794
:109CB0007FDF704786DF70478FDF704790DF704728
:109CC000B1DF7047B5DF704710B5074B036004463E
:109CD000C06906F091F9206A06F08EF9606A08B151
:109CE00006F08AF9204610BD40E4030010B5094B88
:109CF00003600446C06906F07FF9206A06F07CF92B
:109D0000606A08B106F078F9204607F0F9FD2046B0
:109D100010BD00BF40E40300F8B504468180002573
:109D20000121144F217417261B2021732760E68020
:109D3000608125811068C4F8130090889679667652
:109D4000A4F81700D2796273194618469DF8186076
:109D500005F0F4FA3146E061304605F0EFFAC4E967
:109D60000A554FF6FF73206265746562A574E3813E
:109D70002046F8BD40E40300007C7047407C7047FB
:109D8000407B7047C08870470089704751F8132F97
:109D9000026010B48C888A79848082715DF8044BEB
:109DA000704700BF2DE9F04186B004AC868890462C
:109DB0000F4620464FF4285100F09CFBCDE9007877
:109DC0004FF6FF75012094E80C003146CDE90205FD
:109DD000024800F08FF906B0BDE8F081C0650020B0
:109DE00008B513218088FFF761FFB0FA80F04009C1
:109DF00008BD00BF08B56621C06905F051FF0030FD
:109E000018BF012008BD00BF08B500231A46194637
:109E1000C06905F0C5FA003018BF012008BD00BFB9
:109E2000C2898188407B01F099BE00BF03460A4683
:109E3000407BD98901F0ACBE70B50B88113B96B060
:109E40000C460546462B78D8DFE813F085008800DD
:109E500047008B007700770077007700A200B10001
:109E6000770077007700770077007700BD00C500A6
:109E7000CB00D1007700770077007700770077007C
:109E8000770077007700770077007700770077001A
:109E90007700770077007700770077007700D400AD
:109EA0007700D7007700770077007700770077009A
:109EB00077007700770077007700770077007700EA
:109EC0007700770077007700770077007700E7006A
:109ED000EE007700F4007900020106F083FF01280C
:109EE0004FF0500000F0DF8005F096F9E86220B3F3
:109EF0005022002111F0EFFA4FF6FF737049EB8109
:109F00006C7BEB6A0868097902936A46012C11712F
:109F10004FF0000403F11C0103F138030090069197
:109F20000793A888059418BF2246214602ABCDE9C5
:109F30000344CDE90844FFF7BBFE16B070BD8B7932
:109F4000002BFAD1406AAB740028F6D01A461946A5
:109F500005F026FAF1E700230374EEE74B8903814D
:109F6000EBE75022002102A811F0B5FA02AA218ADB
:109F7000687B01F00DFE034600287AD0002302A979
:109F800010AAA888FFF796FEBDF81A30EB81D4E737
:109F90000B7AC46A002B7BD006F024FF01282046F0
:109FA00000F0848005F04AF90023EB62C5E70B7AE4
:109FB000112B64D1A86A0028BFD000231A46194685
:109FC00005F0EEF9B9E716A9002321F8503D808885
:109FD000FFF772FEB1E70B7A002BAED14B7A037319
:109FE000ABE7002211468088FFF768FEA5E70B89E2
:109FF0004381A2E74B89C3809FE78B7A002B9CD0DB
:10A00000002600231A461946286A05F0C9F90136C8
:10A01000A37AF6B2B342F4D88FE700231A46194662
:10A020008088FFF74DFE88E7406A0123AB74002863
:10A03000C3D182E7417B234800F030FFE1888142B1
:10A0400028BF014689B2E980A888FFF73BFE74E784
:10A050008B79002B3FF471AF002600231A46194676
:10A06000E86905F09DF90136A379F6B2B342F4D858
:10A0700063E7A8881A461946FFF71CFE5DE7C28908
:10A080008188407B01F0B4FD98B101236B7491E7A6
:10A0900001234374638AC38122468188407B01F097
:10A0A0004BFDEC6A78E711F0D3F91FE711F0D8F90E
:10A0B0007AE7034602460146A888FFF701FEE4E777
:10A0C000BF680020C0650020A0DF704738B5044697
:10A0D000F82500F5F87001F093FC2A46204600218F
:10A0E00011F0F9F92A466019002111F0F4F920461F
:10A0F00038BD00BF2DE9F04385B00546BDF83800F6
:10A10000BDF83C40ADF80C006F461B48ADF80E4062
:10A1100087E80C008846BDF8349000F0C7FE05F5CE
:10A12000F875064604E03046FFF72EFE05F05AF8B3
:10A13000284601F0BBFC04460028F4D10121284642
:10A1400001F068FC4A460C99284601F07DFC39462E
:10A15000404603AAFFF7B8FF38B94FF4FA71284612
:10A1600001F078FC20EAE074A4B2284601F05CFC1F
:10A17000204605B0BDE8F083C06500202DE9F04F12
:10A180008F880E8885B08846054639467F4800F09E
:10A190008DFEA6F11003012B814640F28B8095F8CD
:10A1A00054203AB3002404F11603502E55F823A08E
:10A1B00059D0512E1AD198F80630B8F808B0022BB1
:10A1C00043D0BBF1000F11D051466846FFF770FC39
:10A1D000BDF800305B4549D0514602A8FFF768FC46
:10A1E000BDF80C305B4541D095F854200134E4B201
:10A1F0009442D8D395F84C31002B00F0C38005F57C
:10A20000A679002404E095F84C310134A34246DDE0
:10A2100059F8040F01F0CCFEB842F4D1382E03D027
:10A22000392E01D0362EEED1B8F80AA0BAF1000FBF
:10A23000E9D0D9F800B0584601F0BEFE5045E2D151
:10A240005846414601F0BAFEDDE798F80E30062B7D
:10A25000B7D1DAF800305046DB68414698474846A7
:10A26000FFF78CFDC0E7B8F806B0AAE7DAF80030CF
:10A2700050464146DB6898474846FFF77FFD002877
:10A28000B2D0502EB0D1514602A8FFF711FCBDF854
:10A290000C305B45A8D14846FFF7C2FDA4E7112E5C
:10A2A0002AD0352E03D1B8F80A30002B5BD105B087
:10A2B000BDE8F08F2B78002B3FF471AF112E4FF0DB
:10A2C00000040CD005EB84033946586803685B68CA
:10A2D000984701342B78E4B2A342F3D85FE705EB4B
:10A2E00084033946586803681B68984701342B7803
:10A2F000E4B2A342F3D852E7002473B105EB84061D
:10A30000D6F8500101F054FEB84204F101031FD009
:10A3100095F84C21DCB2A242F0D895F8F81000294B
:10A32000C5D0002405EB8403621CD3F8FC008388AD
:10A33000BB4203D0D4B28C42F4D3B8E703681B68A5
:10A340009847013495F8F810E4B28C42EAD3AEE7AE
:10A35000D6F8500101F028FE013495F84C31E4B2F2
:10A36000A342CBD8D9E705F5F8752846B8F80C20F4
:10A3700008F1100101F09CFB284605B0BDE8F04F44
:10A3800001F0AEBB112E8CD1C7E700BFC065002025
:10A3900090F85430272B0CD810B4024603F1160461
:10A3A000013380F85430012042F824105DF8044B4A
:10A3B00070470020704700BF0378132B06D800EBCE
:10A3C0008302013303700120516070470020704701
:10A3D00075DF704778DF70477ADF7047054A0346BC
:10A3E00092E80300002283E80300C3E90222184632
:10A3F000704700BF48E4030008B5FFF7EDFF08B160
:10A40000002008BDFFF7E6FFB0FA80F0400908BD64
:10A41000F8B500240B4F2546A1B2384600F046FDA2
:10A420000134064648B1FFF7A7FC30B13046FFF7CC
:10A43000A7FC012804BF0135EDB2142CECD128464D
:10A44000F8BD00BFC06500200A88102A03D1CA7B6E
:10A45000012A0B4600D0704710B40A8A018844884C
:10A46000914201D8A24205D901465DF8044B988873
:10A47000FFF7AEBF5DF8044B704700BFA8DF704721
:10A48000704700BF30B500F1080483B00546204690
:10A4900000F04AF821460DF106020120FFF7EEFF19
:10A4A000044628B9044B05481D602946FFF784FF80
:10A4B000204603B030BD00BFBC650020C065002051
:10A4C00030B482B06C4684E806000346064943F87F
:10A4D000081B054694E80300002183E80500284690
:10A4E000A98002B030BC704758E4030062DF7047B7
:10A4F00063DF704701220023018082704360704750
:10A500000023416083700380704700BF8378012B74
:10A5100008D042680AB180207047012B8CBF802090
:10A52000002070471020704708B5837873B94368DE
:10A5300063B10246911C1846FFF7D8FF10205168FE
:10A54000FFF7D6FFB0FA80F0400908BD012008BD32
:10A550004DDF70474EDF70474FDF704750DF704769
:10A560004BDF704710DF70477CDF70477DDF70473F
:10A5700060DF704769DF704761DF704766DF7047F3
:10A5800067DF7047704700BF042008F045B800BF80
:10A5900030B52C4C2C4D83B04FF0FF31D4F808036C
:10A5A00005F07EFB0028F7D06DB301A8FFF7D8FFB8
:10A5B00005280346F0D00028F7D1019A911E1046D5
:10A5C0000929F2D80FF2040C5CF821F037A602003A
:10A5D00037A60200ABA50200ABA50200ABA50200A6
:10A5E000ABA50200ABA5020021A6020021A6020035
:10A5F00021A602000A2B04D0092B21D00B2B02D15B
:10A60000012004F077FB01A8FFF7AAFF0528C3D0BB
:10A610000028F8D1019BA3F10902022AF3D8E9E747
:10A620000A2A04D0092A09D00B2ABED101231846D0
:10A6300004F060FBB9E70FF0E7FBB6E70223F6E7AB
:10A640000220DEE7C0650020099E03002DE9F04FDF
:10A6500089B006F0C7FB01284FF4FA7000F084813E
:10A6600004F0DAFD0646B34C06F1080304F558770A
:10A6700004F5007A03934FF0FF31D4F8040305F09A
:10A680000FFB0028F7D04FF4FA730DF11601304696
:10A69000ADF81630FFF770FF10B10528EBD0F2E7E8
:10A6A000B6F80490B9F1130F00F2208104EB89038E
:10A6B000D3F814531DB131462846FFF7BDFB33884C
:10A6C000013B1B2B5BD8DFE813F0A3005A005A00B4
:10A6D0005A005A005A005A005A005A005A005A00AA
:10A6E0005A005A005A005A00A8001C005A005A008A
:10A6F0005A005A005A005A005A005A005A005A008A
:10A70000FE00DFF844824FF0000B58F8043F184673
:10A7100033B1FFF731FB18B10BF1010B5FFA8BFB83
:10A720004745F2D1BBF1000F06D194F810331BB1AD
:10A730005946042007F054FF2846FFF721FB012863
:10A7400000F0F180D4F8CC2262B10223CDF8189049
:10A75000002196F808C00093084606ABCDF81CC04F
:10A7600007F0B4FB09F1C40804EB8803586810B182
:10A7700003685B68984704EB880300225A603146FF
:10A780005046FEF79DFE31466B4801F0C7FDB4F818
:10A7900012334B45338800F0AB80102B1ED02DB305
:10A7A0002846FFF7EDFA012803D131466348FFF749
:10A7B0004BFE2846FFF7E4FA02281BD0604801F060
:10A7C000F3FC00BB31465B48FFF7D8FCD4F8683394
:10A7D000002B3FF458AF3046984754E7F37B012BEA
:10A7E000DDD1B388A4F81233002DD9D131465348B6
:10A7F000FFF72AFE5348314601F0B8FB504801F0FC
:10A80000D3FC0028DED031464D4801F0CFFCD9E71B
:10A8100000214846FFF7B2FEB1E74FF00008D4F838
:10A820000C03CDF80080434642460321464D06F016
:10A83000BBFD55F8043F184633B1FFF79DFA18B138
:10A8400008F101085FFA88F8BD42F2D194F810339C
:10A85000002B58D109F1C40804EB8805686820B1C1
:10A8600003685B68984700236B60F37B012B0BBF89
:10A8700094F8F33294F8F93294F8F2B294F8F8B20A
:10A880000293302007F02CF8029B0093039A5B465A
:10A8900049460546FFF740FA04EB880328465D6009
:10A8A000FFF76EFA012851D0D4F8C822002A3FF4ED
:10A8B00066AF012300210093084606ABCDF818903F
:10A8C00007F004FB5BE7D4F86423002A3FF457AF9A
:10A8D000CDF818900223002196F908C0009308468D
:10A8E00006ABCDF81CC007F0F1FA48E70546E6E6EE
:10A8F000102B3FF473AF112B7FF451AF4FF6FF7362
:10A90000A4F812334BE718F1000118BF012104200D
:10A9100007F066FE94F81033002B9BD00121042031
:10A9200007F05EFE96E7D4F8BC22002A7FF40DAF54
:10A9300018E700BFC06500201C6800207068002078
:10A940009068002080680020D0680020D4F8B822E9
:10A95000002A3FF414AF0021009006AB0846CDF862
:10A96000189007F0B3FA0AE710F072FD06467AE68F
:10A9700038B50446FFF7AAFB04F50070FEF7C4FCE7
:10A9800004F50F70FEF752FC04F5177001F044FC5B
:10A9900004F52C70FFF722FD04F5307001F0B6FAD3
:10A9A00004F5347001F0E6FB4FF480530025C4F841
:10A9B000E83222482249234AC4F8EC0240F201134B
:10A9C000C4F8F012C4F8F422A4F8F832A4F8FA5249
:10A9D000A4F8FC52294604F54570502210F07BFD86
:10A9E000C4F8FF5294F8FF3294F80223C4F80453D9
:10A9F000032143F0010361F306130A4301204FF6DC
:10AA0000FF71C4F80853C4F80C5384F8FE52C4F81C
:10AA10006853C4F8645384F8100307251020A4F881
:10AA20001213032184F8010384F8FF3284F80053E1
:10AA300084F8022384F80313204638BD010A170066
:10AA40000300010117000300F0B580F8FC128DB07F
:10AA500080F8FD22BA4E044606F0E6FF06F0ECFF51
:10AA600006F0A4FF0CA8336940F8243DB549FFF770
:10AA700079FD18B1002528460DB0F0BD0120FFF783
:10AA800069FD0120FFF764FD0120FFF765FD09A8BE
:10AA9000FFF764FD099B9B0706D5AB4BD3F8043544
:10AAA00013B9022004F026F90023A84A94F8ED52C5
:10AAB000049209A90120CDE909330B938DF82450A4
:10AAC000FFF758FD0028D5D194F8FD320B90CDE961
:10AAD0000900181C18BF012094F8FC528DF82700BB
:10AAE000049A8DF8263009A940208DF82550FFF7EB
:10AAF00041FD0028BED194F8EC120990034661F3A1
:10AB00000003CDE90A00049A8DF8243009A9A02099
:10AB1000FFF730FD0028ADD1D4F8E8320A900B9051
:10AB2000049A099309A9A120FFF724FD0028A1D1C7
:10AB300094F8FC32002B40F0B38094F8FD32002BE7
:10AB400048D000230225B4F8F472049A099309A9A5
:10AB50002320CDE90A338DF82450ADF82670FFF795
:10AB600009FD002886D1CDE9090094F8FD72B4F8FA
:10AB7000F6320B90049A8DF8245009A920208DF804
:10AB80002670ADF82830FFF7F5FC00287FF472AF8F
:10AB9000099094F8F832049A8DF82450CDE90A000F
:10ABA00009A922208DF82630FFF7E4FC00287FF465
:10ABB00061AFCDE909000B9094F8F932049A8DF851
:10ABC000245009A921208DF82630FFF7D3FC002856
:10ABD0007FF450AF04A8FFF7CBFC00287FF44AAF06
:10ABE000C3B2CDE9070043F0010307A902208DF8A5
:10ABF0001C30FFF7C5FC00287FF43CAF04F52C7037
:10AC0000FFF7FAFB054600283FF434AF0CA8337D6C
:10AC100000F8283D0B224E49FFF7A6FC00287FF4E0
:10AC200029AF94F8FD32002B40F0848003220021EC
:10AC3000012004F041FBC4F8040300283FF41AAFDC
:10AC400005AB0326CDE900634FF4A0620023414920
:10AC5000414805F069FB32460021012004F02CFB3D
:10AC6000C4F8080300283FF405AF06ABCDE9006344
:10AC7000C822002339493A4805F056FB394B4FF4B6
:10AC800080021A60384B00930023184601224FF4CB
:10AC9000807106F031FBC4F80C0300F02DFFEAE6EA
:10ACA00009900123B4F8EE52049A8DF82430CDE9CE
:10ACB0000A0009A92320ADF82650FFF75BFC002805
:10ACC0007FF4D8AECDE9090094F8FC72B4F8F052E4
:10ACD0000B90049A8DF8243009A920208DF8267055
:10ACE000ADF82850FFF746FC00287FF4C3AE09906A
:10ACF00094F8F252049A8DF82430CDE90A0009A99B
:10AD000022208DF82650FFF735FC00287FF4B2AEE4
:10AD1000CDE9090094F8F3520B90049A8DF8243091
:10AD200009A921208DF82650FFF724FC00283FF4C4
:10AD300004AF9FE604F5307001F0F6F876E700BF47
:10AD400064E4030085A5020000700240006000205A
:10AD50008CE4030098E403004DA602009CE4030089
:10AD600091A5020000E100E089A5020000B583B0D2
:10AD700002AB084623F8022D1946FFF7F7FB20B96E
:10AD80009DF8060003B05DF804FB002003B05DF8F9
:10AD900004FB00BF70B4254B0C4606460FCB85B0B4
:10ADA0006D4607C59DF900202B80A24237D09DF942
:10ADB0000130A34233D09DF90230A3422FD09DF938
:10ADC0000330A3422BD09DF90430A34227D09DF934
:10ADD0000530A34223D09DF90630A3421FD09DF930
:10ADE0000730A3421BD09DF90830A34217D09DF92C
:10ADF0000930A34213D09DF90A30A3420FD09DF928
:10AE00000B30A3420BD09DF90C30A34207D09DF923
:10AE10000D30A34203D0002005B070BC7047012064
:10AE200086F8FE4205B070BC704700BF7CE40300AA
:10AE300090F9FE02704700BF70B5054682B0D0F8A9
:10AE40000C030C4606F0DCFA0B4AA402A2FB043207
:10AE5000002306469209D5F80C030093042106F05E
:10AE6000A3FA3EB9D5F80C030096334632460321C7
:10AE700006F09AFA02B070BDD34D6210132906D8BD
:10AE800000EB8100D0F8140308B1FEF775BF002075
:10AE9000704700BFB0F81203704700BF01290CBF14
:10AEA000B0F8EE02B0F8F402704700BF13299ABF61
:10AEB00000EB8100D0F814030020704710B5064C59
:10AEC0000021D4F8080304F02DFDD4F80403002178
:10AED000BDE8104004F026BDC065002090F8103396
:10AEE00003B9704710B582B0D0F80C4305F0FCFBF5
:10AEF0000023024600932046012106F055FA02B0D5
:10AF000010BD00BFF0B583B0002507462B46D0F832
:10AF10000C0300952A46032106F046FA07F544740F
:10AF200007F5587654F8041F084621B1FEF724FFB0
:10AF300008B10135EDB2B442F4D197F810330BB932
:10AF400003B0F0BD291C18BF0121042003B0BDE8E7
:10AF5000F04007F045BB00BF0148FFF709BD00BF47
:10AF6000C06500203CDF70473DDF704711DF704750
:10AF700013DF7047B0DF7047B2DF70472DE9F04153
:10AF80009EB0064604A8148815460F46FEF790FDAD
:10AF9000BDF81030A34202D01EB0BDE8F081AB79FD
:10AFA000043B022BF8D931465048FFF77FFF4FF0A2
:10AFB00000080223314604463846CDE90688CDE92B
:10AFC00008888DF81830FEF797FD06A9002866D08E
:10AFD0003046ADF81C80FFF7CDFF2D7B012DDBD176
:10AFE000434F41463E22384610F075FA1EAA082308
:10AFF00022F86A3D3F492B463046FFF7BDFF6846C1
:10B000002146FEF7C3FE00983860BDF804309DF875
:10B010000620BA71BB802046FEF7B0FE002846D15C
:10B02000334935484FF6FF720B7883EA122383EADF
:10B03000131343EA02229BB282EA0332013182EA0D
:10B04000431381429AB2EFD1294B2C489A870021B1
:10B05000FEF77AF92046FEF7C3FEFF210020FFF736
:10B0600083FFB1210020FFF77DFF002894D1FFF777
:10B070007DFF002890D1224A4FF0FF314FF010237E
:10B08000C2F88010C2F880115869FFF771FF0028DC
:10B0900082D180F31488586900F018FF7CE740F2F1
:10B0A000FD133046ADF81C30FFF764FF74E70AA9C2
:10B0B0002046FEF7BBFE0028B2D01EAB13E903000A
:10B0C0000B0C3860B980BB7118AD0FCD0D4EC7F8B1
:10B0D00007000AAD7160B260F3600FCD11360FC684
:10B0E00095E8070086E807009AE700BFC0650020E2
:10B0F000807F0020B47F0020BC7F0020C06700203C
:10B1000000E100E0877F002070B582B06C46054604
:10B110000C492046FFF7F4F92E4694E8060028462D
:10B12000FFF7CEF9084B46F8103B20460749FFF7DA
:10B13000E7F9304694E80600FEF73AFC284602B0EC
:10B1400070BD00BFDCE4030024E50300FCE4030061
:10B1500070B5AAB00546FFF795F918B10446204628
:10B160002AB070BD16AE30462A49FFF7C9F996E8F5
:10B17000060002A8FEF71CFC02A8FEF759FC02A874
:10B180000421FEF759FC02A81421FEF759FC02A87D
:10B19000FEF71EFA044628B102A8FEF711FA20466F
:10B1A0002AB070BD103528461821FEF745FC284608
:10B1B0001721FEF745FC284601221749FEF762FCDD
:10B1C0002846FEF705FA04460028E5D16C462046DD
:10B1D0001249FFF795F994E806003046FEF7E8FBC0
:10B1E0003046FEF725FC02213046FEF725FC022101
:10B1F0003046FEF727FC3046FEF7EAF9044618B160
:10B200003046FEF7DDF9C7E701213046FEF756FC70
:10B21000F6E700BFECE403007DAF02000CE503009D
:10B22000D0F8C030988970472DE9F04106460846AD
:10B230001C461746FEF7FAFB224605463946D0F86B
:10B24000C00006F045FF844206D9D5F8D8301BB1BE
:10B25000211A89B230469847D5F8D0301BB1304614
:10B26000BDE8F0411847BDE8F08100BF08B592B2D3
:10B27000D0F8C00006F078FF08BD00BF00B583B06D
:10B28000D0F8C0000DF10702002106F0A7FF20B1A1
:10B290009DF8070003B05DF804FB4FF0FF30F9E7BD
:10B2A000D0F8C00006F002BFD0F8B03098897047DF
:10B2B000D0F8B00006F0FABE10B501680C4A8C69EF
:10B2C000944282B00BD1D0F8C00001220DF10701E9
:10B2D00006F04AFF40B19DF8070002B010BD012200
:10B2E0000DF10701A047F5E74FF0FF30F5E700BF8C
:10B2F0006DB2020000B583B0D0F8B0000DF10702C6
:10B30000002106F06BFF20B19DF8070003B05DF847
:10B3100004FB4FF0FF30F9E700B550F8103C0E4A3F
:10B320009B69934283B00CD1D0F8B00001220DF19B
:10B33000070106F019FF60B19DF8070003B05DF842
:10B3400004FBA0F11001084601220DF10701984706
:10B35000F1E74FF0FF30F1E76DB20200F0B583B0D6
:10B360006D4604460F4628461A49FFF7C9F895E886
:10B3700006002046FFF7A4F8174B1849002603F1F2
:10B3800008024FF47A704833C4E90436A0612260A1
:10B390002846FFF7B5F895E8060004F12000FEF70F
:10B3A00007FB28460E49FFF7ABF895E8060004F1C5
:10B3B0007000FEF7FDFA2046A4F8C470C4F8C0601F
:10B3C000C4E93466C4F8D860C4F8C86084F8CC60B6
:10B3D00003B0F0BD50E5030068E5030040E503005D
:10B3E00030E50300F8B506461D480F46FFF75EFD41
:10B3F000F0B1FEF7C7FC033884B205F0F3FC012876
:10B40000204618D003F008FF05468DB12246294694
:10B41000D6F8C80006F0A8FE88B905F0E3FC0128BC
:10B420004FF00104284617D003F008FF2046F8BD6E
:10B4300000242046F8BD10F00BF80546E5E703466A
:10B4400039462A4606F12000FEF786FB044605F041
:10B45000C9FC01282846E7D110F002F82046F8BDC3
:10B46000C06500202DE9F84F0446254892469846CD
:10B470000F46FFF71BFD50B304F12009064639467D
:10B480004846FEF739FB10B394F8CC301FFA88FB1E
:10B49000ABB1D4F8C80090B15A46514606F018FE38
:10B4A000D4F8C8309B89054630469EB2FEF76AFC48
:10B4B000033886420FDA45462846BDE8F88F5B46DA
:10B4C000524639464846FEF747FB0028F3D100258F
:10B4D0002846BDE8F88F20463946FFF783FF00284D
:10B4E000F5D04545E7D2ABEB05039BB20AEB05026D
:10B4F00039464846FEF730FB0028E9D04546DBE7F1
:10B50000C06500202DE9F043044683B054F8103C98
:10B510002B489E6A8DF80710FFF7BCFC294B9E4212
:10B520000546A4F11007014627D12548FFF7BEFCC8
:10B530000646F0B104F1100840462946FEF7DCFA51
:10B54000B8B194F8BC3003B3D4F8B800E8B10DF149
:10B550000701012206F0BCFDD4F8B8308146304620
:10B560009C89FEF70FFCA4B20338844217DA01204D
:10B5700000E0002003B0BDE8F083384601230DF160
:10B580000702B04703B0BDE8F083294640460123D7
:10B590000DF10702FEF7E0FA03B0BDE8F08338468C
:10B5A0002946FFF71FFF0028E3D0B9F1000FDED1D5
:10B5B0000DF10702294640460123FEF7CDFAD9E7EF
:10B5C000C065002065B402002DE9F04F044683B049
:10B5D00054F8103C30489E6A88461746FFF75AFCDC
:10B5E0002E4B9E420546A4F1100935D101462A484A
:10B5F000FFF75CFC064650B304F1100A504629469A
:10B60000FEF77AFA18B394F8BC201FFA87FBB2B1A0
:10B61000D4F8B80098B15A46414606F059FDD4F81E
:10B62000B820019030469489FEF7ACFBA4B20338F1
:10B6300084421ADA3E46304603B0BDE8F08F5B46DE
:10B64000424629465046FEF787FA0028F2D10026E6
:10B65000304603B0BDE8F08F01463B4642464846BF
:10B66000B44603B0BDE8F04F604748462946FFF7AF
:10B67000B9FE0028EBD0019EB742DBD9ABEB060345
:10B680009BB208EB060229465046FEF765FA0028F1
:10B69000DED03E46CFE700BFC065002065B40200A3
:10B6A0002DE9F0410568294BAD6A82B09D428DF8C5
:10B6B000072029D1044626480E46FFF7F7FB05462A
:10B6C000F0B104F1200738463146FEF715FAB8B15B
:10B6D00094F8CC30FBB1D4F8C800E0B10DF107010B
:10B6E000012206F0F5FCD4F8C8309B898046284634
:10B6F0009DB2FEF747FB0338854216DA012000E0D1
:10B70000002002B0BDE8F08101230DF10702A84737
:10B7100002B0BDE8F0813146384601230DF1070241
:10B72000FEF71AFA02B0BDE8F08120463146FFF775
:10B7300059FE0028E4D0B8F1000FDFD10DF1070267
:10B74000314638460123FEF707FADAE765B402000E
:10B75000C06500202DE9F041044682B023682B48E3
:10B760009E6A8DF80710FFF795FB294B9E42054610
:10B77000014627D12548FFF799FB0646F0B104F1B1
:10B78000200738462946FEF7B7F9B8B194F8CC300F
:10B7900003B3D4F8C800E8B10DF10701012206F0A7
:10B7A00097FCD4F8C8309B89804630469EB2FEF79D
:10B7B000E9FA0338864217DA012000E0002002B0DF
:10B7C000BDE8F081204601230DF10702B04702B029
:10B7D000BDE8F0812946384601230DF10702FEF746
:10B7E000BBF902B0BDE8F08120462946FFF7FAFD1B
:10B7F0000028E3D0B8F1000FDED10DF10702294691
:10B8000038460123FEF7A8F9D9E700BFC06500203C
:10B8100065B402002DE9F04F044681B023682F483B
:10B820009E6A88461746FFF735FB2D4B9E4205461C
:10B8300036D101462948FFF739FB814658B304F158
:10B84000200A50462946FEF757F920B394F8CC3029
:10B850001FFA87FBBBB1D4F8C800A0B15A464146D5
:10B8600006F036FCD4F8C8309B89064648461FFAD5
:10B8700083F9FEF787FA033881451ADA3E463046E7
:10B8800001B0BDE8F08F5B46424629465046FEF7C0
:10B8900063F90028F2D10026304601B0BDE8F08FF0
:10B8A00001463B4642462046B44601B0BDE8F04F53
:10B8B000604720462946FFF795FD0028EBD0B742A8
:10B8C000DCD9ABEB06039BB208EB060229465046D7
:10B8D000FEF742F90028DFD03E46D0E7C0650020E1
:10B8E00065B4020010B50A4B0446D0F8C8002360C6
:10B8F0004033236110B103685B68984704F170001E
:10B90000FDF75EFE04F12000FDF75AFE204610BD53
:10B9100070E5030010B50C4B0446D0F8C800236056
:10B920004033236110B103685B68984704F17000ED
:10B93000FDF746FE04F12000FDF742FE204605F02B
:10B94000DFFF204610BD00BF70E50300F8B50446D8
:10B95000182005F0C5FF00220546012106F07EFBF8
:10B960002846C4F8C050B4F8C41006F089FB20463D
:10B97000FEF788FD054608B12846F8BD01211C48A0
:10B98000FFF78CFA04F12006074610213046FEF737
:10B9900053F82A4630461121FEF766F839463046FC
:10B9A000FEF74EF830461349FEF780F83046FDF7B3
:10B9B0000FFE05460028DFD1703420460C21FEF72B
:10B9C0003BF8204601220C49FEF754F82946204650
:10B9D0001122FEF749F839462046FEF731F8204695
:10B9E0000649FEF763F82046BDE8F840FDF7F0BDD4
:10B9F000C065002060E5030029B2020064E5030091
:10BA00000022012142700170C0E90122C2818281BD
:10BA1000704700BF017001B1704710B504460A209D
:10BA200003F08CFC606010BD037810B5044613B9B8
:10BA3000406804F0E1FA002301226370C4E9013395
:10BA4000E381A381227010BD002381608281C381C4
:10BA5000704700BF037870B504460D46B3B940681F
:10BA60001149AD02A1FB053101238909637004F07E
:10BA700017F9B0B94FF0FF352378002666701BB177
:10BA8000606804F0B9FA6660284670BD03220021A0
:10BA9000012003F011FC60600028E1D14FF0FF3578
:10BAA000F2E7E589ADB2E7E7D34D62104078704721
:10BAB00070B58689964204463546806828BF15468B
:10BAC00021B12A460FF0E3FCA068A689E3892B4444
:10BAD0002844761B9BB2A060A681E381284670BDF6
