:020000022000DC
:10600000000004204DBE02008DBE02008FBE0200C3
:1060100091BE020093BE020095BE02000000000087
:10602000000000000000000000000000C9BD0200E8
:1060300099BE020000000000E9BD02009DBE020002
:1060400049C002009FBE02009FBE02008D6902008F
:106050009FBE02009FBE02009FBE02009FBE0200C4
:106060009FBE02009FBE02009FBE02009FBE0200B4
:106070009FBE02009FBE02009FBE02009FBE0200A4
:106080009FBE020055BB02009FBE02009FBE0200E1
:106090009FBE02009FBE02009FBE02009FBE020084
:1060A0009FBE02009FBE02009FBE02009FBE020074
:1060B0009FBE02009FBE0200000000000000000022
:1060C0009FBE02009FBE02009FBE020091EC020034
:1060D0009FBE02009FBE02009FBE0200219C0200E4
:1060E0009FBE02009FBE02009FBE02000000000093
:1060F000000000009FBE02000000000009ED020049
:10610000000000000000000000000000000000008F
:10611000000000000000000000000000000000007F
:10612000000000000000000000000000000000006F
:10613000000000000000000000000000000000005F
:10614000000000000000000000000000000000004F
:10615000000000000000000000000000000000003F
:10616000000000000000000000000000000000002F
:10617000000000000000000000000000000000001F
:10618000000000000000000000000000000000000F
:1061900000000000000000000000000000000000FF
:1061A00000000000000000000000000000000000EF
:1061B00000000000000000000000000000000000DF
:1061C00000000000000000000000000000000000CF
:1061D00000000000000000000000000000000000BF
:1061E00000000000000000000000000000000000AF
:1061F000000000000000000000000000000000009F
:10620000F1EE103A43F08073E1EE103A704700BFB0
:1062100010B5054C237833B9044B13B10448AFF3E0
:1062200000800123237010BD706200200000000078
:106230007824030008B5034B1BB103490348AFF3AF
:10624000008008BD00000000746200207824030074
:10625000154B002B08BF134B9D46A3F5803A002138
:106260008B460F461348144A121A09F085FD0F4B4E
:10627000002B00D098470E4B002B00D098470020F1
:10628000002104000D000D48002802D00C48AFF397
:10629000008009F019FD2000290005F025FE09F015
:1062A000FFFC00BF00000800000004200000000008
:1062B0000000000070620020487C00200000000008
:1062C0000000000010B5044600F082FD4FF0FF33DF
:1062D00063622046024A1C2100F082FD204610BD68
:1062E000DC620020000000002DE9F04F8DB003A912
:1062F000824600F0F7FBDFED445ADDED087A9FEDB2
:10630000435A9FED436ADDED096A9DED0A7A414DDE
:1063100077EEE57A37EE467A76EE856AFDEEE77A35
:10632000FDEEE66A17EE904AFDEEC77ACAED0B6AFB
:1063300017EE900ACAED0C7ACAF8284009F018F94D
:10634000CDE90001204609F013F99DED001B41EC59
:10635000100B08F01FFD26A3D3E9002351EC100B0E
:1063600009F070F909F030FC07EE900AF5EEC07AFA
:10637000F1EE10FA44BF9FED287A77EE877A0FF29C
:106380007809D9E90089FDEEE77A1DA7D7E900670A
:1063900017EE900ACAED0D7A002402E0DAF8340014
:1063A0001E34001B0028B8BF4042C0F11E0009F097
:1063B000DFF842464B4609F045F93B46324608F0C5
:1063C0008BFF09F0D9FB0A2201468346134801F0EE
:1063D000BBF82BEAEB7155F8040B06F07FF8B4F527
:1063E000A57FDBD10DB0BDE8F08F00BFAFF300801B
:1063F00099403F9EDDA54C40EFEEEEEEEEEE1040F4
:106400000000000000C05F400000FC41E17A6642ED
:1064100000006D42CC1E03000000B44398630020CE
:1064200070B5084C04F1300654F8045B012128468D
:1064300006F0ACF92846002106F0E8F9B442F3D1A1
:1064400070BD00BFFC1E0300704700BF30B5214D7A
:10645000214C8FB028464FF4E13101F037FA1F4943
:10646000284601F059F8FFF7DBFF6846FFF72AFFDF
:106470001B4B9DF804101971DDF80610C3F80610C7
:106480000398049D059ABDF80A105981D8601D61D2
:106490005A6106990798089D099A9961D8611D6209
:1064A0005A620A990D9A0B980C9D9962D862002144
:1064B0001420C3E90C5206F069F9204600F000FDF3
:1064C0002046052100F0ECFF204600F00BFD0FB048
:1064D00030BD00BF98630020C46200202C1F030061
:1064E0008C62002000000000D0B5142082B006F0BD
:1064F00081F809F03DF820A3D3E9002309F0A2F8C0
:1065000009F062FB09F046F81DA3D3E90023064613
:106510000F4609F013FB00BB0446394630461AA368
:10652000D3E9002309F00AFB78B90090024601463E
:10653000B4230F4800F08EFF0D4800F0D3FC0D4847
:1065400002B0BDE8D040FFF7CFBE009421467823CB
:106550001E22074800F07EFFEEE700230093194655
:106560007822034800F076FFE6E700BFAFF3008033
:10657000C46200208C6200206D1AD0A6016D7A3FA3
:106580003333333333330B406666666666660E40DC
:1065900070B50C4E0C4D0D4C522330460822012193
:1065A00000F050FC2A460A49304608F0EDFB204630
:1065B00000F00EFC2A4620460649BDE8704008F06F
:1065C000E3BB00BFC4620020006000208C6200209A
:1065D000A56E02004964020000207047704700BFAA
:1065E000203001F053B800BF203001F041B800BFA7
:1065F000203001F051B800BF38B5437F0BB90020FF
:1066000038BD00F1680420460D4601F04DF8002821
:10661000F5D12046294601F019F8012038BD00BF08
:106620002DE9F0475AB30646DFF8588033681B68F7
:106630004D1E434517464FF0000400F1680915F858
:1066400001AF16D1737F13B92046BDE8F0874846E5
:1066500001F02AF80028F7D15146484600F0F6FF2D
:106660000134A742F0D0336815F801AF1B684345E9
:10667000E8D05146304698470028F1D1E4E7144667
:10668000E2E700BFF965020010B4837E1F2B4FF0D4
:10669000010288BF03F01F03C27603F5E0738CBFCD
:1066A000284A4FF0A04240F20C6142F82310437E8A
:1066B0001F2B86BF03F01F03224A4FF0A04203F5B1
:1066C000E07340F20C6142F8231003694FF0CC7282
:1066D000C3F8242503690622C3F800250369827ED6
:1066E000C3F808250369427EC3F80C2590F91830D9
:1066F000002B14DA144A03F00F031A4460231376B4
:1067000090F91830002B07DB104903F01F0001221D
:106710005B09824041F823205DF8044B704759091A
:10672000603103F01F030124084A04FA03F342F81E
:10673000213090F91830002BDCDB1344602283F801
:106740000023DDE700030050FCEC00E000E100E086
:106750000AB9104670472DE9F041054600F12008BE
:10676000404614461E460F4600F07EFF2B69C3F8D4
:1067700088752A69012313622A69C2F834852A6957
:10678000C2F838452A6913602A6902E0D2F8243138
:106790001BB9D2F84C110029F8D00023C2F84C31B3
:1067A0002A6902E0D2F8241119B9D2F85C11002943
:1067B000F8D00023C2F85C312B696EB9D3F82421DC
:1067C00052B90122DA612A69D2F84831002BFBD094
:1067D0000023C2F8483109E001225A612A69D2F83F
:1067E0000431002BFBD00023C2F804312B69D3F80D
:1067F00024211AB10022C3F824212B69D3F83C05C7
:106800002866C0B2BDE8F08110B50446683084F84F
:10681000B01000F029FF0123637710BDF8B50446DE
:106820000020236994F8B0206077C3F88825236995
:1068300001271F62236904F16806C3F844653046E6
:106840000D4600F023FF2369C3F8480523699F60C4
:10685000236902E0D3F824211AB9D3F85021002A81
:10686000F8D00022C3F85021304600F00FFF236912
:1068700040BB0022C3F86021236915B9D3F8242155
:106880002AB301225A612269D2F80431002BFBD0CD
:106890000023C2F804312369D3F8240168B100222F
:1068A000C3F824212369D3F8C404C3F8C40402281C
:1068B00003D0042814BF04200320F8BDD3F82421FA
:1068C000002AD6D1D3F86021002AF7D0D1E70122DF
:1068D000DA612269D2F84831002BFBD00023C2F8DC
:1068E0004831D8E770B5036990F8B02000214177AE
:1068F000C3F88825036901261E62036900F1680553
:106900000446C3F84455284600F0C0FE2369C3F886
:10691000480523699E60236902E0D3F824211AB94F
:10692000D3F85021002AF8D00022C3F8502128467D
:1069300000F0ACFE236918BB0022C3F86021236974
:1069400001225A612269D2F80431002BFBD00021C8
:10695000C2F804112369D3F8240160B1C3F82411EB
:106960002369D3F8C404C3F8C404022803D004285C
:1069700014BF0420032070BDD3F82421002ADBD1EA
:10698000D3F86021002AF7D0D6E700BF70B5294CB4
:106990006369D3F86421002A3AD1D3F86821E2B9B7
:1069A000D3F8042162B1227F0021C3F804113AB167
:1069B000D4F8B820D3F83C0520660AB19047636943
:1069C000D3F8242142B10022C3F82421D3F8D024E3
:1069D000C3F8D02401225A6170BD0022C3F8682197
:1069E000154822770123637700F03EFED4F8B430D7
:1069F00003B1984763691048C3F8440500236377DF
:106A000000F044FE63690122C3F848055A63C7E7F2
:106A1000002204F12006C3F86421012530462577C1
:106A200000F022FE63694022C3F83465C3F83825BC
:106A30001D63B2E7DC6200204463002038B50E4CD1
:106A40000E4A20464FF47A7340F8202B0025C4E903
:106A5000015300F0F1FD04F1680000F0EDFD084A7B
:106A6000084B6577D2E91612032020766176A2766C
:106A7000C4E9043338BD00BFDC620020401F0300BE
:106A8000981F030000300040704700BF704700BFF0
:106A900038B5282205460846002109F06DF90B2279
:106AA00009490A4C09F0BAFE01210022C160C272F4
:106AB00003462D6A064807491D6102255A625D6139
:106AC000DC619861196238BD5C1F03000000C8C416
:106AD0000000C8448FC2753C10B5044605F044FA66
:106AE000204610BD2DE9F047202294B004460D4603
:106AF000081D002109F040F924232B60236A6B60F4
:106B00004FF00208C5F8088003F0E8F80126286174
:106B10004FF0280C06274FF00009D4E9061233463F
:106B2000CDF800C0CDE9017908A8039607F0D4F8A4
:106B30003A4604A908A807F05DF99DF813E09DF80E
:106B400015309DF811A09DF810C09DF812709DF8A9
:106B500014004CEA0A2C40EA032047EA0E274FF0C3
:106B6000210ED4E9061233460396CDE90169A4F853
:106B700006C0608127810EA8CDF800E007F0ACF8D0
:106B800042460EA9052306A807F082F906A807F0D9
:106B900087F9C0B2032840D0404539D19FED255A2E
:106BA000B4F906309FED246AF7EE004AC4EE855A28
:106BB000012007EE903AB4F9083006EE903AB4F9A5
:106BC0000A30F8EEE77A07EE103A67EEA57AF8EEAB
:106BD000E66AB8EEC77A27EE865A66EEA56A27EE11
:106BE000257AC4ED037AC4ED046A84ED057A85ED57
:106BF000055AD4ED047A67EE867AC5ED067AD4EDAF
:106C0000057A67EE867AC5ED077A14B0BDE8F0879D
:106C1000B04205D19FED095AC2E79FED095ABFE77F
:106C2000DFED087A4845B7EE005A08BFB0EE675A64
:106C3000B6E700BF00900E450000C84200D05545A1
:106C400000E0D54400D0D5452DE9F04395B00124AE
:106C500000264FF021080546D0E9061223460EA86B
:106C6000039401940296CDF8008007F035F822468F
:106C700002230EA908A807F00BF9214608A820272F
:106C800007F090F90A2003F035F8D5E906122346FB
:106C90000394CDE901460DEB0700009707F01CF8BF
:106CA0000DEB07010523022204A807F0F1F84FF0CD
:106CB000230904A8032107F075F9D5E90612234634
:106CC0000394CDE901460EA8CDF8009007F004F832
:106CD00002231A460EA906A807F0DAF806A803212F
:106CE00007F060F9D5E906122346CDE90264CDE943
:106CF00000740DEB070006F0EFFF0DEB0701052315
:106D0000022204A807F0C4F804A8032107F04AF9F6
:106D1000D5E906122346CDF80090CDE9026401942E
:106D20000EA806F0D9FF02231A460EA906A807F0FE
:106D3000AFF8032106A807F035F90A2002F0DAFFC0
:106D4000D5E9061223460097CDE9026401940EA806
:106D500006F0C2FF23460EA904220DEB070007F040
:106D600097F821460DEB070007F01CF9D5E906124C
:106D70002346CDF80080CDE9026401940EA806F008
:106D8000ABFF0EA9052302220DEB070007F080F8E8
:106D900031460DEB070007F005F9D5E9061222256B
:106DA00023460394CDE901460EA8009506F094FF12
:106DB00033460EA902220DEB070007F069F83146B1
:106DC0000DEB070007F0EEF8204615B0BDE8F083A4
:106DD000024A02600022C0E9062270476C1F0300CD
:106DE00070B585698CB00446DDB100262846E661A1
:106DF000012107F0EFF908B90CB070BD01230F2590
:106E0000D4E9061206A80393CDE90053029606F0D2
:106E100063FF06A806F074FF3D280ED030460CB084
:106E200070BD1020CDE9041205F08EF8DDE90412E2
:106E3000054607F0C5F9A561D7E72046FFF704FF2F
:106E4000DAE700BF70B50446C3F38100C3F38116CF
:106E5000FF2B0D466074C3F3011103F00300A0740F
:106E60008CBF002301238E4214BF0420032015FB96
:106E700000F080B223700023E6742174A080637058
:106E8000237263610121164608F0EEFEE06020B92E
:106E9000C4F80200E680204670BD6580E68020468A
:106EA00070BD00BF10B50446C06808F039FFB4F9E2
:106EB0000600002802DB002105F068FC204610BD1A
:106EC00010B50446B0F90600002807DB012105F0E3
:106ED0005DFC0021B4F9060005F098FC0123637005
:106EE00010BD00BFC368002B00F02C812DE9F04FCE
:106EF00093B047690190A84DA84EA94C804620E068
:106F000063689B09BB4209D2EB68DA0127D5236885
:106F1000DB0724D563689B09C8F81430EB68DF01F0
:106F200002D52368D80722D403F0B4FFA0FB0601E2
:106F3000830AD8F8147043EA8153DB1BB3F5967FBC
:106F40001DD2EB68D80102D52368D907D8D403F045
:106F5000A1FFA0FB0601830A43EA8153D2E703F0B5
:106F600099FFA0FB0601830A43EA8153D4E76368D3
:106F7000D8F814709B09DB1BB3F5967FE1D3019A17
:106F8000884B94880FCB12AD05E90F00DDF838A0CF
:106F9000DAF8003543B9DAF86035002B04DADAF8AC
:106FA0006435002BC0F2CF80DDF83CA0DAF8003564
:106FB00043B9DAF86035002B04DADAF86435002BCF
:106FC000C0F2C881DDF840A0DAF8003543B9DAF83C
:106FD0006035002B04DADAF86435002BC0F2C58185
:106FE000DDF844A0DAF8003543B9DAF86035002B53
:106FF00004DADAF86435002BC0F2C28104F092FDA5
:10700000019A694BB2F9062053F822301F2B73D82E
:10701000012202FA03FB4FF0A0465F49019ACB68B8
:107020005F4C1078614A43F08073CB60236800287E
:1070300043F0010323600CBF4FF4C3634FF430737C
:10704000039342F001030BBF4FF01A084FF01208F0
:10705000462729270CBF9C2547250493019BB3F89D
:1070600004A0D3F80CE063680293BAF1000F49D092
:107070000AF1FF391FFA89F909F10109F1440022E7
:107080001EF801CB0820802163689B1AAB42FBD31A
:107090006268D6F808351CEA010F43EA0B03C6F80C
:1070A000083520D063689B1ABB42FBD3D6F80C3559
:1070B000013843EA0B034FEA5101C6F80C35E3D11E
:1070C000CE45DDD1039B03FB0AFA63689B1AAB42F2
:1070D000FBD36368029A9B1A534515D34FF496402D
:1070E000049B9847BAE763689B1A4345DED26368FE
:1070F0009B1A4345F7D3D9E7203B012202FA03FB51
:107100002B4E8AE75246E0E704F016FD224BDB687F
:10711000D9010AD5224B1A68D20706D55B68019AB5
:107120009B09536113B0BDE8F08F03F0B3FE1B4B16
:10713000019AA0FB0301830A43EA8153536113B010
:10714000BDE8F08F7047DAF86835002BBFF62CAF3A
:10715000DAF86C35002BBFF627AF2401231D02930C
:1071600004F016FA012800F06881029802F0DCFDB4
:107170008346BBF1000F3FF441AF019A9388117829
:107180000391002B00F06181D3680493082500234C
:10719000CDF834A05DE000BFF0ED00E040420F000C
:1071A000001000E0801F0300981F0300901F0300E1
:1071B0000003005048F2130848F2080912F0800F4B
:1071C00014BF47464F4612F0400F14BF46464E4686
:1071D00012F0200F14BFC446CC4612F0100F2BF84B
:1071E00011700C462BF810600899099E079F2BF828
:1071F00011C014BFC646CE4612F0080F14BF444655
:107200004C4612F0040F2BF816E018BF40462BF83E
:10721000174008BF4846059E0A9C2BF8160012F03E
:10722000020F14BF414649462BF8141012F0010F0B
:107230000B990CBF4A4642462BF81120019A0133A4
:1072400091889BB205F10802994292B240F2A38064
:107250001546A91FEE1E6A1EA5F1050C89B2B6B22D
:1072600092B2AC1EA4B2089105961FFA8CF10B9253
:10727000AE1EDA0092B22F1F09910A94B1B26C1EB1
:10728000BFB20C911FFA84FA11460692039C049A2D
:107290000797E646E81FA5F10709A5F10608A5F13D
:1072A000040CEF1E80B21FFA89F91FFA88F81FFA42
:1072B0008EFE1FFA8CFCBFB2D25C002C3FF47AAF7A
:1072C00048F2060148F20D0412F0800F0CBF084688
:1072D000204612F0400F0CBF0E46264612F0200F3B
:1072E00008BF0C46059412F0100F48F20D0418BFA9
:1072F00021460791069912F0080F2BF8110048F269
:1073000006010CBF0846204612F0040F2BF8196046
:10731000894618BF2146BDF814402BF8184012F0DA
:10732000020FC84648F20D090CBF44464C4612F005
:10733000010F4A4608BF4246BDF81C802BF81E804C
:107340002BF81C002BF817100C992BF811402BF878
:107350001A2073E7DAF86835002BBFF633AEDAF897
:107360006C35002BBFF62EAEF7E6DAF86835002B49
:10737000BFF636AEDAF86C35002BBFF631AEECE670
:10738000DAF86835002BBFF639AEDAF86C35002B29
:10739000BFF634AEE1E66A1C92B2DDF834A05200CA
:1073A0000BEB45034FF400401880039B2BF80200C1
:1073B0000021CAF80415CAF80C15D3BB2823CAF853
:1073C0000835029B0199224AB1F90610580800239A
:1073D000CAF81435CAF81035CAF820B5CAF8240519
:1073E000CAF82835CAF82C3552F82120CAF8602589
:1073F0000122CAF80025CAF81031CAF80820DAF8C4
:1074000010312BB904F074FFDAF81031002BF9D0E9
:1074100000234FF0FF32CAF81031CAF80035CAF81D
:10742000602504F0B5F8012858460BD002F08EFC18
:107430006CE61423CAF80835C3E7029808F068FC24
:10744000834696E608F06CFC60E65B460222A9E7FC
:10745000981F0300F0B444889DF810608C4219D93D
:10746000047A44B112FB04F214FB03F314FB06F498
:10747000120A1B0A260AC57C077CC468AF420BD0DF
:1074800004EB810100244C55057C4A55427C8B5409
:10749000837CCE54F0BC704701EB41012144F4E7FA
:1074A00070B4037A4E1CF6B2B3421AD0013B13F00B
:1074B000FF03C56817D0FF2917D03102013991FBAE
:1074C000F3F189B283885BB12A46137801FB03F399
:1074D0001B1202F8013B531B84889BB29C42F4D8D8
:1074E000067270BC70471946ECE74FF6FF7191FBCE
:1074F000F3F1E7E708B501210D2005F047F90D206C
:1075000005F0A0F90420012105F040F90420BDE8B0
:10751000084005F097B900BF036870B505460C46F2
:107520005E6849B1084609F071F9214602462846CD
:10753000B0472B685E680446284602220149B047DE
:10754000204470BD2C200300F0B504468BB00F46DC
:107550000568002A44D00A2A26D1002945DB0AAE54
:107560000023334806F8043D0B46A0FB0312D20863
:1075700002EB8201A3EB4103303306F8013D1346D1
:10758000002AF2D1304609F041F9314602466B68D3
:10759000204698470646236826495B682046022213
:1075A000984730440BB0F0BD0AAED2B20023022A95
:1075B00006F8043D2CBF10460A200A46B2FBF0F143
:1075C00000FB1127FBB2092F03F130078ABF3733C5
:1075D000FBB2DBB20A4606F8013D0029EED1D1E745
:1075E0002B68C9B298470646D5E72B682D219847E6
:1075F0000AAD002306460E4805F8043D7B42A0FB79
:107600000321C90801EB8102A3EB4203303305F8E3
:10761000013D0B460029F2D1284609F0F7F823680E
:10762000024629465B68204698470644B3E700BFF8
:10763000CDCCCCCC2C20030008B54022002108F092
:107640009BFB0022C0E9102208BD00BF10B4D0E9A6
:107650001024531C03F03F039C4218BF81545DF873
:10766000044B18BF036470470023C0E91033704710
:10767000D0E91023934206D05A1CC35C02F03F02AB
:107680004264184670474FF0FF307047D0E9103021
:10769000181A48BF40307047D0E91023934214BFF6
:1076A000C05C4FF0FF307047D0E91030013303F079
:1076B0003F03181AB0FA80F04009704770B592B0D5
:1076C0001D460C46164601A84222002108F054FB34
:1076D000412D02D8002012B070BD621CD2B202232C
:1076E0008DF806408DF80E408DF826408DF81E204E
:1076F0008DF827208DF8312040F20945052240F20F
:1077000001248DF807308DF808308DF809308DF898
:1077100012308DF821308DF822308DF833308DF80D
:107720003B30ADF80C502423ADF810408DF81520F7
:107730008DF823201B4D8DF81630042201248DF87E
:1077400020308DF8243006958DF81C408DF81F20D0
:107750008DF830203046144D0A9540F6083608233F
:107760004FF411640A22ADF804608DF82C30ADF8A6
:107770002E4040238DF8342001A9062640F20755FB
:107780000A4C8DF825604222ADF838508DF83C3017
:107790008DF84330CDF83F4008F0CAFA422012B0CD
:1077A00070BD00BF20010524070580030705800286
:1077B000A0F11000FFF782BF00B5002083B000F0F9
:1077C000D3F818B9019004F093FD019803B05DF867
:1077D00004FB00BF00B5002183B008460DF107028D
:1077E00000F0F2F820B19DF8070003B05DF804FB4B
:1077F0004FF0FF30F9E700BF00B583B001220DF173
:107800000701002000F0BAF820B19DF8070003B08E
:107810005DF804FB4FF0FF30F9E700BF002000F0F7
:10782000EFB800BF70B5164662B100200D46144691
:1078300000F074F82946224680B1002000F0D2F80A
:10784000241A01D1304670BD054404F051FD0020DA
:1078500000F064F8294622460028EED1361B304657
:1078600070BD00BF002000F003B900BF30B5036851
:10787000154A5B6883B093428DF807101ED1002033
:1078800000F04CF80DF1070501242946224688B185
:10789000002000F0A7F8241A02D1012003B030BD67
:1078A000054404F025FD002000F038F82946224662
:1078B0000028EDD1C4F1010003B030BD01220DF16B
:1078C0000701984703B030BD25780200704700BF1C
:1078D00001B1704700B583B00846694600F034F83E
:1078E000009BB3F5966F02D003B05DF804FB02F085
:1078F000ADF9F9E7074A084B10B4002002F108047B
:107900004FF47A7130321C601A61C3E901015DF8ED
:10791000044B7047302003009863002010B50446E4
:1079200000F016FC08B9002010BD00F019FC00287A
:10793000F9D1044B4FF4567202FB0434207900F065
:10794000010010BDAC630020064A4FF4567303FBE0
:10795000002050F8063F0B60838882798A718B8003
:10796000704700BFAC630020034A4FF4567303FB1B
:107970000020408B704700BFAC630020F8B54FF487
:107980005674104E04FB00F404F1100092B230441F
:1079900000F052FA35190746E978002001F0FEF8A8
:1079A00028B96A8BAB8A9B1A9BB23F2B01D8384609
:1079B000F8BD04F536723244E978402301F0CEF880
:1079C0003846F8BDAC63002010B4054C4FF4567334
:1079D00003FB004089B210305DF8044B00F09EBA02
:1079E000AC63002010B5054C4FF4567303FB004008
:1079F00092B2243000F0F4FA10BD00BFAC63002056
:107A0000F8B54FF45674184D04FB00F42E190020FD
:107A1000B17801F0C3F808B10020F8BD04F546774D
:107A200004F124002F4428443946402200F004FA8F
:107A3000044608B92046F8BD00F08AFB0028EBD0C8
:107A400000F08EFB0028E7D13379DB07E4D53A4616
:107A5000B178234601F082F80028EBD1034B1B6874
:107A6000DA07D9D500BEF8BDAC630020F0ED00E028
:107A7000044A4FF4567303FB0020C38D008DC01AD7
:107A800080B27047AC630020F0B51A4C83B000217F
:107A90004FF45672204601250E4608F06DF9FF237B
:107AA0004FF4424204F138016371E2802B4608270B
:107AB000009604F110004FF480722773258100F0C6
:107AC0008DF92B464FF4807204F59C71009604F1F9
:107AD000240000F083F904F50E71284602F090FBB3
:107AE00004F522712062284602F08AFB606303B02D
:107AF000F0BD00BFAC63002010B5074C002304F1BB
:107B000010002360237100F009FB04F12400BDE89C
:107B1000104000F003BB00BFAC6300202DE9F04132
:107B20004B79022B82B004D00025284602B0BDE874
:107B3000F0818B79022BF7D1CB79062BF4D82D4E1F
:107B4000B3782BB12C4B1B68DB07EDD500BEEBE700
:107B50008B7833700C780C4407466378242B4FF0F5
:107B600009050BD1082A02D80FE0AA420DD32378C9
:107B70001C441D446378242BADB2F6D0052B16D0DF
:107B8000042B02D163790A2B1FD0F178002001F079
:107B900005F80028C9D1728BB38A9B1A9BB23F2B80
:107BA000C3D9F178154A402300F0D8FFBDE721463C
:107BB000384600F0D1FF0028C4D0A3787370237832
:107BC0001C441D44ADB26378DAE70D4A94F8008096
:107BD0000192022301320092384604EB08011A4652
:107BE00000F04EFF0028ADD00E3518FA85F5ADB285
:107BF000CBE700BFAC630020F0ED00E0846600201E
:107C0000AE63002008B50B7803F06003202B01D091
:107C1000002008BD094B8A8818789042F8D14A782C
:107C2000202A01D0012008BD054A002AFAD0991D5A
:107C30000020AFF30080012008BD00BFAC6300202E
:107C40000000000038B50B7803F06003202B01D052
:107C5000002038BD114A8B8815789D42F8D14B78A9
:107C6000202BF5D3212B05D80632072300F0E4FFA3
:107C7000012038BD222BEBD14C88147100F0C4FFD9
:107C8000074B43B1C4F3400204F001010020FFF7A9
:107C90001FFE012038BD012038BD00BFAC630020AD
:107CA000D17802002DE9F843464CE2788A420F462B
:107CB0001E4654D1A3B1444B04F5367505EB0609B5
:107CC00004F1100843B32946404600F051F96379A6
:107CD000FF2B02D0297899422DD00135A945F2D148
:107CE0003A4B1BB1638B9BB2002B67D1E17800202C
:107CF00000F054FF50B9628BA38A9B1A9BB23F2BB2
:107D000004D94023324AE17800F028FFA3789F424B
:107D100015D00120BDE8F88329464046013500F022
:107D200027F94D45DCD029464046013500F020F9C1
:107D30004D45F1D1D4E70020AFF30080CDE73946BF
:107D4000002000F02BFFB0B1002EE2D016F03F0370
:107D5000DFD1A1781A46184600F000FFD9E7A378D2
:107D60008B42ECD01B4B186810F00100D2D000BE43
:107D70000020BDE8F88318494022A1F53D7000F0CD
:107D80005BF805460028DFD000F0E2F90028DBD0E0
:107D900000F0E6F90028D7D12379DB07D4D52B46AC
:107DA0000D4AA17800F0DAFE0028B2D1094B1B6819
:107DB000DA07C9D500BE002EC8D1AAE70020AFF36C
:107DC000008093E7AC63002000000000000000008A
:107DD00084660020F0ED00E0C46600202DE9F84341
:107DE00005699DF82080DDB10446894628464FF09C
:107DF000FF311E46174602F045FC2069C4F800908A
:107E000000236381A780A381E68084F80880E38152
:107E100018B11A46194602F019F80120BDE8F88396
:107E20004581016085818280C38080F80880C5819A
:107E30000120BDE8F88300BF2DE9F0414589ADB2CE
:107E4000002D52D00446006915460F4618B14FF078
:107E5000FF3102F017FC6389A6882168B4F806C0D8
:107E60009D4288BF6589E38988BFADB22B44B34288
:107E70003EDDE289E389B61AB6B20CFB03110CFBB6
:107E800006F2384607F054FFE389A288216833449C
:107E90009BB2934224BF9B1A9BB2E3816389E28821
:107EA0009B1B9BB26381B4F80EC0AB1B1FFA83F817
:107EB00006FB027002FB0C1102FB08F207F038FF10
:107EC000E389A28843449BB2934224BF9B1A9BB28E
:107ED000E3816389A3EB08039BB26381206920B12E
:107EE00000231A46194601F0B1FF2846BDE8F0818B
:107EF000E3890CFB05F20CFB0311384607F018FF71
:107F0000E389A2882B449BB2934224BF9B1A9BB265
:107F1000E38163895B1B9BB26381DFE743899942FD
:107F200024D270B50546006916460C4618B14FF0CC
:107F3000FF3102F0A7FBE989AB88EA88214489B2C6
:107F4000994228BFC91A2B6828BF89B2304602FB64
:107F5000013107F0EDFE286930B100231A461946B9
:107F600001F074FF012070BD012070BD002070473A
:107F700038B5828843899A42044629D020690D4643
:107F800018B14FF0FF3102F07DFBE2882368A08931
:107F9000294602FB003007F0CBFEA389A2880133FB
:107FA0009BB2934224BF9B1A9BB2A38163899A42DE
:107FB00012D0638901339BB26381206930B1002301
:107FC0001A46194601F042FF012038BD012038BD94
:107FD000007A0028D2D138BDA3899BB2E381ECE7B7
:107FE0002DE9F0411546002A33D0044600690F46BA
:107FF00018B14FF0FF3102F045FB227AA388B4F8A4
:1080000006C04ABB62899A1A92B2954228BF1546A9
:108010002A46A1892068114499422EDCA3890CFBD1
:1080200002F20CFB0300394607F082FEA389A28806
:108030002B449BB2934224BF9B1A9BB2A3816389BA
:108040009A4262D0638920692B449BB263810028E5
:1080500053D12846BDE8F0819D422A46D9D9002156
:10806000A181E1816181EA1AA18920680CFB027774
:108070001A46114499421D46D0DDA689A1899B1B51
:108080009EB20CFB06F20CFB0100394607F050FED5
:10809000A389A28833449BB2934224BF9B1A9BB20C
:1080A000A38163899A4234D0638933449BB263814C
:1080B000E0882368B4F80CC0A5EB06081FFA88F81E
:1080C00000FB08F206FB007100FB0C3007F030FEED
:1080D000A389A28843449BB2934224BF9B1A9BB2BC
:1080E000A38163899A4210D0638998441FFA88F863
:1080F000A4F80A8020690028ABD000231A4619464C
:1081000001F0A4FE2846BDE8F081A3899BB2E3817B
:10811000F0E7A3899BB2E381CAE700BF036993B18B
:1081200010B504464FF0FF31184602F0ABFA206953
:1081300000236381A381E38118B11A46194601F037
:1081400085FE012010BD43818381C38101207047DA
:10815000024B1878C0F38000704700BF046700200E
:10816000024B1878C0F3C000704700BF04670020BE
:1081700030B5322283B00021154807F0FDFD1549C6
:108180000B4600244A6833F8080B4988009401F034
:10819000EBFD114B186080B1104C04F18C0554F8C4
:1081A0001C3B9847AC42FAD1002000F087FE00202B
:1081B00000F086FE012003B030BD094B1B6813F0B0
:1081C000010302D000BE03B030BD184603B030BD7D
:1081D000046700200460002038670020642003004A
:1081E000F0ED00E02DE9F04F8BB001F0D9FC002854
:1081F00000F01F81BB4CDFF80483DFF80CB381462D
:108200004FF0FF3207A9206802F0AAF8002800F01A
:1082100010819DF81D30013B072B00F20D81DFE836
:1082200013F0E000BB00AF00A4009D0031000E0081
:108230000800089B002BE3D009989847E0E79DF8D9
:108240002010A94B01F07F0003EB400303EBD11397
:1082500093F822206FF3000283F82220002800F018
:1082600007819D7C042D00F2DF80A04E099B9DF8C4
:1082700021209DF81C00C5EBC50506EB85056D6941
:10828000A847BDE7984D9DF81CA02B78002043F02F
:1082900001032B7000F03AFD9DF8206006F06000AD
:1082A000602800F0DE80402800F00A8106F01F06FA
:1082B000012E00F02B81C0F0E380022E40F0D1802F
:1082C0009DF8241001F07F07072F00F2CA807B0081
:1082D0000093CA09EB1813449F7C002840F03182B8
:1082E0009DF82100012800F03182C0F03C81032874
:1082F00040F0B780BDF82230002B00F03E8208A984
:10830000504600F081FCFF2F00F03C814D46042FC9
:1083100000F2A780754EC7EBC70306EB83063069F2
:1083200000F0F4FCF368504608A99847002840F094
:1083300029819DF8203013F0600F01D100F0E6FC98
:10834000002D7FF45DAF9DF81C00002100F022FF9E
:1083500080219DF81C0000F01DFF51E7BBF1000FCC
:108360003FF44EAFAFF300804AE7614B002B3FF480
:1083700047AF5D4B1878C0F30010AFF300803FE7C4
:108380005A4D05F18C06AB691C3513B19DF81C00E4
:108390009847AE42F7D133E73222002152489DF888
:1083A0001C60524D07F0E8FC524A4FF0FF33536116
:1083B0009361D361136053609360D360136100F0E5
:1083C0009BFC05F18C076B6830461C3503B1984760
:1083D000AF42F8D1484B002B3FF412AFAFF300800F
:1083E0000EE73222002140489DF81C603F4D07F007
:1083F000C3FC404A4FF0FF3353619361D361136074
:1084000053609360D360136100F076FC05F18C0734
:108410006B6830461C3503B19847AF42F8D1324BF8
:108420009DF820205A70EBE6344B1B68D90700D525
:1084300000BE0BB0BDE8F08FD8F80030DA077FF54A
:10844000DFAE00BEDCE6501EC0B204F0CFFC18B1B7
:108450004378022B00F0B781D8F80030DB0700D555
:1084600000BED8F80030D8077FF56DAF00BE6AE7D0
:10847000099B9DF821209DF81C0000F05DFCBFE6E3
:10848000202800F044810028EBD19DF82130092BF1
:10849000E7D801A252F823F0678602004B8602005B
:1084A0006384020087860200638402003186020032
:1084B000DD85020063840200C58502009985020003
:1084C0000F4B002B3FF43FAF0E4808B100F01EFCED
:1084D000504608A9AFF300800546002D7FF490AE0A
:1084E00031E700BF386700200467002064200300E4
:1084F000000000000667002000000000F0ED00E032
:108500000000000000000000000000009DF8243082
:108510000F2B3FF618AF2B449B78042B3FF613AF7D
:10852000C54DC3EBC30305EB8305286900F0EEFBE3
:10853000EB6808A95046984700287FF461AE9DF883
:10854000203013F060017FF4FEAE9DF821300A2B3D
:108550007FF4F9AE0AAA334602F80E1D504608A968
:1085600000F06AFB4CE620330AAA9B78C3F3400371
:1085700022F80E3D08A93346504600F05DFBFF2F60
:108580007FF4C4AE9DF8203013F0600F7FF438AE56
:10859000002000F0BBFB33E62B789DF822200192EF
:1085A0005E0702D4002A7FF44EAF019B2A78003385
:1085B00018BF012363F38202504608A92A7000F015
:1085C00023FB1DE62B780AAAC3F3800302F80E3DB5
:1085D0005046012308A900F02FFB11E6BDF8220048
:1085E000030A013BC0B20E2B3FF6ADAE01A252F81A
:1085F00023F000BFD9860200F1860200C98602007E
:108600004783020047830200A386020047830200DB
:10861000478302004783020047830200478302002A
:10862000478302004783020047830200A5870200B8
:1086300008A800F071FB50469DF8221000F046FC9F
:108640002B7843F002032B70DAE5BDF82230012BC2
:108650007FF479AE2B7850466FF3041308A92B7082
:1086600000F0D2FACCE52B78D90801F002010AAA71
:10867000C3F380130B4322F80E3D5046022308A992
:1086800000F0DAFABCE5BDF82230012B7FF45BAED6
:108690002B78504643F0100308A92B7000F0B4FA71
:1086A000AEE5664B002B3FF44EAEAFF300800246C2
:1086B00000283FF4D6AE5046137808A900F0BCFA63
:1086C00000287FF49DAD3EE6BDF8241004F094FB35
:1086D00002460028EFD136E604F084FB122302465E
:1086E00008A9504600F0A8FA00287FF489AD2AE6D0
:1086F00004F07CFB024600283FF4B3AE504653889A
:1087000008A900F099FA00287FF47AAD1BE69DF8DD
:1087100024300F2B3FF617AE2B449B78042B3FF6EB
:1087200012AE454DC3EBC30305EB8305286900F08A
:10873000EDFAEB68504608A9984700287FF460AD31
:1087400001E6FF2F3FF4FFAD0025E0E5BDF8225024
:10875000002D7FF4D4AD5046009300F02BFD009B1C
:1087600093F8222065F3410283F8222093F8222017
:1087700065F3000283F82220C1E55046019200F023
:1087800009FD009B019A2B44134493F8222042F0E8
:10879000020283F8222093F8222042F0010283F89B
:1087A0002220ACE5264B002B3FF4CDADAFF300808B
:1087B000034602465B88504608A900F03DFA0028AF
:1087C0007FF41EADBFE5C2792B78511161F34513DB
:1087D000921162F386132B70438800F10907C318C6
:1087E0009F42029369D2CDF80090CDF814A07A7818
:1087F0000B2A1BD04FF00009042A14D1029BDFF88A
:1088000038A0DE1BB3B203930026DAF80830039ACF
:10881000059839469847F3B20AF11C0A049388B9BF
:108820000136052EF1D1DDF8009015E63B783B448A
:10883000B9465A781F46DFE76420030000000000B5
:108840000000000008280346EDD9039A8242EAD3CB
:10885000BA78A9188878FF28E5D19DF810008870AB
:10886000B9F1000F16D099F802109142DBD199F8B6
:1088700004007A799042D6D199F80320012A09D9C7
:10888000023A0331D2B2681801323146039307F03D
:1088900073FA039B394600224878052814D00878DB
:1088A000024492B293420144F6D81F44029BBB4259
:1088B0009DD8DDF80090DDF814A00C4B002B3FF4A0
:1088C00074AEAFF3008070E68E7806F07F0005EBA3
:1088D000400000EBD6109DF81060867408780244C2
:1088E00092B29A420144D7D3DFE700BF00000000F4
:1088F00030B585B000248D1E8DF805108DF804006C
:10890000CDF80A40CDF80640ADF80E40032D03D84F
:10891000DFE805F038152B17254B1868EAB100235E
:108920006A4601A901F0A2FC009B43B1214B4FF024
:1089300080525A6040BFBFF34F8FBFF36F8F05B0B7
:1089400030BD1D4B1978C907F9D5197818486FF350
:10895000C30119700068002AE1D1134601A94FF044
:10896000FF3201F073FA05B030BD134B1978C80718
:10897000E5D519780E4841F0080119700068002A01
:10898000CDD1EAE70C490A480B7800686FF3000381
:108990000B700B786FF341030B700B786FF382034E
:1089A0000B700B786FF3C3030B70002AB7D1D4E7B9
:1089B0003867002000ED00E00467002030B50B466A
:1089C00085B049688DF804001868114D02AC03C4E5
:1089D000002306212868ADF806308DF8051082B115
:1089E0006A4601A901F042FC009B43B1094B4FF0DC
:1089F00080525A6040BFBFF34F8FBFF36F8F05B0F7
:108A000030BD134601A94FF0FF3201F01FFAF6E71F
:108A10003867002000ED00E070B584B0164E9DF878
:108A20002040039207250022CDF806208DF804008F
:108A3000ADF80A208DF808108DF8093030688DF8EF
:108A400005508CB1134601A96A4601F00FFC009B4A
:108A500043B10A4B4FF080525A6040BFBFF34F8F73
:108A6000BFF36F8F04B070BD23464FF0FF3201A9F2
:108A700001F0ECF9F6E700BF3867002000ED00E0F8
:108A80002DE9F047DDE90889002A35D016464A78F5
:108A9000052A0C462AD1CD7805F00305AB4225D135
:108AA00007464FF0000A14E0A378DA0914BF89F8EA
:108AB000003088F8003023780AF1010AB2451C44DE
:108AC0001AD06378052B11D1E37803F00303AB428E
:108AD0000CD12146384600F00BFA0028E4D1094BAE
:108AE0001B68DB070BD40020BDE8F087054B1B6833
:108AF000DA07F8D500BEF6E70120BDE8F08700BE32
:108B0000BDE8F087F0ED00E030B5114D85B00023F1
:108B1000082402900193039128688DF8054082B1E2
:108B20006A4601A901F0A2FB009B43B1094B4FF03B
:108B300080525A6040BFBFF34F8FBFF36F8F05B0B5
:108B400030BD134601A94FF0FF3201F07FF9F6E77F
:108B50003867002000ED00E000F0CAB970B50D4C98
:108B600001F07F0604EB460404EBD11494F8225084
:108B700045F0010584F8225000F0F0F948B920349E
:108B8000A378054A60F30003A3701368DB0700D5E0
:108B900000BE70BD04670020F0ED00E0054B01F061
:108BA0007F0203EB420303EBD11191F8220000F0A6
:108BB000010070470467002010B50C4600F0EAFA87
:108BC000094904F07F0301EB430101EBD41191F853
:108BD000223043F0020381F8223091F8223043F032
:108BE000010381F8223010BD04670020054B01F01D
:108BF0007F0203EB420303EBD11191F82200C0F393
:108C000040007047046700200A4630B4094C4968A8
:108C100005461068234603C30023C4E9023392F9D2
:108C200000209A422846ACBF802119461A4630BC23
:108C300000F094B9FC670020F0B50E462B4C496853
:108C400007463068A260254603C50021E181F5880A
:108C5000AB4228BF2B4683B0A381ADB13BB3002A02
:108C60003DD094F90000402B28BF402300282CDB86
:108C70001F4A384600F072F998B91E4B1B68DB0793
:108C800012D500BE03B0F0BD96F90030002BACBF8A
:108C90008021002138462B462A4600F05FF9002843
:108CA000EBD0012003B0F0BD002003B0F0BD94F97B
:108CB0000020002AACBF194680211A46384600F031
:108CC0004DF90028D9D00120ECE71146084801935E
:108CD0001A4607F02DF8064A019B8021EEE7054B66
:108CE0001B68D907E0D500BE1046CBE7FC67002023
:108CF00010680020F0ED00E0034B0022C3E90022E1
:108D0000C3E902221A617047FC670020014B186119
:108D1000704700BFFC6700200346064A5968006898
:108D200010B41346002403C3C2E902445DF8044BA7
:108D3000704700BFFC67002070B53F4C2278C9091E
:108D4000B1EBD21F82B01AD033B13C4B1B68DA07AB
:108D500049D4002002B070BD394B6BB12146AFF34E
:108D60000080012002B070BD0146304600F012FACA
:108D70003046802100F00EFA012002B070BD94F957
:108D80000020002A0646A06808DB0028E1D01A4629
:108D90002C49019306F0CCFFA068019BE589E2888D
:108DA0001D44ADB21844AA42A060E58101D03F2B1A
:108DB0001BD8236923B12049304698470028D3D0D7
:108DC00094F9002000239A42ACBF80211946304616
:108DD0001A4600F0C3F80028CED1184B1B68DB07F9
:108DE000B7D500BEB6E700BEB3E7A28994F900107C
:108DF000531B9BB2402B28BF402300290ADB95421E
:108E00004FF0000112D00F4A304600F0A7F80028BA
:108E1000E3D0B1E795420BD001461A4609480193C9
:108E200006F086FF8021074A019BEDE70A46EBE743
:108E300080210022E8E700BFFC670020F0ED00E0A1
:108E4000000000001068002042DF704743DF7047D9
:108E500044DF704712DF7047144A92F8C0307BB18C
:108E6000134B5B68C3F30803D3B9EFF31083A3B9C3
:108E7000104B5B681B0610D592F8C030002BFBD15D
:108E800092F8C0300133DBB2012182F8C0300160BA
:108E9000BFF36F8FBFF34F8F704792F8C030EFE78B
:108EA000014601220448FFF72FBE00BF5068002092
:108EB00000ED00E000E100E0598E0200704700BFC5
:108EC000014B80225A60704700E100E0074BD3F865
:108ED0000014D3F8002400200A434FF48001C3F8A3
:108EE0000024C3F85801C3F804137047007002400F
:108EF00030B48A780D79174802F07F03D209540004
:108F000003EB43011444C90001EB84010144012037
:108F10000D7200FA03F18AB10F4A023300FA03F32B
:108F2000C2F80433D2F810350B43C2F81035BFF342
:108F30006F8FBFF34F8F012030BC7047064A0C3350
:108F400000FA03F3C2F80433D2F814350B43C2F825
:108F50001435ECE75068002000700240F0B501F0D5
:108F60007F04C80966000F464FEA400C311984445B
:108F7000804DC90001EB8C0105EB010C6A50002209
:108F800083B0ACF80430ACF8062004B9BBB10028BB
:108F90004FD13319DB00EA18527A002A40F0928050
:108FA000002C00F08B8004F59474734B43F824007C
:108FB000BFF36F8FBFF34F8F012003B0F0BD6E4B37
:108FC000D3F88034C3F3C0139842E0D095F8C03092
:108FD0007BB16A4B5B68C3F30803002B40F0BE8093
:108FE000EFF310831BB9664B5B6818065DD495F8E8
:108FF000C03095F8C030634A0133DBB2012185F8F7
:10900000C0301160BFF36F8FBFF34F8F95F8C03042
:109010002BB195F8C030013BDBB285F8C03000239E
:10902000394600931A461846FFF7F6FC012003B0B4
:10903000F0BD264405EBC60604EB8402708A338A31
:10904000317D1B1A92009BB202F1804202F51C3264
:109050008B4228BF0B46F168C2F80016C2F80436EE
:1090600095F8C000484A0B4424B2F36002EB840137
:1090700088B1424B5B68C3F30803002B74D1EFF354
:109080001083002B5DD13E4B5B681B0659D595F8CC
:10909000C030002BFBD195F8C0300133DBB2012189
:1090A00085F8C03042F8241082E795F8C030002BD4
:1090B0009FD095F8C030002BF7D19AE72E4B0122B4
:1090C000DA6475E72C4A55F803C0304804F594710A
:1090D00004EB840352F8217002EB8303FFB2C3F860
:1090E00000C7C3F8047795F8C03022B200EB8201C4
:1090F0006BB1224B5B68C3F3080353BBEFF31083E0
:109100001BB91F4B5B6819061ED495F8C03095F843
:10911000C0300133DBB2012185F8C03040F82210A5
:10912000BFF36F8FBFF34F8F3444E40029192A59DE
:10913000CB883B449BB2174401202F51CB8003B016
:10914000F0BD95F8C030A6E795F8C030002BFBD1F4
:10915000DDE701220E48FFF7D7FCE5E701220949C8
:109160000B48FFF7D1FC51E701220948FFF7CCFC7F
:109170005CE700BF506800200070024000ED00E096
:1091800000E100E05070024004700240287002408C
:10919000598E02004A06064B0BBF012241F4807132
:1091A0005A65C3F81815BFF36F8FBFF34F8F704721
:1091B000007002404B060AD0054B41F48072C3F8A0
:1091C0001815C3F80C25BFF36F8FBFF34F8F70478F
:1091D000007002402DE9F04FB04BB14ED3F8004380
:1091E000002387B01D469C46012000FA03F19A191E
:1091F0000C424FEA820208D0176837B10D43C2F81B
:1092000000C0BFF36F8FBFF34F8F0133192BECD129
:10921000EE0700F19182AC0200F1888268020CD561
:109220009E4ED6F8004404F44073E105C6F80034BD
:1092300000F1AF82A20500F1B7829A4B2B4053B1E7
:10924000994B93F8C020002A40F0BD81974B1B68D2
:10925000DB0700F1B2822F022BD5904BD3F880248C
:10926000D2B28DF81020D3F88414C9B28DF8111041
:10927000D3F888048DF81200D3F88C048DF813000D
:10928000D3F890048DF81400D3F894048DF81500E9
:10929000D3F898048DF81600D3F89C348DF8173065
:1092A000560601D1052904D0012204A90020FFF7A8
:1092B00085FBEC0415D5794A7B4CD2F80837217A26
:1092C000DBB200209942607240F08B81E388A18874
:1092D000994240F286810123D364BFF36F8FBFF3BD
:1092E0004F8FA80417D56D4A6F4CD2F81C3794F8ED
:1092F0002000DBB20021984284F8211040F0678101
:10930000E38BA08B984240F26281C2F8A414BFF3B1
:109310006F8FBFF34F8F690417D5604A624CD2F844
:10932000303794F83800DBB20021984284F83910C5
:1093300040F08C81E38EA08E984240F28781C2F883
:10934000A814BFF36F8FBFF34F8F2A0419D5534A68
:10935000554CD2F8443794F85000DBB200219842C3
:1093600084F8511040F06481B4F84E30B4F84C00E9
:10937000984240F25D81C2F8AC14BFF36F8FBFF327
:109380004F8FEB0319D5454A474CD2F8583794F81C
:109390006800DBB20021984284F8691040F06F81C8
:1093A000B4F86630B4F86400984240F26881C2F8BC
:1093B000B014BFF36F8FBFF34F8FAF0319D5374A88
:1093C000394CD2F86C3794F88000DBB20021984217
:1093D00084F8811040F04581B4F87E30B4F87C0008
:1093E000984240F23E81C2F8B414BFF36F8FBFF3CE
:1093F0004F8F6E0319D5294A2B4CD2F8803794F839
:109400009800DBB20021984284F8991040F0028164
:10941000B4F89630B4F89400984240F2FB80C2F859
:10942000B814BFF36F8FBFF34F8F2C0319D51B4AAE
:109430001D4CD2F8943794F8B000DBB2002198426A
:1094400084F8B11040F0D880B4F8AE30B4F8AC0075
:10945000984240F2D180C2F8BC14BFF36F8FBFF3C3
:109460004F8F134B2B40002B00F09D800B4BD3F8FC
:109470006C94C3F86C94BFF36F8FBFF34F8F15F4E8
:10948000806540F09380CDE90255074FDFF80CA0CE
:10949000DFF820B03C463E46002515E00070024053
:1094A000409C0010FCFB1F0050680020F0ED00E025
:1094B00000040001019C0010002D00F09181B8F122
:1094C000070F4CD0013518360123AB4013EA090FC2
:1094D0005FFA85F8F0D005EB850205EB450304EB58
:1094E000C3030AEB8202D2F80416588A014489B2F7
:1094F0005982588A318A814240F2CF805B8A307D1E
:10950000C91A89B2F368C2F80036814228BF014601
:109510000B44C2F80416F36094F8C03005EB0B015D
:1095200089006BB1B14B5B68C3F30803002B40F0BB
:109530004681EFF31083002B00F0218194F8C030B6
:1095400094F8C0300133DBB2012284F8C0300A60E5
:10955000BFF36F8FBFF34F8FB8F1070FB2D1DFF8B2
:1095600094A2DFF89CB2A14B002507E0002D00F08B
:109570003281EAB2072A16D00135183705F11001F9
:1095800001228A4012EA090FF0D06E00721904EB32
:10959000C202B888D188884200F2898001215172C4
:1095A000EAB2072AE8D107B0BDE8F08FD3F88024EB
:1095B000D3F8803483F08003C3F3C0130293C2F363
:1095C000C013039361E7002283F8C02043E6E38BD6
:1095D000A38301210023E28B00911846FFF71CFAB8
:1095E00099E6E388A38001210023E28800911846D0
:1095F0001946FFF711FA74E6B4F8AE30A4F8AC30AF
:1096000001210023B4F8AE20009118460721FFF78E
:1096100003FA26E7B4F89630A4F894300121002329
:10962000B4F89620009118460621FFF7F5F9FCE6FC
:10963000B4F84E30A4F84C3001210023B4F84E2089
:10964000009118460321FFF7E7F99AE6E38EA38617
:1096500001210023E28E009118460221FFF7DCF978
:1096600073E6B4F87E30A4F87C3001210023B4F80E
:109670007E20009118460521FFF7CEF9B9E6B4F82F
:109680006630A4F8643001210023B4F8662000910C
:1096900018460421FFF7C0F98FE65A8A01210023FA
:1096A0000091184648F08001FFF7B6F907E705F585
:1096B000947105EB85025AF8210039680AEB8202A1
:1096C0005FFA80F8C2F80017C2F8048794F8C02047
:1096D00005EB0B01890082B15A68C2F30802002A27
:1096E00072D1EFF31082002A64D1414A5268120607
:1096F00060D594F8C020002AFBD194F8C020013234
:10970000D2B2012084F8C0200860BFF36F8FBFF38E
:109710004F8F3A682E44424404EBC6063A60F28802
:1097200090441FFA88F8A6F8068022E70122032158
:109730000020FFF7DDF871E52E4B2F4E00245C6012
:1097400021469C6230469C60C422DC62DC601C6363
:109750001C615C635C619C639C61DC63DC611C6418
:109760001C625C645C629C6406F006FB4023012280
:109770002046114633753372FFF7BAF84BE51C4BA0
:109780005B6818067FF5DAAE94F8C030002BFBD189
:10979000D6E6012204210020FFF7AAF80123A20542
:1097A000C6F82C357FF549AD012205210020FFF7D1
:1097B0009FF842E594F8C0209FE700BE4BE50122E8
:1097C0000E48FFF7A1F97AE601220C480393FFF750
:1097D0009BF9039B9DE7029A002A3FF4CDAED4E6A5
:1097E000039B002B3FF46EAE75E600BF00ED00E07A
:1097F00000E100E00070024050680020598E020035
:109800000A9C001030B5012883B000F0968052D336
:1098100002283CD1B14BD3F80435002B40F0C68070
:10982000AE4AD2F800341C05FBD54FF40063C2F8F1
:109830000034BFF36F8FBFF34F8FA94AA94B126853
:109840001B68082A00F0C680A449A74AA7488023BD
:10985000C1F81C35C1F80403C2F884315360A44D2B
:1098600043F204044FF080432268AA4211D0D3F897
:109870000C14D3F80C24D003F6D5CA07F4D5974BB3
:109880000122C3F80425BFF36F8FBFF34F8F03B0DE
:1098900030BD02AA002102F8041D1046FFF7DAFAD3
:1098A0009DF804100029E2D01046FFF7D1FA019A82
:1098B000002AD9D0E3E7894BD3F80025002AE6D166
:1098C0004FF40062C3F80024BFF36F8FBFF34F8FD4
:1098D000834B1B68082B00F0AC80804B0122C3F83F
:1098E0000025BFF36F8FBFF34F8F43F2040203F1E4
:1098F0008D5303F57723126803F2DB539A4200F08D
:10990000BF804FF08043D3F80C24D3F80C34D90334
:1099100001D5D207BBD443F20402754B12689A42B8
:1099200000F00C81734B00221A601B6801934FF00A
:109930008043012201991A60A9E7684BD3F80025FA
:10994000002AA4D00022C3F80425BFF36F8FBFF311
:109950004F8F65498020C1F88400BFF34F8FBFF35C
:109960006F8FD3F80013C3F80813C3F80025BFF3B3
:109970006F8FBFF34F8F43F2040103F18D5303F553
:109980007723096803F2DB53994200F08D805A4B2C
:1099900001221A60594B5A68C2F30802003218BFFC
:1099A000012202210020FEF7A3FF70E743F2040228
:1099B0004F4B12689A4200F0AD804FF08043D3F8CD
:1099C0000C24D3F80C34DB037FF52AAFD5077FF5E1
:1099D00027AF5CE7032B09D8494A1168002978D1E1
:1099E000484C49F275301060216010605A1E022AFE
:1099F00010D8434A1168002963D1434D3848394B88
:109A000000681B6849F275341460296014600828E6
:109A10007FF41AAF032B3FF617AF3C493C4B40F2A3
:109A2000E370402208601A60BFF36F8FBFF34F8F5F
:109A30000AE72C4B1B685A1E022A12D8304B1A68B0
:109A4000002A40F08D80304949F2753203201A60B7
:109A500008601A60224A234B12681B68082A7FF4A8
:109A60003CAF032B3FF639AF254B1A68002A73D160
:109A7000244949F27532C0201A6008601A602CE748
:109A800002AB002203F8042D1846FFF7E3F99DF816
:109A90000420002A3FF435AF1846FFF7D9F9019B9F
:109AA000002B7FF4F4AE36E702A800F8042DFFF790
:109AB000D1F99DF80430002B3FF469AFFFF7C6F9E8
:109AC00068E70749074B104A08681B6800211160C6
:109AD0009DE70C4A0021116088E700BF007002403A
:109AE000300100103401001000E100E00514800195
:109AF000DBE5B151000100400400004000ED00E052
:109B000000EC064014EC064014ED064000780240DC
:109B10000478024002AB002203F8042D1846FFF738
:109B200099F99DF80420002A3FF447AF1846FFF743
:109B30008FF9019B002B7FF4AAAE71E602A80023E7
:109B400000F8043DFFF786F99DF80430002B3FF440
:109B5000E9AEFFF779F99AE6034BC0221A60BCE63A
:109B6000024B03221A6075E714EC064014ED064020
:109B700038B5094D2C780CB1204638BDFEF7F8FAFF
:109B800028B9064B1B68DB07F6D500BEF4E70123B6
:109B90002B70204638BD00BF14690020F0ED00E0B6
:109BA000014B1878704700BF1469002000B51849B0
:109BB000184883B003F0C6F848F2870242F29A319F
:109BC000144803F009F9134803F00AF9124A402136
:109BD0004FF0804302A882F827130024D3F83854AA
:109BE00000F8084D02F0EAF902A80C4B40F8043DD9
:109BF00002F010FA02F020FAEB0704D4FFF7B8FFE6
:109C0000FEF7F0FAFCE72046FFF7FCFDF6E700BFA1
:109C1000A86300206073002000E100E005980200C6
:109C20000020FFF7D7BA00BF00B5002383B003229E
:109C3000CDE9002303490448C82201F043F803B0EA
:109C40005DF804FBF0200300AD9B020008B5052081
:109C500000F050F8BDE8084002F038BC30B54FF0D5
:109C6000805387B00C465A6E1B491B6E01A806F044
:109C7000ADFD9DF804309DF805509DF806009DF857
:109C800007109DF8082023809DF809306580A0808A
:109C90009DF80A509DF80B00E18022819DF80C1080
:109CA0009DF80D2063819DF80E30A581E0819DF81F
:109CB0000F509DF81000218262829DF811109DF8CE
:109CC0001220A3829DF8133020831020E582618347
:109CD000A283E38307B030BDF820030008B501F08C
:109CE000D9F84FF47A72A0FB0223900A40EA83501D
:109CF00008BD00BF38B50B4B8402A3FB043401F050
:109D0000C9F805460020FDF77BFE01F0C3F8A40961
:109D1000401B844200D838BD201ABDE8384001F00D
:109D2000DDB900BFD34D621010B5044601F0AAF8AA
:109D3000204605F0EDFF044601F04AF90CB120463B
:109D400010BD02F0E7FA204610BD00BF50B110B5BB
:109D5000044601F097F8204605F0E2FFBDE8104008
:109D600001F036B9704700BF38B51C469DF8105059
:109D700043B3002908BF1A460123C4E90F0122603A
:109D800084F8463001F0CEFED4E90F132268A260B9
:109D900001FB03F1CB1A134400200A44FF21A06306
:109DA000E36084F84410626084F8451004F1100008
:109DB00003F044FF04F1240003F040FF01F0BCFE77
:109DC00084F84C50204638BDF8B5074615460E4677
:109DD00069B100FB01F05030FFF7A6FF044690B3D5
:109DE000002200F1500380F84620036007E0502075
:109DF000FFF79AFF044630B384F846602460C4E954
:109E00000F7601F08FFED4E90F132268A26001FBE8
:109E100003F1CB1A134400200A44FF21A063E3603E
:109E200084F84410626084F8451004F1100003F0D7
:109E300005FF04F1240003F001FF01F07DFE84F82A
:109E40004C502046F8BD00242046F8BD2DE9F04FC7
:109E5000044685B01D460192884601F063FEA26B60
:109E6000E36BA84F4FF000099A424E46C0F08B803A
:109E7000022D00F006810198002800F03081B9F130
:109E8000000F00F0958001F057FE00F0FBFF01F09D
:109E900049FE94F84430FF2B08BF84F8446094F8DE
:109EA0004530FF2B08BF84F8456001F045FE01A94D
:109EB00002A801F015FB002840F0188101F032FEE5
:109EC000A26BE36B9A4277D001F036FE01F02AFED6
:109ED00094F845304FFA83FABAF1000F1ADD636A3D
:109EE000C3B104F1240907E00AF1FF33DBB24FFAF2
:109EF00083FA7BB1636A6BB1484601F097FA002898
:109F0000F2D001F025FB0AF1FF33DBB24FFA83FAFE
:109F1000002BEFD1FF2384F8453001F00DFE01F056
:109F200001FE94F844304FFA83FABAF1000F1ADDBB
:109F30002369C3B104F1100907E00AF1FF33DBB272
:109F40004FFA83FA7BB123696BB1484601F06EFA90
:109F50000028F2D001F0FCFA0AF1FF33DBB24FFA2D
:109F600083FA002BEFD1FF2384F8443001F0E4FDA5
:109F700001F02EF801F0D6FDA26BE36B9A424FF090
:109F80000109BFF475AF226CA66B002A40F0FC807B
:109F900025680136002D00F01881A663636A002B46
:109FA00040F08C8001F0C8FD012005B0BDE8F08FC5
:109FB00002A801F089FA66E704F1100901F0BCFD7E
:109FC0004846019901F0B6F901F0ACFD94F845A0BE
:109FD0004FFA8AFABAF1000F1CDD636AD3B104F1BB
:109FE000240B08E00AF1FF3A5FFA8AF34FFA83FA8A
:109FF00083B1636A73B1584601F018FA0028F1D0B2
:10A000000AF1FF3A01F0A4FA5FFA8AF34FFA83FAF1
:10A01000002BEED1FF2384F8453001F08DFD01F0D7
:10A0200081FD94F844304FFA83FABAF1000F06DC50
:10A0300015E00AF1FF33DBB24FFA83FA7BB12369F3
:10A040006BB1484601F0F2F90028F2D001F080FA35
:10A050000AF1FF33DBB24FFA83FA002BEFD1FF2373
:10A0600084F8443001F068FD00F0B2FF002881D18F
:10A070004FF080537B6040BFBFF34F8FBFF36F8FB4
:10A0800078E7226CA66B002A82D04146E06805F092
:10A090004FFE236CE26821685B421A448A42E26008
:10A0A00080F0898062681344E360022D00F08380B1
:10A0B0000136A663636A002B3FF474AF04F12400F9
:10A0C00001F0B4F900283FF46DAF0E4B4FF0805211
:10A0D0005A6040BFBFF34F8FBFF36F8F62E70090AE
:10A0E00001F02AFD009805B0BDE8F08F01F01AFDDF
:10A0F00094F845506DB2002D18DD636AB3B104F1D8
:10A10000240607E000ED00E0013DEBB25DB26BB16B
:10A11000636A5BB1304601F089F90028F4D0013D53
:10A1200001F016FAEBB25DB2002BF1D1FF2384F8F7
:10A13000453001F001FD01F0F5FC94F844506DB29A
:10A14000002D16DD2369A3B104F1100605E0013DE1
:10A15000EBB25DB26BB123695BB1304601F066F9D9
:10A160000028F4D0013D01F0F3F9EBB25DB2002B11
:10A17000F1D1FF2384F8443001F0DEFC00F028FF29
:10A18000002005B0BDE8F08F41465DBBA06805F03A
:10A19000CFFDA368216C62680B44934206F101066F
:10A1A000A360FFF4FAAEA663636A2268A260002B84
:10A1B0003FF4F8AE82E7002E7FF4EFAE0123A363F5
:10A1C000636A002B3FF4EEAE78E7606801F032FA84
:10A1D000A663636A6560002B7FF470AF00287FF48C
:10A1E00074AFDFE6E06805F0A3FD236CE268216848
:10A1F0005B421A448A42E260BFF457AF52E700BFA5
:10A20000F8B50C4679B300250123216081F846306A
:10A21000C1E90F35064601F085FCD4E90F3221680B
:10A22000A56303FB02F39A1A0A440B44FF27C4E90F
:10A230000131E26084F8447004F1100084F8457044
:10A2400003F0FCFC04F1240003F0F8FC01F074FCC2
:10A25000C4E90055E56084F84C602B462A4629463F
:10A260002046FFF7F3FD2046F8BD00BF2DE9F04181
:10A270008C4682B004461746EFF31186402282F3E3
:10A280001188806BE26B904221D3022B05D0002015
:10A2900086F3118802B0BDE8F08194F84550226C35
:10A2A000D4F838806DB252BB236808F10108002B46
:10A2B0004FD06B1CC4F8388037D001356DB284F8AC
:10A2C0004550012086F3118802B0BDE8F08194F872
:10A2D0004550226CD4F838806DB2002AE4D073B9AE
:10A2E000A06805F025FDA368216C62680B449342C9
:10A2F00008F10108A360DCD32368A360D9E76146B5
:10A30000E068019305F014FD206CE2682168019B70
:10A31000404202448A42E26002D262681044E06035
:10A32000022B10D008F10108C3E7636A002BC8D0E4
:10A3300004F1240001F07AF80028C2D0002FC0D028
:10A3400001203860A4E7B8F1000F08BF4FF0010802
:10A35000AFE76068019301F06DF9019B6360A8E7C6
:10A360002DE9F047044684B08846019201F0DAFBFB
:10A37000D4F83890B9F1000F40F09380019B002B86
:10A3800000F00A8102A801F09FF8B34F4E4604F195
:10A39000240501F0D1FB00F075FD01F0C3FB94F83A
:10A3A0004430FF2B08BF84F8446094F84530FF2BFD
:10A3B00008BF84F8456001F0BFFB01A902A801F0C5
:10A3C0008FF8002840F0878001F0ACFBA36B002BD6
:10A3D00040F0E88001F0B0FB0199284600F0AAFFA8
:10A3E00001F0A0FB94F845304FFA83F9B9F1000F62
:10A3F00006DC15E009F1FF33DBB24FFA83F97BB1DC
:10A40000636A6BB1284601F011F80028F2D001F020
:10A410009FF809F1FF33DBB24FFA83F9002BEFD13C
:10A42000FF2384F8453001F087FB01F07BFB94F8B3
:10A4300044304FFA83FABAF1000F1ADD2369C3B131
:10A4400004F1100907E00AF1FF33DBB24FFA83FA97
:10A450007BB123696BB1484600F0E8FF0028F2D0D9
:10A4600001F076F80AF1FF33DBB24FFA83FA002BE2
:10A47000EFD1FF2384F8443001F05EFB00F0A8FD2B
:10A4800000287ED14FF080537B6040BFBFF34F8FD9
:10A49000BFF36F8F01F046FBD4F83890B9F1000F8D
:10A4A00076D0226C52B1E168636811449942E16050
:10A4B00024BF2168E160404605F03AFC09F1FF3312
:10A4C000A3632369002B40F0C98001F035FB012014
:10A4D00004B0BDE8F08701F025FB94F845304FFA51
:10A4E00083F9B9F1000F06DC15E009F1FF33DBB2A7
:10A4F0004FFA83F97BB1636A6BB1284600F096FF8F
:10A500000028F2D001F024F809F1FF33DBB24FFA52
:10A5100083F9002BEFD1FF2384F8453001F00CFBC9
:10A5200001F000FB94F844304FFA83FABAF1000FBF
:10A530001ADD2369C3B104F1100907E00AF1FF3302
:10A54000DBB24FFA83FA7BB123696BB1484600F066
:10A550006DFF0028F2D000F0FBFF0AF1FF33DBB201
:10A560004FFA83FA002BEFD1FF2384F8443001F037
:10A57000E3FA00F02DFD01F0D5FAA36B63B101F011
:10A58000DBFA01F0CFFAD4F83890B9F1000F88D196
:10A59000019B002B7FF4FDAE01F0CEFA002004B049
:10A5A000BDE8F08701F0C8FA01F0BCFA94F8453034
:10A5B0004FFA83F9B9F1000F06DC15E009F1FF331A
:10A5C000DBB24FFA83F97BB1636A6BB1284600F0C6
:10A5D0002DFF0028F2D000F0BBFF09F1FF33DBB202
:10A5E0004FFA83F9002BEFD1FF2384F8453001F0B7
:10A5F000A3FA01F097FA94F844304FFA83FABAF1CB
:10A60000000F1ADD2369C3B104F1100907E00AF154
:10A61000FF33DBB24FFA83FA7BB123696BB1484653
:10A6200000F004FF0028F2D000F092FF0AF1FF339F
:10A63000DBB24FFA83FA002BEFD1FF2384F84430CA
:10A6400001F07AFA00F0C4FC01F06CFAD4F838900A
:10A65000B9F1000F9CD024E700ED00E004F11000F8
:10A6600000F0E4FE00283FF430AF054B4FF080527D
:10A670005A6040BFBFF34F8FBFF36F8F25E700BF16
:10A6800000ED00E02DE9F043044685B0002601917D
:10A6900001F048FAA36BB24FB0463546002B40F0AC
:10A6A000F380019B002B00F05D81B8F1000F00F0FA
:10A6B000FC8001F041FA00F0E5FB01F033FA94F878
:10A6C0004430FF2B08BF84F8445094F84530FF2BEA
:10A6D00008BF84F8455001F02FFA01A902A800F044
:10A6E000FFFE00286CD101F01DFAA36B002B40F097
:10A6F000E08001F021FA2368002B00F03C8104F196
:10A7000024094846019900F015FE01F00BFA94F86F
:10A7100045304FFA83F8B8F1000F06DC15E008F178
:10A72000FF33DBB24FFA83F87BB1636A6BB1484603
:10A7300000F07CFE0028F2D000F00AFF08F1FF33A1
:10A74000DBB24FFA83F8002BEFD1FF2384F84530BA
:10A7500001F0F2F901F0E6F994F844304FFA83F889
:10A76000B8F1000F1ADD2369C3B104F1100907E045
:10A7700008F1FF33DBB24FFA83F87BB123696BB189
:10A78000484600F053FE0028F2D000F0E1FE08F148
:10A79000FF33DBB24FFA83F8002BEFD1FF2384F8AD
:10A7A000443001F0C9F900F013FC002864D14FF0E7
:10A7B00080537B6040BFBFF34F8FBFF36F8F5BE071
:10A7C00001F0B0F994F845304FFA83F8B8F1000F72
:10A7D0001ADD636AC3B104F1240907E008F1FF330D
:10A7E000DBB24FFA83F87BB1636A6BB1484600F085
:10A7F0001DFE0028F2D000F0ABFE08F1FF33DBB203
:10A800004FFA83F8002BEFD1FF2384F8453001F095
:10A8100093F901F087F994F844304FFA83F8B8F1CE
:10A82000000F1ADD2369C3B104F1100907E008F134
:10A83000FF33DBB24FFA83F87BB123696BB1484633
:10A8400000F0F4FD0028F2D000F082FE08F1FF33A2
:10A85000DBB24FFA83F8002BEFD1FF2384F84430AA
:10A8600001F06AF900F0B4FB01F05CF9A36B002B76
:10A8700000F08A8001F060F901F054F9A36B4FF009
:10A880000108002B3FF40DAF2268013BA363002AAF
:10A8900000F09E802369002B40F0898001F04CF984
:10A8A0000126304605B0BDE8F08302A800F00CFE9A
:10A8B000FFE601F041F901F035F994F845304FFA1F
:10A8C00083F8B8F1000F1ADD636AC3B104F12409FB
:10A8D00007E008F1FF33DBB24FFA83F87BB1636A1C
:10A8E0006BB1484600F0A2FD0028F2D000F030FE27
:10A8F00008F1FF33DBB24FFA83F8002BEFD1FF23CF
:10A9000084F8453001F018F901F00CF994F844305E
:10A910004FFA83F8B8F1000F1ADD2369C3B104F1CF
:10A92000100907E008F1FF33DBB24FFA83F87BB17F
:10A9300023696BB1484600F079FD0028F2D000F0A1
:10A9400007FE08F1FF33DBB24FFA83F8002BEFD19B
:10A95000FF2384F8443001F0EFF800F039FB8BE777
:10A9600000ED00E0009301F0E7F8009B1E46304642
:10A9700005B0BDE8F08301F0D5F8606800F018FE7E
:10A98000064601F0D9F8BAE601F0D6F8002E88D0D4
:10A9900001F0C8F8616A19B1236B1968C1F10501AA
:10A9A000606800F073FE002601F0C6F879E704F154
:10A9B000100000F03BFD00283FF470AF064B4FF055
:10A9C00080525A6040BFBFF34F8FBFF36F8F65E770
:10A9D00000F092FE60605DE700ED00E0074B1A6852
:10A9E0001AB19A6802B17047012210B403EBC20495
:10A9F00043F8321060605DF8044B7047CC7900205A
:10AA000070B505460C46164601F08CF895F84430B2
:10AA1000FF2B04BF002385F8443095F84530FF2B09
:10AA200004BF002385F8453001F086F8AB6B2BB9E5
:10AA30003246214605F1240000F0B8FC01F072F81E
:10AA400095F8454064B2002C16DD6B6AA3B105F1A0
:10AA5000240605E0013CE3B25CB26BB16B6A5BB10A
:10AA6000304600F0E3FC0028F4D0013C00F070FD1B
:10AA7000E3B25CB2002BF1D1FF2385F8453001F041
:10AA80005BF801F04FF895F8444064B2002C16DDF5
:10AA90002B69A3B105F1100605E0013CE3B25CB2FD
:10AAA0006BB12B695BB1304600F0C0FC0028F4D0DC
:10AAB000013C00F04DFDE3B25CB2002BF1D1FF236D
:10AAC00085F84430BDE8704001F036B82DE9F0411A
:10AAD000044601F027F8344A344D136801331360FB
:10AAE0002B68002B2FD0324EE36A32682AB33148EC
:10AAF000314907680A689F4238BF03602F48013216
:10AB000003EB83030A6000EB8300E263211D03F083
:10AB1000A5F801F011F833686BB12A68E36AD26ACC
:10AB20009A4208D2264B4FF080525A6040BFBFF382
:10AB30004F8FBFF36F8FBDE8F0812A68D26A9A42C7
:10AB400098BF2C60D3E72C601368012B02D0E36A16
:10AB5000174ECCE71948DFF894801A4F144E03F0D3
:10AB60006DF8194803F06AF8184803F067F81848B8
:10AB700003F064F8174803F061F8404603F05EF80C
:10AB8000384603F05BF8144803F058F8134803F014
:10AB900055F8134803F052F8124B134AC2F80080DC
:10ABA0001F60E36AA3E700BF8869002018690020DE
:10ABB000E86900209C690020986900202469002031
:10ABC00000ED00E0B4690020386900204C690020E5
:10ABD0006069002074690020D4690020006A0020A8
:10ABE000EC690020206900201C690020A069002079
:10ABF0002DE9F843DDE90964002C60D016B9304630
:10AC0000BDE8F8830D469700984602233A4684F83B
:10AC10005130814626633046A52105F0ADF82A78EB
:10AC2000236B84F83420043F2A781F4427F0070759
:10AC300002B36B7884F835306B78DBB1AB7884F88D
:10AC40003630AB78B3B1EB7884F83730EB788BB132
:10AC50002B7984F838302B7963B16B7984F83930EB
:10AC60006B793BB1AB7984F83A30AB7913B1EB79BE
:10AC700084F83B30089D042D28BF04250026E5629A
:10AC80006564201D84F83B60A66402F0E3FFC5F113
:10AC9000050504F1180002F0DDFFE664424649466E
:10ACA000A561246184F850606462384600F0FEFEBD
:10ACB00020602046FFF70AFF2046BDE8F8832046C3
:10ACC000BDE8F8832DE9F0479600804630460D46F2
:10ACD0009946099FFFF728F8002869D0824654203A
:10ACE000FFF722F8044600285BD00023C0F830A00C
:10ACF0003246504684F85130A52105F03DF82A78B7
:10AD0000236B84F83420043E2A781E4426F0070A78
:10AD100002B36B7884F835306B78DBB1AB7884F8AC
:10AD20003630AB78B3B1EB7884F83730EB788BB151
:10AD30002B7984F838302B7963B16B7984F839300A
:10AD40006B793BB1AB7984F83A30AB7913B1EB79DD
:10AD500084F83B30089D042D28BF04250026E562B9
:10AD60006564201D84F83B60A66402F073FFC5F1A2
:10AD7000050504F1180002F06DFFE664A561246189
:10AD800084F8506064624A464146504600F08EFEA8
:10AD9000206007B13C602046FFF798FE0120BDE827
:10ADA000F0875046FEF7D2FF4FF0FF30BDE8F08746
:10ADB0004FF0FF30F3E700BF70B584B0002503AA61
:10ADC00002A901A8CDE9015501F0A6FA019C002CC9
:10ADD00046D00298002843D0039E20630223B60089
:10ADE000A521324684F8513004F0C6FF236B1F4A78
:10ADF0006263201D84F83850043E84F83B50E562BD
:10AE0000C4E911551E4402F025FF04F1180002F0B8
:10AE100021FF26F007060523A3612A461449E564AD
:10AE200030462461646284F8505000F03FFE206098
:10AE30002046FFF74BFE0F4B1C6000F0DBFD0128A6
:10AE400011D1402383F311880B490C4A0C4B4FF06E
:10AE5000FF340C6010601D6000F03EFE04B070BD59
:10AE6000044B00221A6004B070BD00BF49444C4539
:10AE700061B10200C8690020CC690020E8690020A7
:10AE8000146A0020024A136801331360704700BF40
:10AE900094690020014B1868704700BF146A0020B5
:10AEA000024A136818441060704700BF146A0020FB
:10AEB0002DE9F04F3B4B1B6883B0002B42D13A4B3E
:10AEC0001F6801371F60002F4AD0384B01931B6861
:10AED000BB423BD8364EDFF8EC80DFF8ECA0DFF861
:10AEE000EC90002525E03368DB68DC68636804F1DA
:10AEF000040B9F42584651D302F0DAFEA36A04F1D4
:10AF000018000BB102F0D4FEE36AD8F8002003EB7E
:10AF10008300934259460AEB800088BFC8F800308E
:10AF200002F09CFED9F80030E26ADB6A9A4228BF40
:10AF3000012533681B68002BD5D1019A4FF0FF33F0
:10AF4000136004E01B4A13680133136000251A4B99
:10AF50001B68002B0CBF2846012003B0BDE8F08F12
:10AF6000134E164B3168164A186830601960136822
:10AF70000133136033681B683BB90C4B01931A46CD
:10AF80004FF0FF3313601346A1E73368074ADB68CD
:10AF90000192DB685B681360134698E7019A1360BF
:10AFA000D5E700BF94690020146A0020CC69002016
:10AFB0001C69002090690020186A00202069002088
:10AFC000D06900209C6900202469002018690020B5
:10AFD0002DE9F04700F0A6FD354B1A68013A1A60DA
:10AFE0001C68002C57D1334B1B68002B53D0DFF863
:10AFF000E0A0314E314FDFF8DC90DFF8DC803368C1
:10B0000013B3F368DC68251D04F1180002F050FE4C
:10B01000284602F04DFEE36A3A6803EB8300934250
:10B02000294609EB800088BF3B6002F017FED8F884
:10B030000030E26ADB6A9A424FF00103DFD3CAF8BC
:10B0400000303368002BDCD13CB11D4B1A6812680C
:10B050003ABB1C4B4FF0FF321A601B4D2C6844B1B9
:10B060000126FFF725FF08B1CAF80060013CF8D1BE
:10B070002C60DAF8003073B1144B4FF080525A60F4
:10B0800040BFBFF34F8FBFF36F8F012400F054FD1B
:10B090002046BDE8F087002400F04EFD2046BDE8C4
:10B0A000F0871A68074BD268D26852681A60D4E7F2
:10B0B0009469002088690020D46900209C690020E0
:10B0C0001C690020CC6900209069002000ED00E0A0
:10B0D000186A0020246900201869002070B548B95A
:10B0E000184B4FF080525A6040BFBFF34F8FBFF3F1
:10B0F0006F8F70BD144A15491368154E01331360E4
:10B100000D6804463068043002F0D2FD33686419DB
:10B110005C600FD20F4B18683168043102F0AEFD4D
:10B120000D4B1A68944238BF1C60FFF751FF00288E
:10B13000D6D070BD094B18683168043102F09EFD0D
:10B14000F3E700BF00ED00E094690020146A0020DE
:10B15000186900201C690020CC69002020690020AB
:10B160002DE9F84F3C4E3D4D3D4CDFF80891DFF89E
:10B170000881DFF808B14FF0805A2368D3B100F09E
:10B18000D1FCF368DF68381D02F092FD2B68013BAB
:10B190002B602368013B236000F0CEFC97F8513010
:10B1A000002B37D0012BE8D13846FEF7CFFD2368BE
:10B1B000002BE4D12B4B1B68012B06D9CBF804A044
:10B1C00040BFBFF34F8FBFF36F8F00F03DFED9F844
:10B1D000003033BBD8F80030DB6A002BCDD1214BD7
:10B1E0001B68012BC9D8204B204A1B6812689B1A88
:10B1F000012BC2D91E4A136801331360D9F80030FD
:10B20000BBB1D8F80030DB6A0BB9164B1B68FFF7EF
:10B21000DFFEB2E7386BFEF799FD3846FEF796FD84
:10B22000ABE7D8F80030DB6A002BA6D10D4B1B68CA
:10B23000A3E7D8F80030DB6A002BE8D1094B1B6884
:10B24000012BE4D8084B1868084B1B68C01A01286A
:10B25000DDD900F0DDFCDAE7006A00208869002013
:10B260008C69002024690020CC690020146A002029
:10B27000946900209C6900201869002000ED00E01E
:10B28000274B1B68002B40D1264A70B5264C136013
:10B290002268236812681B6B9A423AD9234D2449CD
:10B2A0002A689300981880000858E0B9561EB30029
:10B2B00098198000085830BB961EB300981980007A
:10B2C000085800BBD61EB300981980000858D0B9A2
:10B2D000161FB300981980000858A0B9053A9300CA
:10B2E00098188000085813449B00CE1808337068E3
:10B2F000406870600B44984204BF40687060C36847
:10B3000023602A6070BD3246EDE7064B01221A60C9
:10B31000704720682168343100F0FAFFBEE700BFB3
:10B3200094690020186A0020186900209C69002098
:10B330002469002070B5174D2B680C4603F11801E5
:10B3400002F09CFC144B1E682868043002F0B0FC2C
:10B35000631C17D02B68A4195C600BD20F4B1868C4
:10B360002968043102F08AFC0D4B1A68944238BFF8
:10B370001C6070BD0B4B18682968BDE87040043133
:10B3800002F07CBC296808480431BDE8704002F036
:10B3900065BC00BF18690020146A00201C690020E9
:10B3A000CC69002020690020EC69002070B5194D9F
:10B3B0002B680C46164603F1180102F04FFC164BA1
:10B3C0005EB11B682868043002F072FC29681348DB
:10B3D0000431BDE8704002F041BC1E6828680430AA
:10B3E00002F066FC2B68A4195C600BD20C4B186849
:10B3F0002968043102F042FC0A4B1A68944238BFB3
:10B400001C6070BD084B18682968BDE870400431A5
:10B4100002F034BC18690020146A0020EC69002096
:10B420001C690020CC6900202069002038B5C36861
:10B43000DC6804F11805284602F03AFC1A4B1B6838
:10B440002BBB251D284602F033FC184AE36A11681D
:10B4500017488B4288BF136003EB8303294600EB38
:10B46000830002F0FBFB134BE26A1B68DB6A9A4223
:10B4700082BF114B01201860104B1A68126898BFE8
:10B4800000204AB90E4B4FF0FF321A6038BD2946F2
:10B490000C4802F0E3FBE6E71A68094BD268D26871
:10B4A00052681A6038BD00BF946900209C69002072
:10B4B0002469002018690020186A00201C690020F7
:10B4C000CC690020D4690020034A044B12681B6831
:10B4D000C0E90023704700BFD0690020146A002033
:10B4E000F8B50D46044600F01DFB2B681649581CA4
:10B4F0000A6813D0DFF854C0D4E90060DCF80070AB
:10B50000BE4201D090421AD9121A93420BD800239E
:10B510002B60012500F010FB2846F8BD002500F047
:10B520000BFB2846F8BDDCF800009B1A0A682B606C
:10B53000C4E90002002500F0FFFA2846F8BD012505
:10B5400000F0FAFA2846F8BD146A0020D0690020FD
:10B55000014B01221A607047186A0020084B1868D6
:10B5600060B9084B1B6853B9074A084B10681B6841
:10B57000013B984214BF0120022070470020704711
:10B58000D4690020186A0020EC6900208869002036
:10B59000054B1B6833B1054B1B68002B0CBF022009
:10B5A0000020704701207047E8690020946900205E
:10B5B00018B3F8B51C4CC36A2268D26A934214D2FD
:10B5C0008269002A04DB2268D26AC2F10502826124
:10B5D000164D426903EB830305EB83039A420DD0BA
:10B5E0002368DB6AC3620120F8BD2368406CDB6A14
:10B5F00098422CBF00200120F8BD7047061D074669
:10B60000304602F055FB2268094BD06A1A68F8628E
:10B61000904200D9186000EB800005EB80003146B5
:10B6200002F01CFB0120F8BD1869002024690020ED
:10B630009C69002050B138B5C16A836C426C013BF3
:10B640009142836400D01BB1002038BD00207047B8
:10B65000051D0446284602F02BFB0A4A636C11685C
:10B66000E362C3F105008B42A061074888BF136005
:10B6700003EB830300EB8300294602F0EFFA01207D
:10B6800038BD00BF9C6900202469002048B1426C8D
:10B69000C36A914238BF11468B4202D0826C012AA4
:10B6A00000D07047826970B5114DC162002A03EB6A
:10B6B00083034269A8BFC1F1050105EB8303A8BF5D
:10B6C00081619A4200D070BD061D0446304602F0EA
:10B6D000EFFA084BE06A1A68904288BF186000EBE6
:10B6E000800005EB80003146BDE8704002F0B6BA3C
:10B6F000246900209C690020044B1A681AB119685B
:10B700008A6C01328A641868704700BF186900208B
:10B710002DE9F04FAD4EDFF8C482AD4D89B03368EE
:10B720001C68002C00F08E80DB681C68FFF7AAFB09
:10B73000FFF7B0FBD8F80030984207465DD384424B
:10B74000C8F8000040F20B810022E11B2868FFF7D7
:10B7500057F9FFF73DFC88B99E4A4FF0805353607C
:10B7600040BFBFF34F8FBFF36F8F07E0019B03997B
:10B7700020469847009B002B80F2388128680022E1
:10B780006946FEF7EDFD0028C9D0009B029C002B06
:10B79000ECDB636913B1201D02F08AFAFFF77AFB34
:10B7A000D8F800309842814643D3009BC8F80090F7
:10B7B000092BE3D8012202FA03F313F4047F69D1C1
:10B7C00013F0C70F40F0A1809B06D7D594F82C301A
:10B7D000002BD3D12046FEF7B9FACFE7DB68DC684F
:10B7E000D3F800A004F10409484602F061FA636A44
:10B7F00020469847E369012B36D033681A68002A3F
:10B80000ECD17549C8F800700A6832600B60FFF728
:10B81000DFFBB3E7DB68DF68D3F800B007F1040AA9
:10B82000504602F045FA7B6A38469847FB69012B7F
:10B8300025D033681A68002AECD167490A6832605B
:10B840000B60B2E7FFF71EFBFFF724FBD8F80030D0
:10B8500083420746D1D8604BC8F800701B681A684D
:10B86000B2FA82F2520970E7A36953449A454946F5
:10B8700022D263602461306802F000FABDE7BB6940
:10B880005B449B45514627D27B603F61306802F0A4
:10B89000F5F9CEE7019B246103EB09024A45A36158
:10B8A00062602CD8002B3FF469AF4B4B211D186808
:10B8B00002F0E4F9286862E72B68002B9DD0002392
:10B8C000CDE9043A0694FFF763FE00231A4604A963
:10B8D0002868FEF7BBFA90E72B68002BA9D000235D
:10B8E000CDE9043B0697FFF753FE00231A4604A94F
:10B8F0002868FEF7ABFA9CE74B4500D998B1306851
:10B90000211D02F0BBF9286839E7019BA269246177
:10B9100099182CBF0120002049456160ECD8A9EBA3
:10B9200003039A42C1D8636A20469847E369012B12
:10B930007FF424AF019BA2692868134400283FF4D8
:10B940001EAF0022CDE904230694FFF721FE002359
:10B950001A4604A92868FEF779FA28680FE7FFF766
:10B9600037FB3368DB68D3F80C9009F1040A5046C2
:10B9700002F09EF9D9F81C30012B04D0D9F82430FC
:10B9800048469847FAE6D9F81830C9F81090E218F6
:10B99000BA42C9F8042004D95146306802F06EF961
:10B9A000ECE73F1BBB421BD82B68002BE6D00023E3
:10B9B000CDE90434CDF81890FFF7EAFD00231A46CC
:10B9C00004A92868FEF742FAD8E700BF1C6A0020E5
:10B9D000A06C002000ED00E0206A00204C6C0020EC
:10B9E000034B5146186802F049F9C7E7029CD0E6BC
:10B9F000206A0020F0B5204C89B000F093F825684B
:10BA0000FDB100F099F82068C8B1002407AA06A982
:10BA100005A8CDE9054400F08DFCDDE905300221E3
:10BA2000CDE90010079A0293144915482346FFF701
:10BA3000DFF8144A0346001B18BF0120136009B049
:10BA4000F0BD114F114E384602F0F8F8304602F0C2
:10BA5000F5F80F4A0F4900950F4B17600E600F4A1B
:10BA600010212020FEF780F920600028C9D00C4961
:10BA7000FEF7B4FFC5E700BFA06C00200C21030057
:10BA800011B70200A46C0020246C0020386C002048
:10BA90001C6A0020206A0020506C0020246A0020CC
:10BAA00004210300402383F31188FEE730B46FF0D4
:10BAB00002034FF08075074C40F8045C40F80C4CD2
:10BAC00040F8081C40F8202C40F8243C30BC443896
:10BAD000704700BFA5BA02000F4C08B5E02384F8F8
