:020000022000DC
:1060000000000420D9180300191903001B1903000C
:106010001D1903001F1903002119030000000000CF
:106020000000000000000000000000005518030000
:10603000251903000000000075180300291903004A
:10604000691B03002B1903002B1903007D7C020040
:106050002B1903002B1903002B1903002B19030024
:106060002B1903002B1903002B1903002B19030014
:106070002B1903002B1903002B1903002B19030004
:106080002B190300E11503002B1903002B19030042
:106090002B1903002B190300B5AF02002B190300C5
:1060A0002B1903002B1903002B1903002B190300D4
:1060B0002B1903002B190300000000000000000052
:1060C0002B1903002B1903002B19030061A40300F3
:1060D0002B1903002B1903002B19030029F20200CE
:1060E0002B1903002B1903002B19030000000000DB
:1060F000000000002B19030000000000D9A40300D9
:10610000000000000000000000000000000000008F
:10611000000000000000000000000000000000007F
:10612000000000000000000000000000000000006F
:10613000000000000000000000000000000000005F
:10614000000000000000000000000000000000004F
:10615000000000000000000000000000000000003F
:10616000000000000000000000000000000000002F
:10617000000000000000000000000000000000001F
:10618000000000000000000000000000000000000F
:1061900000000000000000000000000000000000FF
:1061A00000000000000000000000000000000000EF
:1061B00000000000000000000000000000000000DF
:1061C00000000000000000000000000000000000CF
:1061D00000000000000000000000000000000000BF
:1061E00000000000000000000000000000000000AF
:1061F000000000000000000000000000000000009F
:10620000F1EE103A43F08073E1EE103A704700BFB0
:1062100010B5054C237833B9044B13B10448AFF3E0
:1062200000800123237010BDC86200200000000020
:10623000E0EF030008B5034B1BB103490348AFF37C
:10624000008008BD00000000CC620020E0EF0300E9
:10625000154B002B08BF134B9D46A3F5803A002138
:106260008B460F461348144A121A15F0C0F90F4B0B
:10627000002B00D098470E4B002B00D098470020F1
:10628000002104000D000D48002802D00C48AFF397
:10629000008015F045F9200029000BF06BFB15F08C
:1062A00019F900BF000008000000042000000000F1
:1062B00000000000C862002084920020000000005E
:1062C00000000000964A0023C2E90033C2E902330D
:1062D0001361002900F00F812DE9F04F83B04D1EAE
:1062E000904CDFF854A2DFF85492DFF84482019119
:1062F000ADB283460093412B04D0472B02D04D2BE7
:1063000040F0FB80009B0F2B5CD0DBF80030584640
:10631000DB6A984700283AD0DBF80030824D5B6991
:1063200058469847C7B23946204606F031FC05F179
:1063300014065146204606F017FB15F8013F0F2BB7
:10634000494620464FF010022ED806F00DFB297862
:10635000102201F00F01204606F05EFBAE424146DE
:10636000204602D006F000FBE3E706F0F1FB212F08
:106370001ED0009B5A1C92B20092694A019DD754CC
:10638000DBF800305846DB6A98470028C4D1002D5E
:1063900065D0012008F0B2FF009B013D132BADB288
:1063A00010D85F4B5B78A6E7194606F035FBD5E7BA
:1063B000012300930023E0E7432B40F0AD80009BD6
:1063C000062BA2D1564A009900235354544B1978F6
:1063D000212903D0002003B0BDE8F08F009B581E98
:1063E0004F4B1C5C002840D00022134601E04C4972
:1063F000895C0132D2B20B449042DBB2F7DCDB4362
:10640000DBB2009A9C4202F101073DD04548474962
:10641000434EDFF82491DFF82481044606F0B6FAF3
:10642000DDF800A000254946204606F09DFA16F842
:10643000013B0F2B414620464FF0100217D806F0C3
:1064400093FA16F8011C102201F00F01204606F005
:10645000E3FAAA4510D1334806F07AFBBAE730498F
:10646000009BCD54002BB5D0B0E7FF23C9E71946F8
:1064700006F0D2FAAA45EED02D490135204606F0A5
:1064800073FABD42CFD3E6E726482A49264EDFF805
:10649000A890DFF8A880044606F062FB0025494674
:1064A000204606F061FA16F8013F0F2B41462046C0
:1064B0004FF0100211D806F057FA3178102201F08F
:1064C0000F01204606F0A8FA009BAB420BD11548FD
:1064D00006F03EFB9DF800007DE7194606F09CFAA9
:1064E000009BAB42F3D012490135204606F03CFA3E
:1064F000BD42D4D3EBE700207047512B04D1009B61
:10650000132B7FF402AF5DE7422B7FF455AF009B66
:10651000052B7FF4FAAE55E74C2B3FF4F3AEF4E6CF
:10652000E46200202C690020E36200205CE20300AA
:10653000CCE203007CE20300BCE3030078EB030041
:10654000F8B560304FF4FA71FFF7BCFE00B9F8BD42
:10655000BE4CBF4821780A2206F02AFB6378432B01
:1065600000F03C81422B00F01E814C2B00F0E080BB
:10657000412B00F0AB804D2B76D0472B42D0512BD6
:10658000E5D1D4F80270B349B148D4F80660D4F824
:106590000A50D4F80E4006F0F9F9384614F0E2FB40
:1065A00041EC100B0221AA4806F0A4FA0921A848E0
:1065B00006F0FEF9304614F0D5FB41EC100B022139
:1065C000A34806F097FA0921A14806F0F1F92846F8
:1065D00014F0C8FB41EC100B02219D4806F08AFA2A
:1065E00009219B4806F0E4F9204614F0BBFB41EC7E
:1065F000100B0221964806F07DFA9548BDE8F84058
:1066000006F0A6BAD4F8027093499148D4F806600F
:10661000D4F80A5006F0BAF9384614F0A3FB41EC5E
:10662000100B02218A4806F065FA0921884806F015
:10663000BFF9304614F096FB41EC100B0221844860
:1066400006F058FA0921824806F0B2F9284614F0FB
:1066500089FB41EC100B02217D4806F04BFA7C4887
:1066600006F076FA63788AE7D4F802707B497848B6
:10667000D4F80660D4F80A5006F088F9384614F0C9
:1066800071FB41EC100B0221714806F033FA09212D
:106690006F4806F08DF9304614F064FB41EC100BA6
:1066A00002216B4806F026FA0921694806F080F9B4
:1066B000284614F057FB41EC100B0221644806F009
:1066C00019FA634806F044FA637856E7D4F8027082
:1066D00063495F48D4F80660D4F80A5006F056F9CA
:1066E000384614F03FFB41EC100B0221584806F0ED
:1066F00001FA0921564806F05BF9304614F032FBE6
:1067000041EC100B0221524806F0F4F909215048DF
:1067100006F04EF9284614F025FB41EC100B02213F
:106720004B4806F0E7F94A4806F012FA637822E788
:106730004C49D4F802704648D4F80660D4F80A50A0
:1067400006F024F94849424806F020F9384614F08A
:1067500009FB41EC100B04213D4806F0CBF909215F
:106760003B4806F025F94149394806F00FF9304613
:1067700014F0F8FA41EC100B0421354806F0BAF990
:106780000921334806F014F9284614F0EBFA41ECDD
:10679000100B04212E4806F0ADF935492C4806F0BF
:1067A000DFF96378E4E6A578E67832492848303D99
:1067B000EDB206F0EBF829460A22254806F0FCF86F
:1067C000302E14BF2C492D492148053D06F0C8F94B
:1067D000032D33D8DFE805F0585D342FA77828491A
:1067E0001B48E678257906F0D1F80F2F1ED93946D7
:1067F0001022174806F0E0F80F2E12D93146102269
:10680000134806F0D9F80F2D06D929461022104852
:1068100006F0CEF96378A5E61A490D4806F0B6F8F9
:10682000F3E718490A4806F0B1F8E7E715490848C0
:1068300006F0ACF8DBE7092000F06EFA637894E626
:10684000022000F069FA63788FE600BFE46200205E
:106850002C690020F0E20300E8E20300E0E203001C
:10686000D8E20300B0E20300C0E20300C8E2030084
:10687000D0E2030090E2030098E20300A4E20300E8
:1068800088E2030078EB0300002000F045FA63780B
:106890006BE6062000F040FA637866E6F8B5294C0E
:1068A000294F2A490646204606F05AF90022384662
:1068B000012104F045F90421384604F0E7FA304696
:1068C00004F0C2FC60362249204606F049F9304601
:1068D00007F5007505F0B6F820461E4906F040F9A8
:1068E0000621284602F078FD284602F05DFD31467B
:1068F000284602F01BFD07F50F7002F027FD284621
:10690000012102F09DFDF4222846202102F094FD91
:1069100028461E2102F08EFD2846002102F0ECFDE3
:1069200020460D4906F01CF920460C4906F0F8F8FF
:1069300020460B4906F0F4F82046BDE8F84006F082
:1069400007B900BF2C690020C0650020F8E20300F1
:1069500004E3030014E3030024E3030034E303002F
:1069600078E3030070B500F1240604460B4D05F0F2
:10697000AFFF304602F01AF94FF0FF33C4F88C3005
:106980002A4620461C2105F0ABFF30462A4600234C
:106990006A2102F065F8204670BD00BFEC6400205B
:1069A000F0B52DED048B9FED308A9DB00646F0EEDC
:1069B000488AB0EE489A0F4600F12405322413AB02
:1069C0000AAA01A9284602F091F8DDED0F6A9DEDB3
:1069D000107ADDED117A013C39EE269A78EE878A3D
:1069E00038EE278AEBD1DFED217A29EE279A68EE7F
:1069F000A78A28EE278A86ED209AC6ED218A86EDA1
:106A0000228A6FB31A491B4806F0AAF81A49194896
:106A100005F0BCFFD6F8800014F0A4F941EC100B8F
:106A20000221144806F066F81449124805F0AEFF3A
:106A3000D6F8840014F096F941EC100B02210D48B1
:106A400006F058F80E490B4805F0A0FFD6F888006C
:106A500014F088F941EC100B0221064806F04AF8C0
:106A60001DB0BDEC048BF0BD000000000AD7A33CB4
:106A7000E4E203002C690020C0E30300D0E303003C
:106A8000D8E303000000000070B52DED048B9FEDEE
:106A90004C8A8CB00546B0EE489AF0EE488A322413
:106AA00003A9284605F09EFDF8EEE88AB8EEC99ADB
:106AB000B8EEC88ADDED086A9DED097ADDED0A7A47
:106AC00078EEA68A39EE079A38EE278A013CFDEE69
:106AD000E88ABDEEC99ABDEEC88AE1D139489FED7A
:106AE0003A5ADFED3A5A9FED3A6A18EE903A80FB37
:106AF000033618EE903ADA1719EE103A80FB033499
:106B000018EE103A80FB033019EE103AD917C2EB99
:106B1000261307EE103A18EE103ADB17C1EB2412D9
:106B2000C3EB201306EE902A07EE903AB8EEC77A30
:106B3000F8EEE66AF8EEE77A37EE457A76EEA56A81
:106B400077EEC67ABDEEC77AFDEEE77AFDEEE66A2D
:106B500085ED1C7AC5ED1E7A17EE900AC5ED1D6A0B
:106B600017EE104A14F0ECF8CDE90001204614F0BD
:106B7000E7F89DED001B41EC100B13F0F3FC0EA3A6
:106B8000D3E9002351EC100B14F044F914F004FC89
:106B900007EE900AF5EEC07AF1EE10FA44BF9FEDD1
:106BA0000D7A77EE877AFDEEE77AC5ED1F7A0CB0A5
:106BB000BDEC048B70BD00BF99403F9EDDA54C40ED
:106BC000000000001F85EB510000FC41E17A6642A5
:106BD00000006D420000B4432DE9F84F8246FFF7F4
:106BE00053FF08F07FFBDAF890309FED3F7AC01A30
:106BF00007EE900AF8EE677AF4EEC77AF1EE10FA33
:106C000056DADAF89430DAF87C40DAED217AE41AD0
:106C1000F0EEE77A002C17EE900AB8BF644214F049
:106C2000A1F829A3D3E9002314F07AFBE0B3092CDF
:106C300038DD01238AF8983008F054FB0FF29009F0
:106C4000D9E9008924A7D7E90067DFF8A0B06FF081
:106C500004050024DAF87C00001B0028B8BF40427D
:106C6000C0F11E0014F06CF8032D42464B4625D9A6
:106C700014F0D0F832463B4613F016FF14F064FBD4
:106C80001E3420EAE0715BF8040B0BF09DFBB4F5B9
:106C9000B47F05F10105DDD108F024FBDAF87C3082
:106CA000CAE92403BDE8F88F132CC2DCBDE8F88FD5
:106CB00000F0B8FC00238AF89830A2E708A3D3E9D3
:106CC0000023D5E7AFF300809A9999999999C93F24
:106CD000555555555555FD3F0000000000C05F401B
:106CE000ABAAAAAAAAAA0A4000004843E0E303000C
:106CF00070B5084C04F1300654F8045B01212846B5
:106D00000BF0BAFC284600210BF0F6FCB442F3D19C
:106D100070BD00BF10E403002DE9F04F89B008AB4F
:106D200018440023CDE905330122079300F80C2C09
:106D30009DF814B0BBF1000F40F021849DF815A020
:106D4000BAF1000F40F025849DF81690B9F1000FBC
:106D500040F029849DF81780B8F1000F40F02D8491
:106D60009DF81870002F40F031849DF81960002EB6
:106D700040F035849DF81A50002D40F039849DF87C
:106D80001B300093002B40F03D849DF81C30019394
:106D9000002B40F041849DF81D300293002B40F001
:106DA000E9839DF81E300393002B40F0D5839DF8B6
:106DB0001F40002C40F0D983642008F09FFABBF1FB
:106DC000000F40F07A81BAF1000F40F08782B9F1EC
:106DD000000F40F07A82B8F1000F40F06E82002F71
:106DE00040F06382002E40F02D82002D40F0318271
:106DF000009B002B40F03582019B002B40F0398234
:106E0000029B002B40F03D82039B002B40F041820F
:106E1000002C40F045825A2008F070FABBF1000FB8
:106E200040F04281BAF1000F40F0D182B9F1000F79
:106E300040F0C482B8F1000F40F0B882002F40F05B
:106E4000AD82002E40F0F082002D40F0F482009BD5
:106E5000002B40F0F882019B002B40F0FC82029B4B
:106E6000002B40F00083039B002B40F0DF81002CBF
:106E700040F0E381642008F041FABBF1000F40F0DC
:106E80000A81BAF1000F40F05E83B9F1000F40F0C3
:106E90005183B8F1000F40F04583002F40F03A8352
:106EA000002E40F01383002D40F01783009B002B31
:106EB00040F01B83019B002B40F01F83029B002BA3
:106EC00040F02383039B002B40F0D282002C40F043
:106ED000D6825A2008F012FABBF1000F40F0D2809F
:106EE000BAF1000F40F0E982B9F1000F40F0DC8206
:106EF000B8F1000F40F0D082002F40F0C582002E84
:106F000040F02A81002D40F02E81009B002B40F0A4
:106F10003281019B002B40F03681029B002B40F018
:106F20003A81039B002B40F00B81002C40F00F8135
:106F3000642008F0E3F9BBF1000F40F09A80BAF149
:106F4000000F40F06A81B9F1000F40F05D81B8F1A7
:106F5000000F40F05181002F40F04681002E40F09C
:106F60001F81002D40F02381009B002B40F02781E2
:106F7000019B002B40F02B81029B002B40F02F81C6
:106F8000039B002B40F0A280002C40F0A6805A20EA
:106F900008F0B4F9BBF1000F63D1BAF1000F40F073
:106FA000BA80B9F1000F40F0AD80B8F1000F40F0A9
:106FB000A180002F40F09680002E40F01182002D1D
:106FC00040F01582009B002B40F01982019B002BA2
:106FD00040F01D82029B002B40F02182039B002B7E
:106FE00040F0A280002C40F0A680642008F086F9D2
:106FF000BBF1000F2DD1BAF1000F40F0C681B9F1FD
:10700000000F40F0B981B8F1000F40F0AD81002FC2
:1070100040F0A281002E40F07B81002D40F07F8166
:10702000009B002B40F08381019B002B40F0878167
:10703000029B002B40F08B81039B002B40F057817B
:10704000002C40F05B815A2009B0BDE8F04F08F0F9
:1070500055B900210C200BF0B7F9BAF1000FCED0D2
:1070600093E1FF210C200BF0AFF9BAF1000F98D09B
:1070700051E000210C200BF0A7F9BAF1000F3FF40A
:1070800062AFCAE0FF210C200BF09EF9BAF1000FAD
:107090003FF42AAF11E200210C200BF095F9BAF170
:1070A000000F3FF4F2AE4EE2FF210C200BF08CF902
:1070B000BAF1000F3FF4BAAE89E100210C200BF0C9
:1070C00083F9BAF1000F3FF482AE07E100210A20F4
:1070D0000BF07AF9002C3FF45AAF00210B200BF093
:1070E00073F954E7FF2111200BF06EF9002E3FF4E5
:1070F00066AF75E1FF2110200BF066F9002F3FF419
:107100005BAFEFE7FF210F200BF05EF9B8F1000F46
:107110003FF44FAFEEE7FF210E200BF055F9B9F128
:10712000000F3FF442AFEDE7FF210A200BF04CF9CE
:10713000002C3FF45AAFFF210B200BF045F954E728
:10714000FF210A200BF040F9002C3FF4F1AEFF21A3
:107150000B200BF039F9EBE6FF2112200BF034F98C
:10716000002D3FF4D2AEFF2113200BF02DF9009B30
:10717000002B3FF4CEAEFF2105200BF025F9019B3B
:10718000002B3FF4CAAEFF2106200BF01DF9029B35
:10719000002B3FF4C6AEFF2109200BF015F9C0E625
:1071A000002112200BF010F9002D3FF4DDAE00217C
:1071B00013200BF009F9009B002B3FF4D9AE0021FE
:1071C00005200BF001F9019B002B3FF4D5AE002107
:1071D00006200BF0F9F8029B002B3FF4D1AE002102
:1071E00009200BF0F1F8CBE6002111200BF0ECF8B0
:1071F000002E3FF4B6AED3E7002110200BF0E4F8E8
:10720000002F3FF4ABAEEFE700210F200BF0DCF8CE
:10721000B8F1000F3FF49FAEEEE700210E200BF017
:10722000D3F8B9F1000F3FF492AEEDE7FF210A2049
:107230000BF0CAF8002C3FF41DAEFF210B200BF021
:10724000C3F817E6002112200BF0BEF8002D3FF422
:10725000CFAD002113200BF0B7F8009B002B3FF4BB
:10726000CBAD002105200BF0AFF8019B002B3FF4C4
:10727000C7AD002106200BF0A7F8029B002B3FF4BE
:10728000C3AD002109200BF09FF8039B002B3FF4B6
:10729000BFAD00210A200BF097F8002C3FF4BBADE6
:1072A00000210B200BF090F8B5E5002111200BF028
:1072B0008BF8002E3FF499ADC4E7002110200BF0AD
:1072C00083F8002F3FF48EADEFE700210F200BF085
:1072D0007BF8B8F1000F3FF482ADEEE700210E20FD
:1072E0000BF072F8B9F1000F3FF475ADEDE7002136
:1072F0000A200BF069F8002C3FF4A5AE00210B200A
:107300000BF062F85A2009B0BDE8F04F07F0F6BF65
:10731000002112200BF058F8002D3FF481AE00211F
:1073200013200BF051F8009B002B3FF47DAE0021A1
:1073300005200BF049F8019B002B3FF479AE0021AA
:1073400006200BF041F8029B002B3FF475AE0021A4
:1073500009200BF039F86FE6002111200BF034F80A
:10736000002E3FF45AAED3E7002110200BF02CF88A
:10737000002F3FF44FAEEFE700210F200BF024F871
:10738000B8F1000F3FF443AEEEE700210E200BF002
:107390001BF8B9F1000F3FF436AEEDE7FF211120E5
:1073A0000BF012F8002E3FF44FAD3DE0FF2110200E
:1073B0000BF00AF8002F3FF444ADEFE7FF210F2058
:1073C0000BF002F8B8F1000F3FF438ADEEE7FF2103
:1073D0000E200AF0F9FFB9F1000F3FF42BADEDE7F5
:1073E000FF2112200AF0F0FF002D3FF4EBADFF214A
:1073F00013200AF0E9FF009B002B3FF4E7ADFF21CB
:1074000005200AF0E1FF019B002B3FF4E3ADFF21D3
:1074100006200AF0D9FF029B002B3FF4DFADFF21CD
:1074200009200AF0D1FFD9E5FF2112200AF0CCFF94
:10743000002D3FF40CADFF2113200AF0C5FF009B87
:10744000002B3FF408ADFF2105200AF0BDFF019B92
:10745000002B3FF404ADFF2106200AF0B5FF029B8C
:10746000002B3FF400ADFF2109200AF0ADFFFAE444
:1074700000210A200AF0A8FF002C3FF42AAD0021C9
:107480000B200AF0A1FF24E5FF2111200AF09CFF48
:10749000002E3FF437AD5FE6FF2110200AF094FF85
:1074A000002F3FF42CADEFE7FF210F200AF08CFFF7
:1074B000B8F1000F3FF420ADEEE7FF210E200AF0F7
:1074C00083FFB9F1000F3FF413ADEDE70021122067
:1074D0000AF07AFF002D3FF4E9AC002113200AF0F6
:1074E00073FF009B002B3FF4E5AC002105200AF060
:1074F0006BFF019B002B3FF4E1AC002106200AF05A
:1075000063FF029B002B3FF4DDAC002109200AF051
:107510005BFFD7E4002111200AF056FF002E3FF454
:10752000C2ACD3E7002110200AF04EFF002F3FF439
:10753000B7ACEFE700210F200AF046FFB8F1000FCB
:107540003FF4ABACEEE700210E200AF03DFFB9F1AD
:10755000000F3FF49EACEDE7FF210A200AF034FF54
:107560009DF81F40002C3FF427ACFF210B200AF0B0
:107570002BFF21E4FF2109200AF026FF11E4FF215F
:107580000C200AF021FF9DF815A0BAF1000F3FF47E
:10759000DBABFF210E200AF017FF9DF81690B9F122
:1075A000000F3FF4D7ABFF210F200AF00DFF9DF82D
:1075B0001780B8F1000F3FF4D3ABFF2110200AF081
:1075C00003FF9DF81870002F3FF4CFABFF2111206F
:1075D0000AF0FAFE9DF81960002E3FF4CBABFF21B4
:1075E00012200AF0F1FE9DF81A50002D3FF4C7ABAF
:1075F000FF2113200AF0E8FE9DF81B300093002BBA
:107600003FF4C3ABFF2105200AF0DEFE9DF81C30DD
:107610000193002B3FF4BFABFF2106200AF0D4FEFC
:10762000FFF7B9BB38B5054C04F1300554F8040B2D
:1076300000210AF0C9FEAC42F8D138BD10E40300C5
:1076400010B5044B044640F8243F00F097FB204659
:1076500010BD00BF08E5030030B5424D424CA9B053
:1076600028464FF4E13105F027FC4049284605F053
:1076700077FAFFF73DFB01A8FFF774F93C4B069D35
:107680005D61079D9D61089DDD61099D9DF8080074
:107690001D620B9D18719D62DDF80A000C9D049916
:1076A000059AC3F80600DD62BDF80E000D9D5881F5
:1076B000D9600F9810991A611D63119ABDF838505E
:1076C0009D869863D9631A64129A149D5A64DD6486
:1076D000159A169D1A655D65BDF85C20189DA3F886
:1076E0005820DD65199A1A9D1A665D661B9A1C9DC5
:1076F00013999A66DD661D9A1E9D996428A82199A2
:107700001A675D671F9A209D9A67C3F88010194A0F
:10771000DD67229D239940F8782DC3F88450249A80
:10772000259DC3F888102699C3F88C209DF89C20CD
:1077300083F89820C3E9245100F020FB0021142095
:107740000AF09AFF204601F097FA0521204601F041
:1077500083FD204601F0A2FA0748FFF79FF829B001
:1077600030BD00BF2C690020D464002040E4030039
:107770003864002008E50300FC62002000000000DF
:10778000D0B5142082B00AF0ABFE13F0D9FA23A3CF
:10779000D3E9002313F03EFB13F0FEFD13F0E2FAF1
:1077A00020A3D3E9002306460F4613F0AFFD38BBF4
:1077B0000446394630461DA3D3E9002313F0A6FD45
:1077C000B0B9009002460146B423114801F01EFDF5
:1077D0000F4801F063FA0F48FFF7FEF900210D484A
:1077E000FFF7DEF80C4802B0BDE8D040FEF7A8BEB7
:1077F0000094214678231E22054801F007FDE7E7A3
:107800000023009319467822014801F0FFFCDFE7CE
:10781000D464002038640020FC6200206D1AD0A6D9
:10782000016D7A3F3333333333330B40666666661C
:1078300066660E4070B5154C154D164E5223204607
:107840000822012101F0DAF92A461349204612F0F4
:1078500083FE304603F0D4FC104C06F160004FF478
:10786000807103F0F7FD2A460D49304612F074FE90
:10787000204605F02DF804F1240001F097F92A467E
:1078800020460849BDE8704012F066BED46400206E
:1078900000600020FC6200205D8C02003864002043
:1078A000A97802004176020010B50446603004F069
:1078B00095F82046034B40F8103B01F0FDFE2046B2
:1078C00010BD00BF44E6030000207047704700BFB2
:1078D000203005F0D1B900BF203005F0BFB900BF9E
:1078E000203005F0CFB900BF38B5437F0BB9002079
:1078F00038BD00F1680420460D4605F0CBF900289C
:10790000F5D12046294605F097F9012038BD00BF82
:107910002DE9F0475AB30646DFF8588033681B68F4
:107920004D1E434517464FF0000400F1680915F855
:1079300001AF16D1737F13B92046BDE8F0874846E2
:1079400005F0A8F90028F7D15146484605F074F92A
:107950000134A742F0D0336815F801AF1B684345E6
:10796000E8D05146304698470028F1D1E4E7144664
:10797000E2E700BFE978020010B4837E1F2B4FF0CE
:10798000010288BF03F01F03C27603F5E0738CBFCA
:10799000284A4FF0A04240F20C6142F82310437E87
:1079A0001F2B86BF03F01F03224A4FF0A04203F5AE
:1079B000E07340F20C6142F8231003694FF0CC727F
:1079C000C3F8242503690622C3F800250369827ED3
:1079D000C3F808250369427EC3F80C2590F91830D6
:1079E000002B14DA144A03F00F031A4460231376B1
:1079F00090F91830002B07DB104903F01F0001221B
:107A00005B09824041F823205DF8044B7047590917
:107A1000603103F01F030124084A04FA03F342F81B
:107A2000213090F91830002BDCDB1344602283F8FE
:107A30000023DDE700030050FCEC00E000E100E083
:107A40000AB9104670472DE9F041054600F12008BB
:107A5000404614461E460F4605F0FCF82B69C3F855
:107A600088752A69012313622A69C2F834852A6954
:107A7000C2F838452A6913602A6902E0D2F8243135
:107A80001BB9D2F84C110029F8D00023C2F84C31B0
:107A90002A6902E0D2F8241119B9D2F85C11002940
:107AA000F8D00023C2F85C312B696EB9D3F82421D9
:107AB00052B90122DA612A69D2F84831002BFBD091
:107AC0000023C2F8483109E001225A612A69D2F83C
:107AD0000431002BFBD00023C2F804312B69D3F80A
:107AE00024211AB10022C3F824212B69D3F83C05C4
:107AF0002866C0B2BDE8F08110B50446683084F84D
:107B0000B01005F0A7F80123637710BDF8B504465F
:107B10000020236994F8B0206077C3F88825236992
:107B200001271F62236904F16806C3F844653046E3
:107B30000D4605F0A1F82369C3F8480523699F6045
:107B4000236902E0D3F824211AB9D3F85021002A7E
:107B5000F8D00022C3F85021304605F08DF8236993
:107B600040BB0022C3F86021236915B9D3F8242152
:107B70002AB301225A612269D2F80431002BFBD0CA
:107B80000023C2F804312369D3F8240168B100222C
:107B9000C3F824212369D3F8C404C3F8C404022819
:107BA00003D0042814BF04200320F8BDD3F82421F7
:107BB000002AD6D1D3F86021002AF7D0D1E70122DC
:107BC000DA612269D2F84831002BFBD00023C2F8D9
:107BD0004831D8E770B5036990F8B02000214177AB
:107BE000C3F88825036901261E62036900F1680550
:107BF0000446C3F84455284605F03EF82369C3F807
:107C0000480523699E60236902E0D3F824211AB94C
:107C1000D3F85021002AF8D00022C3F8502128467A
:107C200005F02AF8236918BB0022C3F860212369F4
:107C300001225A612269D2F80431002BFBD00021C5
:107C4000C2F804112369D3F8240160B1C3F82411E8
:107C50002369D3F8C404C3F8C404022803D0042859
:107C600014BF0420032070BDD3F82421002ADBD1E7
:107C7000D3F86021002AF7D0D6E700BF70B5294CB1
:107C80006369D3F86421002A3AD1D3F86821E2B9B4
:107C9000D3F8042162B1227F0021C3F804113AB164
:107CA000D4F8B820D3F83C0520660AB19047636940
:107CB000D3F8242142B10022C3F82421D3F8D024E0
:107CC000C3F8D02401225A6170BD0022C3F8682194
:107CD000154822770123637704F0BCFFD4F8B43051
:107CE00003B1984763691048C3F8440500236377DC
:107CF00004F0C2FF63690122C3F848055A63C7E76D
:107D0000002204F12006C3F86421012530462577BE
:107D100004F0A0FF63694022C3F83465C3F8382536
:107D20001D63B2E7EC6400205465002038B50E4CAA
:107D30000E4A20464FF47A7340F8202B0025C4E900
:107D4000015304F06FFF04F1680004F06BFF084A70
:107D5000084B6577D2E91612032020766176A27669
:107D6000C4E9043338BD00BFEC64002054E40300D0
:107D700090E7030000300040704700BF10B5044694
:107D8000006C044B236010B103685B689847204681
:107D900010BD00BF9CE40300704700BF704700BFE8
:107DA000704700BF10B50446006C054B236010B14E
:107DB00003685B689847204609F02EFE204610BDF8
:107DC0009CE4030010B5044609F026FE204610BDD1
:107DD00010B5044609F020FE204610BD10B504463B
:107DE00009F01AFE204610BD38B52822054608467F
:107DF000002113F0FCFB0B2209490A4C14F0E3FAB2
:107E000001210022C160C2720346AD6806480749DD
:107E10001D6104255A625D61DC619861196238BD9B
:107E200070E40300D7A30BC2D7A30B426422A0388F
:107E300070B5282206460846002113F0D8FB0B2215
:107E400009490A4D0A4C14F0BEFA002201210346EA
:107E5000C272C160B0681861064859615A62DD613A
:107E60009C61186270BD00BF88E403000AE81CC36F
:107E70000AE81C4323DB793D38B52822054608462D
:107E8000002113F0B4FB0B220A490B4C14F09BFAAF
:107E900001210022C160C2720346A9680748196126
:107EA0000D254FF07E515A625D61DC619861196267
:107EB00038BD00BF7CE40300000020C20000AA42DD
:107EC0002DE9F0418CB01027002501260446D0E9A9
:107ED0000E122B4606A80396CDE9016500970BF01C
:107EE000ABFE04231A4606A90DEB07000BF080FF3A
:107EF0000DEB070004210CF005F8D4E90E122B4617
:107F0000CDE90256CDE9007606A80BF095FE0223D6
:107F10001A4606A90DEB07000BF06AFF02210DEBD4
:107F200007000BF0EFFF4FF01108142007F0E6F9FF
:107F3000D4E90E122B460396CDE9016506A8CDF8CB
:107F400000800BF079FE04231A4606A90DEB07000A
:107F50000BF04EFF0DEB070004210BF0D3FFD4E92B
:107F60000E122B46CDF80080CDE90256019606A8E8
:107F70000BF062FE2B46042206A90DEB07000BF066
:107F800037FF0C210DEB07000BF0BCFF142007F0AE
:107F9000B5F90A2007F0B2F9384609F02DFD03467D
:107FA0001049C4604FF4DA62206419609A60384660
:107FB00009F022FD03460C49606440F2D162DC60A6
:107FC00019609A60384609F017FD0849C4600346F5
:107FD00040F2D262A064284619609A600CB0BDE8F5
:107FE000F08100BFD0E40300ECE40300B4E403003C
:107FF0002DE9F0434FF0200C97B0002501260E2705
:108000000446D0E90E122B46CDE900C70AA8CDE9F7
:1080100002560BF011FE3A4606A90AA80BF09AFE8A
:108020009DF819309DF8180040EA032000B26081E5
:1080300012F086FE0022754B12F0ECFE0022744B0B
:1080400012F032FD13F0A8F99DF81BE09DF81AC05C
:108050009DF81C309DF81D9060614CEA0E2CA4F830
:108060000CC09DF823E09DF81E209DF825C09DF8CA
:108070001F109DF821809DF820709DF8220043EA92
:1080800009299DF82430A4F80E9040EA0E2042EA17
:10809000012143EA0C2347EA08274FF0110CE26B59
:1080A0002182A16B0396E0802381A7802B46CDF827
:1080B00000C010A8CDE901650BF0BEFD2B4610A94C
:1080C000042204A80BF094FE04A80BF099FEC0B2A1
:1080D000B04277D00C2870D19FED4E6AB4F90C30C5
:1080E000DFED4D5A06EE903AB4F90E3007EE103A35
:1080F000B4F9103007EE903AF8EEE66AB8EEC77AB7
:10810000F8EEE77A66EEA56A27EE257A67EEA57A9D
:1081100066EE866A27EE067A67EE867A01200023ED
:108120001025D4E90E12C4ED096A84ED0A7AC4ED73
:108130000B7ACDE901030390009510A80BF07CFDAC
:10814000022310A91A460DEB05000BF051FE0DEBB2
:1081500005000BF055FEC0B2012839D0032834D0F9
:10816000022838D19FED2D6AB4F90430DFED2C5A86
:1081700006EE903AB4F9063007EE103AB4F908303A
:1081800007EE903AF8EEE66AB8EEC77AF8EEE77ACC
:1081900066EEA56A27EE257A67EEA57A66EE866A10
:1081A00027EE067A67EE867AC4ED066A84ED077AD2
:1081B000C4ED087A17B0BDE8F083082814D19FED0C
:1081C000196A8BE79FED186A88E79FED186ACBE77D
:1081D0009FED176AC8E79FED176A0028F7EE007A4F
:1081E00018BFB0EE676ABFE7042802D19FED126A9C
:1081F00074E710B99FED116A70E7DFED117A02287C
:10820000B7EE006A08BFB0EE676A67E70000703F2C
:108210000000394000008C42A968923723DBF93D09
:1082200013AC203C00000C4200000C4323DB793EE1
:1082300023DBF93E23DB793D00008C4100000C413B
:1082400000008C402DE9F043C468964A23689B687F
:10825000934297B006460D4640F005814FF0200C42
:1082600000274FF001084FF00E09D4E90E123B46EB
:10827000CDE900C90AA8CDE902780BF0DDFC4A4639
:1082800006A90AA80BF066FD9DF819309DF81800A4
:1082900040EA032000B2608112F052FD0022824BBE
:1082A00012F0B8FD0022814B12F0FEFB13F074F8BF
:1082B0009DF81B209DF81A30606143EA0223A381D8
:1082C0009DF81D009DF81C3043EA0023E3819DF8D2
:1082D0001F009DF81E3043EA002323829DF82100F1
:1082E0009DF8203043EA0023A3809DF823009DF8E9
:1082F000223043EA0023E3809DF825009DF82430D6
:108300004FF0110C43EA0023D4E90E12238110A888
:10831000CDF800C03B46CDE90278CDF804800BF0E3
:108320008BFC3B4610A9042204A80BF061FD04A8B5
:108330000BF066FDC0B2404500F08C800C2840F088
:1083400084809FED5B6AB4F90C30DFED5A5A06EE7B
:10835000903AB4F90E3007EE103AB4F9103007EE47
:10836000903AF8EEE66AB8EEC77AF8EEE77A66EE8B
:10837000A56A27EE257A67EEA57A66EE866A27EE6D
:10838000067A67EE867A012000231027D4E90E12C0
:10839000C4ED096A84ED0A7AC4ED0B7ACDE90103D4
:1083A0000390009710A80BF047FC022310A91A466F
:1083B0000DEB07000BF01CFD0DEB07000BF020FD93
:1083C000C0B201284CD0032847D002284ED19FEDDF
:1083D0003A6AB4F90430DFED395A06EE903AB4F94E
:1083E000063007EE103AB4F9083007EE903AF8EE8E
:1083F000E66AB8EEC77AF8EEE77A66EEA56A27EE87
:10840000257A67EEA57A66EE866A27EE067A67EE2B
:10841000867AC4ED066A84ED077AC4ED087AF468BA
:1084200006F060FF202206460021281D13F0DFF829
:1084300024232B60A38E6B600D232E61AB606369D8
:108440006B61012017B0BDE8F083082817D19FEDBC
:108450001C6A78E79FED1B6A75E79FED1B6AB8E71A
:108460009FED1A6AB5E720469847D8E79FED186A4E
:108470000028F7EE007A18BFB0EE676AA9E7042873
:1084800002D19FED146A5EE710B99FED136A5AE7B7
:10849000DFED127A0228B7EE006A08BFB0EE676A15
:1084A00051E700BFF17F02000000703F000039403B
:1084B00000008C42A968923723DBF93D13AC203CC5
:1084C00000000C4200000C4323DB793E23DBF93E25
:1084D00023DB793D00008C4100000C4100008C4002
:1084E0002DE9F043C468974A23689B68934297B08C
:1084F00006460D4640F008814FF0200C00274FF053
:1085000001084FF00E09D4E90E123B46CDE900C92F
:108510000AA8CDE902780BF08FFB4A4606A90AA803
:108520000BF018FC9DF819309DF8180040EA032064
:1085300000B2608112F004FC0022834B12F06AFC4E
:108540000022824B12F0B0FA12F026FF9DF81B2099
:108550009DF81A30606143EA0223A3819DF81D0053
:108560009DF81C3043EA0023E3819DF81F009DF82D
:108570001E3043EA002323829DF821009DF820301D
:1085800043EA0023A3809DF823009DF8223043EAAC
:108590000023E3809DF825009DF824304FF0110C56
:1085A00043EA0023D4E90E12238110A8CDF800C0BD
:1085B0003B46CDE90278CDF804800BF03DFB3B460D
:1085C00010A9042204A80BF013FC04A80BF018FC5B
:1085D000C0B2404500F08F800C2840F087809FEDAE
:1085E0005C6AB4F90C30DFED5B5A06EE903AB4F9F0
:1085F0000E3007EE103AB4F9103007EE903AF8EE6C
:10860000E66AB8EEC77AF8EEE77A66EEA56A27EE74
:10861000257A67EEA57A66EE866A27EE067A67EE19
:10862000867A012000231027D4E90E12C4ED096ACE
:1086300084ED0A7AC4ED0B7ACDE90103039000972B
:1086400010A80BF0F9FA022310A91A460DEB070047
:108650000BF0CEFB0DEB07000BF0D2FBC0B20128F4
:108660004FD003284AD0022851D19FED3B6AB4F97C
:108670000430DFED3A5A06EE903AB4F9063007EED0
:10868000103AB4F9083007EE903AF8EEE66AB8EE20
:10869000C77AF8EEE77A66EEA56A27EE257A67EEE6
:1086A000A57A66EE866A27EE067A67EE867AC4EDCC
:1086B000066A84ED077AC4ED087AF46806F012FEC3
:1086C000202206460021281D12F091FF012028607B
:1086D000638E6B6004232E61AB60636A6B61A36A77
:1086E000AB61E36AEB6117B0BDE8F083082817D1EE
:1086F0009FED1B6A75E79FED1B6A72E79FED1A6A93
:10870000B5E79FED1A6AB2E720469847D5E79FED97
:10871000186A0028F7EE007A18BFB0EE676AA6E77D
:10872000042802D19FED136A5BE710B99FED126A2E
:1087300057E7DFED127A0228B7EE006A08BFB0EE05
:10874000676A4EE7F17F02000000703F0000394089
:1087500000008C42A968923723DBF93D13AC203C22
:1087600000000C4200000C4323DB793E23DBF93E82
:1087700023DB793D00008C4100000C4100008C405F
:108780002DE9F043C468974A23689B68934297B0E9
:1087900006460D4640F007814FF0200C00274FF0B1
:1087A00001084FF00E09D4E90E123B46CDE900C98D
:1087B0000AA8CDE902780BF03FFA4A4606A90AA8B2
:1087C0000BF0C8FA9DF819309DF8180040EA032014
:1087D00000B2608112F0B4FA0022834B12F01AFB4F
:1087E0000022824B12F060F912F0D6FD9DF81B209A
:1087F0009DF81A30606143EA0223A3819DF81D00B1
:108800009DF81C3043EA0023E3819DF81F009DF88A
:108810001E3043EA002323829DF821009DF820307A
:1088200043EA0023A3809DF823009DF8223043EA09
:108830000023E3809DF825009DF824304FF0110CB3
:1088400043EA0023D4E90E12238110A8CDF800C01A
:108850003B46CDE90278CDF804800BF0EDF93B46BC
:1088600010A9042204A80BF0C3FA04A80BF0C8FA5C
:10887000C0B2404500F08E800C2840F086809FED0D
:108880005C6AB4F90C30DFED5B5A06EE903AB4F94D
:108890000E3007EE103AB4F9103007EE903AF8EEC9
:1088A000E66AB8EEC77AF8EEE77A66EEA56A27EED2
:1088B000257A67EEA57A66EE866A27EE067A67EE77
:1088C000867A012000231027D4E90E12C4ED096A2C
:1088D00084ED0A7AC4ED0B7ACDE901030390009789
:1088E00010A80BF0A9F9022310A91A460DEB0700F6
:1088F0000BF07EFA0DEB07000BF082FAC0B20128F4
:108900004ED0032849D0022850D19FED3B6AB4F9DC
:108910000430DFED3A5A06EE903AB4F9063007EE2D
:10892000103AB4F9083007EE903AF8EEE66AB8EE7D
:10893000C77AF8EEE77A66EEA56A27EE257A67EE43
:10894000A57A66EE866A27EE067A67EE867AC4ED29
:10895000066A84ED077AC4ED087AF46806F0C2FC72
:10896000202206460021281D12F041FE0120286029
:10897000238E6B602E61A860A3696B61E369AB61B4
:10898000236AEB6117B0BDE8F083082817D19FED8B
:108990001C6A76E79FED1B6A73E79FED1B6AB6E7DB
:1089A0009FED1A6AB3E720469847D6E79FED186A0D
:1089B0000028F7EE007A18BFB0EE676AA7E7042830
:1089C00002D19FED146A5CE710B99FED136A58E776
:1089D000DFED127A0228B7EE006A08BFB0EE676AD0
:1089E0004FE700BFF17F02000000703F00003940F8
:1089F00000008C42A968923723DBF93D13AC203C80
:108A000000000C4200000C4323DB793E23DBF93EDF
:108A100023DB793D00008C4100000C4100008C40BC
:108A2000044A02600022C0E90E22C0E910228264DA
:108A3000704700BF9CE4030030B58BB000230124D5
:108A40000F25D0E90E12CDE9014304A80394009547
:108A50000BF0F2F804A80BF003F9C0B20BB030BD74
:108A60002DE9F0410446806B0E461746984608B142
:108A700008F0D2FF102008F0BFFF314605463A4605
:108A80000BF04EFBA563284601210BF053FB08B900
:108A9000BDE8F081236841462046DB68BDE8F0412F
:108AA000184700BF70B58CB0012400251226D0E90C
:108AB0000E122B4606A80394CDE9014500960BF053
:108AC000BBF806A92B46224604A80BF091F92146D3
:108AD00004A80BF017FA02E0012006F00FFC04A82E
:108AE0000BF08EF90028F7D10CB070BD2DE9F047DE
:108AF000044615460E461F4606F0F4FB23688146E1
:108B00004FF0200A20469B6898474FF001085246D4
:108B1000301D002112F06BFDC6F80080238EC6F8D0
:108B20001090C6E90138A3697361E369B361236AF0
:108B3000F3615246281D002112F059FDC5F800804E
:108B4000638E6B600423C5F81090AB60636A6B6141
:108B5000A36AAB61E36AEB615246381D002112F053
:108B600046FD24233B60A38E7B600D23C7F8109045
:108B7000BB6063697B614046BDE8F08710B5034B7D
:108B800003600446FFF7FAF8204610BD08E503002D
:108B900010B5054B03600446FFF7F0F8204608F0D7
:108BA0003BFF204610BD00BF08E5030010B504469A
:108BB000FFF736FF014B2360204610BD08E5030098
:108BC00038B50D460446FFF737FF692801D000206D
:108BD00038BDABB2591C9A1C23866186A2862046FA
:108BE000FFF760FF2046FFF727FF6928EFD12946EE
:108BF0002046FFF765F9012038BD00BF70B5044677
:108C0000C3F38100C3F38116FF2B0D466074C3F3D9
:108C1000011103F00300A0748CBF002301238E42D6
:108C200014BF0420032015FB00F080B22370002342
:108C3000E6742174A080637023726361012116467B
:108C400012F02CFCE06020B9C4F80200E680204657
:108C500070BD6580E680204670BD00BF10B504463B
:108C6000C06812F089FCB4F90600002802DB00217C
:108C700009F002FD204610BD10B50446B0F906000B
:108C8000002807DB012109F0F7FC0021B4F90600F8
:108C900009F032FD0123637010BD00BFC368002BD3
:108CA00000F02C812DE9F04F93B047690190A84D59
:108CB000A84EA94C804620E063689B09BB4209D2BC
:108CC000EB68DA0127D52368DB0724D563689B09A5
:108CD000C8F81430EB68DF0102D52368D80722D426
:108CE00007F08EFDA0FB0601830AD8F8147043EA52
:108CF0008153DB1BB3F5967F1DD2EB68D80102D5FB
:108D00002368D907D8D407F07BFDA0FB0601830AAE
:108D100043EA8153D2E707F073FDA0FB0601830A03
:108D200043EA8153D4E76368D8F814709B09DB1BCE
:108D3000B3F5967FE1D3019A884B94880FCB12AD9F
:108D400005E90F00DDF838A0DAF8003543B9DAF8A4
:108D50006035002B04DADAF86435002BC0F2CF80DE
:108D6000DDF83CA0DAF8003543B9DAF86035002BBD
:108D700004DADAF86435002BC0F2C881DDF840A0CF
:108D8000DAF8003543B9DAF86035002B04DADAF89E
:108D90006435002BC0F2C581DDF844A0DAF8003557
:108DA00043B9DAF86035002B04DADAF86435002BC1
:108DB000C0F2C28108F0FCFB019A694BB2F90620AF
:108DC00053F822301F2B73D8012202FA03FB4FF015
:108DD000A0465F49019ACB685F4C1078614A43F026
:108DE0008073CB602368002843F0010323600CBF2D
:108DF0004FF4C3634FF43073039342F001030BBF8E
:108E00004FF01A084FF01208462729270CBF9C255F
:108E100047250493019BB3F804A0D3F80CE06368E2
:108E20000293BAF1000F49D00AF1FF391FFA89F90C
:108E300009F10109F14400221EF801CB082080212C
:108E400063689B1AAB42FBD36268D6F808351CEA0C
:108E5000010F43EA0B03C6F8083520D063689B1A5C
:108E6000BB42FBD3D6F80C35013843EA0B034FEA7B
:108E70005101C6F80C35E3D1CE45DDD1039B03FB90
:108E80000AFA63689B1AAB42FBD36368029A9B1A87
:108E9000534515D34FF49640049B9847BAE763684F
:108EA0009B1A4345DED263689B1A4345F7D3D9E743
:108EB000203B012202FA03FB2B4E8AE75246E0E7F1
:108EC00008F080FB224BDB68D9010AD5224B1A68D7
:108ED000D20706D55B68019A9B09536113B0BDE8C0
:108EE000F08F07F08DFC1B4B019AA0FB0301830A56
:108EF00043EA8153536113B0BDE8F08F7047DAF84D
:108F00006835002BBFF62CAFDAF86C35002BBFF6B6
:108F100027AF2401231D029307F0F0FF012800F082
:108F20006881029806F004FA8346BBF1000F3FF413
:108F300041AF019A938811780391002B00F0618171
:108F4000D368049308250023CDF834A05DE000BF6A
:108F5000F0ED00E040420F00001000E018E50300D3
:108F600090E7030030E503000003005048F21308C7
:108F700048F2080912F0800F14BF47464F4612F01E
:108F8000400F14BF46464E4612F0200F14BFC44691
:108F9000CC4612F0100F2BF811700C462BF8106015
:108FA0000899099E079F2BF811C014BFC646CE46EC
:108FB00012F0080F14BF44464C4612F0040F2BF871
:108FC00016E018BF40462BF8174008BF4846059EDC
:108FD0000A9C2BF8160012F0020F14BF41464946B6
:108FE0002BF8141012F0010F0B990CBF4A464246A1
:108FF0002BF81120019A013391889BB205F10802E8
:10900000994292B240F2A3801546A91FEE1E6A1E35
:10901000A5F1050C89B2B6B292B2AC1EA4B2089109
:1090200005961FFA8CF10B92AE1EDA0092B22F1F3A
:1090300009910A94B1B26C1EBFB20C911FFA84FA66
:1090400011460692039C049A0797E646E81FA5F18D
:109050000709A5F10608A5F1040CEF1E80B21FFA5E
:1090600089F91FFA88F81FFA8EFE1FFA8CFCBFB22E
:10907000D25C002C3FF47AAF48F2060148F20D04AE
:1090800012F0800F0CBF0846204612F0400F0CBFB4
:109090000E46264612F0200F08BF0C46059412F02B
:1090A000100F48F20D0418BF21460791069912F0DF
:1090B000080F2BF8110048F206010CBF08462046A5
:1090C00012F0040F2BF81960894618BF2146BDF82D
:1090D00014402BF8184012F0020FC84648F20D0950
:1090E0000CBF44464C4612F0010F4A4608BF4246A8
:1090F000BDF81C802BF81E802BF81C002BF81710D5
:109100000C992BF811402BF81A2073E7DAF8683520
:10911000002BBFF633AEDAF86C35002BBFF62EAE5F
:10912000F7E6DAF86835002BBFF636AEDAF86C35BC
:10913000002BBFF631AEECE6DAF86835002BBFF64F
:1091400039AEDAF86C35002BBFF634AEE1E66A1CB6
:1091500092B2DDF834A052000BEB45034FF400400F
:109160001880039B2BF802000021CAF80415CAF8E6
:109170000C15D3BB2823CAF80835029B0199224A53
:10918000B1F9061058080023CAF81435CAF810358A
:10919000CAF820B5CAF82405CAF82835CAF82C350B
:1091A00052F82120CAF860250122CAF80025CAF821
:1091B0001031CAF80820DAF810312BB908F028FE6F
:1091C000DAF81031002BF9D000234FF0FF32CAF843
:1091D0001031CAF80035CAF8602507F08FFE012863
:1091E00058460BD006F0B6F86CE61423CAF80835DA
:1091F000C3E7029812F0B8F9834696E612F0BCF97C
:1092000060E65B460222A9E790E70300F0B44488D9
:109210009DF810608C4219D9047A44B112FB04F213
:1092200014FB03F314FB06F4120A1B0A260AC57C7E
:10923000077CC468AF420BD004EB810100244C557D
:10924000057C4A55427C8B54837CCE54F0BC7047DD
:1092500001EB41012144F4E770B4037A4E1CF6B2ED
:10926000B3421AD0013B13F0FF03C56817D0FF29A2
:1092700017D03102013991FBF3F189B283885BB1D8
:109280002A46137801FB03F31B1202F8013B531B20
:1092900084889BB29C42F4D8067270BC7047194611
:1092A000ECE74FF6FF7191FBF3F1E7E772DF7047F0
:1092B00073DF704777DF704770B5054608460C4688
:1092C00001F0A0F9102808D0802812D1636883B17A
:1092D000EA7F0D2A0FDD002070BDEB7F22881B2B5B
:1092E000F9DCE9180320E85448704A80EB7F043326
:1092F000EB77012070BDA9181120A85407224A70ED
:1093000098681E685C68DB68C1F80E30C1F80A0016
:10931000C1F80260C1F80640EB7F1233EB77012001
:10932000DAE700BF0022C2770270704700B508314B
:10933000024603C983B06B4683E803001946104612
:10934000FFF7BAFF03B05DF804FB00BFF0B589B0CA
:10935000054620226946134801F084FDEB7FC218C0
:109360001D2A0ADDC3F11D04E4B2E2181D2A4FF0E4
:10937000000615DD304609B0F0BD04460126092778
:10938000EA18601CE85469465770901C224612F097
:109390000AF9EB7F02331C443046EC7709B0F0BD8C
:1093A0000827EDE7C065002010B50446094801F024
:1093B000BBFDE37F1C2B0ADCE2180221E1540A23E7
:1093C00090705370E37F0333E377012010BD0020DA
:1093D00010BD00BFC0650020C27F1C2A0DDC10B488
:1093E00003469C18022098540120A1706070DA7F17
:1093F0000332DA775DF8044B70470020704700BFF6
:1094000030B440F2FF12094C0949028401250022C0
:1094100080F82250C0E90A41C277027080F8232008
:109420004262C0E90C22826330BC70472000F40025
:1094300020001E00C18570474285018581857047E7
:1094400080F82210704700BFF0B502EB8203264E71
:1094500087B003EB83030F469B001546316800225B
:10946000CDE90272ADF80C3090F8213000928DF801
:109470000030CB0704460192CDE9042209D41B4AEF
:109480001B4BD17FC07F998101211C609A6098801D
:1094900031606A46164904F12000FFF707FF10B15A
:1094A000002007B0F0BD134894F8206001F03CFDA7
:1094B000314602460120FFF7FDFE0028F0D10121D0
:1094C00094F82000FFF7F4FE0028E9D1094801F0E4
:1094D00081FD638EA7859D4294BF5B1BDB1A012033
:1094E000638684F82300DCE7A8650020FC67002081
:1094F000AC650020C0650020F0B52C4D41860446C7
:1095000087B001862846FA2101F012FDE68D284930
:10951000278D0868029706EB860303EB830300227E
:109520009B000392ADF80C3094F8213000928DF836
:109530000030C3070192CDE904220BD41D4BE27F1A
:1095400095F85B029A8005F50F7501221C609D60FD
:1095500098810A606A46174904F12000FFF7A6FEC9
:1095600010B1002007B0F0BD104894F8205001F071
:10957000DBFC294602460120FFF79CFE0028F0D1C3
:10958000012194F82000FFF793FE0028E9D1074855
:1095900001F020FD638EA7859E4294BF9B1BDB1AC2
:1095A0000120638684F82300DCE700BFC06500204B
:1095B000A8650020AC65002030B50B888D88112B84
:1095C00085B004462CD0262B0FD0102B01D005B02F
:1095D00030BDCB7B012BFAD1426A03FA05F5154366
:1095E0000023456280F82330F1E70B7A012BEED19E
:1095F000002380F823304FF4FA71274801F098FCDB
:10960000238E002B30D0658E002D36D0A36B0BB18E
:109610009847658E618D2A462046FFF715FFD6E7ED
:10962000436AEB40DB07D2D51C4800F06DFF0028F1
:10963000CDD1636A94F82310012202FA05F523EADA
:10964000050363620029C2D194F82230002BBED0FA
:10965000238E6386FA21104801F06AFCE28D218D89
:109660002046FFF7F1FEB2E7A36B03B19847002253
:10967000618D2046FFF7E8FEA9E7074801F0BEFC30
:10968000626B002AA3D004AB0095294643F8045D21
:10969000284608F0A7FC9AE7C06500207068002003
:1096A000AADF7047ABDF7047ACDF7047ADDF7047B4
:1096B000AEDF7047B0DF7047704700BF10B504469B
:1096C00008F0AAF9204610BD70B55E4B04461B6831
:1096D0000361061D96B0304600F0A2FF94F82630D4
:1096E00013F0320208BF84F8272013F00C0208BFE1
:1096F00084F8282013F0300358D10FAD0F93C5E93B
:109700000133C5E9033394F8262094F82700AB61B0
:109710008DF83C2001224FF0000162F34201A26962
:1097200014930023ADF808308DF80A108DF8080066
:109730000AB1137873BBA37F13B104F11E03129314
:1097400094F82930E289059613F0010F4FF00003D9
:109750000CBF10461846CDF81E302946ADF81C0047
:10976000ADF8223018466569ADF8202004F12A03CF
:1097700004F1270605AA06960995FFF791FF03460F
:1097800028B9627F72BB257B002D53D00023184679
:1097900016B070BD1046109212F00DFE02AB80B2F2
:1097A000ADF84400ADF846001393C4E700231A4611
:1097B000012060F3420224498DF806200FAD09789C
:1097C00094F8270094F826200F938DF80410C5E92B
:1097D0000133C5E90333AB618DF805008DF83C20FA
:1097E00001AB97E71849ADF80C00024601250223AA
:1097F0004E6894F82710049665F3420203AD8DF885
:109800000E200B958DF80C100DEB030204AE04F145
:109810001C050AA9CDF83200ADF83030ADF834306F
:10982000ADF836000A960E95FFF73CFF0346002878
:10983000A9D0ACE72146054800F026FE2B46184685
:1098400016B070BDBC65002038E50300C06500207F
:109850002DE9F0410B888E88502B8AB00C460546C6
:1098600009D0512B04D18B79012B42D0022B17D078
:109870000AB0BDE8F081CB88428D9A4226D0EA8DAD
:109880009A42F5D1EB6C002BF2D095F83C20648A1B
:10989000920700F19D802246294630469847E7E727
:1098A000A27B042A5DD0062A32D0012AE0D16B6C5B
:1098B000002BDDD095F83C20170704F1080400F1D7
:1098C000CA802246294630469847D1E7876C002F48
:1098D000D5D090F83C30B1F810C001F11208D9078A
:1098E00000F195806346424629463046B847E388F2
:1098F000C5E7036C002BBBD090F83C20520701F168
:10990000080775D43A46294630469847A379ADE70B
:109910006A6B002AACD0002202A93046CDE90222AF
:10992000CDE904228DF80830FFF7C4FEAC6C64B1B9
:1099300095F83C306F6BB5F83AC0D80700F19E80BF
:1099400063463A4630462946A0476C6B07F0D6FA84
:10995000012820467CD005F0FDFC0023C5E90D332D
:1099600086E7686B002865D0218A628A2F8F0023E2
:1099700001EB020CCDE90633CDE90833BC454FF0CD
:1099800002038DF8183008DD40F20913ADF81C30E1
:1099900006A93046FFF78EFE6AE79DF81E30ADF847
:1099A000201004F1140743F0010308443946ADF8D0
:1099B00022208DF81E30099711F0F5FD638A228A66
:1099C000698F1A4493B28B4238BF0B466B87DFE72F
:1099D000032000211A46009006AB0846CDE9066533
:1099E000089408F0FFFA00287FF442AFEB6C52E7CE
:1099F00003211A46009106AB08213846CDE90665D9
:109A0000089708F0EFFA002880D12B6C7AE704233E
:109A100000933A46614606AB4046CDE90665CDE97E
:109A2000088C08F0DFFA00287FF461AFAF6CB4F85F
:109A300010C057E74FF480672F8707F05FFA0128BF
:109A4000384618D005F074FC002368636B878BE7F9
:109A500011F092FD81E703211A46009106AB0E2119
:109A60002046CDE90665089408F0BCFA00287FF48A
:109A7000FFAE6B6C25E711F077FDE5E7042300935B
:109A800022463846614606ABCDE906650897CDF813
:109A900024C008F0A7FA00287FF457AFAC6C6F6BB6
:109AA000B5F83AC04CE700BF70B483B06D4685E8A6
:109AB00006000446194944F8041B034695E80300D0
:109AC000174E84E80500317883F82810012214200D
:109AD0004FF0010562F34205D8810022184683F851
:109AE000295083F8271083F83C201A731A619A6171
:109AF0009A83C3F81E20C3F8222083F826205A61D7
:109B00005A859A851A86DA85C3E90D22C3E910229F
:109B1000C3E9122203B070BC704700BF48E50300E0
:109B200038E503000069704701230373704700BFE5
:109B300080F82610704700BFC181704739B990F88E
:109B40002930012262F3000380F82930704790F831
:109B50002930C181002262F3000380F82930704768
:109B600080F8271080F82820704700BF90F83C301C
:109B7000816462F3000380F83C30704730B490F8A1
:109B80003C3090F8294041640D1C18BF012565F355
:109B9000041462F3C30380F8294080F83C3030BCE1
:109BA000704700BF8161704751F82A2F02604A68F0
:109BB0004260704730B5C48985B0022C28BF0224AA
:109BC000ADF806100023418DADF808400DF10605F3
:109BD00002AA4FF6FF70ADF80A300395FFF764FD57
:109BE00018B9BDF8080005B030BD184605B030BD45
:109BF00090F8263013F0100301D11846704730B5A5
:109C0000044685B011480D4601F0B4F910B1E18D5C
:109C100011B9084605B030BD2846002302AA022526
:109C20000DF10604ADF80A30ADF808500394FFF7C3
:109C30003DFD43F20142904205D008B99DF806006F
:109C400000F00100E6E71846E4E700BFC065002029
:109C50002DE9F04F0F4690F82610C90689B06CD553
:109C600016464FF6FF729742054600F08380C28980
:109C70009A4228BF1A4693463946494801F07AF974
:109C8000044600285ED0E98D00295BD000200DF14C
:109C9000100842464FF0020CADF812000DF10E0311
:109CA0003846ADF810C00593FFF700FD43F20142BE
:109CB000904270D008B9BDF80E0000F001000028F5
:109CC00069D03946364801F06DF98246A8B300F0F4
:109CD000D5F8033883B2BBF1000F2FD001944FF0B9
:109CE00000095C469B4606E0BDF80E30E41AA4B2BB
:109CF0001E44002C51D0504600F0F8F8A3455B46B6
:109D0000414628BF2346C0B1ADF80E304FF00103E5
:109D10006A8DCDF8129038468DF812300DF10E0391
:109D2000ADF81690CDE90636ADF81020FFF7C0FC6F
:109D30000028D9D0504600F0E3F80024204609B0AE
:109D4000BDE8F08FEA890DF110085A4513464FF02F
:109D5000000428BF5B464246698DADF810304FF6CF
:109D6000FF700596ADF81240FFF79EFC204609B043
:109D7000BDE8F08F0A48019301F008F9019BEA89D8
:109D800095F82610934228BF13469B46CB060746FC
:109D90003FF572AFD7E7EA89D7E7019CCEE700BF6E
:109DA000C065002076DF70477FDF704786DF704731
:109DB0008FDF704790DF7047B1DF7047B5DF7047C6
:109DC00010B5074B03600446C06906F0A1F9206A8C
:109DD00006F09EF9606A08B106F09AF9204610BDB7
:109DE00060E5030010B5094B03600446C06906F046
:109DF0008FF9206A06F08CF9606A08B106F088F9DC
:109E0000204607F009FE204610BD00BF60E50300B4
:109E1000F8B50446818000250121144F21741726CE
:109E20001B2021732760E680608125811068C4F8BB
:109E30001300908896796676A4F81700D279627339
:109E4000194618469DF8186005F004FB3146E0619C
:109E5000304605F0FFFAC4E90A554FF6FF73206259
:109E600065746562A574E3812046F8BD60E5030072
:109E7000007C7047407C7047407B7047C0887047CB
:109E80000089704751F8132F026010B48C888A79CA
:109E9000848082715DF8044B704700BF2DE9F0416A
:109EA00086B004AC868890460F4620464FF4285171
:109EB00000F09CFBCDE900784FF6FF75012094E897
:109EC0000C003146CDE90205024800F08FF906B0DA
:109ED000BDE8F081C065002008B513218088FFF738
:109EE00061FFB0FA80F0400908BD00BF08B56621E7
:109EF000C06905F061FF003018BF012008BD00BF38
:109F000008B500231A461946C06905F0D5FA003095
:109F100018BF012008BD00BFC2898188407B01F0C5
:109F200099BE00BF03460A46407BD98901F0ACBE0A
:109F300070B50B88113B96B00C460546462B78D879
:109F4000DFE813F08500880047008B00770077007A
:109F500077007700A200B1007700770077007700E4
:109F600077007700BD00C500CB00D10077007700F7
:109F70007700770077007700770077007700770029
:109F80007700770077007700770077007700770019
:109F9000770077007700D4007700D700770077004C
:109FA00077007700770077007700770077007700F9
:109FB00077007700770077007700770077007700E9
:109FC000770077007700E700EE007700F400790073
:109FD000020106F093FF01284FF0500000F0DF80EF
:109FE00005F0A6F9E86220B35022002111F0FFFA33
:109FF0004FF6FF737049EB816C7BEB6A0868097957
:10A0000002936A46012C11714FF0000403F11C0108
:10A0100003F13803009006910793A888059418BFB0
:10A020002246214602ABCDE90344CDE90844FFF7BF
:10A03000BBFE16B070BD8B79002BFAD1406AAB74B1
:10A040000028F6D01A46194605F036FAF1E7002343
:10A050000374EEE74B890381EBE75022002102A84D
:10A0600011F0C5FA02AA218A687B01F00DFE0346B1
:10A0700000287AD0002302A910AAA888FFF796FE2C
:10A08000BDF81A30EB81D4E70B7AC46A002B7BD081
:10A0900006F034FF0128204600F0848005F05AF9CC
:10A0A0000023EB62C5E70B7A112B64D1A86A002864
:10A0B000BFD000231A46194605F0FEF9B9E716A9E4
:10A0C000002321F8503D8088FFF772FEB1E70B7A3C
:10A0D000002BAED14B7A0373ABE700221146808888
:10A0E000FFF768FEA5E70B894381A2E74B89C38090
:10A0F0009FE78B7A002B9CD0002600231A46194636
:10A10000286A05F0D9F90136A37AF6B2B342F4D839
:10A110008FE700231A4619468088FFF74DFE88E72F
:10A12000406A0123AB740028C3D182E7417B2348F6
:10A1300000F030FFE188814228BF014689B2E98002
:10A14000A888FFF73BFE74E78B79002B3FF471AFD3
:10A15000002600231A461946E86905F0ADF90136D4
:10A16000A379F6B2B342F4D863E7A8881A46194631
:10A17000FFF71CFE5DE7C2898188407B01F0B4FDDA
:10A1800098B101236B7491E701234374638AC381FF
:10A1900022468188407B01F04BFDEC6A78E711F0A4
:10A1A000E3F91FE711F0E8F97AE7034602460146B2
:10A1B000A888FFF701FEE4E7BF680020C065002023
:10A1C000A0DF704738B50446F82500F5F87001F0B7
:10A1D00093FC2A462046002111F009FA2A4660190C
:10A1E000002111F004FA204638BD00BF2DE9F043EC
:10A1F00085B00546BDF83800BDF83C40ADF80C0010
:10A200006F461B48ADF80E4087E80C008846BDF845
:10A21000349000F0C7FE05F5F875064604E03046B8
:10A22000FFF72EFE05F06AF8284601F0BBFC044655
:10A230000028F4D10121284601F068FC4A460C9917
:10A24000284601F07DFC3946404603AAFFF7B8FFD7
:10A2500038B94FF4FA71284601F078FC20EAE0742E
:10A26000A4B2284601F05CFC204605B0BDE8F083AE
:10A27000C06500202DE9F04F8F880E8885B0884694
:10A28000054639467F4800F08DFEA6F11003012BEC
:10A29000814640F28B8095F854203AB3002404F1B3
:10A2A0001603502E55F823A059D0512E1AD198F8E4
:10A2B0000630B8F808B0022B43D0BBF1000F11D024
:10A2C00051466846FFF770FCBDF800305B4549D049
:10A2D000514602A8FFF768FCBDF80C305B4541D041
:10A2E00095F854200134E4B29442D8D395F84C3117
:10A2F000002B00F0C38005F5A679002404E095F852
:10A300004C310134A34246DD59F8040F01F0CCFE74
:10A31000B842F4D1382E03D0392E01D0362EEED1EA
:10A32000B8F80AA0BAF1000FE9D0D9F800B0584641
:10A3300001F0BEFE5045E2D15846414601F0BAFE5A
:10A34000DDE798F80E30062BB7D1DAF8003050462A
:10A35000DB68414698474846FFF78CFDC0E7B8F8F0
:10A3600006B0AAE7DAF8003050464146DB68984765
:10A370004846FFF77FFD0028B2D0502EB0D151469D
:10A3800002A8FFF711FCBDF80C305B45A8D1484688
:10A39000FFF7C2FDA4E7112E2AD0352E03D1B8F85D
:10A3A0000A30002B5BD105B0BDE8F08F2B78002B75
:10A3B0003FF471AF112E4FF000040CD005EB840375
:10A3C0003946586803685B68984701342B78E4B2D3
:10A3D000A342F3D85FE705EB840339465868036866
:10A3E0001B68984701342B78E4B2A342F3D852E7B4
:10A3F000002473B105EB8406D6F8500101F054FE39
:10A40000B84204F101031FD095F84C21DCB2A242FE
:10A41000F0D895F8F8100029C5D0002405EB840386
:10A42000621CD3F8FC008388BB4203D0D4B28C42B8
:10A43000F4D3B8E703681B689847013495F8F8101F
:10A44000E4B28C42EAD3AEE7D6F8500101F028FE20
:10A45000013495F84C31E4B2A342CBD8D9E705F5E5
:10A46000F8752846B8F80C2008F1100101F09CFBA3
:10A47000284605B0BDE8F04F01F0AEBB112E8CD1DF
:10A48000C7E700BFC065002090F85430272B0CD8D8
:10A4900010B4024603F11604013380F85430012051
:10A4A00042F824105DF8044B70470020704700BF4D
:10A4B0000378132B06D800EB8302013303700120CD
:10A4C000516070470020704775DF704778DF704734
:10A4D0007ADF7047054A034692E80300002283E8CA
:10A4E0000300C3E902221846704700BF68E5030075
:10A4F00008B5FFF7EDFF08B1002008BDFFF7E6FF44
:10A50000B0FA80F0400908BDF8B500240B4F25468D
:10A51000A1B2384600F046FD0134064648B1FFF7C7
:10A52000A7FC30B13046FFF7A7FC012804BF013576
:10A53000EDB2142CECD12846F8BD00BFC065002058
:10A540000A88102A03D1CA7B012A0B4600D0704723
:10A5500010B40A8A01884488914201D8A24205D9E0
:10A5600001465DF8044B9888FFF7AEBF5DF8044BD9
:10A57000704700BFA8DF7047704700BF30B500F1DB
:10A58000080483B00546204600F04AF821460DF144
:10A5900006020120FFF7EEFF044628B9044B0548E8
:10A5A0001D602946FFF784FF204603B030BD00BF81
:10A5B000BC650020C065002030B482B06C4684E8E1
:10A5C00006000346064943F8081B054694E80300C5
:10A5D000002183E805002846A98002B030BC7047FE
:10A5E00078E5030062DF704763DF704701220023D4
:10A5F0000180827043607047002341608370038054
:10A60000704700BF8378012B08D042680AB18020D0
:10A610007047012B8CBF80200020704710207047AE
:10A6200008B5837873B9436863B10246911C184634
:10A63000FFF7D8FF10205168FFF7D6FFB0FA80F07F
:10A64000400908BD012008BD4DDF70474EDF70474F
:10A650004FDF704750DF70474BDF704710DF7047A8
:10A660007CDF70477DDF704760DF704769DF7047D0
:10A6700061DF704766DF704767DF7047704700BF74
:10A68000042008F055B800BF30B52C4C2C4D83B0D9
:10A690004FF0FF31D4F8080305F08EFB0028F7D007
:10A6A0006DB301A8FFF7D8FF05280346F0D00028B6
:10A6B000F7D1019A911E10460929F2D80FF2040C25
:10A6C0005CF821F02FA702002FA70200A3A602002A
:10A6D000A3A60200A3A60200A3A60200A3A602004E
:10A6E00019A7020019A7020019A702000A2B04D01B
:10A6F000092B21D00B2B02D1012004F087FB01A8EC
:10A70000FFF7AAFF0528C3D00028F8D1019BA3F1C9
:10A710000902022AF3D8E9E70A2A04D0092A09D053
:10A720000B2ABED10123184604F070FBB9E70FF0E5
:10A73000F7FBB6E70223F6E70220DEE7C06500205C
:10A74000219F03002DE9F04F89B006F0D7FB0128C7
:10A750004FF4FA7000F0848104F0EAFD0646B34C31
:10A7600006F1080304F5587704F5007A03934FF0D7
:10A77000FF31D4F8040305F01FFB0028F7D04FF495
:10A78000FA730DF116013046ADF81630FFF770FF81
:10A7900010B10528EBD0F2E7B6F80490B9F1130F29
:10A7A00000F2208104EB8903D3F814531DB1314624
:10A7B0002846FFF7BDFB3388013B1B2B5BD8DFE846
:10A7C00013F0A3005A005A005A005A005A005A00C7
:10A7D0005A005A005A005A005A005A005A005A00A9
:10A7E000A8001C005A005A005A005A005A005A0089
:10A7F0005A005A005A005A00FE00DFF844824FF017
:10A80000000B58F8043F184633B1FFF731FB18B17D
:10A810000BF1010B5FFA8BFB4745F2D1BBF1000F47
:10A8200006D194F810331BB15946042007F064FF99
:10A830002846FFF721FB012800F0F180D4F8CC2254
:10A8400062B10223CDF81890002196F808C0009359
:10A85000084606ABCDF81CC007F0C4FB09F1C408DC
:10A8600004EB8803586810B103685B68984704EBF1
:10A87000880300225A6031465046FEF79DFE31465D
:10A880006B4801F0C7FDB4F812334B45338800F034
:10A89000AB80102B1ED02DB32846FFF7EDFA012810
:10A8A00003D131466348FFF74BFE2846FFF7E4FA31
:10A8B00002281BD0604801F0F3FC00BB31465B4826
:10A8C000FFF7D8FCD4F86833002B3FF458AF30467C
:10A8D000984754E7F37B012BDDD1B388A4F81233FA
:10A8E000002DD9D131465348FFF72AFE534831464F
:10A8F00001F0B8FB504801F0D3FC0028DED031460F
:10A900004D4801F0CFFCD9E700214846FFF7B2FEE1
:10A91000B1E74FF00008D4F80C03CDF800804346AF
:10A9200042460321464D06F0CBFD55F8043F18463C
:10A9300033B1FFF79DFA18B108F101085FFA88F802
:10A94000BD42F2D194F81033002B58D109F1C4085C
:10A9500004EB8805686820B103685B6898470023AA
:10A960006B60F37B012B0BBF94F8F33294F8F93250
:10A9700094F8F2B294F8F8B20293302007F03CF861
:10A98000029B0093039A5B4649460546FFF740FA4F
:10A9900004EB880328465D60FFF76EFA012851D06A
:10A9A000D4F8C822002A3FF466AF012300210093A7
:10A9B000084606ABCDF8189007F014FB5BE7D4F817
:10A9C0006423002A3FF457AFCDF8189002230021EA
:10A9D00096F908C00093084606ABCDF81CC007F0F6
:10A9E00001FB48E70546E6E6102B3FF473AF112B59
:10A9F0007FF451AF4FF6FF73A4F812334BE718F111
:10AA0000000118BF0121042007F076FE94F81033EE
:10AA1000002B9BD00121042007F06EFE96E7D4F8AE
:10AA2000BC22002A7FF40DAF18E700BFC0650020EC
:10AA30001C6800207068002090680020806800205A
:10AA4000D0680020D4F8B822002A3FF414AF0021C7
:10AA5000009006AB0846CDF8189007F0C3FA0AE755
:10AA600010F082FD06467AE638B50446FFF7AAFBE9
:10AA700004F50070FEF7C4FC04F50F70FEF752FCFD
:10AA800004F5177001F044FC04F52C70FFF722FD6B
:10AA900004F5307001F0B6FA04F5347001F0E6FB0D
:10AAA0004FF480530025C4F8E83222482249234A53
:10AAB000C4F8EC0240F20113C4F8F012C4F8F42216
:10AAC000A4F8F832A4F8FA52A4F8FC52294604F586
:10AAD0004570502210F08BFDC4F8FF5294F8FF32FD
:10AAE00094F80223C4F80453032143F0010361F3F3
:10AAF00006130A4301204FF6FF71C4F80853C4F847
:10AB00000C5384F8FE52C4F86853C4F8645384F8B4
:10AB1000100307251020A4F81213032184F8010361
:10AB200084F8FF3284F8005384F8022384F8031376
:10AB3000204638BD010A1700030001011700030079
:10AB4000F0B580F8FC128DB080F8FD22BA4E0446B4
:10AB500006F0F6FF06F0FCFF06F0B4FF0CA8336920
:10AB600040F8243DB549FFF779FD18B10025284686
:10AB70000DB0F0BD0120FFF769FD0120FFF764FD76
:10AB80000120FFF765FD09A8FFF764FD099B9B07FE
:10AB900006D5AB4BD3F8043513B9022004F036F9CF
:10ABA0000023A84A94F8ED52049209A90120CDE9A6
:10ABB00009330B938DF82450FFF758FD0028D5D1A9
:10ABC00094F8FD320B90CDE90900181C18BF012044
:10ABD00094F8FC528DF82700049A8DF8263009A9C4
:10ABE00040208DF82550FFF741FD0028BED194F894
:10ABF000EC120990034661F30003CDE90A00049AC0
:10AC00008DF8243009A9A020FFF730FD0028ADD130
:10AC1000D4F8E8320A900B90049A099309A9A1206C
:10AC2000FFF724FD0028A1D194F8FC32002B40F05E
:10AC3000B38094F8FD32002B48D000230225B4F8ED
:10AC4000F472049A099309A92320CDE90A338DF8F7
:10AC50002450ADF82670FFF709FD002886D1CDE914
:10AC6000090094F8FD72B4F8F6320B90049A8DF84E
:10AC7000245009A920208DF82670ADF82830FFF760
:10AC8000F5FC00287FF472AF099094F8F832049A2A
:10AC90008DF82450CDE90A0009A922208DF826302C
:10ACA000FFF7E4FC00287FF461AFCDE909000B90C9
:10ACB00094F8F932049A8DF8245009A921208DF8CE
:10ACC0002630FFF7D3FC00287FF450AF04A8FFF72D
:10ACD000CBFC00287FF44AAFC3B2CDE9070043F0B4
:10ACE000010307A902208DF81C30FFF7C5FC0028DE
:10ACF0007FF43CAF04F52C70FFF7FAFB0546002803
:10AD00003FF434AF0CA8337D00F8283D0B224E49A8
:10AD1000FFF7A6FC00287FF429AF94F8FD32002B42
:10AD200040F0848003220021012004F051FBC4F88C
:10AD3000040300283FF41AAF05AB0326CDE90063F6
:10AD40004FF4A06200234149414805F079FB3246A7
:10AD50000021012004F03CFBC4F8080300283FF464
:10AD600005AF06ABCDE90063C822002339493A4854
:10AD700005F066FB394B4FF480021A60384B0093A4
:10AD80000023184601224FF4807106F041FBC4F8FD
:10AD90000C0300F02DFFEAE609900123B4F8EE520F
:10ADA000049A8DF82430CDE90A0009A92320ADF8D2
:10ADB0002650FFF75BFC00287FF4D8AECDE90900F0
:10ADC00094F8FC72B4F8F0520B90049A8DF8243089
:10ADD00009A920208DF82670ADF82850FFF746FC11
:10ADE00000287FF4C3AE099094F8F252049A8DF8CB
:10ADF0002430CDE90A0009A922208DF82650FFF75A
:10AE000035FC00287FF4B2AECDE9090094F8F35286
:10AE10000B90049A8DF8243009A921208DF8265032
:10AE2000FFF724FC00283FF404AF9FE604F53070E0
:10AE300001F0F6F876E700BF84E503007DA6020086
:10AE40000070024000600020ACE50300B8E503009C
:10AE500045A70200BCE5030089A6020000E100E06E
:10AE600081A6020000B583B002AB084623F8022D8C
:10AE70001946FFF7F7FB20B99DF8060003B05DF80F
:10AE800004FB002003B05DF804FB00BF70B4254B49
:10AE90000C4606460FCB85B06D4607C59DF90020D0
:10AEA0002B80A24237D09DF90130A34233D09DF9C7
:10AEB0000230A3422FD09DF90330A3422BD09DF93D
:10AEC0000430A34227D09DF90530A34223D09DF939
:10AED0000630A3421FD09DF90730A3421BD09DF935
:10AEE0000830A34217D09DF90930A34213D09DF931
:10AEF0000A30A3420FD09DF90B30A3420BD09DF92D
:10AF00000C30A34207D09DF90D30A34203D000209E
:10AF100005B070BC7047012086F8FE4205B070BCD9
:10AF2000704700BF9CE5030090F9FE02704700BF28
:10AF300070B5054682B0D0F80C030C4606F0ECFA6A
:10AF40000B4AA402A2FB0432002306469209D5F85C
:10AF50000C030093042106F0B3FA3EB9D5F80C03B4
:10AF6000009633463246032106F0AAFA02B070BDBD
:10AF7000D34D6210132906D800EB8100D0F81403DA
:10AF800008B1FEF775BF0020704700BFB0F812038C
:10AF9000704700BF01290CBFB0F8EE02B0F8F40210
:10AFA000704700BF13299ABF00EB8100D0F814034B
:10AFB0000020704710B5064C0021D4F8080304F0B7
:10AFC0003DFDD4F804030021BDE8104004F036BD77
:10AFD000C065002090F8103303B9704710B582B0F7
:10AFE000D0F80C4305F00CFC0023024600932046E9
:10AFF000012106F065FA02B010BD00BFF0B583B0C4
:10B00000002507462B46D0F80C0300952A4603215D
:10B0100006F056FA07F5447407F5587654F8041FFD
:10B02000084621B1FEF724FF08B10135EDB2B44264
:10B03000F4D197F810330BB903B0F0BD291C18BF39
:10B040000121042003B0BDE8F04007F055BB00BF6C
:10B050000148FFF709BD00BFC06500203CDF704715
:10B060003DDF704711DF704713DF7047B0DF704777
:10B07000B2DF70472DE9F0419EB0064604A814885F
:10B0800015460F46FEF790FDBDF81030A34202D0E2
:10B090001EB0BDE8F081AB79043B022BF8D93146F4
:10B0A0005048FFF77FFF4FF0000802233146044667
:10B0B0003846CDE90688CDE908888DF81830FEF7C6
:10B0C00097FD06A9002866D03046ADF81C80FFF732
:10B0D000CDFF2D7B012DDBD1434F41463E2238462B
:10B0E00010F085FA1EAA082322F86A3D3F492B4634
:10B0F0003046FFF7BDFF68462146FEF7C3FE0098C5
:10B100003860BDF804309DF80620BA71BB80204637
:10B11000FEF7B0FE002846D1334935484FF6FF729E
:10B120000B7883EA122383EA131343EA02229BB2C9
:10B1300082EA0332013182EA431381429AB2EFD1AB
:10B14000294B2C489A870021FEF77AF92046FEF712
:10B15000C3FEFF210020FFF783FFB1210020FFF78E
:10B160007DFF002894D1FFF77DFF002890D1224A6F
:10B170004FF0FF314FF01023C2F88010C2F8801159
:10B180005869FFF771FF002882D180F3148858694D
:10B1900000F018FF7CE740F2FD133046ADF81C309C
:10B1A000FFF764FF74E70AA92046FEF7BBFE0028FC
:10B1B000B2D01EAB13E903000B0C3860B980BB7131
:10B1C00018AD0FCD0D4EC7F807000AAD7160B26023
:10B1D000F3600FCD11360FC695E8070086E807002B
:10B1E0009AE700BFC0650020807F0020B47F002068
:10B1F000BC7F0020C067002000E100E0877F0020C6
:10B2000070B582B06C4605460C492046FFF7F4F94C
:10B210002E4694E806002846FFF7CEF9084B46F87C
:10B22000103B20460749FFF7E7F9304694E806004F
:10B23000FEF73AFC284602B070BD00BFFCE50300F3
:10B2400044E603001CE6030070B5AAB00546FFF70C
:10B2500095F918B1044620462AB070BD16AE3046A6
:10B260002A49FFF7C9F996E8060002A8FEF71CFC78
:10B2700002A8FEF759FC02A80421FEF759FC02A817
:10B280001421FEF759FC02A8FEF71EFA044628B165
:10B2900002A8FEF711FA20462AB070BD10352846E4
:10B2A0001821FEF745FC28461721FEF745FC2846E5
:10B2B00001221749FEF762FC2846FEF705FA04460C
:10B2C0000028E5D16C4620461249FFF795F994E82D
:10B2D00006003046FEF7E8FB3046FEF725FC02216B
:10B2E0003046FEF725FC02213046FEF727FC3046AB
:10B2F000FEF7EAF9044618B13046FEF7DDF9C7E774
:10B3000001213046FEF756FCF6E700BF0CE60300CD
:10B3100075B002002CE60300D0F8C0309889704761
:10B320002DE9F041064608461C461746FEF7FAFB93
:10B33000224605463946D0F8C00006F055FF844243
:10B3400006D9D5F8D8301BB1211A89B230469847B2
:10B35000D5F8D0301BB13046BDE8F0411847BDE804
:10B36000F08100BF08B592B2D0F8C00006F088FFA7
:10B3700008BD00BF00B583B0D0F8C0000DF10702D2
:10B38000002106F0B7FF20B19DF8070003B05DF87B
:10B3900004FB4FF0FF30F9E7D0F8C00006F012BF11
:10B3A000D0F8B03098897047D0F8B00006F00ABFE6
:10B3B00010B501680C4A8C69944282B00BD1D0F868
:10B3C000C00001220DF1070106F05AFF40B19DF8BF
:10B3D000070002B010BD01220DF10701A047F5E7FB
:10B3E0004FF0FF30F5E700BF65B3020000B583B052
:10B3F000D0F8B0000DF10702002106F07BFF20B16C
:10B400009DF8070003B05DF804FB4FF0FF30F9E74B
:10B4100000B550F8103C0E4A9B69934283B00CD1A2
:10B42000D0F8B00001220DF1070106F029FF60B14C
:10B430009DF8070003B05DF804FBA0F11001084679
:10B4400001220DF107019847F1E74FF0FF30F1E7D6
:10B4500065B30200F0B583B06D4604460F4628463A
:10B460001A49FFF7C9F895E806002046FFF7A4F847
:10B47000174B1849002603F108024FF47A7048333D
:10B48000C4E90436A06122602846FFF7B5F895E8C4
:10B49000060004F12000FEF707FB28460E49FFF7DF
:10B4A000ABF895E8060004F17000FEF7FDFA2046BF
:10B4B000A4F8C470C4F8C060C4E93466C4F8D860A5
:10B4C000C4F8C86084F8CC6003B0F0BD70E6030037
:10B4D00088E6030060E6030050E60300F8B5064680
:10B4E0001D480F46FFF75EFDF0B1FEF7C7FC0338BD
:10B4F00084B205F003FD0128204618D003F018FFA0
:10B5000005468DB122462946D6F8C80006F0B8FE99
:10B5100088B905F0F3FC01284FF00104284617D044
:10B5200003F018FF2046F8BD00242046F8BD10F0B7
:10B530001BF80546E5E7034639462A4606F1200092
:10B54000FEF786FB044605F0D9FC01282846E7D122
:10B5500010F012F82046F8BDC06500202DE9F84F24
:10B5600004462548924698460F46FFF71BFD50B308
:10B5700004F12009064639464846FEF739FB10B368
:10B5800094F8CC301FFA88FBABB1D4F8C80090B166
:10B590005A46514606F028FED4F8C8309B89054625
:10B5A00030469EB2FEF76AFC033886420FDA454603
:10B5B0002846BDE8F88F5B46524639464846FEF7B6
:10B5C00047FB0028F3D100252846BDE8F88F204628
:10B5D0003946FFF783FF0028F5D04545E7D2ABEBAE
:10B5E00005039BB20AEB050239464846FEF730FBDD
:10B5F0000028E9D04546DBE7C06500202DE9F0438F
:10B60000044683B054F8103C2B489E6A8DF807100E
:10B61000FFF7BCFC294B9E420546A4F110070146EA
:10B6200027D12548FFF7BEFC0646F0B104F110080B
:10B6300040462946FEF7DCFAB8B194F8BC3003B3B3
:10B64000D4F8B800E8B10DF10701012206F0CCFDF5
:10B65000D4F8B830814630469C89FEF70FFCA4B27E
:10B660000338844217DA012000E0002003B0BDE86F
:10B67000F083384601230DF10702B04703B0BDE85F
:10B68000F0832946404601230DF10702FEF7E0FA58
:10B6900003B0BDE8F08338462946FFF71FFF0028B6
:10B6A000E3D0B9F1000FDED10DF107022946404683
:10B6B0000123FEF7CDFAD9E7C06500205DB5020091
:10B6C0002DE9F04F044683B054F8103C30489E6A90
:10B6D00088461746FFF75AFC2E4B9E420546A4F1BA
:10B6E000100935D101462A48FFF75CFC064650B3E5
:10B6F00004F1100A50462946FEF77AFA18B394F876
:10B70000BC201FFA87FBB2B1D4F8B80098B15A46F2
:10B71000414606F069FDD4F8B8200190304694897E
:10B72000FEF7ACFBA4B2033884421ADA3E46304638
:10B7300003B0BDE8F08F5B46424629465046FEF70F
:10B7400087FA0028F2D10026304603B0BDE8F08F1A
:10B7500001463B4642464846B44603B0BDE8F04F7A
:10B76000604748462946FFF7B9FE0028EBD0019E06
:10B77000B742DBD9ABEB06039BB208EB06022946C6
:10B780005046FEF765FA0028DED03E46CFE700BF00
:10B79000C06500205DB502002DE9F0410568294B28
:10B7A000AD6A82B09D428DF8072029D10446264813
:10B7B0000E46FFF7F7FB0546F0B104F120073846C7
:10B7C0003146FEF715FAB8B194F8CC30FBB1D4F895
:10B7D000C800E0B10DF10701012206F005FDD4F823
:10B7E000C8309B89804628469DB2FEF747FB033848
:10B7F000854216DA012000E0002002B0BDE8F081A9
:10B8000001230DF10702A84702B0BDE8F0813146DF
:10B81000384601230DF10702FEF71AFA02B0BDE81F
:10B82000F08120463146FFF759FE0028E4D0B8F1F8
:10B83000000FDFD10DF10702314638460123FEF734
:10B8400007FADAE75DB50200C06500202DE9F04196
:10B85000044682B023682B489E6A8DF80710FFF7D4
:10B8600095FB294B9E420546014627D12548FFF707
:10B8700099FB0646F0B104F1200738462946FEF749
:10B88000B7F9B8B194F8CC3003B3D4F8C800E8B134
:10B890000DF10701012206F0A7FCD4F8C8309B89FE
:10B8A000804630469EB2FEF7E9FA0338864217DA40
:10B8B000012000E0002002B0BDE8F0812046012315
:10B8C0000DF10702B04702B0BDE8F08129463846C5
:10B8D00001230DF10702FEF7BBF902B0BDE8F081CC
:10B8E00020462946FFF7FAFD0028E3D0B8F1000F03
:10B8F000DED10DF10702294638460123FEF7A8F9EB
:10B90000D9E700BFC06500205DB502002DE9F04F0A
:10B91000044681B023682F489E6A88461746FFF781
:10B9200035FB2D4B9E42054636D101462948FFF78F
:10B9300039FB814658B304F1200A50462946FEF7E8
:10B9400057F920B394F8CC301FFA87FBBBB1D4F879
:10B95000C800A0B15A46414606F046FCD4F8C830AB
:10B960009B89064648461FFA83F9FEF787FA033893
:10B9700081451ADA3E46304601B0BDE8F08F5B469D
:10B98000424629465046FEF763F90028F2D10026C8
:10B99000304601B0BDE8F08F01463B4642462046A6
:10B9A000B44601B0BDE8F04F604720462946FFF796
:10B9B00095FD0028EBD0B742DCD9ABEB06039BB278
:10B9C00008EB060229465046FEF742F90028DFD070
:10B9D0003E46D0E7C06500205DB5020010B50A4BB9
:10B9E0000446D0F8C80023604033236110B10368D7
:10B9F0005B68984704F17000FDF75EFE04F12000DB
:10BA0000FDF75AFE204610BD90E6030010B50C4B22
:10BA10000446D0F8C80023604033236110B10368A6
:10BA20005B68984704F17000FDF746FE04F12000C2
:10BA3000FDF742FE204605F0EFFF204610BD00BF97
:10BA400090E60300F8B50446182005F0D5FF002263
:10BA50000546012106F08EFB2846C4F8C050B4F814
:10BA6000C41006F099FB2046FEF788FD054608B194
:10BA70002846F8BD01211C48FFF78CFA04F1200686
:10BA8000074610213046FEF753F82A46304611216A
:10BA9000FEF766F839463046FEF74EF83046134951
:10BAA000FEF780F83046FDF70FFE05460028DFD18F
:10BAB000703420460C21FEF73BF8204601220C4949
:10BAC000FEF754F8294620461122FEF749F8394678
:10BAD0002046FEF731F820460649FEF763F8204677
