:020000022000DC
:10600000000004203DAA02007DAA02007FAA02002F
:1060100081AA020083AA020085AA020000000000F3
:10602000000000000000000000000000B9A902000C
:1060300089AA020000000000D9A902008DAA02006E
:10604000C5AB02008FAA02008FAA02008FAA02002D
:106050008FAA02008FAA02008FAA02008FAA020054
:106060008FAA02008FAA02008FAA02008FAA020044
:106070008FAA02008FAA02008FAA02008FAA020034
:106080008FAA020045A702008FAA02008FAA020071
:106090008FAA02008FAA02008FAA02008FAA020014
:1060A0008FAA02008FAA02008FAA02008FAA020004
:1060B0008FAA02008FAA020000000000000000006A
:1060C0008FAA02008FAA02008FAA02008FAA0200E4
:1060D0008FAA02008FAA02008FAA0200698802001C
:1060E0008FAA02008FAA02008FAA020000000000FF
:1060F000000000008FAA0200000000008FAA02002A
:10610000000000000000000000000000000000008F
:10611000000000000000000000000000000000007F
:10612000000000000000000000000000000000006F
:10613000000000000000000000000000000000005F
:10614000000000000000000000000000000000004F
:10615000000000000000000000000000000000003F
:10616000000000000000000000000000000000002F
:10617000000000000000000000000000000000001F
:10618000000000000000000000000000000000000F
:1061900000000000000000000000000000000000FF
:1061A00000000000000000000000000000000000EF
:1061B00000000000000000000000000000000000DF
:1061C00000000000000000000000000000000000CF
:1061D00000000000000000000000000000000000BF
:1061E00000000000000000000000000000000000AF
:1061F000000000000000000000000000000000009F
:10620000F1EE103A43F08073E1EE103A704700BFB0
:1062100010B5054C237833B9044B13B10448AFF3E0
:1062200000800123237010BD4062002000000000A8
:1062300010F2020008B5034B1BB103490348AFF34A
:10624000008008BD000000004462002010F202003F
:10625000154B002B08BF134B9D46A3F5803A002138
:106260008B460F461348144A121A06F091F80F4B4A
:10627000002B00D098470E4B002B00D098470020F1
:10628000002104000D000D48002802D00C48AFF397
:10629000008006F025F82000290004F01DFC06F01F
:1062A0000BF800BF00000800000004200000000000
:1062B0000000000040620020587A0020000000002A
:1062C00000000000704700BF0149024800F004B818
:1062D000D4ED02005C620020036870B505460C46F0
:1062E0005E6849B1084606F08FFD21460246284601
:1062F000B0472B685E680446284602220149B04731
:10630000204470BDDCED020070B592B01D460C4615
:10631000164601A84222002106F03AF8412D02D883
:10632000002012B070BD621CD2B202238DF806406C
:106330008DF80E408DF826408DF81E208DF8272010
:106340008DF8312040F20945052240F201248DF8F4
:1063500007308DF808308DF809308DF812308DF83F
:1063600021308DF822308DF833308DF83B30ADF888
:106370000C502423ADF810408DF815208DF8232003
:106380001B4D8DF81630042201248DF820308DF835
:10639000243006958DF81C408DF81F208DF8302094
:1063A0003046144D0A9540F6083608234FF4116420
:1063B0000A22ADF804608DF82C30ADF82E40402351
:1063C0008DF8342001A9062640F207550A4C8DF8B5
:1063D00025604222ADF838508DF83C308DF84330BE
:1063E000CDF83F4005F0B0FF422012B070BD00BFB5
:1063F000200105240705800307058002A0F1100095
:10640000FFF782BF00B5002083B000F0D1F818B9C3
:10641000019004F02BFD019803B05DF804FB00BF70
:1064200000B5002183B008460DF1070200F0F0F836
:1064300020B19DF8070003B05DF804FB4FF0FF307A
:10644000F9E700BF00B583B001220DF1070100207C
:1064500000F0B8F820B19DF8070003B05DF804FB28
:106460004FF0FF30F9E700BF002000F0EDB800BFAB
:1064700070B5164662B100200D46144600F072F861
:106480002946224680B1002000F0D0F8241A01D11C
:10649000304670BD054404F0E9FC002000F062F8CD
:1064A000294622460028EED1361B304670BD00BF7B
:1064B000002000F001B900BF30B50368154A5B68E1
:1064C00083B093428DF807101ED1002000F04AF8E7
:1064D0000DF1070501242946224688B1002000F06D
:1064E000A5F8241A02D1012003B030BD054404F000
:1064F000BDFC002000F036F8294622460028EDD1E8
:10650000C4F1010003B030BD01220DF1070198472D
:1065100003B030BD7164020001B1704700B583B0B3
:106520000846694600F034F8009BB3F5966F02D038
:1065300003B05DF804FB02F0ADF9F9E7074A084B38
:1065400010B4002002F108044FF47A7130321C605C
:106550001A61C3E901015DF8044B7047E0ED0200E8
:106560005C62002010B5044600F016FC08B900205B
:1065700010BD00F019FC0028F9D1044B4FF45672FD
:1065800002FB0434207900F0010010BD706200208D
:10659000064A4FF4567303FB002050F8063F0B6089
:1065A000838882798A718B80704700BF7062002077
:1065B000034A4FF4567303FB0020408B704700BF23
:1065C00070620020F8B54FF45674104E04FB00F4CE
:1065D00004F1100092B2304400F052FA3519074627
:1065E000E978002001F0FEF828B96A8BAB8A9B1A83
:1065F0009BB23F2B01D83846F8BD04F536723244C1
:10660000E978402301F0CEF83846F8BD70620020EA
:1066100010B4054C4FF4567303FB004089B21030A0
:106620005DF8044B00F09EBA7062002010B5054C76
:106630004FF4567303FB004092B2243000F0F4FA9A
:1066400010BD00BF70620020F8B54FF45674184DAD
:1066500004FB00F42E190020B17801F0C3F808B152
:106660000020F8BD04F5467704F124002F442844A7
:106670003946402200F004FA044608B92046F8BD25
:1066800000F08AFB0028EBD000F08EFB0028E7D159
:106690003379DB07E4D53A46B178234601F082F836
:1066A0000028EBD1034B1B68DA07D9D500BEF8BD33
:1066B00070620020F0ED00E0044A4FF4567303FBD3
:1066C0000020C38D008DC01A80B270477062002018
:1066D000F0B51A4C83B000214FF4567220460125C4
:1066E0000E4605F055FEFF234FF4424204F13801F7
:1066F0006371E2802B460827009604F110004FF4E6
:1067000080722773258100F08DF92B464FF480723B
:1067100004F59C71009604F1240000F083F904F55F
:106720000E71284602F064FB04F5227120622846AF
:1067300002F05EFB606303B0F0BD00BF706200203A
:1067400010B5074C002304F110002360237100F002
:1067500009FB04F12400BDE8104000F003BB00BFBA
:10676000706200202DE9F0414B79022B82B004D0F9
:106770000025284602B0BDE8F0818B79022BF7D1C5
:10678000CB79062BF4D82D4EB3782BB12C4B1B684C
:10679000DB07EDD500BEEBE78B7833700C780C444B
:1067A00007466378242B4FF009050BD1082A02D83D
:1067B0000FE0AA420DD323781C441D446378242B98
:1067C000ADB2F6D0052B16D0042B02D163790A2B7B
:1067D0001FD0F178002001F005F80028C9D1728B94
:1067E000B38A9B1A9BB23F2BC3D9F178154A402339
:1067F00000F0D8FFBDE72146384600F0D1FF002861
:10680000C4D0A378737023781C441D44ADB2637860
:10681000DAE70D4A94F800800192022301320092D7
:10682000384604EB08011A4600F04EFF0028ADD0B0
:106830000E3518FA85F5ADB2CBE700BF70620020C7
:10684000F0ED00E0486500207262002008B50B788A
:1068500003F06003202B01D0002008BD094B8A887B
:1068600018789042F8D14A78202A01D0012008BD3A
:10687000054A002AFAD0991D0020AFF300800120BC
:1068800008BD00BF706200200000000038B50B7822
:1068900003F06003202B01D0002038BD114A8B8803
:1068A00015789D42F8D14B78202BF5D3212B05D8B4
:1068B0000632072300F0E4FF012038BD222BEBD184
:1068C0004C88147100F0C4FF074B43B1C4F340027D
:1068D00004F001010020FFF71FFE012038BD012058
:1068E00038BD00BF70620020196502002DE9F84331
:1068F000464CE2788A420F461E4654D1A3B1444B1F
:1069000004F5367505EB060904F1100843B3294672
:10691000404600F051F96379FF2B02D02978994263
:106920002DD00135A945F2D13A4B1BB1638B9BB2F7
:10693000002B67D1E178002000F054FF50B9628B42
:10694000A38A9B1A9BB23F2B04D94023324AE17899
:1069500000F028FFA3789F4215D00120BDE8F883FE
:1069600029464046013500F027F94D45DCD029463F
:106970004046013500F020F94D45F1D1D4E7002023
:10698000AFF30080CDE73946002000F02BFFB0B117
:10699000002EE2D016F03F03DFD1A1781A46184648
:1069A00000F000FFD9E7A3788B42ECD01B4B1868AE
:1069B00010F00100D2D000BE0020BDE8F8831849D5
:1069C0004022A1F53D7000F05BF805460028DFD0BD
:1069D00000F0E2F90028DBD000F0E6F90028D7D17A
:1069E0002379DB07D4D52B460D4AA17800F0DAFED7
:1069F0000028B2D1094B1B68DA07C9D500BE002EAA
:106A0000C8D1AAE70020AFF3008093E770620020AE
:106A1000000000000000000048650020F0ED00E0EC
:106A2000886500202DE9F84305699DF82080DDB1D7
:106A30000446894628464FF0FF311E46174602F0AD
:106A400019FC2069C4F8009000236381A780A3810A
:106A5000E68084F80880E38118B11A46194601F0EF
:106A6000EDFF0120BDE8F8834581016085818280CA
:106A7000C38080F80880C5810120BDE8F88300BF8D
:106A80002DE9F0414589ADB2002D52D00446006990
:106A900015460F4618B14FF0FF3102F0EBFB63894A
:106AA000A6882168B4F806C09D4288BF6589E3893D
:106AB00088BFADB22B44B3423EDDE289E389B61A0A
:106AC000B6B20CFB03110CFB06F2384605F03CFC99
:106AD000E389A288216833449BB2934224BF9B1A66
:106AE0009BB2E3816389E2889B1B9BB26381B4F80C
:106AF0000EC0AB1B1FFA83F806FB027002FB0C11E1
:106B000002FB08F205F020FCE389A28843449BB213
:106B1000934224BF9B1A9BB2E3816389A3EB0803D2
:106B20009BB26381206920B100231A46194601F007
:106B300085FF2846BDE8F081E3890CFB05F20CFBDC
:106B40000311384605F000FCE389A2882B449BB270
:106B5000934224BF9B1A9BB2E38163895B1B9BB268
:106B60006381DFE74389994224D270B50546006905
:106B700016460C4618B14FF0FF3102F07BFBE98955
:106B8000AB88EA88214489B2994228BFC91A2B6888
:106B900028BF89B2304602FB013105F0D5FB2869D8
:106BA00030B100231A46194601F048FF012070BD9C
:106BB000012070BD0020704738B5828843899A4211
:106BC000044629D020690D4618B14FF0FF3102F07C
:106BD00051FBE2882368A089294602FB003005F0BA
:106BE000B3FBA389A28801339BB2934224BF9B1AB3
:106BF0009BB2A38163899A4212D0638901339BB20D
:106C00006381206930B100231A46194601F016FF4E
:106C1000012038BD012038BD007A0028D2D138BD0E
:106C2000A3899BB2E381ECE72DE9F0411546002AE8
:106C300033D0044600690F4618B14FF0FF3102F01F
:106C400019FB227AA388B4F806C04ABB62899A1A53
:106C500092B2954228BF15462A46A1892068114460
:106C600099422EDCA3890CFB02F20CFB030039468F
:106C700005F06AFBA389A2882B449BB2934224BFF0
:106C80009B1A9BB2A38163899A4262D0638920696F
:106C90002B449BB26381002853D12846BDE8F08184
:106CA0009D422A46D9D90021A181E1816181EA1A58
:106CB000A18920680CFB02771A46114499421D46AF
:106CC000D0DDA689A1899B1B9EB20CFB06F20CFBB2
:106CD0000100394605F038FBA389A28833449BB2F2
:106CE000934224BF9B1A9BB2A38163899A4234D0FA
:106CF000638933449BB26381E0882368B4F80CC095
:106D0000A5EB06081FFA88F800FB08F206FB0071E5
:106D100000FB0C3005F018FBA389A28843449BB20A
:106D2000934224BF9B1A9BB2A38163899A4210D0DD
:106D3000638998441FFA88F8A4F80A80206900281B
:106D4000ABD000231A46194601F078FE2846BDE86C
:106D5000F081A3899BB2E381F0E7A3899BB2E38131
:106D6000CAE700BF036993B110B504464FF0FF3185
:106D7000184602F07FFA206900236381A381E38132
:106D800018B11A46194601F059FE012010BD438181
:106D90008381C38101207047024B1878C0F38000C3
:106DA000704700BFC8650020024B1878C0F3C000D0
:106DB000704700BFC865002030B5322283B0002183
:106DC000154805F0E5FA15490B4600244A6833F8E2
:106DD000080B4988009401F0BFFD114B186080B189
:106DE000104C04F18C0554F81C3B9847AC42FAD186
:106DF000002000F087FE002000F086FE012003B096
:106E000030BD094B1B6813F0010302D000BE03B074
:106E100030BD184603B030BDC865002000600020BA
:106E2000FC65002014EE0200F0ED00E02DE9F04FCB
:106E30008BB001F0D9FC002800F01F81BB4CDFF8BB
:106E40000483DFF80CB381464FF0FF3207A92068B6
:106E500002F07EF8002800F010819DF81D30013B03
:106E6000072B00F20D81DFE813F0E000BB00AF005C
:106E7000A4009D0031000E000800089B002BE3D009
:106E800009989847E0E79DF82010A94B01F07F0092
:106E900003EB400303EBD11393F822206FF30002BE
:106EA00083F82220002800F007819D7C042D00F249
:106EB000DF80A04E099B9DF821209DF81C00C5EBAA
:106EC000C50506EB85056D69A847BDE7984D9DF89A
:106ED0001CA02B78002043F001032B7000F03AFD3A
:106EE0009DF8206006F06000602800F0DE804028F9
:106EF00000F00A8106F01F06012E00F02B81C0F081
:106F0000E380022E40F0D1809DF8241001F07F072D
:106F1000072F00F2CA807B000093CA09EB181344C4
:106F20009F7C002840F031829DF82100012800F06C
:106F30003182C0F03C81032840F0B780BDF8223098
:106F4000002B00F03E8208A9504600F081FCFF2F84
:106F500000F03C814D46042F00F2A780754EC7EB30
:106F6000C70306EB8306306900F0F4FCF368504673
:106F700008A99847002840F029819DF8203013F097
:106F8000600F01D100F0E6FC002D7FF45DAF9DF8AD
:106F90001C00002100F022FF80219DF81C0000F061
:106FA0001DFF51E7BBF1000F3FF44EAFAFF3008080
:106FB0004AE7614B002B3FF447AF5D4B1878C0F3B5
:106FC0000010AFF300803FE75A4D05F18C06AB6926
:106FD0001C3513B19DF81C009847AE42F7D133E73A
:106FE0003222002152489DF81C60524D05F0D0F924
:106FF000524A4FF0FF3353619361D3611360536082
:107000009360D360136100F09BFC05F18C076B6803
:1070100030461C3503B19847AF42F8D1484B002B9E
:107020003FF412AFAFF300800EE732220021404858
:107030009DF81C603F4D05F0ABF9404A4FF0FF331F
:1070400053619361D361136053609360D3601361A4
:1070500000F076FC05F18C076B6830461C3503B1F7
:107060009847AF42F8D1324B9DF820205A70EBE69A
:10707000344B1B68D90700D500BE0BB0BDE8F08FBC
:10708000D8F80030DA077FF5DFAE00BEDCE6501E30
:10709000C0B204F013F918B14378022B00F0B781A5
:1070A000D8F80030DB0700D500BED8F80030D8078C
:1070B0007FF56DAF00BE6AE7099B9DF821209DF822
:1070C0001C0000F05DFCBFE6202800F04481002891
:1070D000EBD19DF82130092BE7D801A252F823F01B
:1070E000AF72020093720200AB700200CF72020016
:1070F000AB7002007972020025720200AB700200D0
:107100000D720200E17102000F4B002B3FF43FAF04
:107110000E4808B100F01EFC504608A9AFF30080ED
:107120000546002D7FF490AE31E700BFFC650020DE
:10713000C865002014EE020000000000CA650020AF
:1071400000000000F0ED00E0000000000000000082
:10715000000000009DF824300F2B3FF618AF2B44A1
:107160009B78042B3FF613AFC54DC3EBC30305EB70
:107170008305286900F0EEFBEB6808A950469847A4
:1071800000287FF461AE9DF8203013F060017FF499
:10719000FEAE9DF821300A2B7FF4F9AE0AAA3346E1
:1071A00002F80E1D504608A900F06AFB4CE6203399
:1071B0000AAA9B78C3F3400322F80E3D08A9334680
:1071C000504600F05DFBFF2F7FF4C4AE9DF82030E9
:1071D00013F0600F7FF438AE002000F0BBFB33E605
:1071E0002B789DF8222001925E0702D4002A7FF4BA
:1071F0004EAF019B2A78003318BF012363F382024C
:10720000504608A92A7000F023FB1DE62B780AAA35
:10721000C3F3800302F80E3D5046012308A900F095
:107220002FFB11E6BDF82200030A013BC0B20E2B72
:107230003FF6ADAE01A252F823F000BF2173020069
:1072400039730200117302008F6F02008F6F02000A
:10725000EB7202008F6F02008F6F02008F6F0200CF
:107260008F6F02008F6F02008F6F02008F6F02001E
:107270008F6F0200ED73020008A800F071FB50460A
:107280009DF8221000F046FC2B7843F002032B708F
:10729000DAE5BDF82230012B7FF479AE2B78504629
:1072A0006FF3041308A92B7000F0D2FACCE52B7809
:1072B000D90801F002010AAAC3F380130B4322F894
:1072C0000E3D5046022308A900F0DAFABCE5BDF8ED
:1072D0002230012B7FF45BAE2B78504643F0100335
:1072E00008A92B7000F0B4FAAEE5664B002B3FF412
:1072F0004EAEAFF30080024600283FF4D6AE5046B3
:10730000137808A900F0BCFA00287FF49DAD3EE692
:10731000BDF8241003F0D8FF02460028EFD136E66E
:1073200003F0C8FF1223024608A9504600F0A8FA4D
:1073300000287FF489AD2AE603F0C0FF024600284A
:107340003FF4B3AE5046538808A900F099FA0028DC
:107350007FF47AAD1BE69DF824300F2B3FF617AE75
:107360002B449B78042B3FF612AE454DC3EBC30371
:1073700005EB8305286900F0EDFAEB68504608A993
:10738000984700287FF460AD01E6FF2F3FF4FFAD82
:107390000025E0E5BDF82250002D7FF4D4AD504625
:1073A000009300F02BFD009B93F8222065F341022F
:1073B00083F8222093F8222065F3000283F822202C
:1073C000C1E55046019200F009FD009B019A2B4453
:1073D000134493F8222042F0020283F8222093F80B
:1073E000222042F0010283F82220ACE5264B002B3C
:1073F0003FF4CDADAFF30080034602465B885046B4
:1074000008A900F03DFA00287FF41EADBFE5C2795F
:107410002B78511161F34513921162F386132B708F
:10742000438800F10907C3189F42029369D2CDF83F
:107430000090CDF814A07A780B2A1BD04FF00009E9
:10744000042A14D1029BDFF838A0DE1BB3B20393E9
:107450000026DAF80830039A059839469847F3B2BF
:107460000AF11C0A049388B90136052EF1D1DDF822
:10747000009015E63B783B44B9465A781F46DFE753
:1074800014EE02000000000000000000082803467F
:10749000EDD9039A8242EAD3BA78A9188878FF28EE
:1074A000E5D19DF810008870B9F1000F16D099F859
:1074B00002109142DBD199F804007A799042D6D13A
:1074C00099F80320012A09D9023A0331D2B2681887
:1074D00001323146039304F05BFF039B39460022DF
:1074E0004878052814D00878024492B293420144A7
:1074F000F6D81F44029BBB429DD8DDF80090DDF812
:1075000014A00C4B002B3FF474AEAFF3008070E678
:107510008E7806F07F0005EB400000EBD6109DF85A
:10752000106086740878024492B29A420144D7D31C
:10753000DFE700BF0000000030B585B000248D1EDD
:107540008DF805108DF80400CDF80A40CDF80640FE
:10755000ADF80E40032D03D8DFE805F038152B17E2
:10756000254B1868EAB100236A4601A901F076FCB0
:10757000009B43B1214B4FF080525A6040BFBFF394
:107580004F8FBFF36F8F05B030BD1D4B1978C90702
:10759000F9D5197818486FF3C30119700068002AEB
:1075A000E1D1134601A94FF0FF3201F047FA05B0CF
:1075B00030BD134B1978C807E5D519780E4841F04E
:1075C000080119700068002ACDD1EAE70C490A4881
:1075D0000B7800686FF300030B700B786FF34103B7
:1075E0000B700B786FF382030B700B786FF3C30390
:1075F0000B70002AB7D1D4E7FC65002000ED00E055
:10760000C865002030B50B4685B049688DF8040088
:107610001868114D02AC03C4002306212868ADF898
:1076200006308DF8051082B16A4601A901F016FCFA
:10763000009B43B1094B4FF080525A6040BFBFF3EB
:107640004F8FBFF36F8F05B030BD134601A94FF0C8
:10765000FF3201F0F3F9F6E7FC65002000ED00E0F1
:1076600070B584B0164E9DF8204003920725002285
:10767000CDF806208DF80400ADF80A208DF808102A
:107680008DF8093030688DF805508CB1134601A98A
:107690006A4601F0E3FB009B43B10A4B4FF0805276
:1076A0005A6040BFBFF34F8FBFF36F8F04B070BD00
:1076B00023464FF0FF3201A901F0C0F9F6E700BF01
:1076C000FC65002000ED00E02DE9F047DDE90889C8
:1076D000002A35D016464A78052A0C462AD1CD789C
:1076E00005F00305AB4225D107464FF0000A14E030
:1076F000A378DA0914BF89F8003088F800302378BD
:107700000AF1010AB2451C441AD06378052B11D145
:10771000E37803F00303AB420CD12146384600F076
:107720000BFA0028E4D1094B1B68DB070BD40020BF
:10773000BDE8F087054B1B68DA07F8D500BEF6E711
:107740000120BDE8F08700BEBDE8F087F0ED00E065
:1077500030B5114D85B000230824029001930391A8
:1077600028688DF8054082B16A4601A901F076FBD0
:10777000009B43B1094B4FF080525A6040BFBFF3AA
:107780004F8FBFF36F8F05B030BD134601A94FF087
:10779000FF3201F053F9F6E7FC65002000ED00E050
:1077A00000F0CAB970B50D4C01F07F0604EB460439
:1077B00004EBD11494F8225045F0010584F82250CE
:1077C00000F0F0F948B92034A378054A60F30003CB
:1077D000A3701368DB0700D500BE70BDC86500202C
:1077E000F0ED00E0054B01F07F0203EB420303EBF9
:1077F000D11191F8220000F001007047C865002007
:1078000010B50C4600F0EAFA094904F07F0301EBD9
:10781000430101EBD41191F8223043F0020381F8C7
:10782000223091F8223043F0010381F8223010BD5C
:10783000C8650020054B01F07F0203EB420303EB18
:10784000D11191F82200C0F340007047C8650020B4
:107850000A4630B4094C496805461068234603C3FC
:107860000023C4E9023392F900209A422846ACBFB3
:10787000802119461A4630BC00F094B9C066002039
:10788000F0B50E462B4C496807463068A260254685
:1078900003C50021E181F588AB4228BF2B4683B0A8
:1078A000A381ADB13BB3002A3DD094F90000402B39
:1078B00028BF402300282CDB1F4A384600F072F90D
:1078C00098B91E4B1B68DB0712D500BE03B0F0BD94
:1078D00096F90030002BACBF8021002138462B46A2
:1078E0002A4600F05FF90028EBD0012003B0F0BD7C
:1078F000002003B0F0BD94F90020002AACBF194667
:1079000080211A46384600F04DF90028D9D00120D0
:10791000ECE71146084801931A4604F015FD064AA3
:10792000019B8021EEE7054B1B68D907E0D500BE1F
:107930001046CBE7C0660020D4660020F0ED00E0E2
:10794000034B0022C3E90022C3E902221A617047F7
:10795000C0660020014B1861704700BFC066002060
:107960000346064A5968006810B41346002403C34E
:10797000C2E902445DF8044B704700BFC0660020B6
:1079800070B53F4C2278C909B1EBD21F82B01AD032
:1079900033B13C4B1B68DA0749D4002002B070BDFC
:1079A000394B6BB12146AFF30080012002B070BDAE
:1079B0000146304600F012FA3046802100F00EFAFF
:1079C000012002B070BD94F90020002A0646A0688C
:1079D00008DB0028E1D01A462C49019304F0B4FCDE
:1079E000A068019BE589E2881D44ADB21844AA4213
:1079F000A060E58101D03F2B1BD8236923B120492A
:107A0000304698470028D3D094F9002000239A42AA
:107A1000ACBF8021194630461A4600F0C3F8002852
:107A2000CED1184B1B68DB07B7D500BEB6E700BE4A
:107A3000B3E7A28994F90010531B9BB2402B28BFD7
:107A4000402300290ADB95424FF0000112D00F4A73
:107A5000304600F0A7F80028E3D0B1E795420BD0FC
:107A600001461A460948019304F06EFC8021074A3A
:107A7000019BEDE70A46EBE780210022E8E700BF23
:107A8000C0660020F0ED00E000000000D466002099
:107A900042DF704743DF704744DF704712DF7047B3
:107AA000144A92F8C0307BB1134B5B68C3F30803F0
:107AB000D3B9EFF31083A3B9104B5B681B0610D545
:107AC00092F8C030002BFBD192F8C0300133DBB20A
:107AD000012182F8C0300160BFF36F8FBFF34F8F79
:107AE000704792F8C030EFE7014601220448FFF7E3
:107AF0002FBE00BF1467002000ED00E000E100E0B1
:107B0000A17A0200704700BF014B80225A60704783
:107B100000E100E0074BD3F80014D3F80024002064
:107B20000A434FF48001C3F80024C3F85801C3F896
:107B3000041370470070024030B48A780D791748FA
:107B400002F07F03D209540003EB43011444C9003F
:107B500001EB8401014401200D7200FA03F18AB1A6
:107B60000F4A023300FA03F3C2F80433D2F8103597
:107B70000B43C2F81035BFF36F8FBFF34F8F012057
:107B800030BC7047064A0C3300FA03F3C2F80433E2
:107B9000D2F814350B43C2F81435ECE71467002013
:107BA00000700240F0B501F07F04C80966000F467E
:107BB0004FEA400C31198444804DC90001EB8C011F
:107BC00005EB010C6A50002283B0ACF80430ACF82D
:107BD000062004B9BBB100284FD13319DB00EA18E5
:107BE000527A002A40F09280002C00F08B8004F53D
:107BF0009474734B43F82400BFF36F8FBFF34F8F20
:107C0000012003B0F0BD6E4BD3F88034C3F3C01332
:107C10009842E0D095F8C0307BB16A4B5B68C3F303
:107C20000803002B40F0BE80EFF310831BB9664BB6
:107C30005B6818065DD495F8C03095F8C030634A8B
:107C40000133DBB2012185F8C0301160BFF36F8FC3
:107C5000BFF34F8F95F8C0302BB195F8C030013B82
:107C6000DBB285F8C0300023394600931A46184627
:107C7000FFF7F6FC012003B0F0BD264405EBC60675
:107C800004EB8402708A338A317D1B1A92009BB206
:107C900002F1804202F51C328B4228BF0B46F1688C
:107CA000C2F80016C2F8043695F8C000484A0B44E2
:107CB00024B2F36002EB840188B1424B5B68C3F3EA
:107CC0000803002B74D1EFF31083002B5DD13E4BE2
:107CD0005B681B0659D595F8C030002BFBD195F891
:107CE000C0300133DBB2012185F8C03042F82410E6
:107CF00082E795F8C030002B9FD095F8C030002B5C
:107D0000F7D19AE72E4B0122DA6475E72C4A55F831
:107D100003C0304804F5947104EB840352F82170D9
:107D200002EB8303FFB2C3F800C7C3F8047795F8EA
:107D3000C03022B200EB82016BB1224B5B68C3F30F
:107D4000080353BBEFF310831BB91F4B5B68190685
:107D50001ED495F8C03095F8C0300133DBB2012154
:107D600085F8C03040F82210BFF36F8FBFF34F8FFC
:107D70003444E40029192A59CB883B449BB2174468
:107D800001202F51CB8003B0F0BD95F8C030A6E79D
:107D900095F8C030002BFBD1DDE701220E48FFF73C
:107DA000D7FCE5E7012209490B48FFF7D1FC51E771
:107DB00001220948FFF7CCFC5CE700BF14670020F4
:107DC0000070024000ED00E000E100E05070024071
:107DD0000470024028700240A17A02004A06064B55
:107DE0000BBF012241F480715A65C3F81815BFF327
:107DF0006F8FBFF34F8F7047007002404B060AD061
:107E0000054B41F48072C3F81815C3F80C25BFF375
:107E10006F8FBFF34F8F7047007002402DE9F04F16
:107E2000B04BB14ED3F80043002387B01D469C46AB
:107E3000012000FA03F19A190C424FEA820208D09D
:107E4000176837B10D43C2F800C0BFF36F8FBFF39F
:107E50004F8F0133192BECD1EE0700F19182AC0268
:107E600000F1888268020CD59E4ED6F8004404F4D6
:107E70004073E105C6F8003400F1AF82A20500F1BD
:107E8000B7829A4B2B4053B1994B93F8C020002AEC
:107E900040F0BD81974B1B68DB0700F1B2822F02D7
:107EA0002BD5904BD3F88024D2B28DF81020D3F884
:107EB0008414C9B28DF81110D3F888048DF812001B
:107EC000D3F88C048DF81300D3F890048DF81400C7
:107ED000D3F894048DF81500D3F898048DF81600A3
:107EE000D3F89C348DF81730560601D1052904D0FB
:107EF000012204A90020FFF785FBEC0415D5794A7F
:107F00007B4CD2F80837217ADBB2002099426072AC
:107F100040F08B81E388A188994240F28681012359
:107F2000D364BFF36F8FBFF34F8FA80417D56D4A8B
:107F30006F4CD2F81C3794F82000DBB20021984235
:107F400084F8211040F06781E38BA08B984240F2C7
:107F50006281C2F8A414BFF36F8FBFF34F8F69041F
:107F600017D5604A624CD2F8303794F83800DBB24B
:107F70000021984284F8391040F08C81E38EA08E65
:107F8000984240F28781C2F8A814BFF36F8FBFF305
:107F90004F8F2A0419D5534A554CD2F8443794F8D8
:107FA0005000DBB20021984284F8511040F0648107
:107FB000B4F84E30B4F84C00984240F25D81C2F8FB
:107FC000AC14BFF36F8FBFF34F8FEB0319D5454A46
:107FD000474CD2F8583794F86800DBB20021984239
:107FE00084F8691040F06F81B4F86630B4F864002A
:107FF000984240F26881C2F8B014BFF36F8FBFF3AC
:108000004F8FAF0319D5374A394CD2F86C3794F8F3
:108010008000DBB20021984284F8811040F0458155
:10802000B4F87E30B4F87C00984240F23E81C2F849
:10803000B414BFF36F8FBFF34F8F6E0319D5294A66
:108040002B4CD2F8803794F89800DBB2002198428C
:1080500084F8991040F00281B4F89630B4F8940096
:10806000984240F2FB80C2F8B814BFF36F8FBFF3A1
:108070004F8F2C0319D51B4A1D4CD2F8943794F816
:10808000B000DBB20021984284F8B11040F0D880F3
:10809000B4F8AE30B4F8AC00984240F2D180C2F8E7
:1080A000BC14BFF36F8FBFF34F8F134B2B40002BCC
:1080B00000F09D800B4BD3F86C94C3F86C94BFF325
:1080C0006F8FBFF34F8F15F4806540F09380CDE93B
:1080D0000255074FDFF80CA0DFF820B03C463E46C3
:1080E000002515E000700240409C0010FCFB1F00C2
:1080F00014670020F0ED00E000040001019C001076
:10810000002D00F09181B8F1070F4CD001351836E1
:108110000123AB4013EA090F5FFA85F8F0D005EBB5
:10812000850205EB450304EBC3030AEB8202D2F898
:108130000416588A014489B25982588A318A814288
:1081400040F2CF805B8A307DC91A89B2F368C2F8E9
:108150000036814228BF01460B44C2F80416F36082
:1081600094F8C03005EB0B0189006BB1B14B5B6833
:10817000C3F30803002B40F04681EFF31083002B7C
:1081800000F0218194F8C03094F8C0300133DBB2A4
:10819000012284F8C0300A60BFF36F8FBFF34F8FA6
:1081A000B8F1070FB2D1DFF894A2DFF89CB2A14B6F
:1081B000002507E0002D00F03281EAB2072A16D030
:1081C0000135183705F1100101228A4012EA090F22
:1081D000F0D06E00721904EBC202B888D1888842D0
:1081E00000F2898001215172EAB2072AE8D107B072
:1081F000BDE8F08FD3F88024D3F8803483F0800377
:10820000C3F3C0130293C2F3C013039361E70022C8
:1082100083F8C02043E6E38BA38301210023E28B94
:1082200000911846FFF71CFA99E6E388A380012124
:108230000023E288009118461946FFF711FA74E608
:10824000B4F8AE30A4F8AC3001210023B4F8AE206D
:10825000009118460721FFF703FA26E7B4F8963095
:10826000A4F8943001210023B4F896200091184618
:108270000621FFF7F5F9FCE6B4F84E30A4F84C30CF
:1082800001210023B4F84E20009118460321FFF786
:10829000E7F99AE6E38EA38601210023E28E00919E
:1082A00018460221FFF7DCF973E6B4F87E30A4F833
:1082B0007C3001210023B4F87E200091184605216E
:1082C000FFF7CEF9B9E6B4F86630A4F864300121BE
:1082D0000023B4F86620009118460421FFF7C0F986
:1082E0008FE65A8A012100230091184648F0800148
:1082F000FFF7B6F907E705F5947105EB85025AF823
:10830000210039680AEB82025FFA80F8C2F8001790
:10831000C2F8048794F8C02005EB0B01890082B1F4
:108320005A68C2F30802002A72D1EFF31082002AC1
:1083300064D1414A5268120660D594F8C020002AE0
:10834000FBD194F8C0200132D2B2012084F8C020C1
:108350000860BFF36F8FBFF34F8F3A682E444244DB
:1083600004EBC6063A60F28890441FFA88F8A6F833
:10837000068022E7012203210020FFF7DDF871E5E6
:108380002E4B2F4E00245C6021469C6230469C6040
:10839000C422DC62DC601C631C615C635C619C6306
:1083A0009C61DC63DC611C641C625C645C629C64D8
:1083B00003F0EEFF4023012220461146337533724D
:1083C000FFF7BAF84BE51C4B5B6818067FF5DAAE91
:1083D00094F8C030002BFBD1D6E601220421002006
:1083E000FFF7AAF80123A205C6F82C357FF549ADA1
:1083F000012205210020FFF79FF842E594F8C020F4
:108400009FE700BE4BE501220E48FFF7A1F97AE68F
:1084100001220C480393FFF79BF9039B9DE7029A07
:10842000002A3FF4CDAED4E6039B002B3FF46EAEA2
:1084300075E600BF00ED00E000E100E000700240E2
:1084400014670020A17A02000A9C001030B50128B0
:1084500083B000F0968052D302283CD1B14BD3F8C0
:108460000435002B40F0C680AE4AD2F800341C051B
:10847000FBD54FF40063C2F80034BFF36F8FBFF336
:108480004F8FA94AA94B12681B68082A00F0C680C2
:10849000A449A74AA7488023C1F81C35C1F80403A2
:1084A000C2F884315360A44D43F204044FF080437A
:1084B0002268AA4211D0D3F80C14D3F80C24D003AC
:1084C000F6D5CA07F4D5974B0122C3F80425BFF3AC
:1084D0006F8FBFF34F8F03B030BD02AA002102F8A7
:1084E000041D1046FFF7DAFA9DF804100029E2D0C7
:1084F0001046FFF7D1FA019A002AD9D0E3E7894B59
:10850000D3F80025002AE6D14FF40062C3F8002416
:10851000BFF36F8FBFF34F8F834B1B68082B00F0A7
:10852000AC80804B0122C3F80025BFF36F8FBFF3EF
:108530004F8F43F2040203F18D5303F57723126842
:1085400003F2DB539A4200F0BF804FF08043D3F830
:108550000C24D3F80C34D90301D5D207BBD443F291
:108560000402754B12689A4200F00C81734B002292
:108570001A601B6801934FF08043012201991A6031
:10858000A9E7684BD3F80025002AA4D00022C3F83D
:108590000425BFF36F8FBFF34F8F65498020C1F86B
:1085A0008400BFF34F8FBFF36F8FD3F80013C3F86E
:1085B0000813C3F80025BFF36F8FBFF34F8F43F24B
:1085C000040103F18D5303F57723096803F2DB53AC
:1085D000994200F08D805A4B01221A60594B5A681B
:1085E000C2F30802003218BF012202210020FEF768
:1085F000A3FF70E743F204024F4B12689A4200F067
:10860000AD804FF08043D3F80C24D3F80C34DB0357
:108610007FF52AAFD5077FF527AF5CE7032B09D895
:10862000494A1168002978D1484C49F275301060E8
:10863000216010605A1E022A10D8434A116800298E
:1086400063D1434D3848394B00681B6849F2753493
:1086500014602960146008287FF41AAF032B3FF6DA
:1086600017AF3C493C4B40F2E370402208601A606F
:10867000BFF36F8FBFF34F8F0AE72C4B1B685A1E57
:10868000022A12D8304B1A68002A40F08D803049F7
:1086900049F2753203201A6008601A60224A234B9F
:1086A00012681B68082A7FF43CAF032B3FF639AFF2
:1086B000254B1A68002A73D1244949F27532C0202B
:1086C0001A6008601A602CE702AB002203F8042D40
:1086D0001846FFF7E3F99DF80420002A3FF435AF70
:1086E0001846FFF7D9F9019B002B7FF4F4AE36E76B
:1086F00002A800F8042DFFF7D1F99DF80430002BF3
:108700003FF469AFFFF7C6F968E70749074B104A1E
:1087100008681B68002111609DE70C4A0021116068
:1087200088E700BF007002403001001034010010E3
:1087300000E100E005148001DBE5B15100010040DB
:108740000400004000ED00E000EC064014EC0640A0
:1087500014ED0640007802400478024002AB00228B
:1087600003F8042D1846FFF799F99DF80420002A14
:108770003FF447AF1846FFF78FF9019B002B7FF4BA
:10878000AAAE71E602A8002300F8043DFFF786F9BF
:108790009DF80430002B3FF4E9AEFFF779F99AE633
:1087A000034BC0221A60BCE6024B03221A6075E735
:1087B00014EC064014ED064038B5094D2C780CB188
:1087C000204638BDFEF7F8FA28B9064B1B68DB07D0
:1087D000F6D500BEF4E701232B70204638BD00BF5C
:1087E000D8670020F0ED00E0014B1878704700BF1B
:1087F000D867002000B51849184883B002F00AFD78
:1088000048F2870242F29A31144802F04DFD1348B3
:1088100002F04EFD124A40214FF0804302A882F838
:1088200027130024D3F8385400F8084D02F084F9D7
:1088300002A80C4B40F8043D02F0AAF902F0BAF984
:10884000EB0704D4FFF7B8FFFEF7F0FAFCE7204689
:10885000FFF7FCFDF6E700BF6C620020C871002046
:1088600000E100E04D8402000020FFF7D7BA00BF0E
:1088700000B5002383B00322CDE900230349044857
:10888000C82201F017F803B05DF804FBA0EE020067
:10889000F587020008B5052000F044F8BDE808405F
:1088A00002F0D2BB30B54FF0805387B00C465A6E01
:1088B0001B491B6E01A804F087FA9DF804309DF84F
:1088C00005509DF806009DF807109DF808202380AC
:1088D0009DF809306580A0809DF80A509DF80B0036
:1088E000E18022819DF80C109DF80D2063819DF898
:1088F0000E30A581E0819DF80F509DF81000218277
:1089000062829DF811109DF81220A3829DF8133009
:1089100020831020E5826183A283E38307B030BD0A
:10892000A8EE020038B50B4B8402A3FB043401F01F
:10893000A9F805460020FDF787FE01F0A3F8A40979
:10894000401B844200D838BD201ABDE8384001F0F1
:10895000BDB900BFD34D621038B51C469DF810500C
:1089600043B3002908BF1A460123C4E90F0122605E
:1089700084F8463001F0CEFED4E90F132268A260DD
:1089800001FB03F1CB1A134400200A44FF21A0632A
:10899000E36084F84410626084F8451004F110002C
:1089A00003F0B4FB04F1240003F0B0FB01F0BCFEC3
:1089B00084F84C50204638BDF8B5074615460E469B
:1089C00069B100FB01F0503003F0EEFB044690B3B8
:1089D000002200F1500380F84620036007E0502099
:1089E00003F0E2FB044630B384F846602460C4E937
:1089F0000F7601F08FFED4E90F132268A26001FB0D
:108A000003F1CB1A134400200A44FF21A063E36062
:108A100084F84410626084F8451004F1100003F0FB
:108A200075FB04F1240003F071FB01F07DFE84F876
:108A30004C502046F8BD00242046F8BD2DE9F04FEB
:108A4000044685B01D460192884601F063FEA26B84
:108A5000E36BA84F4FF000099A424E46C0F08B805E
:108A6000022D00F006810198002800F03081B9F154
:108A7000000F00F0958001F057FE00F0FBFF01F0C1
:108A800049FE94F84430FF2B08BF84F8446094F802
:108A90004530FF2B08BF84F8456001F045FE01A971
:108AA00002A801F015FB002840F0188101F032FE09
:108AB000A26BE36B9A4277D001F036FE01F02AFEFA
:108AC00094F845304FFA83FABAF1000F1ADD636A61
:108AD000C3B104F1240907E00AF1FF33DBB24FFA16
:108AE00083FA7BB1636A6BB1484601F097FA0028BC
:108AF000F2D001F025FB0AF1FF33DBB24FFA83FA23
:108B0000002BEFD1FF2384F8453001F00DFE01F07A
:108B100001FE94F844304FFA83FABAF1000F1ADDDF
:108B20002369C3B104F1100907E00AF1FF33DBB296
:108B30004FFA83FA7BB123696BB1484601F06EFAB4
:108B40000028F2D001F0FCFA0AF1FF33DBB24FFA51
:108B500083FA002BEFD1FF2384F8443001F0E4FDC9
:108B600001F02EF801F0D6FDA26BE36B9A424FF0B4
:108B70000109BFF475AF226CA66B002A40F0FC809F
:108B800025680136002D00F01881A663636A002B6A
:108B900040F08C8001F0C8FD012005B0BDE8F08FE9
:108BA00002A801F089FA66E704F1100901F0BCFDA2
:108BB0004846019901F0B6F901F0ACFD94F845A0E2
:108BC0004FFA8AFABAF1000F1CDD636AD3B104F1DF
:108BD000240B08E00AF1FF3A5FFA8AF34FFA83FAAE
:108BE00083B1636A73B1584601F018FA0028F1D0D6
:108BF0000AF1FF3A01F0A4FA5FFA8AF34FFA83FA16
:108C0000002BEED1FF2384F8453001F08DFD01F0FB
:108C100081FD94F844304FFA83FABAF1000F06DC74
:108C200015E00AF1FF33DBB24FFA83FA7BB1236917
:108C30006BB1484601F0F2F90028F2D001F080FA59
:108C40000AF1FF33DBB24FFA83FA002BEFD1FF2397
:108C500084F8443001F068FD00F0B2FF002881D1B3
:108C60004FF080537B6040BFBFF34F8FBFF36F8FD8
:108C700078E7226CA66B002A82D04146E06803F0B8
:108C800063FB236CE26821685B421A448A42E2601B
:108C900080F0898062681344E360022D00F08380D5
:108CA0000136A663636A002B3FF474AF04F124001D
:108CB00001F0B4F900283FF46DAF0E4B4FF0805235
:108CC0005A6040BFBFF34F8FBFF36F8F62E70090D2
:108CD00001F02AFD009805B0BDE8F08F01F01AFD03
:108CE00094F845506DB2002D18DD636AB3B104F1FC
:108CF000240607E000ED00E0013DEBB25DB26BB190
:108D0000636A5BB1304601F089F90028F4D0013D77
:108D100001F016FAEBB25DB2002BF1D1FF2384F81B
:108D2000453001F001FD01F0F5FC94F844506DB2BE
:108D3000002D16DD2369A3B104F1100605E0013D05
:108D4000EBB25DB26BB123695BB1304601F066F9FD
:108D50000028F4D0013D01F0F3F9EBB25DB2002B35
:108D6000F1D1FF2384F8443001F0DEFC00F028FF4D
:108D7000002005B0BDE8F08F41465DBBA06803F060
:108D8000E3FAA368216C62680B44934206F1010682
:108D9000A360FFF4FAAEA663636A2268A260002BA8
:108DA0003FF4F8AE82E7002E7FF4EFAE0123A36319
:108DB000636A002B3FF4EEAE78E7606801F032FAA8
:108DC000A663636A6560002B7FF470AF00287FF4B0
:108DD00074AFDFE6E06803F0B7FA236CE26821685D
:108DE0005B421A448A42E260BFF457AF52E700BFC9
:108DF000F8B50C4679B300250123216081F846308F
:108E0000C1E90F35064601F085FCD4E90F3221682F
:108E1000A56303FB02F39A1A0A440B44FF27C4E933
:108E20000131E26084F8447004F1100084F8457068
:108E300003F06CF904F1240003F068F901F074FC0C
:108E4000C4E90055E56084F84C602B462A46294663
:108E50002046FFF7F3FD2046F8BD00BF2DE9F041A5
:108E60008C4682B004461746EFF31186402282F307
:108E70001188806BE26B904221D3022B05D0002039
:108E800086F3118802B0BDE8F08194F84550226C59
:108E9000D4F838806DB252BB236808F10108002B6A
:108EA0004FD06B1CC4F8388037D001356DB284F8D0
:108EB0004550012086F3118802B0BDE8F08194F896
:108EC0004550226CD4F838806DB2002AE4D073B9D2
:108ED000A06803F039FAA368216C62680B449342DE
:108EE00008F10108A360DCD32368A360D9E76146D9
:108EF000E068019303F028FA206CE2682168019B86
:108F0000404202448A42E26002D262681044E06059
:108F1000022B10D008F10108C3E7636A002BC8D008
:108F200004F1240001F07AF80028C2D0002FC0D04C
:108F300001203860A4E7B8F1000F08BF4FF0010826
:108F4000AFE76068019301F06DF9019B6360A8E7EA
:108F50002DE9F047044684B08846019201F0DAFB1F
:108F6000D4F83890B9F1000F40F09380019B002BAA
:108F700000F00A8102A801F09FF8B34F4E4604F1B9
:108F8000240501F0D1FB00F075FD01F0C3FB94F85E
:108F90004430FF2B08BF84F8446094F84530FF2B21
:108FA00008BF84F8456001F0BFFB01A902A801F0E9
:108FB0008FF8002840F0878001F0ACFBA36B002BFA
:108FC00040F0E88001F0B0FB0199284600F0AAFFCC
:108FD00001F0A0FB94F845304FFA83F9B9F1000F86
:108FE00006DC15E009F1FF33DBB24FFA83F97BB100
:108FF000636A6BB1284601F011F80028F2D001F045
:109000009FF809F1FF33DBB24FFA83F9002BEFD160
:10901000FF2384F8453001F087FB01F07BFB94F8D7
:1090200044304FFA83FABAF1000F1ADD2369C3B155
:1090300004F1100907E00AF1FF33DBB24FFA83FABB
:109040007BB123696BB1484600F0E8FF0028F2D0FD
:1090500001F076F80AF1FF33DBB24FFA83FA002B06
:10906000EFD1FF2384F8443001F05EFB00F0A8FD4F
:1090700000287ED14FF080537B6040BFBFF34F8FFD
:10908000BFF36F8F01F046FBD4F83890B9F1000FB1
:1090900076D0226C52B1E168636811449942E16074
:1090A00024BF2168E160404603F04EF909F1FF3327
:1090B000A3632369002B40F0C98001F035FB012038
:1090C00004B0BDE8F08701F025FB94F845304FFA75
:1090D00083F9B9F1000F06DC15E009F1FF33DBB2CB
:1090E0004FFA83F97BB1636A6BB1284600F096FFB3
:1090F0000028F2D001F024F809F1FF33DBB24FFA77
:1091000083F9002BEFD1FF2384F8453001F00CFBED
:1091100001F000FB94F844304FFA83FABAF1000FE3
:109120001ADD2369C3B104F1100907E00AF1FF3326
:10913000DBB24FFA83FA7BB123696BB1484600F08A
:109140006DFF0028F2D000F0FBFF0AF1FF33DBB225
:109150004FFA83FA002BEFD1FF2384F8443001F05B
:10916000E3FA00F02DFD01F0D5FAA36B63B101F035
:10917000DBFA01F0CFFAD4F83890B9F1000F88D1BA
:10918000019B002B7FF4FDAE01F0CEFA002004B06D
:10919000BDE8F08701F0C8FA01F0BCFA94F8453058
:1091A0004FFA83F9B9F1000F06DC15E009F1FF333E
:1091B000DBB24FFA83F97BB1636A6BB1284600F0EA
:1091C0002DFF0028F2D000F0BBFF09F1FF33DBB226
:1091D0004FFA83F9002BEFD1FF2384F8453001F0DB
:1091E000A3FA01F097FA94F844304FFA83FABAF1EF
:1091F000000F1ADD2369C3B104F1100907E00AF179
:10920000FF33DBB24FFA83FA7BB123696BB1484677
:1092100000F004FF0028F2D000F092FF0AF1FF33C3
:10922000DBB24FFA83FA002BEFD1FF2384F84430EE
:1092300001F07AFA00F0C4FC01F06CFAD4F838902E
:10924000B9F1000F9CD024E700ED00E004F110001C
:1092500000F0E4FE00283FF430AF054B4FF08052A1
:109260005A6040BFBFF34F8FBFF36F8F25E700BF3A
:1092700000ED00E02DE9F043044685B000260191A1
:1092800001F048FAA36BB24FB0463546002B40F0D0
:10929000F380019B002B00F05D81B8F1000F00F01E
:1092A000FC8001F041FA00F0E5FB01F033FA94F89C
:1092B0004430FF2B08BF84F8445094F84530FF2B0E
:1092C00008BF84F8455001F02FFA01A902A800F068
:1092D000FFFE00286CD101F01DFAA36B002B40F0BB
:1092E000E08001F021FA2368002B00F03C8104F1BA
:1092F00024094846019900F015FE01F00BFA94F894
:1093000045304FFA83F8B8F1000F06DC15E008F19C
:10931000FF33DBB24FFA83F87BB1636A6BB1484627
:1093200000F07CFE0028F2D000F00AFF08F1FF33C5
:10933000DBB24FFA83F8002BEFD1FF2384F84530DE
:1093400001F0F2F901F0E6F994F844304FFA83F8AD
:10935000B8F1000F1ADD2369C3B104F1100907E069
:1093600008F1FF33DBB24FFA83F87BB123696BB1AD
:10937000484600F053FE0028F2D000F0E1FE08F16C
:10938000FF33DBB24FFA83F8002BEFD1FF2384F8D1
:10939000443001F0C9F900F013FC002864D14FF00B
:1093A00080537B6040BFBFF34F8FBFF36F8F5BE095
:1093B00001F0B0F994F845304FFA83F8B8F1000F96
:1093C0001ADD636AC3B104F1240907E008F1FF3331
:1093D000DBB24FFA83F87BB1636A6BB1484600F0A9
:1093E0001DFE0028F2D000F0ABFE08F1FF33DBB227
:1093F0004FFA83F8002BEFD1FF2384F8453001F0BA
:1094000093F901F087F994F844304FFA83F8B8F1F2
:10941000000F1ADD2369C3B104F1100907E008F158
:10942000FF33DBB24FFA83F87BB123696BB1484657
:1094300000F0F4FD0028F2D000F082FE08F1FF33C6
:10944000DBB24FFA83F8002BEFD1FF2384F84430CE
:1094500001F06AF900F0B4FB01F05CF9A36B002B9A
:1094600000F08A8001F060F901F054F9A36B4FF02D
:109470000108002B3FF40DAF2268013BA363002AD3
:1094800000F09E802369002B40F0898001F04CF9A8
:109490000126304605B0BDE8F08302A800F00CFEBE
:1094A000FFE601F041F901F035F994F845304FFA43
:1094B00083F8B8F1000F1ADD636AC3B104F124091F
:1094C00007E008F1FF33DBB24FFA83F87BB1636A40
:1094D0006BB1484600F0A2FD0028F2D000F030FE4B
:1094E00008F1FF33DBB24FFA83F8002BEFD1FF23F3
:1094F00084F8453001F018F901F00CF994F8443083
:109500004FFA83F8B8F1000F1ADD2369C3B104F1F3
:10951000100907E008F1FF33DBB24FFA83F87BB1A3
:1095200023696BB1484600F079FD0028F2D000F0C5
:1095300007FE08F1FF33DBB24FFA83F8002BEFD1BF
:10954000FF2384F8443001F0EFF800F039FB8BE79B
:1095500000ED00E0009301F0E7F8009B1E46304666
:1095600005B0BDE8F08301F0D5F8606800F018FEA2
:10957000064601F0D9F8BAE601F0D6F8002E88D0F8
:1095800001F0C8F8616A19B1236B1968C1F10501CE
:10959000606800F073FE002601F0C6F879E704F178
:1095A000100000F03BFD00283FF470AF064B4FF079
:1095B00080525A6040BFBFF34F8FBFF36F8F65E794
:1095C00000F092FE60605DE700ED00E0074B1A6876
:1095D0001AB19A6802B17047012210B403EBC204B9
:1095E00043F8321060605DF8044B7047DC77002070
:1095F00070B505460C46164601F08CF895F84430D7
:10960000FF2B04BF002385F8443095F84530FF2B2D
:1096100004BF002385F8453001F086F8AB6B2BB909
:109620003246214605F1240000F0B8FC01F072F842
:1096300095F8454064B2002C16DD6B6AA3B105F1C4
:10964000240605E0013CE3B25CB26BB16B6A5BB12E
:10965000304600F0E3FC0028F4D0013C00F070FD3F
:10966000E3B25CB2002BF1D1FF2385F8453001F065
:109670005BF801F04FF895F8444064B2002C16DD19
:109680002B69A3B105F1100605E0013CE3B25CB221
:109690006BB12B695BB1304600F0C0FC0028F4D000
:1096A000013C00F04DFDE3B25CB2002BF1D1FF2391
:1096B00085F84430BDE8704001F036B82DE9F0413E
:1096C000044601F027F8344A344D1368013313601F
:1096D0002B68002B2FD0324EE36A32682AB3314810
:1096E000314907680A689F4238BF03602F4801323A
:1096F00003EB83030A6000EB8300E263211D02F0A9
:1097000015FD01F011F833686BB12A68E36AD26A7B
:109710009A4208D2264B4FF080525A6040BFBFF3A6
:109720004F8FBFF36F8FBDE8F0812A68D26A9A42EB
:1097300098BF2C60D3E72C601368012B02D0E36A3A
:10974000174ECCE71948DFF894801A4F144E02F0F8
:10975000DDFC194802F0DAFC184802F0D7FC184882
:1097600002F0D4FC174802F0D1FC404602F0CEFCD7
:10977000384602F0CBFC144802F0C8FC134802F053
:10978000C5FC134802F0C2FC124B134AC2F8008019
:109790001F60E36AA3E700BF4C680020DC6700207D
:1097A000AC680020606800205C680020E86700204A
:1097B00000ED00E078680020FC67002010680020C1
:1097C000246800203868002098680020C4680020C1
:1097D000B0680020E4670020E06700206468002093
:1097E0002DE9F843DDE90964002C60D016B9304654
:1097F000BDE8F8830D469700984602233A4684F860
:109800005130814626633046A52102F0C1FD2A78F9
:10981000236B84F83420043F2A781F4427F007077D
:1098200002B36B7884F835306B78DBB1AB7884F8B1
:109830003630AB78B3B1EB7884F83730EB788BB156
:109840002B7984F838302B7963B16B7984F839300F
:109850006B793BB1AB7984F83A30AB7913B1EB79E2
:1098600084F83B30089D042D28BF04250026E562BE
:109870006564201D84F83B60A66402F053FCC5F1CA
:10988000050504F1180002F04DFCE6644246494625
:10989000A561246184F850606462384600F0FEFEE1
:1098A00020602046FFF70AFF2046BDE8F8832046E7
:1098B000BDE8F8832DE9F0479600804630460D4616
:1098C0009946099F02F070FC002869D08246542016
:1098D00002F06AFC044600285BD00023C0F830A0E8
:1098E0003246504684F85130A52102F051FD2A78C5
:1098F000236B84F83420043E2A781E4426F0070A9D
:1099000002B36B7884F835306B78DBB1AB7884F8D0
:109910003630AB78B3B1EB7884F83730EB788BB175
:109920002B7984F838302B7963B16B7984F839302E
:109930006B793BB1AB7984F83A30AB7913B1EB7901
:1099400084F83B30089D042D28BF04250026E562DD
:109950006564201D84F83B60A66402F0E3FBC5F15A
:10996000050504F1180002F0DDFBE664A561246141
:1099700084F8506064624A464146504600F08EFECC
:10998000206007B13C602046FFF798FE0120BDE84B
:10999000F087504602F01AFC4FF0FF30BDE8F08728
:1099A0004FF0FF30F3E700BF70B584B0002503AA85
:1099B00002A901A8CDE9015501F06CFA019C002C27
:1099C00046D00298002843D0039E20630223B600AD
:1099D000A521324684F8513002F0DAFC236B1F4A8D
:1099E0006263201D84F83850043E84F83B50E562E1
:1099F000C4E911551E4402F095FB04F1180002F071
:109A000091FB26F007060523A3612A461449E56465
:109A100030462461646284F8505000F03FFE2060BC
:109A20002046FFF74BFE0F4B1C6000F0DBFD0128CA
:109A300011D1402383F311880B490C4A0C4B4FF092
:109A4000FF340C6010601D6000F03EFE04B070BD7D
:109A5000044B00221A6004B070BD00BF49444C455D
:109A6000519D02008C68002090680020AC680020A6
:109A7000D8680020024A136801331360704700BFA2
:109A800058680020014B1868704700BFD868002054
:109A9000024A136818441060704700BFD86800205D
:109AA0002DE9F04F3B4B1B6883B0002B42D13A4B62
:109AB0001F6801371F60002F4AD0384B01931B6885
:109AC000BB423BD8364EDFF8EC80DFF8ECA0DFF885
:109AD000EC90002525E03368DB68DC68636804F1FE
:109AE000040B9F42584651D302F04AFBA36A04F18B
:109AF00018000BB102F044FBE36AD8F8002003EB36
:109B00008300934259460AEB800088BFC8F80030B2
:109B100002F00CFBD9F80030E26ADB6A9A4228BFF7
:109B2000012533681B68002BD5D1019A4FF0FF3314
:109B3000136004E01B4A13680133136000251A4BBD
:109B40001B68002B0CBF2846012003B0BDE8F08F36
:109B5000134E164B3168164A186830601960136846
:109B60000133136033681B683BB90C4B01931A46F1
:109B70004FF0FF3313601346A1E73368074ADB68F1
:109B80000192DB685B681360134698E7019A1360E3
:109B9000D5E700BF58680020D868002090680020F2
:109BA000E067002054680020DC680020E4670020A3
:109BB0009468002060680020E8670020DC670020CF
:109BC0002DE9F04700F0A6FD354B1A68013A1A60FE
:109BD0001C68002C57D1334B1B68002B53D0DFF887
:109BE000E0A0314E314FDFF8DC90DFF8DC803368E5
:109BF00013B3F368DC68251D04F1180002F0C0FA05
:109C0000284602F0BDFAE36A3A6803EB8300934208
:109C1000294609EB800088BF3B6002F087FAD8F83C
:109C20000030E26ADB6A9A424FF00103DFD3CAF8E0
:109C300000303368002BDCD13CB11D4B1A68126830
:109C40003ABB1C4B4FF0FF321A601B4D2C6844B1DD
:109C50000126FFF725FF08B1CAF80060013CF8D1E2
:109C60002C60DAF8003073B1144B4FF080525A6018
:109C700040BFBFF34F8FBFF36F8F012400F054FD3F
:109C80002046BDE8F087002400F04EFD2046BDE8E8
:109C9000F0871A68074BD268D26852681A60D4E716
:109CA000586800204C6800209868002060680020F8
:109CB000E0670020906800205468002000ED00E07C
:109CC000DC680020E8670020DC67002070B548B938
:109CD000184B4FF080525A6040BFBFF34F8FBFF315
:109CE0006F8F70BD144A15491368154E0133136008
:109CF0000D6804463068043002F042FA3368641993
:109D00005C600FD20F4B18683168043102F01EFA04
:109D10000D4B1A68944238BF1C60FFF751FF0028B2
:109D2000D6D070BD094B18683168043102F00EFAC4
:109D3000F3E700BF00ED00E058680020D86800207D
:109D4000DC670020E067002090680020E4670020C6
:109D50002DE9F84F3C4E3D4D3D4CDFF80891DFF8C2
:109D60000881DFF808B14FF0805A2368D3B100F0C2
:109D7000D1FCF368DF68381D02F002FA2B68013B62
:109D80002B602368013B236000F0CEFC97F8513034
:109D9000002B37D0012BE8D1384602F017FA2368A0
:109DA000002BE4D12B4B1B68012B06D9CBF804A068
:109DB00040BFBFF34F8FBFF36F8F00F03DFED9F868
:109DC000003033BBD8F80030DB6A002BCDD1214BFB
:109DD0001B68012BC9D8204B204A1B6812689B1AAC
:109DE000012BC2D91E4A136801331360D9F8003021
:109DF000BBB1D8F80030DB6A0BB9164B1B68FFF714
:109E0000DFFEB2E7386B02F0E1F9384602F0DEF926
:109E1000ABE7D8F80030DB6A002BA6D10D4B1B68EE
:109E2000A3E7D8F80030DB6A002BE8D1094B1B68A8
:109E3000012BE4D8084B1868084B1B68C01A01288E
:109E4000DDD900F0DDFCDAE7C46800204C680020B2
:109E500050680020E867002090680020D868002043
:109E60005868002060680020DC67002000ED00E0FA
:109E7000274B1B68002B40D1264A70B5264C136037
:109E80002268236812681B6B9A423AD9234D2449F1
:109E90002A689300981880000858E0B9561EB3004D
:109EA00098198000085830BB961EB300981980009E
:109EB000085800BBD61EB300981980000858D0B9C6
:109EC000161FB300981980000858A0B9053A9300EE
:109ED00098188000085813449B00CE180833706807
:109EE000406870600B44984204BF40687060C3686B
:109EF00023602A6070BD3246EDE7064B01221A60EE
:109F0000704720682168343100F0C0FFBEE700BF11
:109F100058680020DC680020DC67002060680020B2
:109F2000E867002070B5174D2B680C4603F1180147
:109F300002F00CF9144B1E682868043002F020F976
:109F4000631C17D02B68A4195C600BD20F4B1868E8
:109F50002968043102F0FAF80D4B1A68944238BFB0
:109F60001C6070BD0B4B18682968BDE87040043157
:109F700002F0ECB8296808480431BDE8704002F0EE
:109F8000D5B800BFDC670020D8680020E06700205B
:109F900090680020E4670020B068002070B5194D7B
:109FA0002B680C46164603F1180102F0BFF8164B59
:109FB0005EB11B682868043002F0E2F82968134893
:109FC0000431BDE8704002F0B1B81E682868043062
:109FD00002F0D6F82B68A4195C600BD20C4B186801
:109FE0002968043102F0B2F80A4B1A68944238BF6B
:109FF0001C6070BD084B18682968BDE870400431CA
:10A0000002F0A4B8DC670020D8680020B068002007
:10A01000E067002090680020E467002038B5C3683E
:10A02000DC6804F11805284602F0AAF81A4B1B68F0
:10A030002BBB251D284602F0A3F8184AE36A1168D5
:10A0400017488B4288BF136003EB8303294600EB5C
:10A05000830002F06BF8134BE26A1B68DB6A9A42DA
:10A0600082BF114B01201860104B1A68126898BF0C
:10A0700000204AB90E4B4FF0FF321A6038BD294616
:10A080000C4802F053F8E6E71A68094BD268D26828
:10A0900052681A6038BD00BF586800206068002010
:10A0A000E8670020DC670020DC680020E067002013
:10A0B0009068002098680020034A044B12681B68CF
:10A0C000C0E90023704700BF94680020D8680020D2
:10A0D000F8B50D46044600F01DFB2B681649581CC8
:10A0E0000A6813D0DFF854C0D4E90060DCF80070CF
:10A0F000BE4201D090421AD9121A93420BD80023C3
:10A100002B60012500F010FB2846F8BD002500F06B
:10A110000BFB2846F8BDDCF800009B1A0A682B6090
:10A12000C4E90002002500F0FFFA2846F8BD012529
:10A1300000F0FAFA2846F8BDD8680020946800209C
:10A14000014B01221A607047DC680020084B186838
:10A1500060B9084B1B6853B9074A084B10681B6865
:10A16000013B984214BF0120022070470020704735
:10A1700098680020DC680020B06800204C6800204F
:10A18000054B1B6833B1054B1B68002B0CBF02202D
:10A190000020704701207047AC68002058680020FC
:10A1A00018B3F8B51C4CC36A2268D26A934214D221
:10A1B0008269002A04DB2268D26AC2F10502826148
:10A1C000164D426903EB830305EB83039A420DD0DE
:10A1D0002368DB6AC3620120F8BD2368406CDB6A38
:10A1E00098422CBF00200120F8BD7047061D07468D
:10A1F000304601F0C5FF2268094BD06A1A68F86240
:10A20000904200D9186000EB800005EB80003146D9
:10A2100001F08CFF0120F8BDDC670020E86700201A
:10A220006068002050B138B5C16A836C426C013B54
:10A230009142836400D01BB1002038BD00207047DC
:10A24000051D0446284601F09BFF0A4A636C11680D
:10A25000E362C3F105008B42A061074888BF136029
:10A2600003EB830300EB8300294601F05FFF01202D
:10A2700038BD00BF60680020E867002048B1426C2C
:10A28000C36A914238BF11468B4202D0826C012AC8
:10A2900000D07047826970B5114DC162002A03EB8E
:10A2A00083034269A8BFC1F1050105EB8303A8BF81
:10A2B00081619A4200D070BD061D0446304601F00F
:10A2C0005FFF084BE06A1A68904288BF186000EB95
:10A2D000800005EB80003146BDE8704001F026BFEC
:10A2E000E867002060680020044B1A681AB11968FA
:10A2F0008A6C01328A641868704700BFDC670020EE
:10A300002DE9F04FAD4EDFF8C482AD4D89B0336812
:10A310001C68002C00F08E80DB681C68FFF7AAFB2D
:10A32000FFF7B0FBD8F80030984207465DD384426F
:10A33000C8F8000040F20B810022E11B2868FFF7FB
:10A3400057F9FFF73DFC88B99E4A4FF080535360A0
:10A3500040BFBFF34F8FBFF36F8F07E0019B03999F
:10A3600020469847009B002B80F238812868002205
:10A370006946FEF7EDFD0028C9D0009B029C002B2A
:10A38000ECDB636913B1201D01F0FAFEFFF77AFBE5
:10A39000D8F800309842814643D3009BC8F800901B
:10A3A000092BE3D8012202FA03F313F4047F69D1E5
:10A3B00013F0C70F40F0A1809B06D7D594F82C303E
:10A3C000002BD3D1204601F001FFCFE7DB68DC682A
:10A3D000D3F800A004F10409484601F0D1FE636AF5
:10A3E00020469847E369012B36D033681A68002A63
:10A3F000ECD17549C8F800700A6832600B60FFF74D
:10A40000DFFBB3E7DB68DF68D3F800B007F1040ACD
:10A41000504601F0B5FE7B6A38469847FB69012B30
:10A4200025D033681A68002AECD167490A6832607F
:10A430000B60B2E7FFF71EFBFFF724FBD8F80030F4
:10A4400083420746D1D8604BC8F800701B681A6871
:10A45000B2FA82F2520970E7A36953449A45494619
:10A4600022D263602461306801F070FEBDE7BB69F1
:10A470005B449B45514627D27B603F61306801F0C9
:10A4800065FECEE7019B246103EB09024A45A36107
:10A4900062602CD8002B3FF469AF4B4B211D18682C
:10A4A00001F054FE286862E72B68002B9DD0002342
:10A4B000CDE9043A0694FFF763FE00231A4604A987
:10A4C0002868FEF7BBFA90E72B68002BA9D0002381
:10A4D000CDE9043B0697FFF753FE00231A4604A973
:10A4E0002868FEF7ABFA9CE74B4500D998B1306875
:10A4F000211D01F02BFE286839E7019BA269246128
:10A5000099182CBF0120002049456160ECD8A9EBC7
:10A5100003039A42C1D8636A20469847E369012B36
:10A520007FF424AF019BA2692868134400283FF4FC
:10A530001EAF0022CDE904230694FFF721FE00237D
:10A540001A4604A92868FEF779FA28680FE7FFF78A
:10A5500037FB3368DB68D3F80C9009F1040A5046E6
:10A5600001F00EFED9F81C30012B04D0D9F82430AC
:10A5700048469847FAE6D9F81830C9F81090E2181A
:10A58000BA42C9F8042004D95146306801F0DEFD12
:10A59000ECE73F1BBB421BD82B68002BE6D0002307
:10A5A000CDE90434CDF81890FFF7EAFD00231A46F0
:10A5B00004A92868FEF742FAD8E700BFE068002047
:10A5C000646B002000ED00E0E4680020106B0020C8
:10A5D000034B5146186801F0B9FDC7E7029CD0E66D
:10A5E000E4680020F0B5204C89B000F093F82568AD
:10A5F000FDB100F099F82068C8B1002407AA06A9A7
:10A6000005A8CDE9054400F053FCDDE90530022141
:10A61000CDE90010079A0293144915482346FFF725
:10A62000DFF8144A0346001B18BF0120136009B06D
:10A63000F0BD114F114E384601F068FD304601F073
:10A6400065FD0F4A0F4900950F4B17600E600F4ACA
:10A6500010212020FEF780F920600028C9D00C4985
:10A66000FEF7B4FFC5E700BF646B0020BCEE02003C
:10A6700001A30200686B0020E86A0020FC6A002049
:10A68000E0680020E4680020146B0020E8680020E7
:10A69000B4EE0200402383F31188FEE730B46FF07C
:10A6A00002034FF08075074C40F8045C40F80C4CF6
:10A6B00040F8081C40F8202C40F8243C30BC4438BA
:10A6C000704700BF95A602000F4C08B5E02384F840
:10A6D000223000F077F80D4B0D4A00211960D4F8B4
:10A6E000883043F47003C4F88830536843F0404323
:10A6F0005360236943F01003236100F04BF94023BA
:10A7000083F31188FEE700BF00ED00E06C6B0020D2
:10A7100030EF00E0402383F31188024A13680133CD
:10A72000136070476C6B0020034A1368013B136091
:10A730000BB983F3118870476C6B002041DF7047C1
:10A7400012DF704770B51B4B00251D6082B01B687F
:10A750000193019BEFF31186402383F31188164A7E
:10A76000164BD2F804451D601B680093009BFFF751
:10A7700089F9241A24F07F44012C0DD844B1FFF745
:10A780008FF9054625B10E4B4FF080525A6040BFFD
:10A7900086F3118802B070BDFFF7F2FC0228EED1FB
:10A7A000013CFFF77DF9013C631C45EA0005F8D147
:10A7B000E8E700BF401101400010014000110140D6
:10A7C00000ED00E00B4B0C4930B41F200B4DC3F8DB
:10A7D000080501220224E020C3F804232A601A603D
:10A7E000C3F8444381F811034FF400330B6030BCCD
:10A7F000704700BF0010014000E100E00810014078
:10A800002DE9F041804684B0EFF3108272B6564CC9
:10A81000A36883B9554B56480121A160D3F8801035
:10A8200001402160C3F88000D3F8841061604FF0CC
:10A83000FF31C3F8841002B962B64E4ED6F80475E3
:10A84000FFF784FC00283DD04B4A4C49424528BFC5
:10A850004246BB1823F07F4301200025C6F80803B9
:10A86000C6F840350D600B6801934FF480330199B1
:10A87000C6F80433BFF34F8FB8F1000F54D13D4BEE
:10A880003E4D3F494FF48030C3F808030020286054
:10A890002D680395039D08600968029101210298C3
:10A8A000C3F80413D3F804353049DB1B23F07F458C
:10A8B000954228BF15464FF40033012DC1F8803171
:10A8C00011D827D0A3685BB1EFF3108372B6274A83
:10A8D00021681160616851600022A26003B962B60C
:10A8E00004B0BDE8F081681EFFF7D2F8254BDB68A5
:10A8F000DA010FD5244A1368DB070BD5234B5168C7
:10A9000003FB05F5A5F57425A5F51075AD0A01EB5A
:10A9100085155560FFF7C4F80028D3D01C4B4FF0C5
:10A9200080525A6040BFCDE7F1EE103A23F09F030A
:10A93000E1EE103AF1EE103A0C4B04A84021C3F8B6
:10A94000841100F8045DFFF7FBFE9DF80C1039B987
:10A9500020BFD3F80001D3F804110143F8D08EE7EB
:10A96000FFF7ECFE8BE700BFF077002000E100E08E
:10A97000FC06FFBD00100140FDFFFF00401101403B
:10A9800000110140F0ED00E0001000E040420F0037
:10A9900000ED00E00748006880F3088862B661B601
:10A9A000BFF34F8FBFF36F8F4FF0E00080F311883C
:10A9B00000DF00BF00600200064B19680868B0E8BD
:10A9C000F04F80F30988BFF36F8F4FF0000080F3E2
:10A9D00011887047DC670020EFF30980BFF36F8FA9
:10A9E000144B1A681EF0100F08BF20ED108A20E9E2
:10A9F000F04F10604DF8043D4FF0400080F3118897
:10AA0000BFF34F8FBFF36F8FFFF732FA4FF00000A5
:10AA100080F3118808BC19680868B0E8F04F1EF090
:10AA2000100F08BFB0EC108A80F30988BFF36F8F56
:10AA3000704700BFDC670020704700BF0A490B4A1F
:10AA40000B4B9B1A03DD043BC858D050FBDC094874
:10AA500009494FF0AD32026004300439FBD100F0F7
:10AA600027F9FBF7F5FB00001CF202000060002054
:10AA70004062002000F8032000080000FEE7FEE727
:10AA8000FEE7FEE7FEE7FEE7FEE7FEE7FEE7FEE79E
:10AA900008B5FBF717FC0E4B43B10E4B7BB1FBF730
:10AAA00013FC00F0E3F9AFF30080F8E7FBF70CFCD0
:10AAB00000F0DCF9FBF708FC00F0D8F9F6E7FBF74B
:10AAC00003FC00F0D3F9FBF7FFFB00F0CFF9F6E74A
:10AAD000000000000000000000B583B000F080FA24
:10AAE00001F082FBFDF7C4FE0E4B019301234FF4EE
:10AAF00080620D4900930D480023FEF7DBFE4FF402
:10AB0000407000F037FAFEF74FFFBFF34F8F084950
:10AB1000084BCA6802F4E0621343CB60BFF34F8F67
:10AB200000BFFDE7706B0020C4EE020091AA020096
:10AB300000ED00E00400FA05114B1A78EAB901783B
:10AB4000104810B40A464FF0804402F00102C1F3ED
:10AB50004001C4F88015C4F878250268D20706D4ED
:10AB6000E021012280F80013C0F880210260012258
:10AB700005481A705DF8044B70470448704700BFE1
:10AB8000EC77002000E100E00000AD0B0C00AD0B05
:10AB90000268074B4FF0804010B400214FF46074FE
:10ABA000C0F80843196002B11A605DF8044B7047A1
:10ABB0007C6B00204FF080434FF46072C3F8042395
:10ABC000704700BF10B54FF0804386B0D3F8044300
:10ABD000620705D5D3F8082103F58473002A4ED106
:10ABE000A30603D52A4B1A68002A3FD1600603D575
:10ABF000284B1A68002A2FD1210602D5264B1A6845
:10AC00000ABBE20502D5254B1A6892B9A3050ED5F9
:10AC1000234B1A685AB100221A601A68214B059218
:10AC2000059A1B68022006B0BDE81040184706B020
:10AC300010BD00221A601B4A1B6804930120136890
:10AC4000049A9847E2E700201860164A1B680393AD
:10AC50001368039A9847D4E700221A60124A1B68C7
:10AC6000029301201368029A9847C5E700201860F4
:10AC70000D4A1B6801931368019A9847B6E70022B2
:10AC80001A600A4A1B6800931368009A9847A7E75E
:10AC900014010040180100401C0100402001004048
:10ACA000240100407C6B0020786B0020746B002036
:10ACB000604B1B6830B45C1C37D05F4A082B1268AD
:10ACC00000F08F805B4B5C4A1B681268082B15D024
:10ACD000591C23D0584A1268082B12D0574AD2F870
:10ACE000883043F47003C2F88830BFF34F8FBFF34E
:10ACF0006F8F534B534A1A6030BC7047002A00F0E4
:10AD00008280032AEAD84FF08043D3F80024D20788
:10AD100044BF6FF00102C3F80024DFE74A4A4B4BFF
:10AD200012681B78C2F30312D6E7484A464B1278E2
:10AD30001B68082AC3F3031301D1032B53D9424ADA
:10AD4000424B12681B78C2F30312082BBAD1032AB4
:10AD5000B8D84FF080523E4BD2F80414C3F82015F7
:10AD6000D2F80814C3F82415D2F80C14C3F8281527
:10AD7000D2F81014C3F82C15D2F81414C3F83015F7
:10AD8000D2F81814C3F83415D2F81C14C3F84015BF
:10AD9000D2F82014C3F84415D2F82414C3F8481587
:10ADA000D2F82814C3F84C15D2F82C14C3F8501557
:10ADB000D2F83014C3F85415D2F83414C3F860151F
:10ADC000D2F83814C3F86415D2F83C14C3F86815E7
:10ADD000D2F84014C3F86C15D2F84424C3F8702597
:10ADE00070E7032A0CD8134B1B684FF080420021F8
:10ADF000581CC2F80C11C2F81011C2F838159ED0B8
:10AE00000D4A1268A1E7134C1349144D25601448EC
:10AE1000144AFB24C1F8184501681268124C21F04D
:10AE20000F0102F00F020A434FF40071026021602B
:10AE300050E700BF300100103401001000ED00E0C9
:10AE4000586000200090D003E80F00F0E00F00F001
:10AE500000C000408C56004000F0004048810300D4
:10AE6000E40E0040580200104096024008B5002051
:10AE7000FBF7EAFB044B4FF080525A6040BFBFF330
:10AE80004F8FBFF36F8F08BD00ED00E0704700BF2C
:10AE9000704700BF044B036010B46423034C0C6084
:10AEA00013605DF8044B7047806B0020D46B00206A
:10AEB000054B036010B44FF48073044C0C601360B6
:10AEC0005DF8044B704700BF646D0020B86D002032
:10AED00070B5274E84B04FF0FF3203A93068FEF7FB
:10AEE00037F80028F7D0039C237A6568052B0CD827
:10AEF000DFE803F02F322A241D03D4E90523D4E927
:10AF00000301E4690094A847039C25683DB1FFF75D
:10AF100037F90128284626D001F058F9039CFFF79D
:10AF20002FF9012820461BD001F050F9D3E7D4E9CE
:10AF30000523D4E90301A847039CE6E7D4E90412FA
:10AF4000E068A847039CE0E7D4E90301A847039C15
:10AF5000DBE7A847039CD8E7E068A847039CD4E751
:10AF600001F0EAF9B7E701F0E7F9039CD7E700BF82
:10AF7000BC71002030B540230B4D83B00446002245
:10AF8000184604212B60FDF717FD084B084918608F
:10AF90000223CDE90031A2B2002306490648FEF79C
:10AFA00089FC03B030BD00BFB8710020BC71002027
:10AFB000C0710020CCEE0200D1AE0200BFF34F8F73
:10AFC0000549064BCA6802F4E0621343CB60BFF345
:10AFD0004F8F00BFFDE700BF00ED00E00400FA0561
:10AFE000154A164BD2F84025154930B41A604FF077
:10AFF0008043002401224FF40030C3F818459A60C2
:10B00000C1F88000BFF34F8FBFF36F8F0D4C03F576
:10B0100088334FF0A0454FF480304FF0FF31C3F834
:10B020004803C3F808035A609A60C5F80815C4F8C5
:10B03000081530BC704700BF00A00040C47100205C
:10B0400000E100E00003005008B54FF080434E22BD
:10B05000C3F81C25FFF7B2FF2DE9F04100244A4D4B
:10B060004A4E2146435C4718ABB103F14002D2B2CD
:10B07000012A0BD9F42B09D81A060FD41A464FF01F
:10B08000010EA2F55842B2F5006F55D201314718B2
:10B09000435C002BE9D12046BDE8F08103F0E002DB
:10B0A000C02A58D003F0F002E02A68D003F0F8027A
:10B0B000F02AEBD103F007024FF0040E7B7803F087
:10B0C000C00CBCF1800FE1D197F802C00CF0C008B1
:10B0D00003F03F03B8F1800F43EA8213D6D10CF09E
:10B0E0003F0CBEF1030F4CEA83132DD0FA7802F027
:10B0F000C007802FCAD102F03F0242EA8313A3F5B2
:10B100008032B242C2D8A3F55847B7F5006FBDD31D
:10B11000B3F5803F01F104010FD31E2CBBDC05EB1E
:10B120004407930AC2F30902A3F52053A2F5105273
:10B130007B80BA80023495E77144202CABD005EBBC
:10B140004402013453808DE7A3F50067B7F5784FCB
:10B150001A4696D39AE77A7802F0C007802F03F058
:10B160001F0393D102F03F0242EA8313A3F1800749
:10B17000B7F5F06F1A4689D24FF0020E81E703F05F
:10B180000F024FF0030E99E7F4720020FFFF0F004B
:10B190002DE9F0411B4DDFF87880AC460446BCE851
:10B1A0000F0088B003AF0FC703AE0FCE05F1140E2A
:10B1B00025460FC59EE80700DCF800303B806B4653
:10B1C00036682E8003C36B4603CB0F4D21620F49B7
:10B1D000E06104F11C034FF4807C012740F2094632
:10B1E000204684F82420C4E90538A4F81CC184F85A
:10B1F0001E71A4F82061C4F82451C4F8281108B0C5
:10B20000BDE8F081D8EE0200F8EE020004EF020083
:10B210000001090070B505460E686A8B6C692B8BBE
:10B2200036689B1A144408469BB295F81C112246B6
:10B23000B04718B32218944211D36A8B6B6910443B
:10B2400080B26883588095F81C211A71012070BD66
:10B25000052B15D023781C4483B1A242EDD9637825
:10B26000042BF5D1E378002BF4D195F81C31013390
:10B2700085F81C3123781C44002BEED1002070BDD2
:10B2800094F90230002B08DB95F81E31591C85F823
:10B290001E11A1780B43A370DCE795F81D31591CF2
:10B2A00085F81D11F5E700BF01814281704700BF9D
:10B2B0000120704700487047C8710020014B586951
:10B2C000704700BFC871002008B5032828D8DFE800
:10B2D00000F01F1B0F0213491348FDF7E3FA431C4C
:10B2E0005B0043F44073114A9BB213800F4808BDC2
:10B2F0000D4BD3F82801FFF7AFFEC3B201335B005B
:10B3000043F44073094AF0E7074BD3F82401F2E70E
:10B31000054B064AB3F8203153804FF44173E4E7FC
:10B32000002008BDF6720020C8710020F4720020D1
:10B330000020704700207047704700BF4FF0FF307B
:10B34000704700BF4FF0FF30704700BF704700BF2D
:10B3500000207047704700BF4FF0FF30704700BFBC
:10B360000148FFF715BF00BFC87100208C220021E3
:10B37000014801F00DB800BF387300208C22002175
:10B38000014801F005B800BF387300202DE9F041F5
:10B390004B79032B82B004D00024204602B0BDE8D4
:10B3A000F0810D79C5EBC5041234A4B2944205D9DD
:10B3B000234B1B68DA07EFD500BEEDE7214F97F866
:10B3C00001C0BCF1000FF3D191F800E001EB0E02D7
:10B3D000C7F8882092F80180B8F1210FE8D188469B
:10B3E00011F80E1007F1020C07F1010E1144CDE91E
:10B3F00000CE2A460646FCF767F90028D8D098F810
:10B400000630B978012B04BF98F80730FB70002292
:10B41000D7F888303A7198F80220B3F807303A70BC
:10B42000FB800029B9D030464023074AFCF7BAF91F
:10B430000028B2D1024B1B68DB07AED500BEACE7DB
:10B44000F0ED00E03873002080730020F0B50B7839
:10B4500003F01F04012C83B002D0002003B0F0BD24
:10B460004C4F8D8897F800C0EDB2AC4506D04A4BE2
:10B470001B68DA07F1D500BE0020EFE713F0600388
:10B4800006460D4612D14B78062BE6D14B881B0A97
:10B49000212B6ED0222BE0D1FFF74AFFFB8802461A
:10B4A00029463046FCF7ECF92046D7E7202BD4D1CB
:10B4B0004B78013B0A2BD0D801A252F823F000BFF1
:10B4C00055B5020049B5020033B502005BB4020075
:10B4D0005BB402005BB402005BB402005BB4020028
:10B4E00023B502000DB50200EDB4020048882B4BD5
:10B4F00010F1FF3018BF012038710BB1AFF300809D
:10B5000029463046FCF7A4F90120A7E74888244BD8
:10B51000000A7871002BF3D0AFF3008000289CD094
:10B52000EEE7CB88402B98D81E4AFCF7A9F90120FA
:10B5300094E73B7902AAC3F1010302F8013D01231C
:10B54000FCF79EF9012089E70123174AFCF798F9D7
:10B55000012083E74888CB88144A010AC0B2FFF76C
:10B56000E9FE78B90C4A1268D3077FF576AF00BEC2
:10B5700074E7D7F88820002A3FF46FAF1378FCF700
:10B580007FF96BE7034629463046084AFCF778F90D
:10B59000012063E738730020F0ED00E000000000B8
:10B5A00000000000807300203D73002040730020E5
:10B5B00008B5104A8B881078DBB2984207D00E4B42
:10B5C000186810F0010001D000BE002008BD0B7803
:10B5D00003F06003202B01D0012008BD4B78092B1C
:10B5E000FAD14888CB884832010AC0B2FFF7A4FEDE
:10B5F000012008BD38730020F0ED00E038B50E4C96
:10B60000A2788A4215D1002105469BB2084604F172
:10B610004802FFF791FE2846402304F14802A17832
:10B62000FCF7C0F820B9054B1B68DB0701D500BE4D
:10B6300038BD002038BD00BF38730020F0ED00E0B9
:10B6400030B5144C83B001254FF41672204600210A
:10B6500000F09EFE04F12C012B46201D0095802257
:10B66000FBF7E0F92B46802204F1AC01009504F1D0
:10B670001800FBF7D7F904F596712846FDF7B8FBDB
:10B6800004F5BE7160612846FDF7B2FBA06203B00D
:10B6900030BD00BFFC77002010B5064C20460023CB
:10B6A00040F8043BFBF75EFB04F11800BDE81040D6
:10B6B000FBF758BBFC7700202DE9F0474B79012BB5
:10B6C00003D000242046BDE8F0878B79012BF8D108
:10B6D000CB79002BF5D10B78CD1899B26C78242C4E
:10B6E0000BD1914202D9ECE78A42EAD32B781D4470
:10B6F0000B446C78242C99B2F6D0042CE1D16B79F0
:10B70000012BDED1AB79032BDBD1EB79002BD8D128
:10B71000DFF89C9099F8013013B999F8027017B1CD
:10B7200000231B70FFDEAB7889F800302E7890463E
:10B730002A798B1982469CB22E4432B91EE03378A6
:10B7400097421C44A4B21E4418D2A04516D3737865
:10B75000052BF4D131465046FCF722F8E8B1B37816
:10B76000DA0914BF89F8013089F8023033782A7970
:10B7700001371C44FFB2A4B21E44E0E799F802105E
:10B78000094A50464023FCF70DF800289AD1074B90
:10B790001B68DB0796D500BE94E7044B1B68DA07ED
:10B7A0008FD500BE04468DE7D4790020F0ED00E08F
:10B7B000FC770020012070470020704738B50D4C01
:10B7C000A2788A4214D19AB2054604F5EC71201D84
:10B7D000FBF72AFA2846402304F5EC72A178FBF720
:10B7E000E1FF20B9044B1B68DB0701D500BE38BD63
:10B7F000002038BDFC770020F0ED00E070B5284C4B
:10B80000E28A52BA92B282B022B1A368B3FBF2F2DA
:10B8100091B231B9234B1B68DB0700D500BE02B0E3
:10B8200070BDA66BD4F811109B1BB3F5007F28BF29
:10B830004FF4007392B209BA00930546B6FBF2F3D7
:10B84000607B02FB13621944174BFFF777FD031E61
:10B8500010DB94F82E1007D09BB22846124AFBF753
:10B86000A1FF0028D6D0DAE7009328461A46FBF756
:10B87000F7FED4E7A26BA36894F82E109B1A284613
:10B8800042F205020125A362002384F82C50A2870E
:10B8900084F83E3002B0BDE87040FBF7B1BF00BF96
:10B8A000C4750020F0ED00E0C473002040220021A8
:10B8B000014800F06DBD00BFC4750020402200218A
:10B8C000014800F065BD00BFC47500204B79082B0E
:10B8D00001D0002070478B79062BFAD1CB79502B01
:10B8E000F7D1162A06D81B4B1B68D907F1D500BE25
:10B8F0000020704770B5184D8B7885F82D300B7887
:10B9000082B005F12F0205F12E0619440223CDE97C
:10B9100000261A460446FBF7D7FE48B90D4B1B68B4
:10B92000DA0702D500BE02B070BD002002B070BDC3
:10B9300020461F232A4695F82F10FBF733FF30B916
:10B94000044B1B68DB0702D500BE1720EBE717206E
:10B95000E9E700BFF0ED00E0C47500200B7803F0CC
:10B960006003202B01D00020704730B54B78FE2BB0
:10B9700083B00C4609D0FF2B02D0002003B030BDAD
:10B98000FBF766FF012003B030BD0B4B01220546DB
:10B990008DF807202BB1AFF300800028EED0431EB6
:10B9A000DBB202AA214602F8013D28460123FBF73B
:10B9B00067FF0120E2E700BF0000000001207047A0
:10B9C000F0B50B788DB01446252B14D8DFE803F0C2
:10B9D00033131346131313131313131313131313E4
:10B9E000131373131313131313139DC01313131390
:10B9F000131313D113184FF0FF3318460DB0F0BDD9
:10BA00000DF1060202A9FFF7A5FC029B23B1BDF8C8
:10BA10000620002A40F0D1806D4B93F83C20002A8C
:10BA2000E9D140F2024183F83E2099874FF0FF337D
:10BA300018460DB0F0BDFFF78BFC002840F0958054
:10BA4000634B93F83C20002AD5D140F202410022FA
:10BA5000998783F83E204FF0FF33CEE75C4F0026F6
:10BA600097F83C2097F83D5097F83E000396CDE9B3
:10BA700004664FF0000362F30303F0210A220696E6
:10BA80008DF80E308DF81850ADF81C608DF8190047
:10BA90008DF80C108DF8132003AD0FCDE3602D88C9
:10BAA00020601223184625826160A260BE8787F855
:10BAB0003E600DB0F0BD4FF0203500230BAFCDE957
:10BAC00003330695059507950B95CDE908550A951D
:10BAD0008026022505A907AA3B468DF80D608DF842
