:020000022000DC
:106000000000042099090300D9090300DB090300FB
:10601000DD090300DF090300E109030000000000BF
:10602000000000000000000000000000150903004F
:10603000E50903000000000035090300E909030039
:10604000290C0300EB090300EB090300396E020081
:10605000EB090300EB090300EB090300EB09030064
:10606000EB090300EB090300EB090300EB09030054
:10607000EB090300EB090300EB090300EB09030044
:10608000EB090300A1060300EB090300EB09030081
:10609000EB090300EB09030095A00200EB090300E4
:1060A000EB090300EB090300EB090300EB09030014
:1060B000EB090300EB0903000000000000000000F2
:1060C000EB090300EB090300EB090300C98F030090
:1060D000EB090300EB090300EB090300E9E202000E
:1060E000EB090300EB090300EB09030000000000CB
:1060F00000000000EB0903000000000041900300D5
:10610000000000000000000000000000000000008F
:10611000000000000000000000000000000000007F
:10612000000000000000000000000000000000006F
:10613000000000000000000000000000000000005F
:10614000000000000000000000000000000000004F
:10615000000000000000000000000000000000003F
:10616000000000000000000000000000000000002F
:10617000000000000000000000000000000000001F
:10618000000000000000000000000000000000000F
:1061900000000000000000000000000000000000FF
:1061A00000000000000000000000000000000000EF
:1061B00000000000000000000000000000000000DF
:1061C00000000000000000000000000000000000CF
:1061D00000000000000000000000000000000000BF
:1061E00000000000000000000000000000000000AF
:1061F000000000000000000000000000000000009F
:10620000F1EE103A43F08073E1EE103A704700BFB0
:1062100010B5054C237833B9044B13B10448AFF3E0
:1062200000800123237010BDB06200200000000038
:1062300070D5030008B5034B1BB103490348AFF306
:10624000008008BD00000000B462002070D503008B
:10625000154B002B08BF134B9D46A3F5803A002138
:106260008B460F461348144A121A13F0D8FC0F4BF2
:10627000002B00D098470E4B002B00D098470020F1
:10628000002104000D000D48002802D00C48AFF397
:10629000008013F05DFC200029000AF0CBFB13F016
:1062A00031FC00BF000008000000042000000000D6
:1062B00000000000B062002060920020000000009A
:1062C000000000002DE9F047534E0023C6E90033DB
:1062D000C6E90233336100295CD001F1FF381FFAAF
:1062E00088F804460F461D46412B04D0472B02D0A8
:1062F0004D2B40F083800F2D10D152E023682046B3
:106300005B699847C0B2212814BF2B46002305F1D2
:106310000102F05414BF95B20125B8462368204607
:10632000DB6A98470028E9D1B8F1000F52D001206C
:1063300008F044F808F1FF38132D1FFA88F830D818
:106340007378D1E735483649334EDFF8DC90DFF813
:10635000DC80044605F08AFB05F1010A0027494666
:10636000204605F071FB16F8013B0F2B41462046F5
:106370004FF0100233D805F067FB16F8011C10220D
:1063800001F00F01204605F0B7FBBD422CD1234898
:1063900005F04EFC0020BDE8F087432B38D1062DD8
:1063A000BCD10023735531782129F3D1681E345CA8
:1063B00010B300231A4600E0F15C0133DBB20A445B
:1063C0009842D2B2F8DCD343DBB29C42BAD1E8B2F5
:1063D000BDE8F08706F80580002DDBD0E3E719461D
:1063E00005F08AFBBD42D2D00E490137204605F0A8
:1063F0002BFBBA45B3D8CAE7FF23E6E7512B02D1FE
:10640000132D8BD1CDE7422BC7D1052D86D1C8E7FF
:106410004C2B3FF470AF81E7CC6200201469002060
:106420008CC80300F0C80300E0C9030048D1030092
:10643000F8B560304FF4FA71FFF744FF98B1BC4CE7
:106440006378432B51D0422B71D04C2B00F08780C6
:10645000412B00F0C1804D2B00F0F280472B00F063
:106460002381512B00D0F8BDD4F80270B149B24855
:10647000D4F80660D4F80A50D4F80E4005F0F6FAC5
:10648000384612F087FF41EC100B0221AA4805F0B4
:10649000A1FB0921A84805F0FBFA304612F07AFF6B
:1064A00041EC100B0221A44805F094FB0921A248FD
:1064B00005F0EEFA284612F06DFF41EC100B0221B8
:1064C0009D4805F087FB09219B4805F0E1FA20462D
:1064D00012F060FF41EC100B0221974805F07AFBA7
:1064E0009548BDE8F84005F0A3BBA77893499248CA
:1064F000E678257905F0BAFA0F2F40F20A8139467D
:1065000010228D4805F0C8FA0F2E40F20C8131465A
:106510001022894805F0C0FA0F2D40F2FF8029466D
:106520001022854805F0A4FB6378422B8DD1A57815
:10653000E67883498048303DEDB205F097FA294668
:106540000A227D4805F0A8FA302E14BF7D497E4905
:10655000794805F075FB63784C2B7FF479AF7B4964
:10656000D4F802707448D4F80660D4F80A5005F0E4
:106570007DFA7749704805F079FA384612F00AFF3B
:1065800041EC100B04216C4805F024FB09216A48FA
:1065900005F07EFA6F49684805F068FA304612F057
:1065A000F9FE41EC100B0421634805F013FB0921AF
:1065B000614805F06DFA284612F0ECFE41EC100B34
:1065C00004215D4805F006FB63495B4805F038FB94
:1065D0006378412B7FF43FAFD4F802705F4956488F
:1065E000D4F80660D4F80A5005F040FA384612F0A4
:1065F000D1FE41EC100B02214F4805F0EBFA0921C6
:106600004D4805F045FA304612F0C4FE41EC100B3F
:106610000221494805F0DEFA0921474805F038FA19
:10662000284612F0B7FE41EC100B0221424805F05B
:10663000D1FA414805F0FCFA63784D2B7FF40EAF98
:10664000D4F8027046493C48D4F80660D4F80A50A1
:1066500005F00CFA384612F09DFE41EC100B0221B9
:10666000354805F0B7FA0921334805F011FA3046EC
:1066700012F090FE41EC100B02212F4805F0AAFA0F
:1066800009212D4805F004FA284612F083FE41EC5A
:10669000100B0221284805F09DFA274805F0C8FA9A
:1066A0006378472B7FF4DDAED4F802702D49224881
:1066B000D4F80660D4F80A5005F0D8F9384612F03C
:1066C00069FE41EC100B02211B4805F083FA0921F9
:1066D000194805F0DDF9304612F05CFE41EC100B74
:1066E0000221154805F076FA0921134805F0D0F982
:1066F000284612F04FFE41EC100B02210E4805F027
:1067000069FA0D4805F094FA6378512B7FF4ABAE2B
:10671000AAE61549084805F0A9F9F0E61249064825
:1067200005F0A4F9FBE61049034805F09FF9EEE6F1
:10673000CC62002014C9030014690020ACC8030017
:10674000B4C80300BCC80300C8C80300D4C8030011
:10675000E4C80300ECC80300F4C80300FCC803004D
:1067600004C903000CC9030048D1030038B52B4C01
:10677000054602E00A2007F021FE204605F0FEFB58
:106780000028F7D02649254805F05AFA00220121B1
:10679000244803F045FA0421224803F0E7FB284689
:1067A00003F0C2FD603520491C4805F049FA28462F
:1067B00004F0B8F91D49194805F042FA06211C48B1
:1067C00001F07AFE1A4801F05FFE2946184801F0F0
:1067D0001DFE184801F02AFE0121154801F0A0FE17
:1067E000F4222021124801F097FE1E21104801F0EA
:1067F00091FE00210E4801F0EFFE0F49074805F019
:106800001FFA0E49054805F0FBF90D49034805F04C
:10681000F7F90248BDE8384005F00ABA14690020CB
:106820001CC90300A865002028C9030038C903005B
:10683000A8670020E467002048C9030058C9030086
:106840009CC9030070B500F1240604460B4D05F009
:10685000AFF8304601F040FA4FF0FF33C4F88C3007
:106860002A4620461C2105F0ABF830462A46002374
:106870006A2101F0D3F9204670BD00BFD464002026
:1068800070B5084C04F1300654F8045B0121284629
:106890000AF0FAFD284600210AF036FEB442F3D190
:1068A00070BD00BFE4C9030010B5044B044640F8B6
:1068B000243F00F041FB204610BD00BFDCCA0300AE
:1068C00030B5424D424CA9B028464FF4E13105F0B5
:1068D00053FB4049284605F0B3F9FFF7D1FF01A863
:1068E000FFF7B0FF3C4B069D5D61079D9D61089DD4
:1068F000DD61099D9DF808001D620B9D18719D6268
:10690000DDF80A000C9D0499059AC3F80600DD62C3
:10691000BDF80E000D9D5881D9600F9810991A612D
:106920001D63119ABDF838509D869863D9631A6427
:10693000129A149D5A64DD64159A169D1A655D6558
:10694000BDF85C20189DA3F85820DD65199A1A9DA2
:106950001A665D661B9A1C9D13999A66DD661D9AE0
:106960001E9D996428A821991A675D671F9A209D2A
:106970009A67C3F88010194ADD67229D239940F871
:10698000782DC3F88450249A259DC3F88810269941
:10699000C3F88C209DF89C2083F89820C3E92451EB
:1069A00000F0CAFA002114200AF06EFD204601F022
:1069B000F9F90521204601F0BFFC204601F004FA58
:1069C0000748FFF7D3FE29B030BD00BF146900208F
:1069D000BC64002014CA030020640020DCCA030049
:1069E000E46200200148FFF723BD00BFE4620020FD
:1069F00070B5154C154D164E522320460822012124
:106A000001F092F92A461349204612F059FB30460C
:106A100003F066FC104C06F160004FF4807103F047
:106A200089FD2A460D49304612F04AFB204604F003
:106A3000BFFF04F1240001F04FF92A46204608491F
:106A4000BDE8704012F03CBBBC6400200060002038
:106A5000E4620020897D020020640020656A020053
:106A6000A968020010B50446603004F027F82046FB
:106A7000034B40F8103B01F08FFE204610BD00BFD5
:106A800014CC030000207047704700BF203005F091
:106A900053B900BF203005F041B900BF203005F0E8
:106AA00051B900BF38B5437F0BB9002038BD00F1A4
:106AB000680420460D4605F04DF90028F5D1204622
:106AC000294605F019F9012038BD00BF2DE9F0472E
:106AD0005AB30646DFF8588033681B684D1E43459D
:106AE00017464FF0000400F1680915F801AF16D100
:106AF000737F13B92046BDE8F087484605F02AF9B0
:106B00000028F7D15146484605F0F6F80134A7426F
:106B1000F0D0336815F801AF1B684345E8D0514603
:106B2000304698470028F1D1E4E71446E2E700BF79
:106B3000A56A020010B4837E1F2B4FF0010288BFAC
:106B400003F01F03C27603F5E0738CBF284A4FF0B1
:106B5000A04240F20C6142F82310437E1F2B86BFF7
:106B600003F01F03224A4FF0A04203F5E07340F206
:106B70000C6142F8231003694FF0CC72C3F824254E
:106B800003690622C3F800250369827EC3F808253D
:106B90000369427EC3F80C2590F91830002B14DAF3
:106BA000144A03F00F031A446023137690F9183047
:106BB000002B07DB104903F01F0001225B09824014
:106BC00041F823205DF8044B70475909603103F008
:106BD0001F030124084A04FA03F342F8213090F914
:106BE0001830002BDCDB1344602283F80023DDE740
:106BF00000030050FCEC00E000E100E00AB91046A0
:106C000070472DE9F041054600F120084046144642
:106C10001E460F4605F07EF82B69C3F888752A6971
:106C2000012313622A69C2F834852A69C2F83845FB
:106C30002A6913602A6902E0D2F824311BB9D2F81C
:106C40004C110029F8D00023C2F84C312A6902E027
:106C5000D2F8241119B9D2F85C110029F8D0002318
:106C6000C2F85C312B696EB9D3F8242152B90122E4
:106C7000DA612A69D2F84831002BFBD00023C2F830
:106C8000483109E001225A612A69D2F80431002B07
:106C9000FBD00023C2F804312B69D3F824211AB1A8
:106CA0000022C3F824212B69D3F83C052866C0B222
:106CB000BDE8F08110B50446683084F8B01005F0E6
:106CC00029F80123637710BDF8B504460020236935
:106CD00094F8B0206077C3F88825236901271F62E4
:106CE000236904F16806C3F8446530460D4605F093
:106CF00023F82369C3F8480523699F60236902E0EC
:106D0000D3F824211AB9D3F85021002AF8D0002250
:106D1000C3F85021304605F00FF8236940BB00222C
:106D2000C3F86021236915B9D3F824212AB30122BD
:106D30005A612269D2F80431002BFBD00023C2F83B
:106D400004312369D3F8240168B10022C3F8242157
:106D50002369D3F8C404C3F8C404022803D0042868
:106D600014BF04200320F8BDD3F82421002AD6D173
:106D7000D3F86021002AF7D0D1E70122DA61226935
:106D8000D2F84831002BFBD00023C2F84831D8E7B5
:106D900070B5036990F8B02000214177C3F88825C9
:106DA000036901261E62036900F168050446C3F801
:106DB0004455284604F0C0FF2369C3F848052369F9
:106DC0009E60236902E0D3F824211AB9D3F8502138
:106DD000002AF8D00022C3F85021284604F0ACFF66
:106DE000236918BB0022C3F86021236901225A617C
:106DF0002269D2F80431002BFBD00021C2F8041123
:106E00002369D3F8240160B1C3F824112369D3F8AE
:106E1000C404C3F8C404022803D0042814BF042007
:106E2000032070BDD3F82421002ADBD1D3F86021E0
:106E3000002AF7D0D6E700BF70B5294C6369D3F8B4
:106E40006421002A3AD1D3F86821E2B9D3F80421A9
:106E500062B1227F0021C3F804113AB1D4F8B820FE
:106E6000D3F83C0520660AB190476369D3F8242122
:106E700042B10022C3F82421D3F8D024C3F8D0248F
:106E800001225A6170BD0022C3F86821154822779B
:106E90000123637704F03EFFD4F8B43003B1984780
:106EA00063691048C3F844050023637704F044FF86
:106EB00063690122C3F848055A63C7E7002204F159
:106EC0002006C3F8642101253046257704F022FF0F
:106ED00063694022C3F83465C3F838251D63B2E7FF
:106EE000D46400203C65002038B50E4C0E4A204684
:106EF0004FF47A7340F8202B0025C4E9015304F0C5
:106F0000F1FE04F1680004F0EDFE084A084B6577D5
:106F1000D2E91612032020766176A276C4E9043302
:106F200038BD00BFD464002028CA030060CD030030
:106F300000300040704700BF10B50446006C044BA1
:106F4000236010B103685B689847204610BD00BFFE
:106F500070CA0300704700BF704700BF704700BF92
:106F600010B50446006C054B236010B103685B68E4
:106F70009847204609F0B0FD204610BD70CA0300B6
:106F800010B5044609F0A8FD204610BD10B5044612
:106F900009F0A2FD204610BD10B5044609F09CFD85
:106FA000204610BD38B5282205460846002112F0BB
:106FB00036FE0B2209490A4C13F01DFD0121002267
:106FC000C160C2720346AD68064807491D610425C9
:106FD0005A625D61DC619861196238BD44CA030080
:106FE000D7A30BC2D7A30B426422A03870B52822C6
:106FF00006460846002112F012FE0B2209490A4DEE
:107000000A4C13F0F8FC002201210346C272C16051
:10701000B0681861064859615A62DD619C61186266
:1070200070BD00BF5CCA03000AE81CC30AE81C4329
:1070300023DB793D38B5282205460846002112F0A9
:10704000EEFD0B220A490B4C13F0D5FC0121002266
:10705000C160C2720346A968074819610D254FF047
:107060007E515A625D61DC619861196238BD00BF72
:1070700050CA0300000020C20000AA422DE9F041DE
:107080008CB01027002501260446D0E90E122B46AD
:1070900006A80396CDE9016500970BF081FB042358
:1070A0001A4606A90DEB07000BF056FC0DEB070086
:1070B00004210BF0DBFCD4E90E122B46CDE902567D
:1070C000CDE9007606A80BF06BFB02231A4606A951
:1070D0000DEB07000BF040FC02210DEB07000BF05D
:1070E000C5FC4FF01108142007F068F9D4E90E121E
:1070F0002B460396CDE9016506A8CDF800800BF07C
:107100004FFB04231A4606A90DEB07000BF024FCE5
:107110000DEB070004210BF0A9FCD4E90E122B465D
:10712000CDF80080CDE90256019606A80BF038FB99
:107130002B46042206A90DEB07000BF00DFC0C21D9
:107140000DEB07000BF092FC142007F037F90A2032
:1071500007F034F9384609F0AFFC03461049C46023
:107160004FF4DA62206419609A60384609F0A4FC92
:1071700003460C49606440F2D162DC6019609A6099
:10718000384609F099FC0849C460034640F2D262CF
:10719000A064284619609A600CB0BDE8F08100BF79
:1071A000A4CA0300C0CA030088CA03002DE9F04343
:1071B0004FF0200C97B0002501260E270446D0E999
:1071C0000E122B46CDE900C70AA8CDE902560BF0F6
:1071D000E7FA3A4606A90AA80BF070FB9DF81930A9
:1071E0009DF8180040EA032000B2608112F0C0F858
:1071F0000022754B12F026F90022744B11F06CFF3F
:1072000012F0E2FB9DF81BE09DF81AC09DF81C30BF
:107210009DF81D9060614CEA0E2CA4F80CC09DF8FE
:1072200023E09DF81E209DF825C09DF81F109DF8B5
:1072300021809DF820709DF8220043EA09299DF8DD
:107240002430A4F80E9040EA0E2042EA012143EADD
:107250000C2347EA08274FF0110CE26B2182A16B47
:107260000396E0802381A7802B46CDF800C010A8AC
:10727000CDE901650BF094FA2B4610A9042204A86D
:107280000BF06AFB04A80BF06FFBC0B2B04277D0E2
:107290000C2870D19FED4E6AB4F90C30DFED4D5AD9
:1072A00006EE903AB4F90E3007EE103AB4F9103009
:1072B00007EE903AF8EEE66AB8EEC77AF8EEE77AAB
:1072C00066EEA56A27EE257A67EEA57A66EE866AEF
:1072D00027EE067A67EE867A012000231025D4E98E
:1072E0000E12C4ED096A84ED0A7AC4ED0B7ACDE979
:1072F00001030390009510A80BF052FA022310A985
:107300001A460DEB05000BF027FB0DEB05000BF00B
:107310002BFBC0B2012839D0032834D0022838D141
:107320009FED2D6AB4F90430DFED2C5A06EE903A49
:10733000B4F9063007EE103AB4F9083007EE903A87
:10734000F8EEE66AB8EEC77AF8EEE77A66EEA56A76
:1073500027EE257A67EEA57A66EE866A27EE067A2C
:1073600067EE867AC4ED066A84ED077AC4ED087A82
:1073700017B0BDE8F083082814D19FED196A8BE798
:107380009FED186A88E79FED186ACBE79FED176AB3
:10739000C8E79FED176A0028F7EE007A18BFB0EE35
:1073A000676ABFE7042802D19FED126A74E710B93B
:1073B0009FED116A70E7DFED117A0228B7EE006ADF
:1073C00008BFB0EE676A67E70000703F0000394011
:1073D00000008C42A968923723DBF93D13AC203CB6
:1073E00000000C4200000C4323DB793E23DBF93E16
:1073F00023DB793D00008C4100000C4100008C40F3
:107400002DE9F043C468964A23689B68934297B07D
:1074100006460D4640F005814FF0200C00274FF046
:1074200001084FF00E09D4E90E123B46CDE900C920
:107430000AA8CDE902780BF0B3F94A4606A90AA8D2
:107440000BF03CFA9DF819309DF8180040EA032033
:1074500000B2608111F08CFF0022824B11F0F2FF2C
:107460000022814B11F038FE12F0AEFA9DF81B207D
:107470009DF81A30606143EA0223A3819DF81D0044
:107480009DF81C3043EA0023E3819DF81F009DF81E
:107490001E3043EA002323829DF821009DF820300E
:1074A00043EA0023A3809DF823009DF8223043EA9D
:1074B0000023E3809DF825009DF824304FF0110C47
:1074C00043EA0023D4E90E12238110A8CDF800C0AE
:1074D0003B46CDE90278CDF804800BF061F93B46DC
:1074E00010A9042204A80BF037FA04A80BF03CFA08
:1074F000C0B2404500F08C800C2840F084809FEDA5
:107500005B6AB4F90C30DFED5A5A06EE903AB4F9E2
:107510000E3007EE103AB4F9103007EE903AF8EE5C
:10752000E66AB8EEC77AF8EEE77A66EEA56A27EE65
:10753000257A67EEA57A66EE866A27EE067A67EE0A
:10754000867A012000231027D4E90E12C4ED096ABF
:1075500084ED0A7AC4ED0B7ACDE90103039000971C
:1075600010A80BF01DF9022310A91A460DEB070015
:107570000BF0F2F90DEB07000BF0F6F9C0B20128A1
:107580004CD0032847D002284ED19FED3A6AB4F977
:107590000430DFED395A06EE903AB4F9063007EEC2
:1075A000103AB4F9083007EE903AF8EEE66AB8EE11
:1075B000C77AF8EEE77A66EEA56A27EE257A67EED7
:1075C000A57A66EE866A27EE067A67EE867AC4EDBD
:1075D000066A84ED077AC4ED087AF46806F0E2FEE4
:1075E000202206460021281D12F019FB24232B60BF
:1075F000A38E6B600D232E61AB6063696B6101200C
:1076000017B0BDE8F083082817D19FED1C6A78E712
:107610009FED1B6A75E79FED1B6AB8E79FED1A6A3D
:10762000B5E720469847D8E79FED186A0028F7EE9F
:10763000007A18BFB0EE676AA9E7042802D19FED6F
:10764000146A5EE710B99FED136A5AE7DFED127A0C
:107650000228B7EE006A08BFB0EE676A51E700BFC4
:10766000AD7102000000703F0000394000008C4204
:10767000A968923723DBF93D13AC203C00000C4293
:1076800000000C4323DB793E23DBF93E23DB793D0D
:1076900000008C4100000C4100008C402DE9F043BB
:1076A000C468974A23689B68934297B006460D4684
:1076B00040F008814FF0200C00274FF001084FF0F8
:1076C0000E09D4E90E123B46CDE900C90AA8CDE95E
:1076D00002780BF065F84A4606A90AA80BF0EEF806
:1076E0009DF819309DF8180040EA032000B260812F
:1076F00011F03EFE0022834B11F0A4FE0022824BCB
:1077000011F0EAFC12F060F99DF81B209DF81A3088
:10771000606143EA0223A3819DF81D009DF81C309F
:1077200043EA0023E3819DF81F009DF81E3043EAE1
:10773000002323829DF821009DF8203043EA002396
:10774000A3809DF823009DF8223043EA0023E380C4
:107750009DF825009DF824304FF0110C43EA0023DA
:10776000D4E90E12238110A8CDF800C03B46CDE924
:107770000278CDF804800BF013F83B4610A90422E0
:1077800004A80BF0E9F804A80BF0EEF8C0B24045ED
:1077900000F08F800C2840F087809FED5C6AB4F980
:1077A0000C30DFED5B5A06EE903AB4F90E3007EE7E
:1077B000103AB4F9103007EE903AF8EEE66AB8EEF7
:1077C000C77AF8EEE77A66EEA56A27EE257A67EEC5
:1077D000A57A66EE866A27EE067A67EE867A01203B
:1077E00000231027D4E90E12C4ED096A84ED0A7A49
:1077F000C4ED0B7ACDE901030390009710A80AF0BD
:10780000CFFF022310A91A460DEB07000BF0A4F8D6
:107810000DEB07000BF0A8F8C0B201284FD00328E9
:107820004AD0022851D19FED3B6AB4F90430DFED14
:107830003A5A06EE903AB4F9063007EE103AB4F927
:10784000083007EE903AF8EEE66AB8EEC77AF8EE3E
:10785000E77A66EEA56A27EE257A67EEA57A66EEE8
:10786000866A27EE067A67EE867AC4ED066A84EDAC
:10787000077AC4ED087AF46806F094FD20220646E3
:107880000021281D12F0CBF901202860638E6B6067
:1078900004232E61AB60636A6B61A36AAB61E36A28
:1078A000EB6117B0BDE8F083082817D19FED1B6A84
:1078B00075E79FED1B6A72E79FED1A6AB5E79FEDCA
:1078C0001A6AB2E720469847D5E79FED186A002864
:1078D000F7EE007A18BFB0EE676AA6E7042802D177
:1078E0009FED136A5BE710B99FED126A57E7DFED72
:1078F000127A0228B7EE006A08BFB0EE676A4EE758
:10790000AD7102000000703F0000394000008C4261
:10791000A968923723DBF93D13AC203C00000C42F0
:1079200000000C4323DB793E23DBF93E23DB793D6A
:1079300000008C4100000C4100008C402DE9F04318
:10794000C468974A23689B68934297B006460D46E1
:1079500040F007814FF0200C00274FF001084FF056
:107960000E09D4E90E123B46CDE900C90AA8CDE9BB
:1079700002780AF015FF4A4606A90AA80AF09EFFF7
:107980009DF819309DF8180040EA032000B260818C
:1079900011F0EEFC0022834B11F054FD0022824BCB
:1079A00011F09AFB12F010F89DF81B209DF81A3088
:1079B000606143EA0223A3819DF81D009DF81C30FD
:1079C00043EA0023E3819DF81F009DF81E3043EA3F
:1079D000002323829DF821009DF8203043EA0023F4
:1079E000A3809DF823009DF8223043EA0023E38022
:1079F0009DF825009DF824304FF0110C43EA002338
:107A0000D4E90E12238110A8CDF800C03B46CDE981
:107A10000278CDF804800AF0C3FE3B4610A9042288
:107A200004A80AF099FF04A80AF09EFFC0B24045DE
:107A300000F08E800C2840F086809FED5C6AB4F9DF
:107A40000C30DFED5B5A06EE903AB4F90E3007EEDB
:107A5000103AB4F9103007EE903AF8EEE66AB8EE54
:107A6000C77AF8EEE77A66EEA56A27EE257A67EE22
:107A7000A57A66EE866A27EE067A67EE867A012098
:107A800000231027D4E90E12C4ED096A84ED0A7AA6
:107A9000C4ED0B7ACDE901030390009710A80AF01A
:107AA0007FFE022310A91A460DEB07000AF054FFCF
:107AB0000DEB07000AF058FFC0B201284ED0032892
:107AC00049D0022850D19FED3B6AB4F90430DFED74
:107AD0003A5A06EE903AB4F9063007EE103AB4F985
:107AE000083007EE903AF8EEE66AB8EEC77AF8EE9C
:107AF000E77A66EEA56A27EE257A67EEA57A66EE46
:107B0000866A27EE067A67EE867AC4ED066A84ED09
:107B1000077AC4ED087AF46806F044FC2022064691
:107B20000021281D12F07BF801202860238E6B6055
:107B30002E61A860A3696B61E369AB61236AEB61A5
:107B400017B0BDE8F083082817D19FED1C6A76E7CF
:107B50009FED1B6A73E79FED1B6AB6E79FED1A6AFC
:107B6000B3E720469847D6E79FED186A0028F7EE5E
:107B7000007A18BFB0EE676AA7E7042802D19FED2C
:107B8000146A5CE710B99FED136A58E7DFED127ACB
:107B90000228B7EE006A08BFB0EE676A4FE700BF81
:107BA000AD7102000000703F0000394000008C42BF
:107BB000A968923723DBF93D13AC203C00000C424E
:107BC00000000C4323DB793E23DBF93E23DB793DC8
:107BD00000008C4100000C4100008C40044A02600F
:107BE0000022C0E90E22C0E910228264704700BF63
:107BF00070CA030030B58BB0002301240F25D0E9F3
:107C00000E12CDE9014304A8039400950AF0C8FDC3
:107C100004A80AF0D9FDC0B20BB030BD2DE9F04187
:107C20000446806B0E461746984608B108F054FF8C
:107C3000102008F041FF314605463A460BF024F883
:107C4000A563284601210BF029F808B9BDE8F081A9
:107C5000236841462046DB68BDE8F041184700BF75
:107C600070B58CB0012400251226D0E90E122B46E7
:107C700006A80394CDE9014500960AF091FD06A9F6
:107C80002B46224604A80AF067FE214604A80AF003
:107C9000EDFE02E0012006F091FB04A80AF064FE6C
:107CA0000028F7D10CB070BD10B5034B036004463B
:107CB000FFF742F9204610BDDCCA030010B5054BA2
:107CC00003600446FFF738F9204608F005FF204618
:107CD00010BD00BFDCCA030010B50446FFF77EFFED
:107CE000014B2360204610BDDCCA030038B50D46A9
:107CF0000446FFF77FFF692801D0002038BDABB2F2
:107D0000591C9A1C23866186A2862046FFF7A8FF8D
:107D10002046FFF76FFF6928EFD129462046FFF77D
:107D2000ADF9012038BD00BF70B50446C3F3810032
:107D3000C3F38116FF2B0D466074C3F3011103F0EA
:107D40000300A0748CBF002301238E4214BF0420C3
:107D5000032015FB00F080B223700023E674217429
:107D6000A0806370237263610121164611F0AEFE9C
:107D7000E06020B9C4F80200E680204670BD65804E
:107D8000E680204670BD00BF10B50446C06811F003
:107D90000BFFB4F90600002802DB002109F074FB98
:107DA000204610BD10B50446B0F90600002807DBD8
:107DB000012109F069FB0021B4F9060009F0A4FBD8
:107DC0000123637010BD00BFC368002B00F02C813D
:107DD0002DE9F04F93B047690190A84DA84EA94CEA
:107DE000804620E063689B09BB4209D2EB68DA0158
:107DF00027D52368DB0724D563689B09C8F81430AE
:107E0000EB68DF0102D52368D80722D407F058FDBC
:107E1000A0FB0601830AD8F8147043EA8153DB1BE8
:107E2000B3F5967F1DD2EB68D80102D52368D90738
:107E3000D8D407F045FDA0FB0601830A43EA81532D
:107E4000D2E707F03DFDA0FB0601830A43EA815318
:107E5000D4E76368D8F814709B09DB1BB3F5967FF1
:107E6000E1D3019A884B94880FCB12AD05E90F003E
:107E7000DDF838A0DAF8003543B9DAF86035002BC0
:107E800004DADAF86435002BC0F2CF80DDF83CA0CC
:107E9000DAF8003543B9DAF86035002B04DADAF89D
:107EA0006435002BC0F2C881DDF840A0DAF8003557
:107EB00043B9DAF86035002B04DADAF86435002BC0
:107EC000C0F2C581DDF844A0DAF8003543B9DAF82C
:107ED0006035002B04DADAF86435002BC0F2C28179
:107EE00008F0C6FB019A694BB2F9062053F822301C
:107EF0001F2B73D8012202FA03FB4FF0A0465F4903
:107F0000019ACB685F4C1078614A43F08073CB6074
:107F10002368002843F0010323600CBF4FF4C363C0
:107F20004FF43073039342F001030BBF4FF01A0874
:107F30004FF01208462729270CBF9C25472504939C
:107F4000019BB3F804A0D3F80CE063680293BAF184
:107F5000000F49D00AF1FF391FFA89F909F1010927
:107F6000F14400221EF801CB0820802163689B1A8F
:107F7000AB42FBD36268D6F808351CEA010F43EA2E
:107F80000B03C6F8083520D063689B1ABB42FBD3AD
:107F9000D6F80C35013843EA0B034FEA5101C6F815
:107FA0000C35E3D1CE45DDD1039B03FB0AFA6368B0
:107FB0009B1AAB42FBD36368029A9B1A534515D3B5
:107FC0004FF49640049B9847BAE763689B1A434571
:107FD000DED263689B1A4345F7D3D9E7203B0122E1
:107FE00002FA03FB2B4E8AE75246E0E708F04AFB11
:107FF000224BDB68D9010AD5224B1A68D20706D575
:108000005B68019A9B09536113B0BDE8F08F07F0DC
:1080100057FC1B4B019AA0FB0301830A43EA8153DF
:10802000536113B0BDE8F08F7047DAF86835002B64
:10803000BFF62CAFDAF86C35002BBFF627AF240162
:10804000231D029307F0BAFF012800F0688102980F
:1080500006F0CEF98346BBF1000F3FF441AF019A21
:10806000938811780391002B00F06181D368049309
:1080700008250023CDF834A05DE000BFF0ED00E05E
:1080800040420F00001000E0ECCA030060CD030086
:1080900000CB03000003005048F2130848F208091F
:1080A00012F0800F14BF47464F4612F0400F14BF26
:1080B00046464E4612F0200F14BFC446CC4612F07E
:1080C000100F2BF811700C462BF810600899099EC0
:1080D000079F2BF811C014BFC646CE4612F0080FFA
:1080E00014BF44464C4612F0040F2BF816E018BF9C
:1080F00040462BF8174008BF4846059E0A9C2BF8BF
:10810000160012F0020F14BF414649462BF8141016
:1081100012F0010F0B990CBF4A4642462BF8112072
:10812000019A013391889BB205F10802994292B2FB
:1081300040F2A3801546A91FEE1E6A1EA5F1050C8C
:1081400089B2B6B292B2AC1EA4B2089105961FFADB
:108150008CF10B92AE1EDA0092B22F1F09910A9495
:10816000B1B26C1EBFB20C911FFA84FA114606928E
:10817000039C049A0797E646E81FA5F10709A5F1B5
:108180000608A5F1040CEF1E80B21FFA89F91FFA48
:1081900088F81FFA8EFE1FFA8CFCBFB2D25C002C4E
:1081A0003FF47AAF48F2060148F20D0412F0800F56
:1081B0000CBF0846204612F0400F0CBF0E46264664
:1081C00012F0200F08BF0C46059412F0100F48F271
:1081D0000D0418BF21460791069912F0080F2BF8DD
:1081E000110048F206010CBF0846204612F0040FA9
:1081F0002BF81960894618BF2146BDF814402BF8AA
:10820000184012F0020FC84648F20D090CBF444650
:108210004C4612F0010F4A4608BF4246BDF81C808A
:108220002BF81E802BF81C002BF817100C992BF83C
:1082300011402BF81A2073E7DAF86835002BBFF6E7
:1082400033AEDAF86C35002BBFF62EAEF7E6DAF86F
:108250006835002BBFF636AEDAF86C35002BBFF66A
:1082600031AEECE6DAF86835002BBFF639AEDAF855
:108270006C35002BBFF634AEE1E66A1C92B2DDF835
:1082800034A052000BEB45034FF400401880039BD1
:108290002BF802000021CAF80415CAF80C15D3BB4C
:1082A0002823CAF80835029B0199224AB1F9061021
:1082B00058080023CAF81435CAF81035CAF820B592
:1082C000CAF82405CAF82835CAF82C3552F82120F6
:1082D000CAF860250122CAF80025CAF81031CAF888
:1082E0000820DAF810312BB908F0F2FDDAF8103175
:1082F000002BF9D000234FF0FF32CAF81031CAF832
:108300000035CAF8602507F059FE012858460BD001
:1083100006F080F86CE61423CAF80835C3E7029823
:1083200011F03AFC834696E611F03EFC60E65B46AF
:108330000222A9E760CD030070B4037A4E1CF6B2A6
:10834000B3421AD0013B13F0FF03C56817D0FF29D1
:1083500017D03102013991FBF3F189B283885BB107
:108360002A46137801FB03F31B1202F8013B531B4F
:1083700084889BB29C42F4D8067270BC7047194640
:10838000ECE74FF6FF7191FBF3F1E7E772DF70471F
:1083900073DF704777DF704770B5054608460C46B7
:1083A00001F0A0F9102808D0802812D1636883B1A9
:1083B000EA7F0D2A0FDD002070BDEB7F22881B2B8A
:1083C000F9DCE9180320E85448704A80EB7F043355
:1083D000EB77012070BDA9181120A85407224A701C
:1083E00098681E685C68DB68C1F80E30C1F80A0046
:1083F000C1F80260C1F80640EB7F1233EB77012031
:10840000DAE700BF0022C2770270704700B508317A
:10841000024603C983B06B4683E803001946104641
:10842000FFF7BAFF03B05DF804FB00BFF0B589B0F9
:10843000054620226946134801F084FDEB7FC218EF
:108440001D2A0ADDC3F11D04E4B2E2181D2A4FF013
:10845000000615DD304609B0F0BD044601260927A7
:10846000EA18601CE85469465770901C224611F0C7
:10847000B2FBEB7F02331C443046EC7709B0F0BD11
:108480000827EDE7A865002010B50446094801F06B
:10849000BBFDE37F1C2B0ADCE2180221E1540A2316
:1084A00090705370E37F0333E377012010BD002009
:1084B00010BD00BFA8650020C27F1C2A0DDC10B4CF
:1084C00003469C18022098540120A1706070DA7F46
:1084D0000332DA775DF8044B70470020704700BF25
:1084E00030B440F2FF12094C0949028401250022F0
:1084F00080F82250C0E90A41C277027080F8232038
:108500004262C0E90C22826330BC70472000F40054
:1085100020001E00C1857047428501858185704716
:1085200080F82210704700BFF0B502EB8203264EA0
:1085300087B003EB83030F469B001546316800228A
:10854000CDE90272ADF80C3090F8213000928DF830
:108550000030CB0704460192CDE9042209D41B4A1E
:108560001B4BD17FC07F998101211C609A6098804C
:1085700031606A46164904F12000FFF707FF10B189
:10858000002007B0F0BD134894F8206001F03CFDD6
:10859000314602460120FFF7FDFE0028F0D10121FF
:1085A00094F82000FFF7F4FE0028E9D1094801F013
:1085B00081FD638EA7859D4294BF5B1BDB1A012062
:1085C000638684F82300DCE790650020E4670020E0
:1085D00094650020A8650020F0B52C4D4186044626
:1085E00087B001862846FA2101F012FDE68D284960
:1085F000278D0868029706EB860303EB83030022AE
:108600009B000392ADF80C3094F8213000928DF865
:108610000030C3070192CDE904220BD41D4BE27F49
:1086200095F85B029A8005F50F7501221C609D602C
:1086300098810A606A46174904F12000FFF7A6FEF8
:1086400010B1002007B0F0BD104894F8205001F0A0
:10865000DBFC294602460120FFF79CFE0028F0D1F2
:10866000012194F82000FFF793FE0028E9D1074884
:1086700001F020FD638EA7859E4294BF9B1BDB1AF1
:108680000120638684F82300DCE700BFA865002092
:10869000906500209465002030B50B888D88112BE3
:1086A00085B004462CD0262B0FD0102B01D005B05E
:1086B00030BDCB7B012BFAD1426A03FA05F5154395
:1086C0000023456280F82330F1E70B7A012BEED1CD
:1086D000002380F823304FF4FA71274801F098FC0A
:1086E000238E002B30D0658E002D36D0A36B0BB1BE
:1086F0009847658E618D2A462046FFF715FFD6E71D
:10870000436AEB40DB07D2D51C4800F06DFF002820
:10871000CDD1636A94F82310012202FA05F523EA09
:10872000050363620029C2D194F82230002BBED029
:10873000238E6386FA21104801F06AFCE28D218DB8
:108740002046FFF7F1FEB2E7A36B03B19847002282
:10875000618D2046FFF7E8FEA9E7074801F0BEFC5F
:10876000626B002AA3D004AB0095294643F8045D50
:10877000284608F097FC9AE7A86500205868002072
:10878000AADF7047ABDF7047ACDF7047ADDF7047E3
:10879000AEDF7047B0DF7047704700BF10B50446CA
:1087A00008F09AF9204610BD70B55E4B04461B6870
:1087B0000361061D96B0304600F0A2FF94F8263003
:1087C00013F0320208BF84F8272013F00C0208BF10
:1087D00084F8282013F0300358D10FAD0F93C5E96A
:1087E0000133C5E9033394F8262094F82700AB61E0
:1087F0008DF83C2001224FF0000162F34201A26992
:1088000014930023ADF808308DF80A108DF8080095
:108810000AB1137873BBA37F13B104F11E03129343
:1088200094F82930E289059613F0010F4FF0000308
:108830000CBF10461846CDF81E302946ADF81C0076
:10884000ADF8223018466569ADF8202004F12A03FE
:1088500004F1270605AA06960995FFF791FF03463E
:1088600028B9627F72BB257B002D53D000231846A8
:1088700016B070BD1046109212F0B5F802AB80B27F
:10888000ADF84400ADF846001393C4E700231A4640
:10889000012060F3420224498DF806200FAD0978CB
:1088A00094F8270094F826200F938DF80410C5E95A
:1088B0000133C5E90333AB618DF805008DF83C2029
:1088C00001AB97E71849ADF80C00024601250223D9
:1088D0004E6894F82710049665F3420203AD8DF8B4
:1088E0000E200B958DF80C100DEB030204AE04F175
:1088F0001C050AA9CDF83200ADF83030ADF834309F
:10890000ADF836000A960E95FFF73CFF03460028A7
:10891000A9D0ACE72146054800F026FE2B461846B4
:1089200016B070BDA465002008CB0300A865002028
:108930002DE9F0410B888E88502B8AB00C460546F5
:1089400009D0512B04D18B79012B42D0022B17D0A7
:108950000AB0BDE8F081CB88428D9A4226D0EA8DDC
:108960009A42F5D1EB6C002BF2D095F83C20648A4A
:10897000920700F19D802246294630469847E7E756
:10898000A27B042A5DD0062A32D0012AE0D16B6C8A
:10899000002BDDD095F83C20170704F1080400F106
:1089A000CA802246294630469847D1E7876C002F77
:1089B000D5D090F83C30B1F810C001F11208D907B9
:1089C00000F195806346424629463046B847E38821
:1089D000C5E7036C002BBBD090F83C20520701F197
:1089E000080775D43A46294630469847A379ADE73B
:1089F0006A6B002AACD0002202A93046CDE90222DF
:108A0000CDE904228DF80830FFF7C4FEAC6C64B1E8
:108A100095F83C306F6BB5F83AC0D80700F19E80EE
:108A200063463A4630462946A0476C6B07F0C6FAC3
:108A3000012820467CD005F0EDFC0023C5E90D336C
:108A400086E7686B002865D0218A628A2F8F002311
:108A500001EB020CCDE90633CDE90833BC454FF0FC
:108A600002038DF8183008DD40F20913ADF81C3010
:108A700006A93046FFF78EFE6AE79DF81E30ADF876
:108A8000201004F1140743F0010308443946ADF8FF
:108A900022208DF81E30099711F09DF8638A228AF2
:108AA000698F1A4493B28B4238BF0B466B87DFE75E
:108AB000032000211A46009006AB0846CDE9066562
:108AC000089408F0EFFA00287FF442AFEB6C52E70D
:108AD00003211A46009106AB08213846CDE9066508
:108AE000089708F0DFFA002880D12B6C7AE704237E
:108AF00000933A46614606AB4046CDE90665CDE9AE
:108B0000088C08F0CFFA00287FF461AFAF6CB4F89E
:108B100010C057E74FF480672F8707F04FFA0128FE
:108B2000384618D005F064FC002368636B878BE738
:108B300011F03AF881E703211A46009106AB0E21A5
:108B40002046CDE90665089408F0ACFA00287FF4C9
:108B5000FFAE6B6C25E711F01FF8E5E704230093E7
:108B600022463846614606ABCDE906650897CDF842
:108B700024C008F097FA00287FF457AFAC6C6F6BF5
:108B8000B5F83AC04CE700BF70B483B06D4685E8D5
:108B900006000446194944F8041B034695E80300FF
:108BA000174E84E80500317883F82810012214203C
:108BB0004FF0010562F34205D8810022184683F880
:108BC000295083F8271083F83C201A731A619A61A0
:108BD0009A83C3F81E20C3F8222083F826205A6106
:108BE0005A859A851A86DA85C3E90D22C3E91022CF
:108BF000C3E9122203B070BC704700BF18CB03005A
:108C000008CB03000069704701230373704700BF5E
:108C100080F82610704700BFC181704739B990F8BD
:108C20002930012262F3000380F82930704790F860
:108C30002930C181002262F3000380F82930704797
:108C400080F8271080F82820704700BF90F83C304B
:108C5000816462F3000380F83C30704730B490F8D0
:108C60003C3090F8294041640D1C18BF012565F384
:108C7000041462F3C30380F8294080F83C3030BC10
:108C8000704700BF8161704751F82A2F02604A681F
:108C90004260704730B5C48985B0022C28BF0224D9
:108CA000ADF806100023418DADF808400DF1060522
:108CB00002AA4FF6FF70ADF80A300395FFF764FD86
:108CC00018B9BDF8080005B030BD184605B030BD74
:108CD00090F8263013F0100301D11846704730B5D4
:108CE000044685B011480D4601F0B4F910B1E18D8C
:108CF00011B9084605B030BD2846002302AA022556
:108D00000DF10604ADF80A30ADF808500394FFF7F2
:108D10003DFD43F20142904205D008B99DF806009E
:108D200000F00100E6E71846E4E700BFA865002070
:108D30002DE9F04F0F4690F82610C90689B06CD582
:108D400016464FF6FF729742054600F08380C289AF
:108D50009A4228BF1A4693463946494801F07AF9A3
:108D6000044600285ED0E98D00295BD000200DF17B
:108D7000100842464FF0020CADF812000DF10E0340
:108D80003846ADF810C00593FFF700FD43F20142ED
:108D9000904270D008B9BDF80E0000F00100002824
:108DA00069D03946364801F06DF98246A8B300F023
:108DB000D5F8033883B2BBF1000F2FD001944FF0E8
:108DC00000095C469B4606E0BDF80E30E41AA4B2EA
:108DD0001E44002C51D0504600F0F8F8A3455B46E5
:108DE000414628BF2346C0B1ADF80E304FF0010315
:108DF0006A8DCDF8129038468DF812300DF10E03C1
:108E0000ADF81690CDE90636ADF81020FFF7C0FC9E
:108E10000028D9D0504600F0E3F80024204609B0DD
:108E2000BDE8F08FEA890DF110085A4513464FF05E
:108E3000000428BF5B464246698DADF810304FF6FE
:108E4000FF700596ADF81240FFF79EFC204609B072
:108E5000BDE8F08F0A48019301F008F9019BEA8907
:108E600095F82610934228BF13469B46CB0607462B
:108E70003FF572AFD7E7EA89D7E7019CCEE700BF9D
:108E8000A865002076DF70477FDF704786DF704778
:108E90008FDF704790DF7047B1DF7047B5DF7047F5
:108EA00010B5074B03600446C06906F091F9206ACB
:108EB00006F08EF9606A08B106F08AF9204610BD06
:108EC00030CB030010B5094B03600446C06906F0BF
:108ED0007FF9206A06F07CF9606A08B106F078F93B
:108EE000204607F0F9FD204610BD00BF30CB03003F
:108EF000F8B50446818000250121144F21741726FE
:108F00001B2021732760E680608125811068C4F8EA
:108F10001300908896796676A4F81700D279627368
:108F2000194618469DF8186005F0F4FA3146E061DC
:108F3000304605F0EFFAC4E90A554FF6FF73206298
:108F400065746562A574E3812046F8BD30CB0300EB
:108F5000007C7047407C7047407B7047C0887047FA
:108F60000089704751F8132F026010B48C888A79F9
:108F7000848082715DF8044B704700BF2DE9F04199
:108F800086B004AC868890460F4620464FF42851A0
:108F900000F09CFBCDE900784FF6FF75012094E8C6
:108FA0000C003146CDE90205024800F08FF906B009
:108FB000BDE8F081A865002008B513218088FFF77F
:108FC00061FFB0FA80F0400908BD00BF08B5662116
:108FD000C06905F051FF003018BF012008BD00BF77
:108FE00008B500231A461946C06905F0C5FA0030D5
:108FF00018BF012008BD00BFC2898188407B01F0F5
:1090000099BE00BF03460A46407BD98901F0ACBE39
:1090100070B50B88113B96B00C460546462B78D8A8
:10902000DFE813F08500880047008B0077007700A9
:1090300077007700A200B100770077007700770013
:1090400077007700BD00C500CB00D1007700770026
:109050007700770077007700770077007700770058
:109060007700770077007700770077007700770048
:10907000770077007700D4007700D700770077007B
:109080007700770077007700770077007700770028
:109090007700770077007700770077007700770018
:1090A000770077007700E700EE007700F4007900A2
:1090B000020106F083FF01284FF0500000F0DF802E
:1090C00005F096F9E86220B35022002110F0A7FDC8
:1090D0004FF6FF737049EB816C7BEB6A0868097986
:1090E00002936A46012C11714FF0000403F11C0138
:1090F00003F13803009006910793A888059418BFE0
:109100002246214602ABCDE90344CDE90844FFF7EE
:10911000BBFE16B070BD8B79002BFAD1406AAB74E0
:109120000028F6D01A46194605F026FAF1E7002382
:109130000374EEE74B890381EBE75022002102A87C
:1091400010F06DFD02AA218A687B01F00DFE034636
:1091500000287AD0002302A910AAA888FFF796FE5B
:10916000BDF81A30EB81D4E70B7AC46A002B7BD0B0
:1091700006F024FF0128204600F0848005F04AF91B
:109180000023EB62C5E70B7A112B64D1A86A002893
:10919000BFD000231A46194605F0EEF9B9E716A923
:1091A000002321F8503D8088FFF772FEB1E70B7A6B
:1091B000002BAED14B7A0373ABE7002211468088B7
:1091C000FFF768FEA5E70B894381A2E74B89C380BF
:1091D0009FE78B7A002B9CD0002600231A46194665
:1091E000286A05F0C9F90136A37AF6B2B342F4D879
:1091F0008FE700231A4619468088FFF74DFE88E75F
:10920000406A0123AB740028C3D182E7417B234825
:1092100000F030FFE188814228BF014689B2E98031
:10922000A888FFF73BFE74E78B79002B3FF471AF02
:10923000002600231A461946E86905F09DF9013613
:10924000A379F6B2B342F4D863E7A8881A46194660
:10925000FFF71CFE5DE7C2898188407B01F0B4FD09
:1092600098B101236B7491E701234374638AC3812E
:1092700022468188407B01F04BFDEC6A78E710F0D4
:109280008BFC1FE710F090FC7AE70346024601468C
:10929000A888FFF701FEE4E7A7680020A865002082
:1092A000A0DF704738B50446F82500F5F87001F0E6
:1092B00093FC2A462046002110F0B1FC2A46601992
:1092C000002110F0ACFC204638BD00BF2DE9F04372
:1092D00085B00546BDF83800BDF83C40ADF80C003F
:1092E0006F461B48ADF80E4087E80C008846BDF875
:1092F000349000F0C7FE05F5F875064604E03046E8
:10930000FFF72EFE05F05AF8284601F0BBFC044694
:109310000028F4D10121284601F068FC4A460C9946
:10932000284601F07DFC3946404603AAFFF7B8FF06
:1093300038B94FF4FA71284601F078FC20EAE0745D
:10934000A4B2284601F05CFC204605B0BDE8F083DD
:10935000A86500202DE9F04F8F880E8885B08846DB
:10936000054639467F4800F08DFEA6F11003012B1B
:10937000814640F28B8095F854203AB3002404F1E2
:109380001603502E55F823A059D0512E1AD198F813
:109390000630B8F808B0022B43D0BBF1000F11D053
:1093A00051466846FFF770FCBDF800305B4549D078
:1093B000514602A8FFF768FCBDF80C305B4541D070
:1093C00095F854200134E4B29442D8D395F84C3146
:1093D000002B00F0C38005F5A679002404E095F881
:1093E0004C310134A34246DD59F8040F01F0CCFEA4
:1093F000B842F4D1382E03D0392E01D0362EEED11A
:10940000B8F80AA0BAF1000FE9D0D9F800B0584670
:1094100001F0BEFE5045E2D15846414601F0BAFE89
:10942000DDE798F80E30062BB7D1DAF80030504659
:10943000DB68414698474846FFF78CFDC0E7B8F81F
:1094400006B0AAE7DAF8003050464146DB68984794
:109450004846FFF77FFD0028B2D0502EB0D15146CC
:1094600002A8FFF711FCBDF80C305B45A8D14846B7
:10947000FFF7C2FDA4E7112E2AD0352E03D1B8F88C
:109480000A30002B5BD105B0BDE8F08F2B78002BA4
:109490003FF471AF112E4FF000040CD005EB8403A4
:1094A0003946586803685B68984701342B78E4B202
:1094B000A342F3D85FE705EB840339465868036895
:1094C0001B68984701342B78E4B2A342F3D852E7E3
:1094D000002473B105EB8406D6F8500101F054FE68
:1094E000B84204F101031FD095F84C21DCB2A2422E
:1094F000F0D895F8F8100029C5D0002405EB8403B6
:10950000621CD3F8FC008388BB4203D0D4B28C42E7
:10951000F4D3B8E703681B689847013495F8F8104E
:10952000E4B28C42EAD3AEE7D6F8500101F028FE4F
:10953000013495F84C31E4B2A342CBD8D9E705F514
:10954000F8752846B8F80C2008F1100101F09CFBD2
:10955000284605B0BDE8F04F01F0AEBB112E8CD10E
:10956000C7E700BFA865002090F85430272B0CD81F
:1095700010B4024603F11604013380F85430012080
:1095800042F824105DF8044B70470020704700BF7C
:109590000378132B06D800EB8302013303700120FC
:1095A000516070470020704775DF704778DF704763
:1095B0007ADF7047054A034692E80300002283E8F9
:1095C0000300C3E902221846704700BF38CB0300EE
:1095D00008B5FFF7EDFF08B1002008BDFFF7E6FF73
:1095E000B0FA80F0400908BDF8B500240B4F2546BD
:1095F000A1B2384600F046FD0134064648B1FFF7F7
:10960000A7FC30B13046FFF7A7FC012804BF0135A5
:10961000EDB2142CECD12846F8BD00BFA86500209F
:109620000A88102A03D1CA7B012A0B4600D0704752
:1096300010B40A8A01884488914201D8A24205D90F
:1096400001465DF8044B9888FFF7AEBF5DF8044B08
:10965000704700BFA8DF7047704700BF30B500F10A
:10966000080483B00546204600F04AF821460DF173
:1096700006020120FFF7EEFF044628B9044B054817
:109680001D602946FFF784FF204603B030BD00BFB0
:10969000A4650020A865002030B482B06C4684E840
:1096A00006000346064943F8081B054694E80300F4
:1096B000002183E805002846A98002B030BC70472D
:1096C00048CB030062DF704763DF7047012200234D
:1096D0000180827043607047002341608370038083
:1096E000704700BF8378012B08D042680AB1802000
:1096F0007047012B8CBF80200020704710207047DE
:1097000008B5837873B9436863B10246911C184663
:10971000FFF7D8FF10205168FFF7D6FFB0FA80F0AE
:10972000400908BD012008BD4DDF70474EDF70477E
:109730004FDF704750DF70474BDF704710DF7047D7
:109740007CDF70477DDF704760DF704769DF7047FF
:1097500061DF704766DF704767DF7047704700BFA3
:10976000042007F0EDBE00BF30B52C4C2C4D83B06B
:109770004FF0FF31D4F8080305F07EFB0028F7D046
:109780006DB301A8FFF7D8FF05280346F0D00028E5
:10979000F7D1019A911E10460929F2D80FF2040C54
:1097A0005CF821F00F9802000F98020083970200E6
:1097B0008397020083970200839702008397020039
:1097C000F9970200F9970200F99702000A2B04D0DA
:1097D000092B21D00B2B02D1012004F077FB01A82B
:1097E000FFF7AAFF0528C3D00028F8D1019BA3F1F9
:1097F0000902022AF3D8E9E70A2A04D0092A09D083
:109800000B2ABED10123184604F060FBB9E70FF024
:109810003BF9B6E70223F6E70220DEE7A865002061
:10982000898A03002DE9F04F89B006F0C7FB0128B3
:109830004FF4FA7000F0848104F0DAFD0646B34C70
:1098400006F1080304F5587704F5007A03934FF006
:10985000FF31D4F8040305F00FFB0028F7D04FF4D4
:10986000FA730DF116013046ADF81630FFF770FFB0
:1098700010B10528EBD0F2E7B6F80490B9F1130F58
:1098800000F2208104EB8903D3F814531DB1314653
:109890002846FFF7BDFB3388013B1B2B5BD8DFE875
:1098A00013F0A3005A005A005A005A005A005A00F6
:1098B0005A005A005A005A005A005A005A005A00D8
:1098C000A8001C005A005A005A005A005A005A00B8
:1098D0005A005A005A005A00FE00DFF844824FF046
:1098E000000B58F8043F184633B1FFF731FB18B1AD
:1098F0000BF1010B5FFA8BFB4745F2D1BBF1000F77
:1099000006D194F810331BB15946042007F0FCFD32
:109910002846FFF721FB012800F0F180D4F8CC2283
:1099200062B10223CDF81890002196F808C0009388
:10993000084606ABCDF81CC007F0B4FB09F1C4081B
:1099400004EB8803586810B103685B68984704EB20
:10995000880300225A6031465046FEF79DFE31468C
:109960006B4801F0C7FDB4F812334B45338800F063
:10997000AB80102B1ED02DB32846FFF7EDFA01283F
:1099800003D131466348FFF74BFE2846FFF7E4FA60
:1099900002281BD0604801F0F3FC00BB31465B4855
:1099A000FFF7D8FCD4F86833002B3FF458AF3046AB
:1099B000984754E7F37B012BDDD1B388A4F8123329
:1099C000002DD9D131465348FFF72AFE534831467E
:1099D00001F0B8FB504801F0D3FC0028DED031463E
:1099E0004D4801F0CFFCD9E700214846FFF7B2FE11
:1099F000B1E74FF00008D4F80C03CDF800804346DF
:109A000042460321464D06F0BBFD55F8043F18467B
:109A100033B1FFF79DFA18B108F101085FFA88F831
:109A2000BD42F2D194F81033002B58D109F1C4088B
:109A300004EB8805686820B103685B6898470023D9
:109A40006B60F37B012B0BBF94F8F33294F8F9327F
:109A500094F8F2B294F8F8B20293302007F02CF8A0
:109A6000029B0093039A5B4649460546FFF740FA7E
:109A700004EB880328465D60FFF76EFA012851D099
:109A8000D4F8C822002A3FF466AF012300210093D6
:109A9000084606ABCDF8189007F004FB5BE7D4F856
:109AA0006423002A3FF457AFCDF818900223002119
:109AB00096F908C00093084606ABCDF81CC007F025
:109AC000F1FA48E70546E6E6102B3FF473AF112B99
:109AD0007FF451AF4FF6FF73A4F812334BE718F140
:109AE000000118BF0121042007F00EFD94F8103387
:109AF000002B9BD00121042007F006FD96E7D4F847
:109B0000BC22002A7FF40DAF18E700BFA865002033
:109B100004680020586800207868002068680020E9
:109B2000B8680020D4F8B822002A3FF414AF00210E
:109B3000009006AB0846CDF8189007F0B3FA0AE794
:109B400010F02AF806467AE638B50446FFF7AAFB75
:109B500004F50070FEF7C4FC04F50F70FEF752FC2C
:109B600004F5177001F044FC04F52C70FFF722FD9A
:109B700004F5307001F0B6FA04F5347001F0E6FB3C
:109B80004FF480530025C4F8E83222482249234A82
:109B9000C4F8EC0240F20113C4F8F012C4F8F42245
:109BA000A4F8F832A4F8FA52A4F8FC52294604F5B5
:109BB0004570502210F033F8C4F8FF5294F8FF3289
:109BC00094F80223C4F80453032143F0010361F322
:109BD00006130A4301204FF6FF71C4F80853C4F876
:109BE0000C5384F8FE52C4F86853C4F8645384F8E4
:109BF000100307251020A4F81213032184F8010391
:109C000084F8FF3284F8005384F8022384F80313A5
:109C1000204638BD010A17000300010117000300A8
:109C2000F0B580F8FC128DB080F8FD22BA4E0446E3
:109C300006F0E6FF06F0ECFF06F0A4FF0CA833697F
:109C400040F8243DB549FFF779FD18B100252846B5
:109C50000DB0F0BD0120FFF769FD0120FFF764FDA5
:109C60000120FFF765FD09A8FFF764FD099B9B072D
:109C700006D5AB4BD3F8043513B9022004F026F90E
:109C80000023A84A94F8ED52049209A90120CDE9D5
:109C900009330B938DF82450FFF758FD0028D5D1D8
:109CA00094F8FD320B90CDE90900181C18BF012073
:109CB00094F8FC528DF82700049A8DF8263009A9F3
:109CC00040208DF82550FFF741FD0028BED194F8C3
:109CD000EC120990034661F30003CDE90A00049AEF
:109CE0008DF8243009A9A020FFF730FD0028ADD160
:109CF000D4F8E8320A900B90049A099309A9A1209C
:109D0000FFF724FD0028A1D194F8FC32002B40F08D
:109D1000B38094F8FD32002B48D000230225B4F81C
:109D2000F472049A099309A92320CDE90A338DF826
:109D30002450ADF82670FFF709FD002886D1CDE943
:109D4000090094F8FD72B4F8F6320B90049A8DF87D
:109D5000245009A920208DF82670ADF82830FFF78F
:109D6000F5FC00287FF472AF099094F8F832049A59
:109D70008DF82450CDE90A0009A922208DF826305B
:109D8000FFF7E4FC00287FF461AFCDE909000B90F8
:109D900094F8F932049A8DF8245009A921208DF8FD
:109DA0002630FFF7D3FC00287FF450AF04A8FFF75C
:109DB000CBFC00287FF44AAFC3B2CDE9070043F0E3
:109DC000010307A902208DF81C30FFF7C5FC00280D
:109DD0007FF43CAF04F52C70FFF7FAFB0546002832
:109DE0003FF434AF0CA8337D00F8283D0B224E49D8
:109DF000FFF7A6FC00287FF429AF94F8FD32002B72
:109E000040F0848003220021012004F041FBC4F8CB
:109E1000040300283FF41AAF05AB0326CDE9006325
:109E20004FF4A06200234149414805F069FB3246E6
:109E30000021012004F02CFBC4F8080300283FF4A3
:109E400005AF06ABCDE90063C822002339493A4883
:109E500005F056FB394B4FF480021A60384B0093E3
:109E60000023184601224FF4807106F031FBC4F83C
:109E70000C0300F02DFFEAE609900123B4F8EE523E
:109E8000049A8DF82430CDE90A0009A92320ADF801
:109E90002650FFF75BFC00287FF4D8AECDE909001F
:109EA00094F8FC72B4F8F0520B90049A8DF82430B8
:109EB00009A920208DF82670ADF82850FFF746FC40
:109EC00000287FF4C3AE099094F8F252049A8DF8FA
:109ED0002430CDE90A0009A922208DF82650FFF789
:109EE00035FC00287FF4B2AECDE9090094F8F352B6
:109EF0000B90049A8DF8243009A921208DF8265062
:109F0000FFF724FC00283FF404AF9FE604F530700F
:109F100001F0F6F876E700BF54CB03005D9702002E
:109F200000700240006000207CCB030088CB03005F
:109F3000259802008CCB03006997020000E100E045
:109F40006197020000B583B002AB084623F8022DEA
:109F50001946FFF7F7FB20B99DF8060003B05DF83E
:109F600004FB002003B05DF804FB00BF70B4254B78
:109F70000C4606460FCB85B06D4607C59DF90020FF
:109F80002B80A24237D09DF90130A34233D09DF9F6
:109F90000230A3422FD09DF90330A3422BD09DF96C
:109FA0000430A34227D09DF90530A34223D09DF968
:109FB0000630A3421FD09DF90730A3421BD09DF964
:109FC0000830A34217D09DF90930A34213D09DF960
:109FD0000A30A3420FD09DF90B30A3420BD09DF95C
:109FE0000C30A34207D09DF90D30A34203D00020CE
:109FF00005B070BC7047012086F8FE4205B070BC09
:10A00000704700BF6CCB030090F9FE02704700BFA1
:10A0100070B5054682B0D0F80C030C4606F0DCFAA9
:10A020000B4AA402A2FB0432002306469209D5F88B
:10A030000C030093042106F0A3FA3EB9D5F80C03F3
:10A04000009633463246032106F09AFA02B070BDFC
:10A05000D34D6210132906D800EB8100D0F8140309
:10A0600008B1FEF775BF0020704700BFB0F81203BB
:10A07000704700BF01290CBFB0F8EE02B0F8F4023F
:10A08000704700BF13299ABF00EB8100D0F814037A
:10A090000020704710B5064C0021D4F8080304F0E6
:10A0A0002DFDD4F804030021BDE8104004F026BDC6
:10A0B000A865002090F8103303B9704710B582B03E
:10A0C000D0F80C4305F0FCFB002302460093204629
:10A0D000012106F055FA02B010BD00BFF0B583B003
:10A0E000002507462B46D0F80C0300952A4603218D
:10A0F00006F046FA07F5447407F5587654F8041F3D
:10A10000084621B1FEF724FF08B10135EDB2B44293
:10A11000F4D197F810330BB903B0F0BD291C18BF68
:10A120000121042003B0BDE8F04007F0EDB900BF05
:10A130000148FFF709BD00BFA86500203CDF70475C
:10A140003DDF704711DF704713DF7047B0DF7047A6
:10A15000B2DF70472DE9F0419EB0064604A814888E
:10A1600015460F46FEF790FDBDF81030A34202D011
:10A170001EB0BDE8F081AB79043B022BF8D9314623
:10A180005048FFF77FFF4FF0000802233146044696
:10A190003846CDE90688CDE908888DF81830FEF7F5
:10A1A00097FD06A9002866D03046ADF81C80FFF761
:10A1B000CDFF2D7B012DDBD1434F41463E2238465A
:10A1C0000FF02DFD1EAA082322F86A3D3F492B46B9
:10A1D0003046FFF7BDFF68462146FEF7C3FE0098F4
:10A1E0003860BDF804309DF80620BA71BB80204667
:10A1F000FEF7B0FE002846D1334935484FF6FF72CE
:10A200000B7883EA122383EA131343EA02229BB2F8
:10A2100082EA0332013182EA431381429AB2EFD1DA
:10A22000294B2C489A870021FEF77AF92046FEF741
:10A23000C3FEFF210020FFF783FFB1210020FFF7BD
:10A240007DFF002894D1FFF77DFF002890D1224A9E
:10A250004FF0FF314FF01023C2F88010C2F8801188
:10A260005869FFF771FF002882D180F3148858697C
:10A2700000F018FF7CE740F2FD133046ADF81C30CB
:10A28000FFF764FF74E70AA92046FEF7BBFE00282B
:10A29000B2D01EAB13E903000B0C3860B980BB7160
:10A2A00018AD0FCD0D4EC7F807000AAD7160B26052
:10A2B000F3600FCD11360FC695E8070086E807005A
:10A2C0009AE700BFA8650020807F0020B47F0020AF
:10A2D000BC7F0020A867002000E100E0877F00200D
:10A2E00070B582B06C4605460C492046FFF7F4F97C
:10A2F0002E4694E806002846FFF7CEF9084B46F8AC
:10A30000103B20460749FFF7E7F9304694E806007E
:10A31000FEF73AFC284602B070BD00BFCCCB03006C
:10A3200014CC0300ECCB030070B5AAB00546FFF7D0
:10A3300095F918B1044620462AB070BD16AE3046D5
:10A340002A49FFF7C9F996E8060002A8FEF71CFCA7
:10A3500002A8FEF759FC02A80421FEF759FC02A846
:10A360001421FEF759FC02A8FEF71EFA044628B194
:10A3700002A8FEF711FA20462AB070BD1035284613
:10A380001821FEF745FC28461721FEF745FC284614
:10A3900001221749FEF762FC2846FEF705FA04463B
:10A3A0000028E5D16C4620461249FFF795F994E85C
:10A3B00006003046FEF7E8FB3046FEF725FC02219A
:10A3C0003046FEF725FC02213046FEF727FC3046DA
:10A3D000FEF7EAF9044618B13046FEF7DDF9C7E7A3
:10A3E00001213046FEF756FCF6E700BFDCCB030048
:10A3F00055A10200FCCB0300D0F8C030988970470B
:10A400002DE9F041064608461C461746FEF7FAFBC2
:10A41000224605463946D0F8C00006F045FF844282
:10A4200006D9D5F8D8301BB1211A89B230469847E1
:10A43000D5F8D0301BB13046BDE8F0411847BDE833
:10A44000F08100BF08B592B2D0F8C00006F078FFE6
:10A4500008BD00BF00B583B0D0F8C0000DF1070201
:10A46000002106F0A7FF20B19DF8070003B05DF8BA
:10A4700004FB4FF0FF30F9E7D0F8C00006F002BF50
:10A48000D0F8B03098897047D0F8B00006F0FABE26
:10A4900010B501680C4A8C69944282B00BD1D0F897
:10A4A000C00001220DF1070106F04AFF40B19DF8FE
:10A4B000070002B010BD01220DF10701A047F5E72A
:10A4C0004FF0FF30F5E700BF45A4020000B583B0B0
:10A4D000D0F8B0000DF10702002106F06BFF20B1AB
:10A4E0009DF8070003B05DF804FB4FF0FF30F9E77B
:10A4F00000B550F8103C0E4A9B69934283B00CD1D2
:10A50000D0F8B00001220DF1070106F019FF60B18B
:10A510009DF8070003B05DF804FBA0F110010846A8
:10A5200001220DF107019847F1E74FF0FF30F1E705
:10A5300045A40200F0B583B06D4604460F46284698
:10A540001A49FFF7C9F895E806002046FFF7A4F876
:10A55000174B1849002603F108024FF47A7048336C
:10A56000C4E90436A06122602846FFF7B5F895E8F3
:10A57000060004F12000FEF707FB28460E49FFF70E
:10A58000ABF895E8060004F17000FEF7FDFA2046EE
:10A59000A4F8C470C4F8C060C4E93466C4F8D860D4
:10A5A000C4F8C86084F8CC6003B0F0BD40CC0300B0
:10A5B00058CC030030CC030020CC0300F8B506468D
:10A5C0001D480F46FFF75EFDF0B1FEF7C7FC0338EC
:10A5D00084B205F0F3FC0128204618D003F008FFF0
:10A5E00005468DB122462946D6F8C80006F0A8FED9
:10A5F00088B905F0E3FC01284FF00104284617D084
:10A6000003F008FF2046F8BD00242046F8BD0FF0F7
:10A61000C3FA0546E5E7034639462A4606F1200017
:10A62000FEF786FB044605F0C9FC01282846E7D161
:10A630000FF0BAFA2046F8BDA86500202DE9F84FC2
:10A6400004462548924698460F46FFF71BFD50B337
:10A6500004F12009064639464846FEF739FB10B397
:10A6600094F8CC301FFA88FBABB1D4F8C80090B195
:10A670005A46514606F018FED4F8C8309B89054664
:10A6800030469EB2FEF76AFC033886420FDA454632
:10A690002846BDE8F88F5B46524639464846FEF7E5
:10A6A00047FB0028F3D100252846BDE8F88F204657
:10A6B0003946FFF783FF0028F5D04545E7D2ABEBDD
:10A6C00005039BB20AEB050239464846FEF730FB0C
:10A6D0000028E9D04546DBE7A86500202DE9F043D6
:10A6E000044683B054F8103C2B489E6A8DF807103E
:10A6F000FFF7BCFC294B9E420546A4F1100701461A
:10A7000027D12548FFF7BEFC0646F0B104F110083A
:10A7100040462946FEF7DCFAB8B194F8BC3003B3E2
:10A72000D4F8B800E8B10DF10701012206F0BCFD34
:10A73000D4F8B830814630469C89FEF70FFCA4B2AD
:10A740000338844217DA012000E0002003B0BDE89E
:10A75000F083384601230DF10702B04703B0BDE88E
:10A76000F0832946404601230DF10702FEF7E0FA87
:10A7700003B0BDE8F08338462946FFF71FFF0028E5
:10A78000E3D0B9F1000FDED10DF1070229464046B2
:10A790000123FEF7CDFAD9E7A86500203DA6020007
:10A7A0002DE9F04F044683B054F8103C30489E6ABF
:10A7B00088461746FFF75AFC2E4B9E420546A4F1E9
:10A7C000100935D101462A48FFF75CFC064650B314
:10A7D00004F1100A50462946FEF77AFA18B394F8A5
:10A7E000BC201FFA87FBB2B1D4F8B80098B15A4622
:10A7F000414606F059FDD4F8B820019030469489BE
:10A80000FEF7ACFBA4B2033884421ADA3E46304667
:10A8100003B0BDE8F08F5B46424629465046FEF73E
:10A8200087FA0028F2D10026304603B0BDE8F08F49
:10A8300001463B4642464846B44603B0BDE8F04FA9
:10A84000604748462946FFF7B9FE0028EBD0019E35
:10A85000B742DBD9ABEB06039BB208EB06022946F5
:10A860005046FEF765FA0028DED03E46CFE700BF2F
:10A87000A86500203DA602002DE9F0410568294B9E
:10A88000AD6A82B09D428DF8072029D10446264842
:10A890000E46FFF7F7FB0546F0B104F120073846F6
:10A8A0003146FEF715FAB8B194F8CC30FBB1D4F8C4
:10A8B000C800E0B10DF10701012206F0F5FCD4F863
:10A8C000C8309B89804628469DB2FEF747FB033877
:10A8D000854216DA012000E0002002B0BDE8F081D8
:10A8E00001230DF10702A84702B0BDE8F08131460F
:10A8F000384601230DF10702FEF71AFA02B0BDE84F
:10A90000F08120463146FFF759FE0028E4D0B8F127
:10A91000000FDFD10DF10702314638460123FEF763
:10A9200007FADAE73DA60200A86500202DE9F0410C
:10A93000044682B023682B489E6A8DF80710FFF703
:10A9400095FB294B9E420546014627D12548FFF736
:10A9500099FB0646F0B104F1200738462946FEF778
:10A96000B7F9B8B194F8CC3003B3D4F8C800E8B163
:10A970000DF10701012206F097FCD4F8C8309B893D
:10A98000804630469EB2FEF7E9FA0338864217DA6F
:10A99000012000E0002002B0BDE8F0812046012344
:10A9A0000DF10702B04702B0BDE8F08129463846F4
:10A9B00001230DF10702FEF7BBF902B0BDE8F081FB
:10A9C00020462946FFF7FAFD0028E3D0B8F1000F32
:10A9D000DED10DF10702294638460123FEF7A8F91A
:10A9E000D9E700BFA86500203DA602002DE9F04F81
:10A9F000044681B023682F489E6A88461746FFF7B1
:10AA000035FB2D4B9E42054636D101462948FFF7BE
:10AA100039FB814658B304F1200A50462946FEF717
:10AA200057F920B394F8CC301FFA87FBBBB1D4F8A8
:10AA3000C800A0B15A46414606F036FCD4F8C830EA
:10AA40009B89064648461FFA83F9FEF787FA0338C2
:10AA500081451ADA3E46304601B0BDE8F08F5B46CC
:10AA6000424629465046FEF763F90028F2D10026F7
:10AA7000304601B0BDE8F08F01463B4642462046D5
:10AA8000B44601B0BDE8F04F604720462946FFF7C5
:10AA900095FD0028EBD0B742DCD9ABEB06039BB2A7
:10AAA00008EB060229465046FEF742F90028DFD09F
:10AAB0003E46D0E7A86500203DA6020010B50A4B2F
:10AAC0000446D0F8C80023604033236110B1036806
:10AAD0005B68984704F17000FDF75EFE04F120000A
:10AAE000FDF75AFE204610BD60CC030010B50C4B9C
:10AAF0000446D0F8C80023604033236110B10368D6
:10AB00005B68984704F17000FDF746FE04F12000F1
:10AB1000FDF742FE204605F0DFFF204610BD00BFD6
:10AB200060CC0300F8B50446182005F0C5FF0022EC
:10AB30000546012106F07EFB2846C4F8C050B4F853
:10AB4000C41006F089FB2046FEF788FD054608B1D3
:10AB50002846F8BD01211C48FFF78CFA04F12006B5
:10AB6000074610213046FEF753F82A463046112199
:10AB7000FEF766F839463046FEF74EF83046134980
:10AB8000FEF780F83046FDF70FFE05460028DFD1BE
:10AB9000703420460C21FEF73BF8204601220C4978
:10ABA000FEF754F8294620461122FEF749F83946A7
:10ABB0002046FEF731F820460649FEF763F82046A6
:10ABC000BDE8F840FDF7F0BDA865002050CC0300BB
:10ABD00001A4020054CC0300002201214270017044
:10ABE000C0E90122C2818281704700BF017001B1BA
:10ABF000704710B504460A2003F08CFC606010BD5D
:10AC0000037810B5044613B9406804F0E1FA002354
:10AC100001226370C4E90133E381A381227010BD76
:10AC2000002381608281C381704700BF037870B5C3
:10AC300004460D46B3B940681149AD02A1FB053188
:10AC400001238909637004F017F9B0B94FF0FF359B
:10AC50002378002666701BB1606804F0B9FA66605C
:10AC6000284670BD03220021012003F011FC606022
:10AC70000028E1D14FF0FF35F2E7E589ADB2E7E713
:10AC8000D34D62104078704770B58689964204466D
:10AC90003546806828BF154621B12A460EF09BFF35
:10ACA000A068A689E3892B442844761B9BB2A06048
:10ACB000A681E381284670BD406820B100231A4672
:10ACC000194603F059BC7047B1DF7047B2DF7047D7
:10ACD00008B50C480DF012FE0B490A4808F020FC9C
:10ACE00058B10A49074808F01BFC00B108BD0749E4
:10ACF0000448BDE8084008F02FBC0349014808F0AB
:10AD00002BFCEEE7D87E0020F4CC030008CD030036
:10AD100010B586B00323CDE9030114460093104615
:10AD200003AB034A0594502106F0BCF906B010BDF0
:10AD3000ADAE02004FF6FF739A4211D070B586B0E7
:10AD40000D4603230021064614460093084603AB34
:10AD5000044A0396CDE9045406F0A4F906B070BD88
:10AD600000207047A9AF020030B5144B144CA1B0BD
:10AD700015460A4601280CBF2146194668460FF0C1
:10AD8000EBFD694607A80F4B002208F049FD07A814
:10AD900008F0DAFE18B90024204621B030BD044680
:10ADA00007A808F0DDFC5028F5D10246294607A87F
:10ADB00008F02CFE07A808F083FEEDE7D8CC0300CE
:10ADC000BCCC0300D87E00202DE9F0414FF6FF7384
:10ADD000A0B09A4200AF5CD0314B0C4631490128FB
:10ADE00018BF194638460FF0B7FD394607F11C0069
:10ADF0002D4B002208F014FD07F11C006D4608F0F1
:10AE0000A3FE50B9002407F11C0008F059FE2046AB
:10AE1000AD468037BD46BDE8F08107F11C0008F063
:10AE20009FFC061E08DD07F11C0008F02DFE3118FE
:10AE300007F11C0008F00AFE07F11C0008F090FC66
:10AE4000061E08DD07F11C0008F01EFE311807F190
:10AE50001C0008F0FBFD07F11C0008F081FC002835
:10AE6000D0DDC31D23F0070386B2E846ADEB030D2A
:10AE70006946324607F11C0008F0C8FD20466946C5
:10AE800032460323FFF720FFB0FA80F46409C54679
:10AE9000B9E7002420468037BD46BDE8F08100BFF9
:10AEA000D8CC0300BCCC0300D87E0020F0B51446FB
:10AEB000ADB0012804AF0E4607BF528A3549364966
:10AEC000E28D38460FF048FD394634486D4608F0AB
:10AED00027FB78B9394607F13C00304B012208F0D6
:10AEE0009FFC07F13C0008F02FFE40B9A437AD46A7
:10AEF000BD46F0BD3946294808F088FBEAE75021F5
:10AF000007F13C0008F05AFC5022214607F13C00B2
:10AF100008F094FB2022002107F11C000EF07FFEB8
:10AF200031461F48FFF7AEF807F11C012022FEF75B
:10AF300025F83B7FA3B994F8491094F84D3094F864
:10AF40004E20039194F84A10029194F84B1001910D
:10AF500094F84C10009107F11C0012490FF0FCFC12
:10AF600007F11C000FF03FFD013084B2E1B207F1A0
:10AF70003C0008F023FC07F11C01224607F13C00CD
:10AF800008F05CFB07F13C0008F09AFDA437AD46E1
:10AF9000BD46F0BDBCCC0300D8CC0300D87E002059
:10AFA000A86500201CCD03002DE9F043A3B000AF3D
:10AFB00007F18804002324F8823D0D468046194697
:10AFC0009146032322462846FFF780FEFB886E4603
:10AFD00023B9B5468C37BD46BDE8F0830733DB089F
:10AFE000A6EBC3039D462246284669460323FFF786
:10AFF0006DFE6D4604460028EBD1274B27494A4693
:10B00000B8F1010F18BF194607F108000FF0A4FCB2
:10B0100007F1080107F12400214B012208F000FC90
:10B0200007F1240008F090FD0028D2D0214607F156
:10B03000240008F00BFD07F1240008F091FB041E2A
:10B0400008DD07F1240008F01FFD211807F1240096
:10B0500008F0FCFC07F1240008F082FB041E08DD68
:10B0600007F1240008F010FD211807F1240008F072
:10B07000EDFCFC8807F12400E1B208F09FFB2246BA
:10B08000294607F1240008F0D9FA07F1240008F056
:10B0900017FDB5469EE700BFD8CC0300BCCC03002B
:10B0A000D87E0020F0B40346186880F308885868FA
:10B0B000FF2464B2EFF30585002D01D1A6460047B9
:10B0C0002546064621273FBAF0B400240025002675
:10B0D0000027F0B4F92040B2004700BFF0BC704731
:10B0E00075DF704710B44FF010144FF44801002280
:10B0F000C0E90041C0E902225DF8044B704700BF7F
:10B10000014800F031B900BF78680020F8B500248C
:10B110000B4F2546A1B23846FEF7B4FF0134064670
:10B1200048B1FDF715FF30B13046FDF715FF022895
:10B1300004BF0135EDB2142CECD12846F8BD00BF98
:10B14000A86500200B881F2B12D110B50A4682B0CB
:10B1500052F8080F8C8851686B4603C32046BDF82F
:10B160000030ADF802306946FFF7BAFF02B010BDFB
:10B17000704700BFA1DF7047A3DF7047A4DF7047AF
:10B1800000238382704700BF806900F0DDB800BFF4
:10B19000808A70472DE9F0410B88CE88382B86B025
:10B1A0000C46054642D0392B25D0362B02D006B0AE
:10B1B000BDE8F081806900F0C7F801466148FEF7FC
:10B1C00061FFFDF7CBFE05F11C0807466EB9E28969
:10B1D00004F110014046FFF757FD2B8D2BB1033FC3
:10B1E000BFB2E389013FBB4270DA4046FFF764FD1E
:10B1F00006B0BDE8F0810B7B012B57D0022BD6D1D6
:10B20000036B002BD3D090F83420B1F80480CE89A2
:10B21000920701F1100700F1848032463946284632
:10B22000984761894046FFF7A9FFC0E700F11C0776
:10B23000002E35D10A8A38463146FFF725FD94F8AD
:10B240000C80B8F1010F2BD0B8F1040FAFD1A86971
:10B2500000F07AF801463B48FEF714FFFDF77EFE4A
:10B260002B8D053880B2834228BF0346002B37D090
:10B27000218AE289A869AC8AADF80C600A44696A3F
:10B2800005918DF80C80ADF81230ADF81020ADF8B6
:10B290000E4000F059F803A9FFF76EFF002886D092
:10B2A0003846FFF709FD06B0BDE8F081C36A002B00
:10B2B0003FF47DAF90F83420CE8901F11007D1071B
:10B2C0001ED4324639462846984770E7A86900F0F0
:10B2D0003BF86A8DA98AFFF74DFF002885D166E704
:10B2E00040F20511AA8AA869ADF80C10CDE9043323
:10B2F000ADF80E2000F028F803A9FFF73DFFCFE7D7
:10B3000003201A460090314603AB3846CDE9035777
:10B31000059605F0C7FE00287FF449AFE689EB6A81
:10B32000CFE703201A460090314603AB3846CDE9FB
:10B330000357059605F0B6FE00287FF472AF2B6B1D
:10B34000E6896AE7A86500208088704710B5044642
:10B350000430FFF741FC034B236000232375204694
:10B3600010BD00BF0100FFFF017D01B1704710B5A6
:10B3700004460430FFF73AFC0123237510BD00BFDB
:10B38000007D704710B50B88322B18D0332B0CD0B2
:10B39000302B00D010BDCB88041D0BB94B89FBB9F5
:10B3A0002046BDE81040FFF787BCCB88041D002B6A
:10B3B000F6D14A89002AF3D002EB420208E0CB889A
:10B3C000041D002BECD14A89002AE9D002EB82024D
:10B3D0005200023292B20A312046FFF755FCDFE7F5
:10B3E0000A310A222046FFF74FFCD9E78ADF70476F
:10B3F00030B403461F22012418628025828480F81D
:10B400002D4000220B4C80F82E50C0E911228262A0
:10B41000C0F8464080F82C2080F82F20028680F863
:10B4200038204263C0E90F22C264A0F8502030BC2B
:10B43000704700BFA00050002DE9F0478CB06F4668
:10B4400038460C4687E80C00FEF74CF9C0B21028CD
:10B450002ED0019F07220623D4F818A094F81C8050
:10B460008DF80D208DF80C30C6084FF000091F2212
:10B47000002104A80EF0D3FBB8F1010F06D8B9F1F2
:10B48000000F34D000200CB0BDE8F08703AB51466C
:10B4900013F809C043460A784878D443604502F15E
:10B4A0000105234407D013F0FF032944F3D1E6E755
:10B4B00003220223D0E7013A0231D5B2DFD02A4677
:10B4C00004A80EF088FB002DD9D004AC02E012F0E5
:10B4D000FF05D4D03246204639460EF06DFB344489
:10B4E000AA1B0028F3D101200CB0BDE8F0874FF073
:10B4F0000109BCE7F0B50B888E88103B85B00C467F
:10B5000005460D2B2CD8DFE803F070072B2B2B2BD7
:10B510002B2B2B2B2B5B2B2D836AF340DB071FD5AB
:10B520005048FFF7F3FDD8B9AB6A95F82C200124F9
:10B5300004FA06F623EA0606AE628AB995F82D30BB
:10B5400073B11F232D62AB8405F1200105F1440086
:10B55000FFF74CFF20B94448FEF7ACFD85F82C40BE
:10B5600005B0F0BD90F92E2091F91B309A4220DCF5
:10B5700090F8383001F108079BB1002602E0D6B2FE
:10B58000B3420CD96B6B03EBC6030CCB3946284690
:10B59000FFF752FF721C95F838300028EFD09E421A
:10B5A00007D095F82F30002B38D094F82430012B99
:10B5B00041D805F120010020FFF718FF05B0F0BDCC
:10B5C0000B7A012BCCD1002480F82C402648FEF7C2
:10B5D00085FD2A6C002AC3D004AB0094214643F8B1
:10B5E000044D204605F05EFDBAE7CB7B022BB7D1B8
:10B5F0000122836A02FA06F633430022836280F84E
:10B600002C20ADE70139CCB2911CD2D0022C20D92C
:10B610005388ADF80C302A8E9A42CAD1EA6B002AC0
:10B620009ED004AB012143F8047D384600912421CB
:10B6300005F038FD94E7226A11785078CC43FF2852
:10B6400001F101062344DDD013F0FF033244F3D1AE
:10B65000AFE7224603A80EF0BEFA002CA9D0BDF831
:10B660000C30D8E768680020A8650020704700BF4C
:10B6700038B528220546084600210EF0D0FA0B22E4
:10B6800009490A4C0FF0B7F901210022C160C272CA
:10B6900003462D6A064807491D6102255A625D610D
:10B6A000DC619861196238BD3CCD03000000C8C45C
:10B6B0000000C8448FC2753C10B5044605F00CFA72
:10B6C000204610BD2DE9F047202294B004460D46D7
:10B6D000081D00210EF0A3FA24232B60236A6B605F
:10B6E0004FF00208C5F8088002F05CFE01262861D0
:10B6F0004FF0280C06274FF00009D4E90612334614
:10B70000CDF800C0CDE9017908A8039607F048F804
:10B710003A4604A908A807F0D1F89DF813E09DF86F
:10B7200015309DF811A09DF810C09DF812709DF87D
:10B7300014004CEA0A2C40EA032047EA0E274FF097
:10B74000210ED4E9061233460396CDE90169A4F827
:10B7500006C0608127810EA8CDF800E007F020F830
:10B7600042460EA9052306A807F0F6F806A807F03A
:10B77000FBF8C0B2032840D0404539D19FED255A8F
:10B78000B4F906309FED246AF7EE004AC4EE855AFC
:10B79000012007EE903AB4F9083006EE903AB4F979
:10B7A0000A30F8EEE77A07EE103A67EEA57AF8EE7F
:10B7B000E66AB8EEC77A27EE865A66EEA56A27EEE5
:10B7C000257AC4ED037AC4ED046A84ED057A85ED2B
:10B7D000055AD4ED047A67EE867AC5ED067AD4ED83
:10B7E000057A67EE867AC5ED077A14B0BDE8F08772
:10B7F000B04205D19FED095AC2E79FED095ABFE754
:10B80000DFED087A4845B7EE005A08BFB0EE675A38
:10B81000B6E700BF00900E450000C84200D0554575
:10B8200000E0D54400D0D5452DE9F04395B0012482
:10B8300000264FF021080546D0E9061223460EA83F
:10B84000039401940296CDF8008006F0A9FF2246E9
:10B8500002230EA908A807F07FF8214608A8202790
:10B8600007F004F90A2002F0A9FDD5E906122346E3
:10B870000394CDE901460DEB0700009706F090FF19
:10B880000DEB07010523022204A807F065F84FF02D
:10B89000230904A8032107F0E9F8D5E90612234695
:10B8A0000394CDE901460EA8CDF8009006F078FF8C
:10B8B00002231A460EA906A807F04EF806A803218F
:10B8C00007F0D4F8D5E906122346CDE90264CDE9A4
:10B8D00000740DEB070006F063FF0DEB0701052375
:10B8E000022204A807F038F804A8032107F0BEF8E4
:10B8F000D5E906122346CDF80090CDE90264019403
:10B900000EA806F04DFF02231A460EA906A807F05E
:10B9100023F8032106A807F0A9F80A2002F04EFD3B
:10B92000D5E9061223460097CDE9026401940EA8DA
:10B9300006F036FF23460EA904220DEB070007F0A0
:10B940000BF821460DEB070007F090F8D5E9061239
:10B950002346CDF80080CDE9026401940EA806F0DC
:10B960001FFF0EA9052302220DEB070006F0F4FFCE
:10B9700031460DEB070007F079F8D5E906122225CC
:10B9800023460394CDE901460EA8009506F008FF72
:10B9900033460EA902220DEB070006F0DDFF31460B
:10B9A0000DEB070007F062F8204615B0BDE8F08304
:10B9B000024A02600022C0E9062270474CCD030013
:10B9C00070B585698CB00446DDB100262846E66175
:10B9D000012107F063F908B90CB070BD01230F25F0
:10B9E000D4E9061206A80393CDE90053029606F0A7
:10B9F000D7FE06A806F0E8FE3D280ED030460CB073
:10BA000070BD1020CDE9041205F056F8DDE90412EE
:10BA1000054607F039F9A561D7E72046FFF704FF8F
:10BA2000DAE700BF08B501210D2005F02DFD0D203E
:10BA300005F0C0FD0420012105F026FD0420BDE82D
:10BA4000084005F0B7BD00BF69B170B505460846AE
:10BA50000C460EF0C8FF2B680246214628465B685C
:10BA6000BDE8704018470846704700BF69B170B51F
:10BA7000054608460C460EF0B6FF2B6802462146E6
:10BA800028465B68BDE8704018470846704700BF0D
:10BA900003681B68184700BFF0B506688BB01AB979
:10BAA000336898470BB0F0BD0AAF0B46D2B2002105
:10BAB000022A07F8041D05462CBF14460A2418461E
:10BAC000B0FBF4F204FB1201CBB2092903F13001FF
:10BAD0008ABF3733CBB2DBB2104607F8013D002AEC
