:020000022000DC
:106000000000042061100300A1100300A31003008E
:10601000A5100300A7100300A91003000000000052
:10602000000000000000000000000000DD0F030081
:10603000AD10030000000000FD0F0300B1100300CD
:10604000F1120300B3100300B310030005A7020010
:10605000B3100300B3100300B3100300B310030028
:10606000B3100300B3100300B3100300B310030018
:10607000B3100300B3100300B3100300B310030008
:10608000B3100300690D0300B3100300B310030045
:10609000B3100300B3100300798D0200B3100300A6
:1060A000B3100300B3100300B3100300B3100300D8
:1060B000B3100300B3100300000000000000000054
:1060C000B3100300B3100300B3100300E99B0300F7
:1060D000B3100300B3100300B3100300B1E90200D2
:1060E000B3100300B3100300B3100300000000005E
:1060F00000000000B310030000000000619C0300DA
:10610000000000000000000000000000000000008F
:10611000000000000000000000000000000000007F
:10612000000000000000000000000000000000006F
:10613000000000000000000000000000000000005F
:10614000000000000000000000000000000000004F
:10615000000000000000000000000000000000003F
:10616000000000000000000000000000000000002F
:10617000000000000000000000000000000000001F
:10618000000000000000000000000000000000000F
:1061900000000000000000000000000000000000FF
:1061A00000000000000000000000000000000000EF
:1061B00000000000000000000000000000000000DF
:1061C00000000000000000000000000000000000CF
:1061D00000000000000000000000000000000000BF
:1061E00000000000000000000000000000000000AF
:1061F000000000000000000000000000000000009F
:10620000F1EE103A43F08073E1EE103A704700BFB0
:1062100010B5054C237833B9044B13B10448AFF3E0
:1062200000800123237010BDC86200200000000020
:1062300028E7030008B5034B1BB103490348AFF33C
:10624000008008BD00000000CC62002028E70300A9
:10625000154B002B08BF134B9D46A3F5803A002138
:106260008B460F461348144A121A14F084FD0F4B44
:10627000002B00D098470E4B002B00D098470020F1
:10628000002104000D000D48002802D00C48AFF397
:10629000008014F009FD200029000AF02FFF14F0FF
:1062A000DDFC00BF0000080000000420000000002A
:1062B00000000000C862002084920020000000005E
:1062C000000000002DE9F047534E0023C6E90033DB
:1062D000C6E90233336100295CD001F1FF381FFAAF
:1062E00088F804460F461D46412B04D0472B02D0A8
:1062F0004D2B40F083800F2D10D152E023682046B3
:106300005B699847C0B2212814BF2B46002305F1D2
:106310000102F05414BF95B20125B8462368204607
:10632000DB6A98470028E9D1B8F1000F52D001206C
:1063300008F0A8FB08F1FF38132D1FFA88F830D8B1
:106340007378D1E735483649334EDFF8DC90DFF813
:10635000DC80044605F0EEFE05F1010A00274946FF
:10636000204605F0D5FE16F8013B0F2B414620468E
:106370004FF0100233D805F0CBFE16F8011C1022A6
:1063800001F00F01204605F01BFFBD422CD1234830
:1063900005F0B2FF0020BDE8F087432B38D1062D71
:1063A000BCD10023735531782129F3D1681E345CA8
:1063B00010B300231A4600E0F15C0133DBB20A445B
:1063C0009842D2B2F8DCD343DBB29C42BAD1E8B2F5
:1063D000BDE8F08706F80580002DDBD0E3E719461D
:1063E00005F0EEFEBD42D2D00E490137204605F041
:1063F0008FFEBA45B3D8CAE7FF23E6E7512B02D197
:10640000132D8BD1CDE7422BC7D1052D86D1C8E7FF
:106410004C2B3FF470AF81E7E46200202C69002030
:10642000ECD9030050DA030004DB0300B8E20300F8
:10643000F8B560304FF4FA71FFF744FF98B1BC4CE7
:106440006378432B51D0422B71D04C2B00F08780C6
:10645000412B00F0C1804D2B00F0F280472B00F063
:106460002381512B00D0F8BDD4F80270B149B24855
:10647000D4F80660D4F80A50D4F80E4005F05AFE5D
:10648000384614F033F841EC100B0221AA4805F00D
:1064900005FF0921A84805F05FFE304614F026F8F4
:1064A00041EC100B0221A44805F0F8FE0921A24896
:1064B00005F052FE284614F019F841EC100B0221A9
:1064C0009D4805F0EBFE09219B4805F045FE20465E
:1064D00014F00CF841EC100B0221974805F0DEFE99
:1064E0009548BDE8F84005F007BFA7789349924862
:1064F000E678257905F01EFE0F2F40F20A81394615
:1065000010228D4805F02CFE0F2E40F20C813146F2
:106510001022894805F024FE0F2D40F2FF80294605
:106520001022854805F008FF6378422B8DD1A578AD
:10653000E67883498048303DEDB205F0FBFD294601
:106540000A227D4805F00CFE302E14BF7D497E499D
:10655000794805F0D9FE63784C2B7FF479AF7B49FD
:10656000D4F802707448D4F80660D4F80A5005F0E4
:10657000E1FD7749704805F0DDFD384613F0B6FFC0
:1065800041EC100B04216C4805F088FE09216A4893
:1065900005F0E2FD6F49684805F0CCFD304613F088
:1065A000A5FF41EC100B0421634805F077FE09219B
:1065B000614805F0D1FD284613F098FF41EC100B1F
:1065C00004215D4805F06AFE63495B4805F09CFEC6
:1065D0006378412B7FF43FAFD4F802705F4956488F
:1065E000D4F80660D4F80A5005F0A4FD384613F03C
:1065F0007DFF41EC100B02214F4805F04FFE0921B1
:106600004D4805F0A9FD304613F070FF41EC100B2A
:106610000221494805F042FE0921474805F09CFD4A
:10662000284613F063FF41EC100B0221424805F0AD
:1066300035FE414805F060FE63784D2B7FF40EAFC8
:10664000D4F8027046493C48D4F80660D4F80A50A1
:1066500005F070FD384613F049FF41EC100B0221A4
:10666000354805F01BFE0921334805F075FD30461D
:1066700013F03CFF41EC100B02212F4805F00EFEF9
:1066800009212D4805F068FD284613F02FFF41EC45
:10669000100B0221284805F001FE274805F02CFECA
:1066A0006378472B7FF4DDAED4F802702D49224881
:1066B000D4F80660D4F80A5005F03CFD384613F0D3
:1066C00015FF41EC100B02211B4805F0E7FD0921E5
:1066D000194805F041FD304613F008FF41EC100B5E
:1066E0000221154805F0DAFD0921134805F034FDB3
:1066F000284613F0FBFE41EC100B02210E4805F07A
:10670000CDFD0D4805F0F8FD6378512B7FF4ABAE5D
:10671000AAE61549084805F00DFDF0E612490648BD
:1067200005F008FDFBE61049034805F003FDEEE621
:10673000E462002074DA03002C6900200CDA030004
:1067400014DA03001CDA030028DA030034DA030049
:1067500044DA03004CDA030054DA03005CDA030085
:1067600064DA03006CDA0300B8E203002DE9F041BB
:1067700000F16008244D254F064602F023FC4046F8
:106780004FF4807102F04AFD00222846012102F0F8
:10679000B9F80421284602F05BFA304605F500748A
:1067A00002F034FC404603F031F80621204600F0A8
:1067B000F5FC204600F0DAFC4146204600F098FC4B
:1067C00005F50F7000F0A4FC2046012100F01AFD31
:1067D000F4222046202100F011FD20461E2100F069
:1067E0000BFD2046002100F069FD3846084905F000
:1067F0006BFD0849384605F067FD384605F07CFD1D
:106800003046BDE8F08100BF046500202C690020FF
:106810007CDA0300C0DA030070B500F124060446F8
:106820000B4D05F029FC304604F004FF4FF0FF3318
:10683000C4F88C302A4620461C2105F025FC304641
:106840002A4600236A2104F04FFE204670BD00BF97
:106850007068002070B52DED048B9FED238A9CB0ED
:106860000646F0EE488AB0EE489A00F1240532243C
:1068700013AB0AAA01A9284604F07CFEDDED0F6ADD
:106880009DED107ADDED117A013C39EE269A78EE15
:10689000878A38EE278AEBD1DFED147A1449154840
:1068A00029EE279A68EEA78A28EE278A86ED209A95
:1068B000C6ED218A86ED228A05F026FD0E490D4897
:1068C00005F038FC0D490B4805F034FCD6F884007F
:1068D00013F00CFE41EC100B0221064805F0DEFC23
:1068E0001CB0BDEC048B70BD000000000AD7A33CB7
:1068F00068DA03002C69002008DB030018DB0300C2
:1069000070B52DED048B9FED4C8A8CB00546B0EE32
:10691000489AF0EE488A322403A9284605F036FA50
:10692000F8EEE88AB8EEC99AB8EEC88ADDED086AD2
:106930009DED097ADDED0A7A78EEA68A39EE079A9E
:1069400038EE278A013CFDEEE88ABDEEC99ABDEE1D
:10695000C88AE1D139489FED3A5ADFED3A5A9FEDA6
:106960003A6A18EE903A80FB033618EE903ADA173E
:1069700019EE103A80FB033418EE103A80FB033016
:1069800019EE103AD917C2EB261307EE103A18EE9B
:10699000103ADB17C1EB2412C3EB201306EE902A4A
:1069A00007EE903AB8EEC77AF8EEE66AF8EEE77AC4
:1069B00037EE457A76EEA56A77EEC67ABDEEC77AEF
:1069C000FDEEE77AFDEEE66A85ED1C7AC5ED1E7AEE
:1069D00017EE900AC5ED1D6A17EE104A13F074FD0C
:1069E000CDE90001204613F06FFD9DED001B41EC49
:1069F000100B13F07BF90EA3D3E9002351EC100B1D
:106A000013F0CCFD14F08CF807EE900AF5EEC07A86
:106A1000F1EE10FA44BF9FED0D7A77EE877AFDEE26
:106A2000E77AC5ED1F7A0CB0BDEC048B70BD00BFDA
:106A300099403F9EDDA54C40000000001F85EB51B2
:106A40000000FC41E17A664200006D420000B44360
:106A50002DE9F84F8246FFF753FF08F007F8DAF800
:106A600090309FED3F7AC01A07EE900AF8EE677AF1
:106A7000F4EEC77AF1EE10FA56DADAF89430DAF872
:106A80007C40DAED217AE41AF0EEE77A002C17EE7A
:106A9000900AB8BF644213F029FD29A3D3E900236B
:106AA00014F002F8E0B3092C38DD01238AF898309D
:106AB00007F0DCFF0FF29009D9E9008924A7D7E994
:106AC0000067DFF8A0B06FF004050024DAF87C005E
:106AD000001B0028B8BF4042C0F11E0013F0F4FCB8
:106AE000032D42464B4625D913F058FD32463B460E
:106AF00013F09EFB13F0ECFF1E3420EAE0715BF80C
:106B0000040B0BF025F8B4F5B47F05F10105DDD1D8
:106B100007F0ACFFDAF87C30CAE92403BDE8F88F4F
:106B2000132CC2DCBDE8F88F00F032F800238AF89D
:106B30009830A2E708A3D3E90023D5E7AFF300809C
:106B40009A9999999999C93F555555555555FD3F6C
:106B50000000000000C05F40ABAAAAAAAAAA0A408F
:106B60000000484328DB030070B5084C04F13006F0
:106B700054F8045B012128460BF042F92846002115
:106B80000BF07EF9B442F3D170BD00BF58DB0300B7
:106B900038B5054C04F1300554F8040B00210AF017
:106BA000D7FFAC42F8D138BD58DB030010B5044B19
:106BB000044640F8243F03F025FE204610BD00BFE8
:106BC00084DE030000000000D0B5142082B00BF07A
:106BD0004BF813F079FC23A3D3E9002313F0DEFC78
:106BE00013F09EFF13F082FC20A3D3E90023064696
:106BF0000F4613F04FFF30BB0446394630461DA305
:106C0000D3E9002313F046FFA8B9009002460146DD
:106C1000B423114805F03EF80F4804F083FD0F48F7
:106C2000FFF716FF0D48FFF715FE0D4802B0BDE84F
:106C3000D040FFF7FDBB0094214678231E22064872
:106C400005F028F8E8E70023009319467822024867
:106C500005F020F8E0E700BFD4640020386400208D
:106C6000FC6200206D1AD0A6016D7A3F33333333B6
:106C700033330B406666666666660E4070B5154C2B
:106C8000154D164E522320460822012104F0FAFC2D
:106C90002A461349204613F023F8304602F092F9B1
:106CA000104C06F160004FF4807102F0B7FA2A46EA
:106CB0000D49304613F014F8204605F0DDF904F1D3
:106CC000240004F0B7FC2A4620460849BDE870407D
:106CD00013F006B8D464002000600020FC6200209D
:106CE000E5B6020038640020F16C0200AD6B0200D2
:106CF00010B50446603002F055FD2046034B40F8C5
:106D0000103B00F0BBFB204610BD00BFA0DC030021
:106D100070B5BF4DBF4CD0B028464FF4E13105F0FF
:106D20008FFCBD49284605F0EFFA01A8FFF71EFDCC
:106D300003AB93E80300B94BDDF83650C3F832508B
:106D400003F1080282E80300BDF8081099809DF85D
:106D500020101977BDF82210D983099919620A9970
:106D600059620B999962BDF83010998506AADDF831
:106D70003210C3F82E1092E803009DF83A2083F8F1
:106D800036209DF83D20BDF83B5083F8392003F1B3
:106D90001402A3F8375082E80300DDF83E10C3F870
:106DA0003A1012AA92E8030003F1440282E80300B9
:106DB0001BAA92E8030003F1680282E8030022AAFA
:106DC00092E803009DF8502083F84C20159A1A652C
:106DD000169A5A65179A9A65189ADA65BDF8682066
:106DE000A3F864201E9A5A671F9A9A67209ADDF8C2
:106DF0004250DA6703F18402C3F83E5082E8030090
:106E00009DF8906083F88C60BDF89260A3F88E6066
:106E1000259EC3F89060269EC3F8946050A8279ED4
:106E2000C3F89860BDF8A060A3F89C6001460246D4
:106E300050F89E6DC3F89E604068C3F8A2009DF8AC
:106E4000AA0083F8A60031F8950D52F8926D897862
:106E5000A3F8A7002EAD83F8A91095E803005268A7
:106E6000C3F8AE2003F1B40282E803009DF8C0101D
:106E7000C3F8AA6083F8BC103198C3F8C0003298F8
:106E8000C3F8C4003398C3F8C8003498C3F8CC00E2
:106E90009DF8E00083F8DC00BDF8E200A3F8DE0016
:106EA0003998C3F8E0003A98C3F8E40050AA3B9838
:106EB000C3F8E800BDF8F000A3F8EC00154652F85E
:106EC0004E0DC3F8EE0036A903C95268C3F8F2208C
:106ED0009DF8FA2083F8F62003F1D40282E803003B
:106EE00035F8451D50AAAD78A3F8F71083F8F9508E
:106EF00052F8425DC3F8FA505268C3F8FE209DF87C
:106F0000102183F80C21459AC3F81021469AC3F842
:106F10001421479AC3F81821489AC3F81C21499AAA
:106F2000C3F82021BDF82821A3F824214B9AC3F8E7
:106F3000282142A99DF8302183F82C2103C94D9ABC
:106F4000C3F830214E9AC3F8342103F5827282E8E7
:106F500003004F9AC3F8382119A802F023FC304BE4
:106F6000019305A800F08AFAFFF7FEFD01A8FFF7DC
:106F700053FC2C4B9DF808201A71DDF80A20C3F849
:106F80000620BDF80E205A81069A5A61079A9A6126
:106F9000089ADA61099A1A620B9A9A620C9ADA6272
:106FA0000D9A049805991A63BDF83820D8601961C4
:106FB0000F9810999A86119AD9631A649863129857
:106FC00014995864D9641598169918655965BDF8CF
:106FD0005C001899A3F85800D96519981A99186691
:106FE00059661B981C999866D9661D981E99139A24
:106FF000186759671F9820999A64219AC3F88020CE
:10700000C3E91E0122980849239A0A910EE000BFA5
:107010002C690020D464002088DB0300FC6200207F
:10702000A0DC03003864002084DE0300259D26993F
:10703000C3F884002498C3F88820C3F88C009DF816
:107040009C2083F898200AA8C3E9245103F0DAFBB6
:10705000002114200AF0D4FE204604F051FB204603
:10706000052104F03DFE204604F05CFB50B070BDED
:1070700072DF704773DF704777DF704770B5054682
:1070800008460C4601F0A0F9102808D0802812D13B
:10709000636883B1EA7F0D2A0FDD002070BDEB7FAE
:1070A00022881B2BF9DCE9180320E85448704A8039
:1070B000EB7F0433EB77012070BDA9181120A85491
:1070C00007224A7098681E685C68DB68C1F80E3059
:1070D000C1F80A00C1F80260C1F80640EB7F123324
:1070E000EB770120DAE700BF0022C2770270704719
:1070F00000B50831024603C983B06B4683E803003C
:1071000019461046FFF7BAFF03B05DF804FB00BF55
:10711000F0B589B0054620226946134801F084FD88
:10712000EB7FC2181D2A0ADDC3F11D04E4B2E21888
:107130001D2A4FF0000615DD304609B0F0BD0446AB
:1071400001260927EA18601CE85469465770901C0C
:10715000224613F0ECFDEB7F02331C443046EC7703
:1071600009B0F0BD0827EDE70465002010B504461E
:10717000094801F0BBFDE37F1C2B0ADCE218022169
:10718000E1540A2390705370E37F0333E3770120C7
:1071900010BD002010BD00BF04650020C27F1C2A66
:1071A0000DDC10B403469C18022098540120A170F5
:1071B0006070DA7F0332DA775DF8044B70470020A5
:1071C000704700BF30B440F2FF12094C09490284F5
:1071D0000125002280F82250C0E90A41C2770270DE
:1071E00080F823204262C0E90C22826330BC7047E1
:1071F0002000F40020001E00C185704742850185F3
:107200008185704780F82210704700BFF0B502EB0F
:107210008203264E87B003EB83030F469B0015467F
:1072200031680022CDE90272ADF80C3090F82130BF
:1072300000928DF80030CB0704460192CDE904227C
:1072400009D41B4A1B4BD17FC07F998101211C604F
:107250009A60988031606A46164904F12000FFF771
:1072600007FF10B1002007B0F0BD134894F820606C
:1072700001F03CFD314602460120FFF7FDFE0028EB
:10728000F0D1012194F82000FFF7F4FE0028E9D1A5
:10729000094801F081FD638EA7859D4294BF5B1B69
:1072A000DB1A0120638684F82300DCE7EC6400200D
:1072B00040670020F064002004650020F0B52C4DEC
:1072C0004186044687B001862846FA2101F012FD66
:1072D000E68D2849278D0868029706EB860303EBA5
:1072E000830300229B000392ADF80C3094F8213008
:1072F00000928DF80030C3070192CDE904220BD42F
:107300001D4BE27F95F85B029A8005F50F7501220F
:107310001C609D6098810A606A46174904F120004C
:10732000FFF7A6FE10B1002007B0F0BD104894F89A
:10733000205001F0DBFC294602460120FFF79CFEAD
:107340000028F0D1012194F82000FFF793FE0028D7
:10735000E9D1074801F020FD638EA7859E4294BFC6
:107360009B1BDB1A0120638684F82300DCE700BF47
:1073700004650020EC640020F064002030B50B8828
:107380008D88112B85B004462CD0262B0FD0102BC6
:1073900001D005B030BDCB7B012BFAD1426A03FA94
:1073A00005F515430023456280F82330F1E70B7A99
:1073B000012BEED1002380F823304FF4FA712748D7
:1073C00001F098FC238E002B30D0658E002D36D036
:1073D000A36B0BB19847658E618D2A462046FFF757
:1073E00015FFD6E7436AEB40DB07D2D51C4800F017
:1073F0006DFF0028CDD1636A94F82310012202FAB0
:1074000005F523EA050363620029C2D194F822300E
:10741000002BBED0238E6386FA21104801F06AFC4F
:10742000E28D218D2046FFF7F1FEB2E7A36B03B199
:1074300098470022618D2046FFF7E8FEA9E707483C
:1074400001F0BEFC626B002AA3D004AB0095294674
:1074500043F8045D28460AF089F99AE7046500209C
:10746000B4670020AADF7047ABDF7047ACDF70471E
:10747000ADDF7047AEDF7047B0DF7047704700BFC9
:1074800010B5044609F08CFE204610BD70B55E4B69
:1074900004461B680361061D96B0304600F0A2FF4B
:1074A00094F8263013F0320208BF84F8272013F036
:1074B0000C0208BF84F8282013F0300358D10FAD18
:1074C0000F93C5E90133C5E9033394F8262094F8F6
:1074D0002700AB618DF83C2001224FF0000162F3E0
:1074E0004201A26914930023ADF808308DF80A1008
:1074F0008DF808000AB1137873BBA37F13B104F1B0
:107500001E03129394F82930E289059613F0010FB7
:107510004FF000030CBF10461846CDF81E30294628
:10752000ADF81C00ADF8223018466569ADF8202092
:1075300004F12A0304F1270605AA06960995FFF728
:1075400091FF034628B9627F72BB257B002D53D083
:107550000023184616B070BD1046109214F0EFFAD2
:1075600002AB80B2ADF84400ADF846001393C4E717
:1075700000231A46012060F3420224498DF80620B8
:107580000FAD097894F8270094F826200F938DF812
:107590000410C5E90133C5E90333AB618DF805007B
:1075A0008DF83C2001AB97E71849ADF80C00024676
:1075B000012502234E6894F82710049665F34202D1
:1075C00003AD8DF80E200B958DF80C100DEB03021A
:1075D00004AE04F11C050AA9CDF83200ADF8303034
:1075E000ADF83430ADF836000A960E95FFF73CFF43
:1075F00003460028A9D0ACE72146054800F026FE46
:107600002B46184616B070BD0065002094DB0300C1
:10761000046500202DE9F0410B888E88502B8AB03C
:107620000C46054609D0512B04D18B79012B42D051
:10763000022B17D00AB0BDE8F081CB88428D9A4268
:1076400026D0EA8D9A42F5D1EB6C002BF2D095F85A
:107650003C20648A920700F19D80224629463046EC
:107660009847E7E7A27B042A5DD0062A32D0012A98
:10767000E0D16B6C002BDDD095F83C20170704F1AE
:10768000080400F1CA802246294630469847D1E7CF
:10769000876C002FD5D090F83C30B1F810C001F1C4
:1076A0001208D90700F195806346424629463046C4
:1076B000B847E388C5E7036C002BBBD090F83C20AB
:1076C000520701F1080775D43A46294630469847D3
:1076D000A379ADE76A6B002AACD0002202A930463C
:1076E000CDE90222CDE904228DF80830FFF7C4FE6F
:1076F000AC6C64B195F83C306F6BB5F83AC0D80704
:1077000000F19E8063463A4630462946A0476C6B9E
:1077100008F0B8FF012820467CD007F0DFF90023ED
:10772000C5E90D3386E7686B002865D0218A628A37
:107730002F8F002301EB020CCDE90633CDE908338E
:10774000BC454FF002038DF8183008DD40F20913F4
:10775000ADF81C3006A93046FFF78EFE6AE79DF8AB
:107760001E30ADF8201004F1140743F00103084463
:107770003946ADF822208DF81E30099713F0D7FA5C
:10778000638A228A698F1A4493B28B4238BF0B46B0
:107790006B87DFE7032000211A46009006AB0846FE
:1077A000CDE90665089409F0E1FF00287FF442AFB7
:1077B000EB6C52E703211A46009106AB08213846CC
:1077C000CDE90665089709F0D1FF002880D12B6C20
:1077D0007AE7042300933A46614606AB4046CDE97A
:1077E0000665CDE9088C09F0C1FF00287FF461AF80
:1077F000AF6CB4F810C057E74FF480672F8708F0DC
:1078000041FF0128384618D007F056F90023686375
:107810006B878BE713F074FA81E703211A46009116
:1078200006AB0E212046CDE90665089409F09EFFBF
:1078300000287FF4FFAE6B6C25E713F059FAE5E7FB
:107840000423009322463846614606ABCDE906651F
:107850000897CDF824C009F089FF00287FF457AFBE
:10786000AC6C6F6BB5F83AC04CE700BF70B483B036
:107870006D4685E806000446194944F8041B034692
:1078800095E80300174E84E80500317883F8281046
:10789000012214204FF0010562F34205D881002235
:1078A000184683F8295083F8271083F83C201A7370
:1078B0001A619A619A83C3F81E20C3F8222083F8C4
:1078C00026205A615A859A851A86DA85C3E90D22DF
:1078D000C3E91022C3E9122203B070BC704700BF95
:1078E000A4DB030094DB03000069704701230373EA
:1078F000704700BF80F82610704700BFC1817047F5
:1079000039B990F82930012262F3000380F8293058
:10791000704790F82930C181002262F3000380F89B
:107920002930704780F8271080F82820704700BF62
:1079300090F83C30816462F3000380F83C3070477B
:1079400030B490F83C3090F8294041640D1C18BFC9
:10795000012565F3041462F3C30380F8294080F81D
:107960003C3030BC704700BF8161704751F82A2F0E
:1079700002604A684260704730B5C48985B0022C05
:1079800028BF0224ADF806100023418DADF8084051
:107990000DF1060502AA4FF6FF70ADF80A30039507
:1079A000FFF764FD18B9BDF8080005B030BD1846F2
:1079B00005B030BD90F8263013F0100301D1184601
:1079C000704730B5044685B011480D4601F0B4F952
:1079D00010B1E18D11B9084605B030BD284600232D
:1079E00002AA02250DF10604ADF80A30ADF80850E0
:1079F0000394FFF73DFD43F20142904205D008B9E0
:107A00009DF8060000F00100E6E71846E4E700BF35
:107A1000046500202DE9F04F0F4690F82610C906A6
:107A200089B06CD516464FF6FF729742054600F0B6
:107A30008380C2899A4228BF1A46934639464948EC
:107A400001F07AF9044600285ED0E98D00295BD068
:107A500000200DF1100842464FF0020CADF8120064
:107A60000DF10E033846ADF810C00593FFF700FD89
:107A700043F20142904270D008B9BDF80E0000F008
:107A80000100002869D03946364801F06DF9824678
:107A9000A8B300F0D5F8033883B2BBF1000F2FD0A4
:107AA00001944FF000095C469B4606E0BDF80E309D
:107AB000E41AA4B21E44002C51D0504600F0F8F84D
:107AC000A3455B46414628BF2346C0B1ADF80E3002
:107AD0004FF001036A8DCDF8129038468DF81230C0
:107AE0000DF10E03ADF81690CDE90636ADF8102075
:107AF000FFF7C0FC0028D9D0504600F0E3F800247E
:107B0000204609B0BDE8F08FEA890DF110085A450A
:107B100013464FF0000428BF5B464246698DADF81E
:107B200010304FF6FF700596ADF81240FFF79EFC3F
:107B3000204609B0BDE8F08F0A48019301F008F92A
:107B4000019BEA8995F82610934228BF13469B466D
:107B5000CB0607463FF572AFD7E7EA89D7E7019C26
:107B6000CEE700BF0465002076DF70477FDF7047F7
:107B700086DF70478FDF704790DF7047B1DF704757
:107B8000B5DF704710B5074B03600446C06907F0C6
:107B900083FE206A07F080FE606A08B107F07CFE71
:107BA000204610BDBCDB030010B5094B0360044642
:107BB000C06907F071FE206A07F06EFE606A08B1C6
:107BC00007F06AFE204609F0EBFA204610BD00BF20
:107BD000BCDB0300F8B50446818000250121144F69
:107BE000217417261B2021732760E6806081258180
:107BF0001068C4F81300908896796676A4F8170088
:107C0000D2796273194618469DF8186006F0E6FFAF
:107C10003146E061304606F0E1FFC4E90A554FF60F
:107C2000FF73206265746562A574E3812046F8BD28
:107C3000BCDB0300007C7047407C7047407B704792
:107C4000C08870470089704751F8132F026010B444
:107C50008C888A79848082715DF8044B704700BFFC
:107C60002DE9F04186B004AC868890460F46204648
:107C70004FF4285100F09CFBCDE900784FF6FF75DA
:107C8000012094E80C003146CDE90205024800F0DD
:107C90008FF906B0BDE8F0810465002008B5132116
:107CA0008088FFF761FFB0FA80F0400908BD00BF8F
:107CB00008B56621C06907F043FC003018BF0120F9
:107CC00008BD00BF08B500231A461946C06906F072
:107CD000B7FF003018BF012008BD00BFC2898188EE
:107CE000407B01F09BBE00BF03460A46407BD9891A
:107CF00001F0AEBE70B50B88113B96B00C46054640
:107D0000462B78D8DFE813F08500880047008B0009
:107D10007700770077007700A200B1007700770046
:107D20007700770077007700BD00C500CB00D10059
:107D3000770077007700770077007700770077008B
:107D4000770077007700770077007700770077007B
:107D500077007700770077007700D4007700D700AE
:107D6000770077007700770077007700770077005B
:107D7000770077007700770077007700770077004B
:107D800077007700770077007700E700EE00770054
:107D9000F4007900020108F075FC01284FF0500052
:107DA00000F0DF8006F088FEE86220B35022002158
:107DB00012F0E1FF4FF6FF737049EB816C7BEB6AC9
:107DC0000868097902936A46012C11714FF000048A
:107DD00003F11C0103F13803009006910793A88872
:107DE000059418BF2246214602ABCDE90344CDE9F4
:107DF0000844FFF7BBFE16B070BD8B79002BFAD19B
:107E0000406AAB740028F6D01A46194606F018FFEF
:107E1000F1E700230374EEE74B890381EBE750227F
:107E2000002102A812F0A7FF02AA218A687B01F0B4
:107E30000FFE034600287AD0002302A910AAA888C2
:107E4000FFF796FEBDF81A30EB81D4E70B7AC46ACF
:107E5000002B7BD008F016FC0128204600F084801F
:107E600006F03CFE0023EB62C5E70B7A112B64D1D0
:107E7000A86A0028BFD000231A46194606F0E0FE83
:107E8000B9E716A9002321F8503D8088FFF772FE5C
:107E9000B1E70B7A002BAED14B7A0373ABE700222C
:107EA00011468088FFF768FEA5E70B894381A2E7AA
:107EB0004B89C3809FE78B7A002B9CD00026002340
:107EC0001A461946286A06F0BBFE0136A37AF6B2B6
:107ED000B342F4D88FE700231A4619468088FFF78B
:107EE0004DFE88E7406A0123AB740028C3D182E7C6
:107EF000417B234800F030FFE188814228BF0146E2
:107F000089B2E980A888FFF73BFE74E78B79002BE4
:107F10003FF471AF002600231A461946E86906F0BF
:107F20008FFE0136A379F6B2B342F4D863E7A8888E
:107F30001A461946FFF71CFE5DE7C2898188407B1F
:107F400001F0B6FD98B101236B7491E701234374EE
:107F5000638AC38122468188407B01F04DFDEC6A33
:107F600078E712F0C5FE1FE712F0CAFE7AE7034673
:107F700002460146A888FFF701FEE4E703680020F7
:107F800004650020A0DF704738B50446F82500F5E9
:107F9000F87001F095FC2A462046002112F0EBFE15
:107FA0002A466019002112F0E6FE204638BD00BFC7
:107FB0002DE9F04385B00546BDF83800BDF83C40DA
:107FC000ADF80C006F461B48ADF80E4087E80C007A
:107FD0008846BDF8349000F0C7FE05F5F8750646F2
:107FE00004E03046FFF72EFE06F04CFD284601F077
:107FF000BDFC04460028F4D10121284601F06AFCAA
:108000004A460C99284601F07FFC3946404603AAAF
:10801000FFF7B8FF38B94FF4FA71284601F07AFC3F
:1080200020EAE074A4B2284601F05EFC204605B0C8
:10803000BDE8F083046500202DE9F04F8F880E889D
:1080400085B08846054639467F4800F08DFEA6F18A
:108050001003012B814640F28B8095F854203AB3EF
:10806000002404F11603502E55F823A059D0512EA8
:108070001AD198F80630B8F808B0022B43D0BBF1FB
:10808000000F11D051466846FFF770FCBDF8003074
:108090005B4549D0514602A8FFF768FCBDF80C309B
:1080A0005B4541D095F854200134E4B29442D8D3D2
:1080B00095F84C31002B00F0C38005F5A67900241B
:1080C00004E095F84C310134A34246DD59F8040F21
:1080D00001F0CEFEB842F4D1382E03D0392E01D0B3
:1080E000362EEED1B8F80AA0BAF1000FE9D0D9F8CF
:1080F00000B0584601F0C0FE5045E2D15846414616
:1081000001F0BCFEDDE798F80E30062BB7D1DAF8A7
:1081100000305046DB68414698474846FFF78CFDE3
:10812000C0E7B8F806B0AAE7DAF800305046414692
:10813000DB6898474846FFF77FFD0028B2D0502EF5
:10814000B0D1514602A8FFF711FCBDF80C305B45D9
:10815000A8D14846FFF7C2FDA4E7112E2AD0352E3C
:1081600003D1B8F80A30002B5BD105B0BDE8F08F21
:108170002B78002B3FF471AF112E4FF000040CD080
:1081800005EB84033946586803685B6898470134F7
:108190002B78E4B2A342F3D85FE705EB84033946BA
:1081A000586803681B68984701342B78E4B2A342EF
:1081B000F3D852E7002473B105EB8406D6F85001DA
:1081C00001F056FEB84204F101031FD095F84C218E
:1081D000DCB2A242F0D895F8F8100029C5D00024EE
:1081E00005EB8403621CD3F8FC008388BB4203D0F8
:1081F000D4B28C42F4D3B8E703681B6898470134C3
:1082000095F8F810E4B28C42EAD3AEE7D6F8500104
:1082100001F02AFE013495F84C31E4B2A342CBD8E8
:10822000D9E705F5F8752846B8F80C2008F11001D3
:1082300001F09EFB284605B0BDE8F04F01F0B0BB51
:10824000112E8CD1C7E700BF0465002090F8543090
:10825000272B0CD810B4024603F11604013380F822
:108260005430012042F824105DF8044B7047002080
:10827000704700BF0378132B06D800EB830201334D
:1082800003700120516070470020704775DF704710
:1082900078DF70477ADF7047054A034692E80300AB
:1082A000002283E80300C3E902221846704700BF9A
:1082B000C4DB030008B5FFF7EDFF08B1002008BDDF
:1082C000FFF7E6FFB0FA80F0400908BDF8B50024DA
:1082D0000B4F2546A1B2384600F046FD0134064654
:1082E00048B1FFF7A7FC30B13046FFF7A7FC0128E3
:1082F00004BF0135EDB2142CECD12846F8BD00BF07
:10830000046500200A88102A03D1CA7B012A0B4683
:1083100000D0704710B40A8A01884488914201D87D
:10832000A24205D901465DF8044B9888FFF7AEBF1D
:108330005DF8044B704700BFA8DF7047704700BF6F
:1083400030B500F1080483B00546204600F04AF835
:1083500021460DF106020120FFF7EEFF044628B981
:10836000044B05481D602946FFF784FF204603B0F3
:1083700030BD00BF006500200465002030B482B02D
:108380006C4684E806000346064943F8081B054688
:1083900094E80300002183E805002846A98002B084
:1083A00030BC7047D4DB030062DF704763DF704787
:1083B00001220023018082704360704700234160E6
:1083C00083700380704700BF8378012B08D0426818
:1083D0000AB180207047012B8CBF8020002070479D
:1083E0001020704708B5837873B9436863B10246BB
:1083F000911C1846FFF7D8FF10205168FFF7D6FFF1
:10840000B0FA80F0400908BD012008BD4DDF70477B
:108410004EDF70474FDF704750DF70474BDF7047CC
:1084200010DF70477CDF70477DDF704760DF70478B
:1084300069DF704761DF704766DF704767DF70474D
:10844000704700BF042009F037BD00BF30B52C4C89
:108450002C4D83B04FF0FF31D4F8080307F070F8CB
:108460000028F7D06DB301A8FFF7D8FF0528034611
:10847000F0D00028F7D1019A911E10460929F2D8B0
:108480000FF2040C5CF821F0F3840200F384020084
:108490006784020067840200678402006784020028
:1084A00067840200DD840200DD840200DD840200B6
:1084B0000A2B04D0092B21D00B2B02D1012006F06E
:1084C00069F801A8FFF7AAFF0528C3D00028F8D152
:1084D000019BA3F10902022AF3D8E9E70A2A04D092
:1084E000092A09D00B2ABED10123184606F052F8FA
:1084F000B9E710F08BFAB6E70223F6E70220DEE7D1
:10850000046500200D8A03002DE9F04F89B008F0C2
:10851000B9F801284FF4FA7000F0848106F0CCFA23
:108520000646B34C06F1080304F5587704F5007AC3
:1085300003934FF0FF31D4F8040307F001F800284B
:10854000F7D04FF4FA730DF116013046ADF816303E
:10855000FFF770FF10B10528EBD0F2E7B6F80490F2
:10856000B9F1130F00F2208104EB8903D3F81453FF
:108570001DB131462846FFF7BDFB3388013B1B2B5D
:108580005BD8DFE813F0A3005A005A005A005A00E3
:108590005A005A005A005A005A005A005A005A000B
:1085A0005A005A00A8001C005A005A005A005A00EB
:1085B0005A005A005A005A005A005A00FE00DFF8CA
:1085C00044824FF0000B58F8043F184633B1FFF7D0
:1085D00031FB18B10BF1010B5FFA8BFB4745F2D170
:1085E000BBF1000F06D194F810331BB1594604209B
:1085F00009F046FC2846FFF721FB012800F0F18036
:10860000D4F8CC2262B10223CDF81890002196F85C
:1086100008C00093084606ABCDF81CC009F0A6F8C8
:1086200009F1C40804EB8803586810B103685B685B
:10863000984704EB880300225A6031465046FEF703
:108640009DFE31466B4801F0C9FDB4F812334B452D
:10865000338800F0AB80102B1ED02DB32846FFF7D7
:10866000EDFA012803D131466348FFF74BFE284657
:10867000FFF7E4FA02281BD0604801F0F5FC00BBCC
:1086800031465B48FFF7D8FCD4F86833002B3FF441
:1086900058AF3046984754E7F37B012BDDD1B388C0
:1086A000A4F81233002DD9D131465348FFF72AFEE2
:1086B0005348314601F0BAFB504801F0D5FC002880
:1086C000DED031464D4801F0D1FCD9E700214846C3
:1086D000FFF7B2FEB1E74FF00008D4F80C03CDF875
:1086E0000080434642460321464D08F0ADFA55F856
:1086F000043F184633B1FFF79DFA18B108F101089D
:108700005FFA88F8BD42F2D194F81033002B58D1AB
:1087100009F1C40804EB8805686820B103685B6848
:10872000984700236B60F37B012B0BBF94F8F33267
:1087300094F8F93294F8F2B294F8F8B20293302037
:1087400008F01EFD029B0093039A5B4649460546CE
:10875000FFF740FA04EB880328465D60FFF76EFAE6
:10876000012851D0D4F8C822002A3FF466AF012373
:1087700000210093084606ABCDF8189008F0F6FFEC
:108780005BE7D4F86423002A3FF457AFCDF8189084
:108790000223002196F908C00093084606ABCDF8E5
:1087A0001CC008F0E3FF48E70546E6E6102B3FF45F
:1087B00073AF112B7FF451AF4FF6FF73A4F8123350
:1087C0004BE718F1000118BF0121042009F058FB04
:1087D00094F81033002B9BD00121042009F050FBAA
:1087E00096E7D4F8BC22002A7FF40DAF18E700BF4B
:1087F0000465002060670020B4670020D467002073
:10880000C467002014680020D4F8B822002A3FF47E
:1088100014AF0021009006AB0846CDF8189008F080
:10882000A5FF0AE712F064FA06467AE638B5044670
:10883000FFF7AAFB04F50070FEF7C4FC04F50F7007
:10884000FEF752FC04F5177001F046FC04F52C709D
:10885000FFF722FD04F5307001F0B8FA04F534702A
:1088600001F0E8FB4FF480530025C4F8E8322248B9
:108870002249234AC4F8EC0240F20113C4F8F01272
:10888000C4F8F422A4F8F832A4F8FA52A4F8FC527E
:10889000294604F54570502212F06DFAC4F8FF52D3
:1088A00094F8FF3294F80223C4F80453032143F0F0
:1088B000010361F306130A4301204FF6FF71C4F868
:1088C0000853C4F80C5384F8FE52C4F86853C4F833
:1088D000645384F8100307251020A4F81213032111
:1088E00084F8010384F8FF3284F8005384F80223EB
:1088F00084F80313204638BD010A17000300010164
:1089000017000300F0B580F8FC128DB080F8FD224E
:10891000BA4E044608F0D8FC08F0DEFC08F096FCDD
:108920000CA8336940F8243DB549FFF779FD18B12B
:10893000002528460DB0F0BD0120FFF769FD01209C
:10894000FFF764FD0120FFF765FD09A8FFF764FD4F
:10895000099B9B0706D5AB4BD3F8043513B902200E
:1089600005F018FE0023A84A94F8ED52049209A9D4
:108970000120CDE909330B938DF82450FFF758FD02
:108980000028D5D194F8FD320B90CDE90900181CD0
:1089900018BF012094F8FC528DF82700049A8DF836
:1089A000263009A940208DF82550FFF741FD002809
:1089B000BED194F8EC120990034661F30003CDE9AF
:1089C0000A00049A8DF8243009A9A020FFF730FD91
:1089D0000028ADD1D4F8E8320A900B90049A09939C
:1089E00009A9A120FFF724FD0028A1D194F8FC32A9
:1089F000002B40F0B38094F8FD32002B48D00023C8
:108A00000225B4F8F472049A099309A92320CDE948
:108A10000A338DF82450ADF82670FFF709FD0028C1
:108A200086D1CDE9090094F8FD72B4F8F6320B90C6
:108A3000049A8DF8245009A920208DF82670ADF8ED
:108A40002830FFF7F5FC00287FF472AF099094F806
:108A5000F832049A8DF82450CDE90A0009A92220A1
:108A60008DF82630FFF7E4FC00287FF461AFCDE9F4
:108A700009000B9094F8F932049A8DF8245009A952
:108A800021208DF82630FFF7D3FC00287FF450AF6B
:108A900004A8FFF7CBFC00287FF44AAFC3B2CDE9AE
:108AA000070043F0010307A902208DF81C30FFF7EF
:108AB000C5FC00287FF43CAF04F52C70FFF7FAFBEF
:108AC000054600283FF434AF0CA8337D00F8283D5C
:108AD0000B224E49FFF7A6FC00287FF429AF94F83B
:108AE000FD32002B40F0848003220021012006F09B
:108AF00033F8C4F8040300283FF41AAF05AB03268B
:108B0000CDE900634FF4A06200234149414807F0DA
:108B10005BF832460021012006F01EF8C4F8080375
:108B200000283FF405AF06ABCDE90063C82200235F
:108B300039493A4807F048F8394B4FF480021A6037
:108B4000384B00930023184601224FF4807108F03F
:108B500023F8C4F80C0300F02FFFEAE60990012384
:108B6000B4F8EE52049A8DF82430CDE90A0009A930
:108B70002320ADF82650FFF75BFC00287FF4D8AE29
:108B8000CDE9090094F8FC72B4F8F0520B90049A05
:108B90008DF8243009A920208DF82670ADF82850D2
:108BA000FFF746FC00287FF4C3AE099094F8F25218
:108BB000049A8DF82430CDE90A0009A922208DF805
:108BC0002650FFF735FC00287FF4B2AECDE909004E
:108BD00094F8F3520B90049A8DF8243009A92120BF
:108BE0008DF82650FFF724FC00283FF404AF9FE6E1
:108BF00004F5307001F0F8F876E700BFE0DB030021
:108C000041840200007002400060002008DC030084
:108C100014DC03000985020018DC03004D84020007
:108C200000E100E04584020000B583B002AB0846D5
:108C300023F8022D1946FFF7F7FB20B99DF806002F
:108C400003B05DF804FB002003B05DF804FB00BF37
:108C500070B4254B0C4606460FCB85B06D4607C554
:108C60009DF900202B80A24237D09DF90130A3420C
:108C700033D09DF90230A3422FD09DF90330A34297
:108C80002BD09DF90430A34227D09DF90530A34293
:108C900023D09DF90630A3421FD09DF90730A3428F
:108CA0001BD09DF90830A34217D09DF90930A3428B
:108CB00013D09DF90A30A3420FD09DF90B30A34287
:108CC0000BD09DF90C30A34207D09DF90D30A34283
:108CD00003D0002005B070BC7047012086F8FE422A
:108CE00005B070BC704700BFF8DB030090F9FE02CE
:108CF000704700BF70B5054682B0D0F80C030C4633
:108D000007F0CEFF0B4AA402A2FB04320023064662
:108D10009209D5F80C030093042107F095FF3EB9A2
:108D2000D5F80C03009633463246032107F08CFF3A
:108D300002B070BDD34D6210132906D800EB81003C
:108D4000D0F8140308B1FEF775BF0020704700BFCC
:108D5000B0F81203704700BF01290CBFB0F8EE0253
:108D6000B0F8F402704700BF13299ABF00EB8100EE
:108D7000D0F814030020704710B5064C0021D4F839
:108D8000080306F01FFAD4F804030021BDE81040E0
:108D900006F018BA0465002090F8103303B9704744
:108DA00010B582B0D0F80C4307F0EEF8002302466D
:108DB00000932046012107F047FF02B010BD00BF1D
:108DC000F0B583B0002507462B46D0F80C0300957C
:108DD0002A46032107F038FF07F5447407F5587653
:108DE00054F8041F084621B1FEF724FF08B10135ED
:108DF000EDB2B442F4D197F810330BB903B0F0BD23
:108E0000291C18BF0121042003B0BDE8F04009F07F
:108E100037B800BF0148FFF709BD00BF0465002057
:108E20003CDF70473DDF704711DF704713DF70474D
:108E3000B0DF7047B2DF70472DE9F0419EB00646C3
:108E400004A8148815460F46FEF790FDBDF81030B3
:108E5000A34202D01EB0BDE8F081AB79043B022BE7
:108E6000F8D931465048FFF77FFF4FF00008022342
:108E7000314604463846CDE90688CDE908888DF8A4
:108E80001830FEF797FD06A9002866D03046ADF8E9
:108E90001C80FFF7CDFF2D7B012DDBD1434F4146D9
:108EA0003E22384611F067FF1EAA082322F86A3DC9
:108EB0003F492B463046FFF7BDFF68462146FEF787
:108EC000C3FE00983860BDF804309DF80620BA71E2
:108ED000BB802046FEF7B0FE002846D13349354816
:108EE0004FF6FF720B7883EA122383EA131343EAE7
:108EF00002229BB282EA0332013182EA43138142A9
:108F00009AB2EFD1294B2C489A870021FEF77AF9C3
:108F10002046FEF7C3FEFF210020FFF783FFB121AB
:108F20000020FFF77DFF002894D1FFF77DFF002888
:108F300090D1224A4FF0FF314FF01023C2F8801039
:108F4000C2F880115869FFF771FF002882D180F3C1
:108F50001488586900F01AFF7CE740F2FD13304690
:108F6000ADF81C30FFF764FF74E70AA92046FEF74E
:108F7000BBFE0028B2D01EAB13E903000B0C386017
:108F8000B980BB7118AD0FCD0D4EC7F807000AAD03
:108F90007160B260F3600FCD11360FC695E807001F
:108FA00086E807009AE700BF04650020807F002064
:108FB000B47F0020BC7F00200467002000E100E0B7
:108FC000877F002070B582B06C4605460C4920466C
:108FD000FFF7F4F92E4694E806002846FFF7CEF98D
:108FE000084B46F8103B20460749FFF7E7F93046A3
:108FF00094E80600FEF73AFC284602B070BD00BFB8
:1090000058DC0300A0DC030078DC030070B5AAB0D4
:109010000546FFF795F918B1044620462AB070BD01
:1090200016AE30462A49FFF7C9F996E8060002A8AD
:10903000FEF71CFC02A8FEF759FC02A80421FEF76B
:1090400059FC02A81421FEF759FC02A8FEF71EFAEB
:10905000044628B102A8FEF711FA20462AB070BDD6
:10906000103528461821FEF745FC28461721FEF743
:1090700045FC284601221749FEF762FC2846FEF708
:1090800005FA04460028E5D16C4620461249FFF750
:1090900095F994E806003046FEF7E8FB3046FEF707
:1090A00025FC02213046FEF725FC02213046FEF762
:1090B00027FC3046FEF7EAF9044618B13046FEF7C1
:1090C000DDF9C7E701213046FEF756FCF6E700BFA1
:1090D00068DC0300398E020088DC03000020704742
:1090E000D0F8C030988970472DE9F041064608460F
:1090F0001C461746FEF7F8FB224605463946D0F8CF
:10910000C00008F035FC844206D9D5F8D8301BB130
:10911000211A89B230469847D5F8D0301BB1304675
:10912000BDE8F0411847BDE8F08100BF08B592B234
:10913000D0F8C00008F068FC08BD00BF00B583B0DF
:10914000D0F8C0000DF10702002108F097FC20B113
:109150009DF8070003B05DF804FB4FF0FF30F9E71E
:10916000D0F8C00008F0F2BBD0F8B0309889704752
:10917000D0F8B00008F0EABB10B501680C4A8C6961
:10918000944282B00BD1D0F8C00001220DF107014A
:1091900008F03AFC40B19DF8070002B010BD012272
:1091A0000DF10701A047F5E74FF0FF30F5E700BFED
:1091B0002D91020000B583B0D0F8B0000DF1070288
:1091C000002108F05BFC20B19DF8070003B05DF8BA
:1091D00004FB4FF0FF30F9E700B550F8103C0E4AA1
:1091E0009B69934283B00CD1D0F8B00001220DF1FD
:1091F000070108F009FC60B19DF8070003B05DF8B5
:1092000004FBA0F11001084601220DF10701984767
:10921000F1E74FF0FF30F1E72D910200F0B583B098
:109220006D4604460F4628461A49FFF7C7F895E8E9
:1092300006002046FFF7A2F8174B1849002603F155
:1092400008024FF47A704833C4E90436A061226002
:109250002846FFF7B3F895E8060004F12000FEF772
:1092600005FB28460E49FFF7A9F895E8060004F12A
:109270007000FEF7FBFA2046A4F8C470C4F8C06082
:10928000C4E93466C4F8D860C4F8C86084F8CC6017
:1092900003B0F0BDCCDC0300E4DC0300BCDC030065
:1092A000ACDC0300F8B506461D480F46FFF75CFD31
:1092B000F0B1FEF7C5FC033884B207F0E3F90128EA
:1092C000204618D005F0F8FB05468DB12246294608
:1092D000D6F8C80008F098FB88B907F0D3F9012840
:1092E0004FF00104284617D005F0F8FB2046F8BDE2
:1092F00000242046F8BD11F0FBFC0546E5E70346D7
:1093000039462A4606F12000FEF784FB044607F0A2
:10931000B9F901282846E7D111F0F2FC2046F8BD42
:10932000046500202DE9F84F0446254892469846EA
:109330000F46FFF719FD50B304F1200906463946E0
:109340004846FEF737FB10B394F8CC301FFA88FB81
:10935000ABB1D4F8C80090B15A46514608F008FBAA
:10936000D4F8C8309B89054630469EB2FEF768FCAB
:10937000033886420FDA45462846BDE8F88F5B463B
:10938000524639464846FEF745FB0028F3D10025F2
:109390002846BDE8F88F20463946FFF783FF0028AE
:1093A000F5D04545E7D2ABEB05039BB20AEB0502CE
:1093B00039464846FEF72EFB0028E9D04546DBE754
:1093C000046500202DE9F043044683B054F8103CB6
:1093D0002B489E6A8DF80710FFF7BAFC294B9E4276
:1093E0000546A4F11007014627D12548FFF7BCFC2C
:1093F0000646F0B104F1100840462946FEF7DAFAB5
:10940000B8B194F8BC3003B3D4F8B800E8B10DF1AA
:109410000701012208F0ACFAD4F8B8308146304692
:109420009C89FEF70DFCA4B20338844217DA0120B0
:1094300000E0002003B0BDE8F083384601230DF1C1
:109440000702B04703B0BDE8F08329464046012338
:109450000DF10702FEF7DEFA03B0BDE8F0833846EF
:109460002946FFF71FFF0028E3D0B9F1000FDED136
:109470000DF10702294640460123FEF7CBFAD9E752
:1094800004650020259302002DE9F04F044683B0C7
:1094900054F8103C30489E6A88461746FFF758FC3F
:1094A0002E4B9E420546A4F1100935D101462A48AB
:1094B000FFF75AFC064650B304F1100A50462946FD
:1094C000FEF778FA18B394F8BC201FFA87FBB2B104
:1094D000D4F8B80098B15A46414608F049FAD4F891
:1094E000B820019030469489FEF7AAFBA4B2033855
:1094F00084421ADA3E46304603B0BDE8F08F5B4640
:10950000424629465046FEF785FA0028F2D1002649
:10951000304603B0BDE8F08F01463B464246484620
:10952000B44603B0BDE8F04F604748462946FFF710
:10953000B9FE0028EBD0019EB742DBD9ABEB0603A6
:109540009BB208EB060229465046FEF763FA002854
:10955000DED03E46CFE700BF046500202593020021
:109560002DE9F0410568294BAD6A82B09D428DF826
:10957000072029D1044626480E46FFF7F5FB05468D
:10958000F0B104F1200738463146FEF713FAB8B1BE
:1095900094F8CC30FBB1D4F8C800E0B10DF107016C
:1095A000012208F0E5F9D4F8C8309B8980462846A6
:1095B0009DB2FEF745FB0338854216DA012000E034
:1095C000002002B0BDE8F08101230DF10702A84799
:1095D00002B0BDE8F0813146384601230DF10702A3
:1095E000FEF718FA02B0BDE8F08120463146FFF7D9
:1095F00059FE0028E4D0B8F1000FDFD10DF10702C9
:10960000314638460123FEF705FADAE725930200D2
:10961000046500202DE9F041044682B023682B4800
:109620009E6A8DF80710FFF793FB294B9E42054673
:10963000014627D12548FFF797FB0646F0B104F114
:10964000200738462946FEF7B5F9B8B194F8CC3072
:1096500003B3D4F8C800E8B10DF10701012208F006
:1096600087F9D4F8C8309B89804630469EB2FEF711
:10967000E7FA0338864217DA012000E0002002B042
:10968000BDE8F081204601230DF10702B04702B08A
:10969000BDE8F0812946384601230DF10702FEF7A7
:1096A000B9F902B0BDE8F08120462946FFF7FAFD7E
:1096B0000028E3D0B8F1000FDED10DF107022946F2
:1096C00038460123FEF7A6F9D9E700BF046500205C
:1096D000259302002DE9F04F044681B023682F48FE
:1096E0009E6A88461746FFF733FB2D4B9E42054680
:1096F00036D101462948FFF737FB814658B304F1BC
:10970000200A50462946FEF755F920B394F8CC308C
:109710001FFA87FBBBB1D4F8C800A0B15A46414636
:1097200008F026F9D4F8C8309B89064648461FFA47
:1097300083F9FEF785FA033881451ADA3E4630464A
:1097400001B0BDE8F08F5B46424629465046FEF721
:1097500061F90028F2D10026304601B0BDE8F08F53
:1097600001463B4642462046B44601B0BDE8F04FB4
:10977000604720462946FFF795FD0028EBD0B74209
:10978000DCD9ABEB06039BB208EB06022946504638
:10979000FEF740F90028DFD03E46D0E70465002000
:1097A0002593020010B50A4B0446D0F8C800236088
:1097B0004033236110B103685B68984704F170007F
:1097C000FDF75CFE04F12000FDF758FE204610BDB9
:1097D000ECDC030010B50C4B0446D0F8C800236045
:1097E0004033236110B103685B68984704F170004F
:1097F000FDF744FE04F12000FDF740FE204607F08F
:10980000CFFC204610BD00BFECDC0300F8B50446D9
:10981000182007F0B5FC00220546012108F06EF87B
:109820002846C4F8C050B4F8C41008F079F82046AF
:10983000FEF786FD054608B12846F8BD01211C4803
:10984000FFF78AFA04F12006074610213046FEF79A
:1098500051F82A4630461121FEF764F83946304661
:10986000FEF74CF830461349FEF77EF83046FDF718
:109870000DFE05460028DFD1703420460C21FEF78E
:1098800039F8204601220C49FEF752F829462046B5
:109890001122FEF747F839462046FEF72FF82046FA
:1098A0000649FEF761F82046BDE8F840FDF7EEBD39
:1098B00004650020DCDC0300E9900200E0DC03002A
:1098C0000022012142700170C0E90122C28182811F
:1098D000704700BF017001B1704710B504460A20FF
:1098E00005F07CF9606010BD037810B5044613B92B
:1098F000406805F0D1FF002301226370C4E9013301
:10990000E381A381227010BD002381608281C38125
:10991000704700BF037870B504460D46B3B9406880
:109920001149AD02A1FB053101238909637005F0DE
:1099300007FEB0B94FF0FF352378002666701BB1E3
:10994000606805F0A9FF6660284670BD032200210B
:10995000012005F001F960600028E1D14FF0FF35EA
:10996000F2E7E589ADB2E7E7D34D62104078704782
:1099700070B58689964204463546806828BF1546EC
:1099800021B12A4611F0D3F9A068A689E3892B44B6
:109990002844761B9BB2A060A681E381284670BD57
:1099A000406820B100231A46194605F049B97047AE
:1099B000B1DF7047B2DF704708B50C480EF060FFAA
:1099C0000B490A4809F06EFD58B10A49074809F0E9
:1099D00069FD00B108BD07490448BDE8084009F029
:1099E0007DBD0349014809F079FDEEE7FC7E0020CA
:1099F00080DD030094DD030010B586B00323CDE9BC
:109A0000030114460093104603AB034A059450210A
:109A100007F0ACFE06B010BD959B02004FF6FF7339
:109A20009A4211D070B586B00D4603230021064638
:109A300014460093084603AB044A0396CDE9045448
:109A400007F094FE06B070BD00207047919C0200A4
:109A500030B5144B144CA1B015460A4601280CBF72
:109A600021461946684612F023F8694607A80F4BAD
:109A7000002209F097FE07A80AF028F818B9002478
:109A8000204621B030BD044607A809F02BFE50281F
:109A9000F5D10246294607A809F07AFF07A809F080
:109AA000D1FFEDE764DD030048DD0300FC7E00200C
:109AB0002DE9F0414FF6FF73A0B09A4200AF5CD0A1
:109AC000314B0C463149012818BF1946384611F070
:109AD000EFFF394607F11C002D4B002209F062FE12
:109AE00007F11C006D4609F0F1FF50B9002407F1A1
:109AF0001C0009F0A7FF2046AD468037BD46BDE8F3
:109B0000F08107F11C0009F0EDFD061E08DD07F1EC
:109B10001C0009F07BFF311807F11C0009F058FF09
:109B200007F11C0009F0DEFD061E08DD07F11C0030
:109B300009F06CFF311807F11C0009F049FF07F12B
:109B40001C0009F0CFFD0028D0DDC31D23F0070362
:109B500086B2E846ADEB030D6946324607F11C00BC
:109B600009F016FF2046694632460323FFF720FF1F
:109B7000B0FA80F46409C546B9E70024204680376E
:109B8000BD46BDE8F08100BF64DD030048DD030091
:109B9000FC7E0020F0B51446ADB0012804AF0E469F
:109BA00007BF528A35493649E28D384611F080FFA9
:109BB000394634486D4609F075FC78B9394607F1E5
:109BC0003C00304B012209F0EDFD07F13C0009F0AB
:109BD0007DFF40B9A437AD46BD46F0BD39462948A2
:109BE00009F0D6FCEAE7502107F13C0009F0A8FD96
:109BF0005022214607F13C0009F0E2FC202200211E
:109C000007F11C0011F0B7F831461F48FFF7ACF818
:109C100007F11C012022FEF723F83B7FA3B994F83B
:109C2000491094F84D3094F84E20039194F84A105E
:109C3000029194F84B10019194F84C10009107F1A7
:109C40001C00124911F034FF07F11C0011F077FFDE
:109C5000013084B2E1B207F13C0009F071FD07F177
:109C60001C01224607F13C0009F0AAFC07F13C0068
:109C700009F0E8FEA437AD46BD46F0BD48DD03005F
:109C800064DD0300FC7E002004650020A8DD0300E5
:109C90002DE9F043A3B000AF07F18804002324F8B6
:109CA000823D0D46804619469146032322462846AA
:109CB000FFF780FEFB886E4623B9B5468C37BD465C
:109CC000BDE8F0830733DB08A6EBC3039D462246BD
:109CD000284669460323FFF76DFE6D4604460028BB
:109CE000EBD1274B27494A46B8F1010F18BF194657
:109CF00007F1080011F0DCFE07F1080107F124006C
:109D0000214B012209F04EFD07F1240009F0DEFE8F
:109D10000028D2D0214607F1240009F059FE07F1AE
:109D2000240009F0DFFC041E08DD07F1240009F01F
:109D30006DFE211807F1240009F04AFE07F1240006
:109D400009F0D0FC041E08DD07F1240009F05EFED6
:109D5000211807F1240009F03BFEFC8807F12400DC
:109D6000E1B209F0EDFC2246294607F1240009F092
:109D700027FC07F1240009F065FEB5469EE700BF09
:109D800064DD030048DD0300FC7E0020F0B40346E0
:109D9000186880F308885868FF2464B2EFF30585DB
:109DA000002D01D1A64600472546064621273FBA89
:109DB000F0B40024002500260027F0B4F92040B2BA
:109DC000004700BFF0BC704775DF704710B44FF01C
:109DD00010144FF448010022C0E90041C0E90222FA
:109DE0005DF8044B704700BF014800F031B900BF77
:109DF000D4670020F8B500240B4F2546A1B23846A1
:109E0000FEF7B2FF0134064648B1FDF713FF30B14B
:109E10003046FDF713FF022804BF0135EDB2142CC4
:109E2000ECD12846F8BD00BF046500200B881F2B2D
:109E300012D110B50A4682B052F8080F8C885168CA
:109E40006B4603C32046BDF80030ADF802306946CA
:109E5000FFF7BAFF02B010BD704700BFA1DF704727
:109E6000A3DF7047A4DF704700238382704700BFE1
:109E7000806900F0DDB800BF808A70472DE9F041AD
:109E80000B88CE88382B86B00C46054642D0392B3D
:109E900025D0362B02D006B0BDE8F081806900F0F5
:109EA000C7F801466148FEF75FFFFDF7C9FE05F1FF
:109EB0001C0807466EB9E28904F110014046FFF71D
:109EC00057FD2B8D2BB1033FBFB2E389013FBB424E
:109ED00070DA4046FFF764FD06B0BDE8F0810B7B09
:109EE000012B57D0022BD6D1036B002BD3D090F887
:109EF0003420B1F80480CE89920701F1100700F1F7
:109F00008480324639462846984761894046FFF7A3
:109F1000A9FFC0E700F11C07002E35D10A8A384698
:109F20003146FFF725FD94F80C80B8F1010F2BD0D6
:109F3000B8F1040FAFD1A86900F07AF801463B48A8
:109F4000FEF712FFFDF77CFE2B8D053880B28342B1
:109F500028BF0346002B37D0218AE289A869AC8A42
:109F6000ADF80C600A44696A05918DF80C80ADF873
:109F70001230ADF81020ADF80E4000F059F803A9EA
:109F8000FFF76EFF002886D03846FFF709FD06B0C0
:109F9000BDE8F081C36A002B3FF47DAF90F8342018
:109FA000CE8901F11007D1071ED432463946284622
:109FB000984770E7A86900F03BF86A8DA98AFFF717
:109FC0004DFF002885D166E740F20511AA8AA869ED
:109FD000ADF80C10CDE90433ADF80E2000F028F8F0
:109FE00003A9FFF73DFFCFE703201A460090314653
:109FF00003AB3846CDE90357059607F0B7FB0028B9
:10A000007FF449AFE689EB6ACFE703201A46009058
:10A01000314603AB3846CDE90357059607F0A6FB5A
:10A0200000287FF472AF2B6BE6896AE70465002095
:10A030008088704710B504460430FFF741FC034B9D
:10A04000236000232375204610BD00BF0100FFFFE1
:10A05000017D01B1704710B504460430FFF73AFCAA
:10A060000123237510BD00BF007D704710B50B881C
:10A07000322B18D0332B0CD0302B00D010BDCB8816
:10A08000041D0BB94B89FBB92046BDE81040FFF712
:10A0900087BCCB88041D002BF6D14A89002AF3D057
:10A0A00002EB420208E0CB88041D002BECD14A8968
:10A0B000002AE9D002EB82025200023292B20A3147
:10A0C0002046FFF755FCDFE70A310A222046FFF75A
:10A0D0004FFCD9E78ADF704730B403461F220124C2
:10A0E00018628025828480F82D4000220B4C80F875
:10A0F0002E50C0E911228262C0F8464080F82C2020
:10A1000080F82F20028680F838204263C0E90F22B1
:10A11000C264A0F8502030BC704700BFA0005000BF
:10A120002DE9F0478CB06F4638460C4687E80C00A6
:10A13000FEF74AF9C0B210282ED0019F072206234D
:10A14000D4F818A094F81C808DF80D208DF80C30F0
:10A15000C6084FF000091F22002104A810F00BFED2
:10A16000B8F1010F06D8B9F1000F34D000200CB0BF
:10A17000BDE8F08703AB514613F809C043460A789F
:10A180004878D443604502F10105234407D013F019
:10A19000FF032944F3D1E6E703220223D0E7013A83
:10A1A0000231D5B2DFD02A4604A810F0C0FD002D40
:10A1B000D9D004AC02E012F0FF05D4D032462046DC
:10A1C000394610F0A5FD3444AA1B0028F3D1012024
:10A1D0000CB0BDE8F0874FF00109BCE7F0B50B8883
:10A1E0008E88103B85B00C4605460D2B2CD8DFE839
:10A1F00003F070072B2B2B2B2B2B2B2B2B5B2B2DBF
:10A20000836AF340DB071FD55048FFF7F3FDD8B949
:10A21000AB6A95F82C20012404FA06F623EA060618
:10A22000AE628AB995F82D3073B11F232D62AB84CD
:10A2300005F1200105F14400FFF74CFF20B9444827
:10A24000FEF7AAFD85F82C4005B0F0BD90F92E2050
:10A2500091F91B309A4220DC90F8383001F1080760
:10A260009BB1002602E0D6B2B3420CD96B6B03EB74
:10A27000C6030CCB39462846FFF752FF721C95F8EF
:10A2800038300028EFD09E4207D095F82F30002BB1
:10A2900038D094F82430012B41D805F1200100205A
:10A2A000FFF718FF05B0F0BD0B7A012BCCD10024CD
:10A2B00080F82C402648FEF783FD2A6C002AC3D084
:10A2C00004AB0094214643F8044D204607F04EFAB3
:10A2D000BAE7CB7B022BB7D10122836A02FA06F6DA
:10A2E00033430022836280F82C20ADE70139CCB2E1
:10A2F000911CD2D0022C20D95388ADF80C302A8E74
:10A300009A42CAD1EA6B002A9ED004AB012143F8DD
:10A31000047D38460091242107F028FA94E7226A48
:10A3200011785078CC43FF2801F101062344DDD099
:10A3300013F0FF033244F3D1AFE7224603A810F035
:10A34000F6FC002CA9D0BDF80C30D8E7C46700207B
:10A3500004650020704700BF203002F051B800BFF4
:10A36000203002F03FB800BF203002F04FB800BFED
:10A3700038B5437F0BB9002038BD00F16804204692
:10A380000D4602F04BF80028F5D12046294602F090
:10A3900017F8012038BD00BF2DE9F0475AB3064633
:10A3A000DFF8588033681B684D1E434517464FF051
:10A3B000000400F1680915F801AF16D1737F13B9D5
:10A3C0002046BDE8F087484602F028F80028F7D17B
:10A3D0005146484601F0F4FF0134A742F0D03368FB
:10A3E00015F801AF1B684345E8D051463046984701
:10A3F0000028F1D1E4E71446E2E700BF71A30200B0
:10A4000010B4837E1F2B4FF0010288BF03F01F039F
:10A41000C27603F5E0738CBF284A4FF0A04240F2A9
:10A420000C6142F82310437E1F2B86BF03F01F03ED
:10A43000224A4FF0A04203F5E07340F20C6142F86B
:10A44000231003694FF0CC72C3F824250369062258
:10A45000C3F800250369827EC3F808250369427E9C
:10A46000C3F80C2590F91830002B14DA144A03F0C5
:10A470000F031A446023137690F91830002B07DB82
:10A48000104903F01F0001225B09824041F823209C
:10A490005DF8044B70475909603103F01F03012434
:10A4A000084A04FA03F342F8213090F91830002BDF
:10A4B000DCDB1344602283F80023DDE70003005057
:10A4C000FCEC00E000E100E00AB9104670472DE91D
:10A4D000F041054600F12008404614461E460F464E
:10A4E00001F07CFF2B69C3F888752A690123136288
:10A4F0002A69C2F834852A69C2F838452A69136086
:10A500002A6902E0D2F824311BB9D2F84C11002993
:10A51000F8D00023C2F84C312A6902E0D2F82411A5
:10A5200019B9D2F85C110029F8D00023C2F85C31C7
:10A530002B696EB9D3F8242152B90122DA612A6954
:10A54000D2F84831002BFBD00023C2F8483109E093
:10A5500001225A612A69D2F80431002BFBD0002372
:10A56000C2F804312B69D3F824211AB10022C3F8B0
:10A5700024212B69D3F83C052866C0B2BDE8F081E0
:10A5800010B50446683084F8B01001F027FF0123AD
:10A59000637710BDF8B504460020236994F8B02015
:10A5A0006077C3F88825236901271F62236904F1B6
:10A5B0006806C3F8446530460D4601F021FF236963
:10A5C000C3F8480523699F60236902E0D3F824217A
:10A5D0001AB9D3F85021002AF8D00022C3F850212C
:10A5E000304601F00DFF236940BB0022C3F8602113
:10A5F000236915B9D3F824212AB301225A612269AB
:10A60000D2F80431002BFBD00023C2F804312369B7
:10A61000D3F8240168B10022C3F824212369D3F8B8
:10A62000C404C3F8C404022803D0042814BF0420BF
:10A630000320F8BDD3F82421002AD6D1D3F8602115
:10A64000002AF7D0D1E70122DA612269D2F8483135
:10A65000002BFBD00023C2F84831D8E770B503695E
:10A6600090F8B02000214177C3F8882503690126BE
:10A670001E62036900F168050446C3F84455284684
:10A6800001F0BEFE2369C3F8480523699E60236973
:10A6900002E0D3F824211AB9D3F85021002AF8D0C7
:10A6A0000022C3F85021284601F0AAFE236918BBF6
:10A6B0000022C3F86021236901225A612269D2F87D
:10A6C0000431002BFBD00021C2F804112369D3F818
:10A6D000240160B1C3F824112369D3F8C404C3F87A
:10A6E000C404022803D0042814BF0420032070BD32
:10A6F000D3F82421002ADBD1D3F86021002AF7D037
:10A70000D6E700BF70B5294C6369D3F86421002AED
:10A710003AD1D3F86821E2B9D3F8042162B1227F9B
:10A720000021C3F804113AB1D4F8B820D3F83C059D
:10A7300020660AB190476369D3F8242142B1002210
:10A74000C3F82421D3F8D024C3F8D02401225A61BD
:10A7500070BD0022C3F86821154822770123637772
:10A7600001F03CFED4F8B43003B198476369104857
:10A77000C3F844050023637701F042FE63690122B8
:10A78000C3F848055A63C7E7002204F12006C3F85E
:10A79000642101253046257701F020FE63694022BF
:10A7A000C3F83465C3F838251D63B2E7706800202C
:10A7B000D868002038B50E4C0E4A20464FF47A7304
:10A7C00040F8202B0025C4E9015301F0EFFD04F10E
:10A7D000680001F0EBFD084A084B6577D2E91612D4
:10A7E000032020766176A276C4E9043338BD00BF29
:10A7F00070680020D0DD0300DCDE03000030004084
:10A80000704700BF10B50446006C044B236010B1C4
:10A8100003685B689847204610BD00BF18DE030040
:10A82000704700BF704700BF704700BF10B50446B7
:10A83000006C054B236010B103685B6898472046A5
:10A8400006F0AEFC204610BD18DE030010B504462D
:10A8500006F0A6FC204610BD10B5044606F0A0FC8C
:10A86000204610BD10B5044606F09AFC204610BDE7
:10A8700038B5282205460846002110F07CFA0B2244
:10A8800009490A4C11F063F901210022C160C2722A
:10A890000346AD68064807491D6104255A625D619B
:10A8A000DC619861196238BDECDD0300D7A30BC2EF
:10A8B000D7A30B426422A03870B52822064608466A
:10A8C000002110F058FA0B2209490A4D0A4C11F0E8
:10A8D0003EF9002201210346C272C160B0681861CE
:10A8E000064859615A62DD619C61186270BD00BF03
:10A8F00004DE03000AE81CC30AE81C4323DB793D9D
:10A9000038B5282205460846002110F034FA0B22FB
:10A910000A490B4C11F01BF901210022C160C272DF
:10A920000346A968074819610D254FF07E515A6208
:10A930005D61DC619861196238BD00BFF8DD03001C
:10A94000000020C20000AA422DE9F0418CB010277F
:10A95000002501260446D0E90E122B4606A80396D0
:10A96000CDE9016500970EF063F904231A4606A9A4
:10A970000DEB07000EF038FA0DEB070004210EF086
:10A98000BDFAD4E90E122B46CDE90256CDE9007688
:10A9900006A80EF04DF902231A4606A90DEB070092
:10A9A0000EF022FA02210DEB07000EF0A7FA4FF08D
:10A9B0001108142004F066F8D4E90E122B46039611
:10A9C000CDE9016506A8CDF800800EF031F9042329
:10A9D0001A4606A90DEB07000EF006FA0DEB07006C
:10A9E00004210EF08BFAD4E90E122B46CDF800802C
:10A9F000CDE90256019606A80EF01AF92B4604225C
:10AA000006A90DEB07000EF0EFF90C210DEB070086
:10AA10000EF074FA142004F035F80A2004F032F82D
:10AA2000384606F0ADFB03461049C4604FF4DA62C5
:10AA3000206419609A60384606F0A2FB03460C4970
:10AA4000606440F2D162DC6019609A60384606F0BA
:10AA500097FB0849C460034640F2D262A0642846CE
:10AA600019609A600CB0BDE8F08100BF4CDE0300B5
:10AA700068DE030030DE03002DE9F0434FF0200CC8
:10AA800097B0002501260E270446D0E90E122B466A
:10AA9000CDE900C70AA8CDE902560EF0C9F83A463A
:10AAA00006A90AA80EF052F99DF819309DF8180071
:10AAB00040EA032000B260810FF006FD0022754BD2
:10AAC0000FF06CFD0022744B0FF0B2FB10F028F871
:10AAD0009DF81BE09DF81AC09DF81C309DF81D9054
:10AAE00060614CEA0E2CA4F80CC09DF823E09DF8A0
:10AAF0001E209DF825C09DF81F109DF821809DF80F
:10AB000020709DF8220043EA09299DF82430A4F81A
:10AB10000E9040EA0E2042EA012143EA0C2347EA64
:10AB200008274FF0110CE26B2182A16B0396E080A5
:10AB30002381A7802B46CDF800C010A8CDE9016580
:10AB40000EF076F82B4610A9042204A80EF04CF95A
:10AB500004A80EF051F9C0B2B04277D00C2870D1E1
:10AB60009FED4E6AB4F90C30DFED4D5A06EE903A87
:10AB7000B4F90E3007EE103AB4F9103007EE903AFF
:10AB8000F8EEE66AB8EEC77AF8EEE77A66EEA56AFE
:10AB900027EE257A67EEA57A66EE866A27EE067AB4
:10ABA00067EE867A012000231025D4E90E12C4ED49
:10ABB000096A84ED0A7AC4ED0B7ACDE901030390AA
:10ABC000009510A80EF034F8022310A91A460DEBD8
:10ABD00005000EF009F90DEB05000EF00DF9C0B2FD
:10ABE000012839D0032834D0022838D19FED2D6AAE
:10ABF000B4F90430DFED2C5A06EE903AB4F9063081
:10AC000007EE103AB4F9083007EE903AF8EEE66A2B
:10AC1000B8EEC77AF8EEE77A66EEA56A27EE257AEF
:10AC200067EEA57A66EE866A27EE067A67EE867A82
:10AC3000C4ED066A84ED077AC4ED087A17B0BDE862
:10AC4000F083082814D19FED196A8BE79FED186AED
:10AC500088E79FED186ACBE79FED176AC8E79FED7D
:10AC6000176A0028F7EE007A18BFB0EE676ABFE7F0
:10AC7000042802D19FED126A74E710B99FED116AA2
:10AC800070E7DFED117A0228B7EE006A08BFB0EE78
:10AC9000676A67E70000703F0000394000008C429F
:10ACA000A968923723DBF93D13AC203C00000C422D
:10ACB00000000C4323DB793E23DBF93E23DB793DA7
:10ACC00000008C4100000C4100008C402DE9F04355
:10ACD000C468964A23689B68934297B006460D461F
:10ACE00040F005814FF0200C00274FF001084FF095
:10ACF0000E09D4E90E123B46CDE900C90AA8CDE9F8
:10AD000002780DF095FF4A4606A90AA80EF01EF833
:10AD10009DF819309DF8180040EA032000B26081C8
:10AD20000FF0D2FB0022824B0FF038FC0022814B47
:10AD30000FF07EFA0FF0F4FE9DF81B209DF81A30FC
:10AD4000606143EA0223A3819DF81D009DF81C3039
:10AD500043EA0023E3819DF81F009DF81E3043EA7B
:10AD6000002323829DF821009DF8203043EA002330
:10AD7000A3809DF823009DF8223043EA0023E3805E
:10AD80009DF825009DF824304FF0110C43EA002374
:10AD9000D4E90E12238110A8CDF800C03B46CDE9BE
:10ADA0000278CDF804800DF043FF3B4610A9042241
:10ADB00004A80EF019F804A80EF01EF8C0B2404521
:10ADC00000F08C800C2840F084809FED5B6AB4F921
:10ADD0000C30DFED5A5A06EE903AB4F90E3007EE19
:10ADE000103AB4F9103007EE903AF8EEE66AB8EE91
:10ADF000C77AF8EEE77A66EEA56A27EE257A67EE5F
:10AE0000A57A66EE866A27EE067A67EE867A0120D4
:10AE100000231027D4E90E12C4ED096A84ED0A7AE2
:10AE2000C4ED0B7ACDE901030390009710A80DF053
:10AE3000FFFE022310A91A460DEB07000DF0D4FF08
:10AE40000DEB07000DF0D8FFC0B201284CD003284D
:10AE500047D002284ED19FED3A6AB4F90430DFEDB5
:10AE6000395A06EE903AB4F9063007EE103AB4F9C2
:10AE7000083007EE903AF8EEE66AB8EEC77AF8EED8
:10AE8000E77A66EEA56A27EE257A67EEA57A66EE82
:10AE9000866A27EE067A67EE867AC4ED066A84ED46
:10AEA000077AC4ED087AF46803F0E0FD2022064634
:10AEB0000021281D0FF05FFF24232B60A38E6B6001
:10AEC0000D232E61AB6063696B61012017B0BDE893
:10AED000F083082817D19FED1C6A78E79FED1B6A65
:10AEE00075E79FED1B6AB8E79FED1A6AB5E7204644
:10AEF0009847D8E79FED186A0028F7EE007A18BF48
:10AF0000B0EE676AA9E7042802D19FED146A5EE7F4
:10AF100010B99FED136A5AE7DFED127A0228B7EEF7
:10AF2000006A08BFB0EE676A51E700BF79AA020065
:10AF30000000703F0000394000008C42A968923741
:10AF400023DBF93D13AC203C00000C4200000C4315
:10AF500023DB793E23DBF93E23DB793D00008C4186
:10AF600000000C4100008C402DE9F043C468974A72
:10AF700023689B68934297B006460D4640F00881CF
:10AF80004FF0200C00274FF001084FF00E09D4E9D4
:10AF90000E123B46CDE900C90AA8CDE902780DF0B2
:10AFA00047FE4A4606A90AA80DF0D0FE9DF81930C2
:10AFB0009DF8180040EA032000B260810FF084FA87
:10AFC0000022834B0FF0EAFA0022824B0FF030F997
:10AFD0000FF0A6FD9DF81B209DF81A30606143EA32
:10AFE0000223A3819DF81D009DF81C3043EA002335
:10AFF000E3819DF81F009DF81E3043EA0023238261
:10B000009DF821009DF8203043EA0023A3809DF89D
:10B0100023009DF8223043EA0023E3809DF82500B9
:10B020009DF824304FF0110C43EA0023D4E90E12AE
:10B03000238110A8CDF800C03B46CDE90278CDF8B9
:10B0400004800DF0F5FD3B4610A9042204A80DF084
:10B05000CBFE04A80DF0D0FEC0B2404500F08F80BA
:10B060000C2840F087809FED5C6AB4F90C30DFED6E
:10B070005B5A06EE903AB4F90E3007EE103AB4F986
:10B08000103007EE903AF8EEE66AB8EEC77AF8EEBE
:10B09000E77A66EEA56A27EE257A67EEA57A66EE70
:10B0A000866A27EE067A67EE867A0120002310274B
:10B0B000D4E90E12C4ED096A84ED0A7AC4ED0B7A64
:10B0C000CDE901030390009710A80DF0B1FD022314
:10B0D00010A91A460DEB07000DF086FE0DEB0700D8
:10B0E0000DF08AFEC0B201284FD003284AD00228B2
:10B0F00051D19FED3B6AB4F90430DFED3A5A06EEC8
:10B10000903AB4F9063007EE103AB4F9083007EE79
:10B11000903AF8EEE66AB8EEC77AF8EEE77A66EEAD
:10B12000A56A27EE257A67EEA57A66EE866A27EE8F
:10B13000067A67EE867AC4ED066A84ED077AC4ED76
:10B14000087AF46803F092FC202206460021281DAC
:10B150000FF011FE01202860638E6B6004232E61C6
:10B16000AB60636A6B61A36AAB61E36AEB6117B0C2
:10B17000BDE8F083082817D19FED1B6A75E79FEDA6
:10B180001B6A72E79FED1A6AB5E79FED1A6AB2E78C
:10B1900020469847D5E79FED186A0028F7EE007A19
:10B1A00018BFB0EE676AA6E7042802D19FED136AC4
:10B1B0005BE710B99FED126A57E7DFED127A0228BC
:10B1C000B7EE006A08BFB0EE676A4EE779AA0200E0
:10B1D0000000703F0000394000008C42A96892379F
:10B1E00023DBF93D13AC203C00000C4200000C4373
:10B1F00023DB793E23DBF93E23DB793D00008C41E4
:10B2000000000C4100008C402DE9F043C468974ACF
:10B2100023689B68934297B006460D4640F007812D
:10B220004FF0200C00274FF001084FF00E09D4E931
:10B230000E123B46CDE900C90AA8CDE902780DF00F
:10B24000F7FC4A4606A90AA80DF080FD9DF81930C2
:10B250009DF8180040EA032000B260810FF034F935
:10B260000022834B0FF09AF90022824B0EF0E0FF90
:10B270000FF056FC9DF81B209DF81A30606143EAE0
:10B280000223A3819DF81D009DF81C3043EA002392
:10B29000E3819DF81F009DF81E3043EA00232382BE
:10B2A0009DF821009DF8203043EA0023A3809DF8FB
:10B2B00023009DF8223043EA0023E3809DF8250017
:10B2C0009DF824304FF0110C43EA0023D4E90E120C
:10B2D000238110A8CDF800C03B46CDE90278CDF817
:10B2E00004800DF0A5FC3B4610A9042204A80DF033
:10B2F0007BFD04A80DF080FDC0B2404500F08E80BB
:10B300000C2840F086809FED5C6AB4F90C30DFEDCC
:10B310005B5A06EE903AB4F90E3007EE103AB4F9E3
:10B32000103007EE903AF8EEE66AB8EEC77AF8EE1B
:10B33000E77A66EEA56A27EE257A67EEA57A66EECD
:10B34000866A27EE067A67EE867A012000231027A8
:10B35000D4E90E12C4ED096A84ED0A7AC4ED0B7AC1
:10B36000CDE901030390009710A80DF061FC0223C2
:10B3700010A91A460DEB07000DF036FD0DEB070086
:10B380000DF03AFDC0B201284ED0032849D0022862
:10B3900050D19FED3B6AB4F90430DFED3A5A06EE26
:10B3A000903AB4F9063007EE103AB4F9083007EED7
:10B3B000903AF8EEE66AB8EEC77AF8EEE77A66EE0B
:10B3C000A56A27EE257A67EEA57A66EE866A27EEED
:10B3D000067A67EE867AC4ED066A84ED077AC4EDD4
:10B3E000087AF46803F042FB202206460021281D5B
:10B3F0000FF0C1FC01202860238E6B602E61A860D5
:10B40000A3696B61E369AB61236AEB6117B0BDE8C7
:10B41000F083082817D19FED1C6A76E79FED1B6A21
:10B4200073E79FED1B6AB6E79FED1A6AB3E7204604
:10B430009847D6E79FED186A0028F7EE007A18BF04
:10B44000B0EE676AA7E7042802D19FED146A5CE7B3
:10B4500010B99FED136A58E7DFED127A0228B7EEB4
:10B46000006A08BFB0EE676A4FE700BF79AA020022
:10B470000000703F0000394000008C42A9689237FC
:10B4800023DBF93D13AC203C00000C4200000C43D0
:10B4900023DB793E23DBF93E23DB793D00008C4141
:10B4A00000000C4100008C40044A02600022C0E908
:10B4B0000E22C0E910228264704700BF18DE03002C
:10B4C00030B58BB0002301240F25D0E90E12CDE951
:10B4D000014304A8039400950DF0AAFB04A80DF005
:10B4E000BBFBC0B20BB030BD2DE9F0410446806B10
:10B4F0000E461746984608B105F052FE102005F09A
:10B500003FFE314605463A460DF006FEA563284645
:10B5100001210DF00BFE08B9BDE8F081236841461A
:10B520002046DB68BDE8F041184700BF70B58CB01D
:10B53000012400251226D0E90E122B4606A80394FA
:10B54000CDE9014500960DF073FB06A92B46224676
:10B5500004A80DF049FC214604A80DF0CFFC02E040
:10B56000012003F08FFA04A80DF046FC0028F7D163
:10B570000CB070BD2DE9F047044615460E461F4637
:10B5800003F074FA236881464FF0200A20469B6836
:10B5900098474FF001085246301D00210FF0EBFB99
:10B5A000C6F80080238EC6F81090C6E90138A3695A
:10B5B0007361E369B361236AF3615246281D002178
:10B5C0000FF0D9FBC5F80080638E6B600423C5F8CB
:10B5D0001090AB60636A6B61A36AAB61E36AEB6175
:10B5E0005246381D00210FF0C6FB24233B60A38E7A
:10B5F0007B600D23C7F81090BB6063697B61404698
:10B60000BDE8F08710B5034B03600446FFF7FAF876
:10B61000204610BD84DE030010B5054B03600446D0
:10B62000FFF7F0F8204605F0BBFD204610BD00BF37
:10B6300084DE030010B50446FFF736FF014B23609C
:10B64000204610BD84DE030038B50D460446FFF7E2
:10B6500037FF692801D0002038BDABB2591C9A1CB5
:10B6600023866186A2862046FFF760FF2046FFF70B
:10B6700027FF6928EFD129462046FFF765F9012009
:10B6800038BD00BF70B50446C3F38100C3F3811613
:10B69000FF2B0D466074C3F3011103F00300A07487
:10B6A0008CBF002301238E4214BF0420032015FB0E
:10B6B00000F080B223700023E6742174A0806370D0
:10B6C00023726361012116460FF0ACFAE06020B9E5
:10B6D000C4F80200E680204670BD6580E680204602
:10B6E00070BD00BF10B50446C0680FF009FBB4F987
:10B6F0000600002802DB002106F082FB204610BD78
:10B7000010B50446B0F90600002807DB012106F059
:10B7100077FB0021B4F9060006F0B2FB0123637049
:10B7200010BD00BFC368002B00F02C812DE9F04F45
:10B7300093B047690190A84DA84EA94C804620E0DF
:10B7400063689B09BB4209D2EB68DA0127D52368FD
:10B75000DB0724D563689B09C8F81430EB68DF0168
:10B7600002D52368D80722D404F00EFCA0FB060102
:10B77000830AD8F8147043EA8153DB1BB3F5967F34
:10B780001DD2EB68D80102D52368D907D8D404F0BC
:10B79000FBFBA0FB0601830A43EA8153D2E704F0D6
:10B7A000F3FBA0FB0601830A43EA8153D4E76368F5
:10B7B000D8F814709B09DB1BB3F5967FE1D3019A8F
:10B7C000884B94880FCB12AD05E90F00DDF838A047
:10B7D000DAF8003543B9DAF86035002B04DADAF824
:10B7E0006435002BC0F2CF80DDF83CA0DAF80035DC
:10B7F00043B9DAF86035002B04DADAF86435002B47
:10B80000C0F2C881DDF840A0DAF8003543B9DAF8B3
:10B810006035002B04DADAF86435002BC0F2C581FC
:10B82000DDF844A0DAF8003543B9DAF86035002BCA
:10B8300004DADAF86435002BC0F2C28105F07CFA34
:10B84000019A694BB2F9062053F822301F2B73D8A6
:10B85000012202FA03FB4FF0A0465F49019ACB6830
:10B860005F4C1078614A43F08073CB6023680028F6
:10B8700043F0010323600CBF4FF4C3634FF43073F4
:10B88000039342F001030BBF4FF01A084FF0120868
:10B89000462729270CBF9C2547250493019BB3F815
:10B8A00004A0D3F80CE063680293BAF1000F49D00A
:10B8B0000AF1FF391FFA89F909F10109F14400225F
:10B8C0001EF801CB0820802163689B1AAB42FBD392
:10B8D0006268D6F808351CEA010F43EA0B03C6F884
:10B8E000083520D063689B1ABB42FBD3D6F80C35D1
:10B8F000013843EA0B034FEA5101C6F80C35E3D196
:10B90000CE45DDD1039B03FB0AFA63689B1AAB4269
:10B91000FBD36368029A9B1A534515D34FF49640A4
:10B92000049B9847BAE763689B1A4345DED2636875
:10B930009B1A4345F7D3D9E7203B012202FA03FBC8
:10B940002B4E8AE75246E0E705F000FA224BDB680F
:10B95000D9010AD5224B1A68D20706D55B68019A2D
:10B960009B09536113B0BDE8F08F04F00DFB1B4B36
:10B97000019AA0FB0301830A43EA8153536113B088
:10B98000BDE8F08F7047DAF86835002BBFF62CAFB2
:10B99000DAF86C35002BBFF627AF2401231D029384
:10B9A00004F070FE012800F06881029803F084F82A
:10B9B0008346BBF1000F3FF441AF019A93881178A1
:10B9C0000391002B00F06181D368049308250023C4
:10B9D000CDF834A05DE000BFF0ED00E040420F0084
:10B9E000001000E094DE0300DCDE0300B0DE0300A4
:10B9F0000003005048F2130848F2080912F0800FC3
:10BA000014BF47464F4612F0400F14BF46464E46FD
:10BA100012F0200F14BFC446CC4612F0100F2BF8C2
:10BA200011700C462BF810600899099E079F2BF89F
:10BA300011C014BFC646CE4612F0080F14BF4446CC
:10BA40004C4612F0040F2BF816E018BF40462BF8B6
:10BA5000174008BF4846059E0A9C2BF8160012F0B6
:10BA6000020F14BF414649462BF8141012F0010F83
:10BA70000B990CBF4A4642462BF81120019A01331C
:10BA800091889BB205F10802994292B240F2A380DC
:10BA90001546A91FEE1E6A1EA5F1050C89B2B6B2A5
:10BAA00092B2AC1EA4B2089105961FFA8CF10B92CB
:10BAB000AE1EDA0092B22F1F09910A94B1B26C1E29
:10BAC000BFB20C911FFA84FA11460692039C049AA5
:10BAD0000797E646E81FA5F10709A5F10608A5F1B5
